{
  "contractName": "Arena",
  "abi": [
    {
      "inputs": [],
      "stateMutability": "nonpayable",
      "type": "constructor"
    },
    {
      "anonymous": false,
      "inputs": [
        {
          "indexed": true,
          "internalType": "bytes32",
          "name": "id",
          "type": "bytes32"
        }
      ],
      "name": "ChainlinkCancelled",
      "type": "event"
    },
    {
      "anonymous": false,
      "inputs": [
        {
          "indexed": true,
          "internalType": "bytes32",
          "name": "id",
          "type": "bytes32"
        }
      ],
      "name": "ChainlinkFulfilled",
      "type": "event"
    },
    {
      "anonymous": false,
      "inputs": [
        {
          "indexed": true,
          "internalType": "bytes32",
          "name": "id",
          "type": "bytes32"
        }
      ],
      "name": "ChainlinkRequested",
      "type": "event"
    },
    {
      "inputs": [
        {
          "internalType": "uint256",
          "name": "",
          "type": "uint256"
        }
      ],
      "name": "idToMatch",
      "outputs": [
        {
          "internalType": "address",
          "name": "admin",
          "type": "address"
        },
        {
          "internalType": "uint256",
          "name": "teamA",
          "type": "uint256"
        },
        {
          "internalType": "uint256",
          "name": "teamB",
          "type": "uint256"
        },
        {
          "internalType": "uint256",
          "name": "winner",
          "type": "uint256"
        },
        {
          "internalType": "uint256",
          "name": "totalPayoutA",
          "type": "uint256"
        },
        {
          "internalType": "uint256",
          "name": "totalPayoutB",
          "type": "uint256"
        },
        {
          "internalType": "uint256",
          "name": "bookieMargin",
          "type": "uint256"
        },
        {
          "internalType": "uint256",
          "name": "totalCollection",
          "type": "uint256"
        },
        {
          "internalType": "uint256",
          "name": "bookiePayout",
          "type": "uint256"
        },
        {
          "internalType": "uint256",
          "name": "oddsA",
          "type": "uint256"
        },
        {
          "internalType": "uint256",
          "name": "oddsB",
          "type": "uint256"
        },
        {
          "internalType": "string",
          "name": "apiUrl",
          "type": "string"
        },
        {
          "internalType": "bool",
          "name": "ended",
          "type": "bool"
        }
      ],
      "stateMutability": "view",
      "type": "function",
      "constant": true
    },
    {
      "inputs": [
        {
          "internalType": "address",
          "name": "",
          "type": "address"
        }
      ],
      "name": "reputation",
      "outputs": [
        {
          "internalType": "int256",
          "name": "",
          "type": "int256"
        }
      ],
      "stateMutability": "view",
      "type": "function",
      "constant": true
    },
    {
      "inputs": [],
      "name": "uuid",
      "outputs": [
        {
          "internalType": "uint256",
          "name": "",
          "type": "uint256"
        }
      ],
      "stateMutability": "view",
      "type": "function",
      "constant": true
    },
    {
      "inputs": [
        {
          "internalType": "uint256",
          "name": "_teamA",
          "type": "uint256"
        },
        {
          "internalType": "uint256",
          "name": "_teamB",
          "type": "uint256"
        },
        {
          "internalType": "uint256",
          "name": "_oddsA",
          "type": "uint256"
        },
        {
          "internalType": "uint256",
          "name": "_oddsB",
          "type": "uint256"
        },
        {
          "internalType": "string",
          "name": "_url",
          "type": "string"
        }
      ],
      "name": "createMatch",
      "outputs": [],
      "stateMutability": "payable",
      "type": "function",
      "payable": true
    },
    {
      "inputs": [
        {
          "internalType": "uint256",
          "name": "_matchId",
          "type": "uint256"
        },
        {
          "internalType": "uint256",
          "name": "_team",
          "type": "uint256"
        }
      ],
      "name": "bet",
      "outputs": [],
      "stateMutability": "payable",
      "type": "function",
      "payable": true
    },
    {
      "inputs": [
        {
          "internalType": "uint256",
          "name": "_matchId",
          "type": "uint256"
        },
        {
          "internalType": "uint256",
          "name": "_oddsA",
          "type": "uint256"
        },
        {
          "internalType": "uint256",
          "name": "_oddsB",
          "type": "uint256"
        }
      ],
      "name": "changeOdds",
      "outputs": [],
      "stateMutability": "nonpayable",
      "type": "function"
    },
    {
      "inputs": [
        {
          "internalType": "uint256",
          "name": "_matchId",
          "type": "uint256"
        }
      ],
      "name": "addMargin",
      "outputs": [],
      "stateMutability": "payable",
      "type": "function",
      "payable": true
    },
    {
      "inputs": [
        {
          "internalType": "uint256",
          "name": "_matchId",
          "type": "uint256"
        }
      ],
      "name": "closeMatch",
      "outputs": [],
      "stateMutability": "nonpayable",
      "type": "function"
    },
    {
      "inputs": [
        {
          "internalType": "bytes32",
          "name": "_requestId",
          "type": "bytes32"
        },
        {
          "internalType": "uint256",
          "name": "_result",
          "type": "uint256"
        }
      ],
      "name": "setResult",
      "outputs": [],
      "stateMutability": "nonpayable",
      "type": "function"
    },
    {
      "inputs": [
        {
          "internalType": "uint256",
          "name": "_matchId",
          "type": "uint256"
        },
        {
          "internalType": "uint256",
          "name": "_odds",
          "type": "uint256"
        }
      ],
      "name": "retrievePayout",
      "outputs": [],
      "stateMutability": "nonpayable",
      "type": "function"
    },
    {
      "inputs": [
        {
          "internalType": "uint256",
          "name": "_matchId",
          "type": "uint256"
        }
      ],
      "name": "marginCall",
      "outputs": [],
      "stateMutability": "nonpayable",
      "type": "function"
    },
    {
      "inputs": [
        {
          "internalType": "uint256",
          "name": "_matchId",
          "type": "uint256"
        }
      ],
      "name": "retrieveBookiePayout",
      "outputs": [],
      "stateMutability": "nonpayable",
      "type": "function"
    },
    {
      "inputs": [
        {
          "internalType": "uint256",
          "name": "_matchId",
          "type": "uint256"
        }
      ],
      "name": "getOddsHistory",
      "outputs": [
        {
          "internalType": "uint256[]",
          "name": "",
          "type": "uint256[]"
        },
        {
          "internalType": "uint256[]",
          "name": "",
          "type": "uint256[]"
        }
      ],
      "stateMutability": "view",
      "type": "function",
      "constant": true
    },
    {
      "inputs": [
        {
          "internalType": "uint256",
          "name": "_matchId",
          "type": "uint256"
        },
        {
          "internalType": "uint256",
          "name": "_odds",
          "type": "uint256"
        }
      ],
      "name": "getBetA",
      "outputs": [
        {
          "internalType": "uint256",
          "name": "",
          "type": "uint256"
        }
      ],
      "stateMutability": "view",
      "type": "function",
      "constant": true
    },
    {
      "inputs": [
        {
          "internalType": "uint256",
          "name": "_matchId",
          "type": "uint256"
        },
        {
          "internalType": "uint256",
          "name": "_odds",
          "type": "uint256"
        }
      ],
      "name": "getBetB",
      "outputs": [
        {
          "internalType": "uint256",
          "name": "",
          "type": "uint256"
        }
      ],
      "stateMutability": "view",
      "type": "function",
      "constant": true
    }
  ],
  "bytecode": "0x608060405260016004553480156200001657600080fd5b506200003c73326c977e6efc84e512bb9c30f76e30c160ed06fb6200011660201b60201c565b73b33d8a4e62236ea91f3a8fd7ab15a95b9b7eec7d600660006101000a81548173ffffffffffffffffffffffffffffffffffffffff021916908373ffffffffffffffffffffffffffffffffffffffff1602179055507f353539326161366461336436343538303933336663653034303164333733663060078190555067016345785d8a00006008819055506001600b8190555033600c60006101000a81548173ffffffffffffffffffffffffffffffffffffffff021916908373ffffffffffffffffffffffffffffffffffffffff1602179055506200015a565b80600260006101000a81548173ffffffffffffffffffffffffffffffffffffffff021916908373ffffffffffffffffffffffffffffffffffffffff16021790555050565b6138f3806200016a6000396000f3fe6080604052600436106100e75760003560e01c80636ffcc7191161008a578063bb07e85d11610059578063bb07e85d14610584578063dedeaae6146105af578063ebcd5a3d146105ea578063f50ee3d514610639576100e7565b80636ffcc7191461047457806392549bf2146104ac578063a43be948146104f1578063b9f794511461051f576100e7565b80634dab2249116100c65780634dab2249146102b8578063675d2ca0146103115780636b010d26146103565780636b6a679314610439576100e7565b8062a7079b146100ec5780631f3e6d48146101275780634c8e93c214610180575b600080fd5b3480156100f857600080fd5b506101256004803603602081101561010f57600080fd5b8101908080359060200190929190505050610711565b005b34801561013357600080fd5b5061016a6004803603604081101561014a57600080fd5b81019080803590602001909291908035906020019092919050505061093e565b6040518082815260200191505060405180910390f35b34801561018c57600080fd5b506101b9600480360360208110156101a357600080fd5b81019080803590602001909291905050506109b2565b604051808e73ffffffffffffffffffffffffffffffffffffffff1673ffffffffffffffffffffffffffffffffffffffff1681526020018d81526020018c81526020018b81526020018a81526020018981526020018881526020018781526020018681526020018581526020018481526020018060200183151515158152602001828103825284818151815260200191508051906020019080838360005b83811015610271578082015181840152602081019050610256565b50505050905090810190601f16801561029e5780820380516001836020036101000a031916815260200191505b509e50505050505050505050505050505060405180910390f35b3480156102c457600080fd5b506102fb600480360360408110156102db57600080fd5b810190808035906020019092919080359060200190929190505050610add565b6040518082815260200191505060405180910390f35b34801561031d57600080fd5b506103546004803603604081101561033457600080fd5b810190808035906020019092919080359060200190929190505050610b51565b005b610437600480360360a081101561036c57600080fd5b8101908080359060200190929190803590602001909291908035906020019092919080359060200190929190803590602001906401000000008111156103b157600080fd5b8201836020820111156103c357600080fd5b803590602001918460018302840111640100000000831117156103e557600080fd5b91908080601f016020809104026020016040519081016040528093929190818152602001838380828437600081840152601f19601f8201169050808301925050505050505091929192905050506114ad565b005b34801561044557600080fd5b506104726004803603602081101561045c57600080fd5b8101908080359060200190929190505050611865565b005b6104aa6004803603604081101561048a57600080fd5b810190808035906020019092919080359060200190929190505050611b4e565b005b3480156104b857600080fd5b506104ef600480360360408110156104cf57600080fd5b810190808035906020019092919080359060200190929190505050611db6565b005b61051d6004803603602081101561050757600080fd5b81019080803590602001909291905050506120b3565b005b34801561052b57600080fd5b5061056e6004803603602081101561054257600080fd5b81019080803573ffffffffffffffffffffffffffffffffffffffff1690602001909291905050506122ba565b6040518082815260200191505060405180910390f35b34801561059057600080fd5b506105996122d2565b6040518082815260200191505060405180910390f35b3480156105bb57600080fd5b506105e8600480360360208110156105d257600080fd5b81019080803590602001909291905050506122d8565b005b3480156105f657600080fd5b506106376004803603606081101561060d57600080fd5b8101908080359060200190929190803590602001909291908035906020019092919050505061271d565b005b34801561064557600080fd5b506106726004803603602081101561065c57600080fd5b8101908080359060200190929190505050612a10565b604051808060200180602001838103835285818151815260200191508051906020019060200280838360005b838110156106b957808201518184015260208101905061069e565b50505050905001838103825284818151815260200191508051906020019060200280838360005b838110156106fb5780820151818401526020810190506106e0565b5050505090500194505050505060405180910390f35b806000600d600083815260200190815260200160002090508060000160009054906101000a900473ffffffffffffffffffffffffffffffffffffffff1673ffffffffffffffffffffffffffffffffffffffff163373ffffffffffffffffffffffffffffffffffffffff16146107ee576040517f08c379a000000000000000000000000000000000000000000000000000000000815260040180806020018281038252600e8152602001807f6e6f7420617574686f72697a656400000000000000000000000000000000000081525060200191505060405180910390fd5b6000600d6000858152602001908152602001600020905080600c0160009054906101000a900460ff161561088a576040517f08c379a00000000000000000000000000000000000000000000000000000000081526004018080602001828103825260178152602001807f6d617463682068617320616c726561647920656e64656400000000000000000081525060200191505060405180910390fd5b61093881600b018054600181600116156101000203166002900480601f0160208091040260200160405190810160405280929190818152602001828054600181600116156101000203166002900480156109255780601f106108fa57610100808354040283529160200191610925565b820191906000526020600020905b81548152906001019060200180831161090857829003601f168201915b5050505050856392549bf260e01b612ae0565b50505050565b600080600d6000858152602001908152602001600020905080600f0160003373ffffffffffffffffffffffffffffffffffffffff1673ffffffffffffffffffffffffffffffffffffffff16815260200190815260200160002060008481526020019081526020016000205491505092915050565b600d6020528060005260406000206000915090508060000160009054906101000a900473ffffffffffffffffffffffffffffffffffffffff169080600101549080600201549080600301549080600401549080600501549080600601549080600701549080600801549080600901549080600a01549080600b018054600181600116156101000203166002900480601f016020809104026020016040519081016040528092919081815260200182805460018160011615610100020316600290048015610ac05780601f10610a9557610100808354040283529160200191610ac0565b820191906000526020600020905b815481529060010190602001808311610aa357829003601f168201915b50505050509080600c0160009054906101000a900460ff1690508d565b600080600d600085815260200190815260200160002090508060100160003373ffffffffffffffffffffffffffffffffffffffff1673ffffffffffffffffffffffffffffffffffffffff16815260200190815260200160002060008481526020019081526020016000205491505092915050565b6000600d6000848152602001908152602001600020905080600c0160009054906101000a900460ff16610bec576040517f08c379a00000000000000000000000000000000000000000000000000000000081526004018080602001828103825260198152602001807f6d6174636820686173206e6f74206265656e20636c6f7365640000000000000081525060200191505060405180910390fd5b60008160030154146110d557806001015481600301541415610e6e57600081600f0160003373ffffffffffffffffffffffffffffffffffffffff1673ffffffffffffffffffffffffffffffffffffffff16815260200190815260200160002060008481526020019081526020016000205411610cd0576040517f08c379a00000000000000000000000000000000000000000000000000000000081526004018080602001828103825260178152602001807f6e6f207061796f757420666f722074686973206f64647300000000000000000081525060200191505060405180910390fd5b600060648383600f0160003373ffffffffffffffffffffffffffffffffffffffff1673ffffffffffffffffffffffffffffffffffffffff1681526020019081526020016000206000868152602001908152602001600020540281610d3057fe5b049050600082600f0160003373ffffffffffffffffffffffffffffffffffffffff1673ffffffffffffffffffffffffffffffffffffffff16815260200190815260200160002060008581526020019081526020016000208190555060003373ffffffffffffffffffffffffffffffffffffffff168260405180600001905060006040518083038185875af1925050503d8060008114610deb576040519150601f19603f3d011682016040523d82523d6000602084013e610df0565b606091505b5050905080610e67576040517f08c379a000000000000000000000000000000000000000000000000000000000815260040180806020018281038252600f8152602001807f7472616e73666572206661696c6564000000000000000000000000000000000081525060200191505060405180910390fd5b50506110d0565b60008160100160003373ffffffffffffffffffffffffffffffffffffffff1673ffffffffffffffffffffffffffffffffffffffff16815260200190815260200160002060008481526020019081526020016000205411610f36576040517f08c379a00000000000000000000000000000000000000000000000000000000081526004018080602001828103825260178152602001807f6e6f207061796f757420666f722074686973206f64647300000000000000000081525060200191505060405180910390fd5b60006064838360100160003373ffffffffffffffffffffffffffffffffffffffff1673ffffffffffffffffffffffffffffffffffffffff1681526020019081526020016000206000868152602001908152602001600020540281610f9657fe5b04905060008260100160003373ffffffffffffffffffffffffffffffffffffffff1673ffffffffffffffffffffffffffffffffffffffff16815260200190815260200160002060008581526020019081526020016000208190555060003373ffffffffffffffffffffffffffffffffffffffff168260405180600001905060006040518083038185875af1925050503d8060008114611051576040519150601f19603f3d011682016040523d82523d6000602084013e611056565b606091505b50509050806110cd576040517f08c379a000000000000000000000000000000000000000000000000000000000815260040180806020018281038252600f8152602001807f7472616e73666572206661696c6564000000000000000000000000000000000081525060200191505060405180910390fd5b50505b6114a8565b600081600f0160003373ffffffffffffffffffffffffffffffffffffffff1673ffffffffffffffffffffffffffffffffffffffff16815260200190815260200160002060008481526020019081526020016000205411156112be57600081600f0160003373ffffffffffffffffffffffffffffffffffffffff1673ffffffffffffffffffffffffffffffffffffffff1681526020019081526020016000206000848152602001908152602001600020549050600082600f0160003373ffffffffffffffffffffffffffffffffffffffff1673ffffffffffffffffffffffffffffffffffffffff16815260200190815260200160002060008581526020019081526020016000208190555060003373ffffffffffffffffffffffffffffffffffffffff168260405180600001905060006040518083038185875af1925050503d806000811461123f576040519150601f19603f3d011682016040523d82523d6000602084013e611244565b606091505b50509050806112bb576040517f08c379a000000000000000000000000000000000000000000000000000000000815260040180806020018281038252600f8152602001807f7472616e73666572206661696c6564000000000000000000000000000000000081525060200191505060405180910390fd5b50505b60008160100160003373ffffffffffffffffffffffffffffffffffffffff1673ffffffffffffffffffffffffffffffffffffffff16815260200190815260200160002060008481526020019081526020016000205411156114a75760008160100160003373ffffffffffffffffffffffffffffffffffffffff1673ffffffffffffffffffffffffffffffffffffffff168152602001908152602001600020600084815260200190815260200160002054905060008260100160003373ffffffffffffffffffffffffffffffffffffffff1673ffffffffffffffffffffffffffffffffffffffff16815260200190815260200160002060008581526020019081526020016000208190555060003373ffffffffffffffffffffffffffffffffffffffff168260405180600001905060006040518083038185875af1925050503d8060008114611428576040519150601f19603f3d011682016040523d82523d6000602084013e61142d565b606091505b50509050806114a4576040517f08c379a000000000000000000000000000000000000000000000000000000000815260040180806020018281038252600f8152602001807f7472616e73666572206661696c6564000000000000000000000000000000000081525060200191505060405180910390fd5b50505b5b505050565b82826001821015611526576040517f08c379a00000000000000000000000000000000000000000000000000000000081526004018080602001828103825260178152602001807f696e76616c6964206f64647320666f72207465616d204100000000000000000081525060200191505060405180910390fd5b600181101561159d576040517f08c379a00000000000000000000000000000000000000000000000000000000081526004018080602001828103825260178152602001807f696e76616c6964206f64647320666f72207465616d204200000000000000000081525060200191505060405180910390fd5b6115a5613651565b604051806101e001604052803373ffffffffffffffffffffffffffffffffffffffff1681526020018981526020018881526020016000815260200160008152602001600081526020013481526020016000815260200160008152602001878152602001868152602001858152602001600015158152602001600060405190808252806020026020018201604052801561164d5781602001602082028038833980820191505090505b50815260200160006040519080825280602002602001820160405280156116835781602001602082028038833980820191505090505b50815250905080600d6000600b54815260200190815260200160002060008201518160000160006101000a81548173ffffffffffffffffffffffffffffffffffffffff021916908373ffffffffffffffffffffffffffffffffffffffff1602179055506020820151816001015560408201518160020155606082015181600301556080820151816004015560a0820151816005015560c0820151816006015560e082015181600701556101008201518160080155610120820151816009015561014082015181600a015561016082015181600b01908051906020019061176a9291906136df565b5061018082015181600c0160006101000a81548160ff0219169083151502179055506101a082015181600d0190805190602001906117a992919061375f565b506101c082015181600e0190805190602001906117c792919061375f565b50905050600d6000600b548152602001908152602001600020600d01869080600181540180825580915050600190039060005260206000200160009091909190915055600d6000600b548152602001908152602001600020600e01859080600181540180825580915050600190039060005260206000200160009091909190915055600b600081548092919060010191905055505050505050505050565b806000600d600083815260200190815260200160002090508060000160009054906101000a900473ffffffffffffffffffffffffffffffffffffffff1673ffffffffffffffffffffffffffffffffffffffff163373ffffffffffffffffffffffffffffffffffffffff1614611942576040517f08c379a000000000000000000000000000000000000000000000000000000000815260040180806020018281038252600e8152602001807f6e6f7420617574686f72697a656400000000000000000000000000000000000081525060200191505060405180910390fd5b6000600d6000858152602001908152602001600020905080600c0160009054906101000a900460ff166119dd576040517f08c379a00000000000000000000000000000000000000000000000000000000081526004018080602001828103825260138152602001807f6d617463682069732079657420746f20656e640000000000000000000000000081525060200191505060405180910390fd5b6000816008015411611a57576040517f08c379a00000000000000000000000000000000000000000000000000000000081526004018080602001828103825260098152602001807f6e6f207061796f7574000000000000000000000000000000000000000000000081525060200191505060405180910390fd5b6000816008015490506000826008018190555060003373ffffffffffffffffffffffffffffffffffffffff168260405180600001905060006040518083038185875af1925050503d8060008114611aca576040519150601f19603f3d011682016040523d82523d6000602084013e611acf565b606091505b5050905080611b46576040517f08c379a00000000000000000000000000000000000000000000000000000000081526004018080602001828103825260128152602001807f7472616e73616374696f6e206661696c6564000000000000000000000000000081525060200191505060405180910390fd5b505050505050565b816000600d6000838152602001908152602001600020905080600c0160009054906101000a900460ff1615611beb576040517f08c379a00000000000000000000000000000000000000000000000000000000081526004018080602001828103825260188152602001807f6d617463682068617320616c726561647920656e6465642e000000000000000081525060200191505060405180910390fd5b60003411611c61576040517f08c379a00000000000000000000000000000000000000000000000000000000081526004018080602001828103825260128152602001807f696e76616c69642062657420616d6f756e74000000000000000000000000000081525060200191505060405180910390fd5b6000600d600086815260200190815260200160002090506000841415611d0c573481600f0160003373ffffffffffffffffffffffffffffffffffffffff1673ffffffffffffffffffffffffffffffffffffffff1681526020019081526020016000206000836009015481526020019081526020016000206000828254019250508190555060648160090154340281611cf557fe5b048160040160008282540192505081905550611d9d565b6001841415611d9c57348160100160003373ffffffffffffffffffffffffffffffffffffffff1673ffffffffffffffffffffffffffffffffffffffff168152602001908152602001600020600083600a0154815260200190815260200160002060008282540192505081905550606481600a0154340281611d8957fe5b0481600501600082825401925050819055505b5b3481600701600082825401925050819055505050505050565b816005600082815260200190815260200160002060009054906101000a900473ffffffffffffffffffffffffffffffffffffffff1673ffffffffffffffffffffffffffffffffffffffff163373ffffffffffffffffffffffffffffffffffffffff1614611e6e576040517f08c379a00000000000000000000000000000000000000000000000000000000081526004018080602001828103825260288152602001806138966028913960400191505060405180910390fd5b6005600082815260200190815260200160002060006101000a81549073ffffffffffffffffffffffffffffffffffffffff0219169055807f7cc135e0cebb02c3480ae5d74d377283180a2601f8f644edf7987b009316c63a60405160405180910390a26000600960008581526020019081526020016000205490506000600d60008381526020019081526020016000209050600181600c0160006101000a81548160ff0219169083151502179055508381600301819055508060010154841415611fd457806004015481600601548260070154011015611fb6576040517f08c379a000000000000000000000000000000000000000000000000000000000815260040180806020018281038252601a8152602001807f696e73756666696369656e74207061796f757420616d6f756e7400000000000081525060200191505060405180910390fd5b8060040154816006015482600701540103816008018190555061207f565b806002015484141561207e57806005015481600601548260070154011015612064576040517f08c379a000000000000000000000000000000000000000000000000000000000815260040180806020018281038252601a8152602001807f696e73756666696369656e74207061796f757420616d6f756e7400000000000081525060200191505060405180910390fd5b806005015481600601548260070154010381600801819055505b5b6120ac8160000160009054906101000a900473ffffffffffffffffffffffffffffffffffffffff16612c12565b5050505050565b806000600d600083815260200190815260200160002090508060000160009054906101000a900473ffffffffffffffffffffffffffffffffffffffff1673ffffffffffffffffffffffffffffffffffffffff163373ffffffffffffffffffffffffffffffffffffffff1614612190576040517f08c379a000000000000000000000000000000000000000000000000000000000815260040180806020018281038252600e8152602001807f6e6f7420617574686f72697a656400000000000000000000000000000000000081525060200191505060405180910390fd5b6000600d6000858152602001908152602001600020905080600c0160009054906101000a900460ff161561222c576040517f08c379a000000000000000000000000000000000000000000000000000000000815260040180806020018281038252600b8152602001807f6e6f7420616c6c6f77656400000000000000000000000000000000000000000081525060200191505060405180910390fd5b600034116122a2576040517f08c379a000000000000000000000000000000000000000000000000000000000815260040180806020018281038252600e8152602001807f696e76616c696420616d6f756e7400000000000000000000000000000000000081525060200191505060405180910390fd5b34816006016000828254019250508190555050505050565b600a6020528060005260406000206000915090505481565b600b5481565b600c60009054906101000a900473ffffffffffffffffffffffffffffffffffffffff1673ffffffffffffffffffffffffffffffffffffffff163373ffffffffffffffffffffffffffffffffffffffff161461239b576040517f08c379a000000000000000000000000000000000000000000000000000000000815260040180806020018281038252600e8152602001807f6e6f7420617574686f72697a656400000000000000000000000000000000000081525060200191505060405180910390fd5b6000600d6000838152602001908152602001600020905080600c0160009054906101000a900460ff1615612437576040517f08c379a000000000000000000000000000000000000000000000000000000000815260040180806020018281038252600f8152602001807f6d617463682068617320656e646564000000000000000000000000000000000081525060200191505060405180910390fd5b806004015481600601548260070154011080612460575080600501548160060154826007015401105b6124d2576040517f08c379a00000000000000000000000000000000000000000000000000000000081526004018080602001828103825260108152602001807f6d617267696e207361746973666965640000000000000000000000000000000081525060200191505060405180910390fd5b600181600c0160006101000a81548160ff02191690831515021790555060003373ffffffffffffffffffffffffffffffffffffffff16600583600601548161251657fe5b0460405180600001905060006040518083038185875af1925050503d806000811461255d576040519150601f19603f3d011682016040523d82523d6000602084013e612562565b606091505b50509050806125d9576040517f08c379a00000000000000000000000000000000000000000000000000000000081526004018080602001828103825260128152602001807f7472616e73616374696f6e206661696c6564000000000000000000000000000081525060200191505060405180910390fd5b60008260000160009054906101000a900473ffffffffffffffffffffffffffffffffffffffff1673ffffffffffffffffffffffffffffffffffffffff16600560048560060154028161262757fe5b0460405180600001905060006040518083038185875af1925050503d806000811461266e576040519150601f19603f3d011682016040523d82523d6000602084013e612673565b606091505b50509050806126ea576040517f08c379a00000000000000000000000000000000000000000000000000000000081526004018080602001828103825260128152602001807f7472616e73616374696f6e206661696c6564000000000000000000000000000081525060200191505060405180910390fd5b6127178360000160009054906101000a900473ffffffffffffffffffffffffffffffffffffffff16612c63565b50505050565b826000600d600083815260200190815260200160002090508060000160009054906101000a900473ffffffffffffffffffffffffffffffffffffffff1673ffffffffffffffffffffffffffffffffffffffff163373ffffffffffffffffffffffffffffffffffffffff16146127fa576040517f08c379a000000000000000000000000000000000000000000000000000000000815260040180806020018281038252600e8152602001807f6e6f7420617574686f72697a656400000000000000000000000000000000000081525060200191505060405180910390fd5b83836001821015612873576040517f08c379a00000000000000000000000000000000000000000000000000000000081526004018080602001828103825260178152602001807f696e76616c6964206f64647320666f72207465616d204100000000000000000081525060200191505060405180910390fd5b60018110156128ea576040517f08c379a00000000000000000000000000000000000000000000000000000000081526004018080602001828103825260178152602001807f696e76616c6964206f64647320666f72207465616d204200000000000000000081525060200191505060405180910390fd5b6000600d6000898152602001908152602001600020905080600c0160009054906101000a900460ff1615612986576040517f08c379a000000000000000000000000000000000000000000000000000000000815260040180806020018281038252600f8152602001807f6d617463682068617320656e646564000000000000000000000000000000000081525060200191505060405180910390fd5b806009015487146129c65786816009018190555080600d018790806001815401808255809150506001900390600052602060002001600090919091909150555b80600a01548614612a06578581600a018190555080600e018690806001815401808255809150506001900390600052602060002001600090919091909150555b5050505050505050565b6060806000600d6000858152602001908152602001600020905080600d0181600e0181805480602002602001604051908101604052809291908181526020018280548015612a7d57602002820191906000526020600020905b815481526020019060010190808311612a69575b5050505050915080805480602002602001604051908101604052809291908181526020018280548015612acf57602002820191906000526020600020905b815481526020019060010190808311612abb575b505050505090509250925050915091565b612ae86137ac565b612af56007543084612cb4565b9050612b416040518060400160405280600381526020017f75726c00000000000000000000000000000000000000000000000000000000008152508583612ce59092919063ffffffff16565b612bc06040518060400160405280600481526020017f70617468000000000000000000000000000000000000000000000000000000008152506040518060400160405280600981526020017f77696e6e65722e6964000000000000000000000000000000000000000000000081525083612ce59092919063ffffffff16565b6000612bf1600660009054906101000a900473ffffffffffffffffffffffffffffffffffffffff1683600854612d18565b90508360096000838152602001908152602001600020819055505050505050565b6001600a60008373ffffffffffffffffffffffffffffffffffffffff1673ffffffffffffffffffffffffffffffffffffffff1681526020019081526020016000206000828254019250508190555050565b6001600a60008373ffffffffffffffffffffffffffffffffffffffff1673ffffffffffffffffffffffffffffffffffffffff1681526020019081526020016000206000828254039250508190555050565b612cbc6137ac565b612cc46137ac565b612cdb85858584612fd0909392919063ffffffff16565b9150509392505050565b612cfc82846080015161308090919063ffffffff16565b612d1381846080015161308090919063ffffffff16565b505050565b600030600454604051602001808373ffffffffffffffffffffffffffffffffffffffff1673ffffffffffffffffffffffffffffffffffffffff1660601b815260140182815260200192505050604051602081830303815290604052805190602001209050600454836060018181525050836005600083815260200190815260200160002060006101000a81548173ffffffffffffffffffffffffffffffffffffffff021916908373ffffffffffffffffffffffffffffffffffffffff160217905550807fb5e6e01e79f91267dc17b4e6314d5d4d03593d2ceee0fbb452b750bd70ea5af960405160405180910390a2600260009054906101000a900473ffffffffffffffffffffffffffffffffffffffff1673ffffffffffffffffffffffffffffffffffffffff16634000aea08584612e50876130a5565b6040518463ffffffff1660e01b8152600401808473ffffffffffffffffffffffffffffffffffffffff1673ffffffffffffffffffffffffffffffffffffffff16815260200183815260200180602001828103825283818151815260200191508051906020019080838360005b83811015612ed7578082015181840152602081019050612ebc565b50505050905090810190601f168015612f045780820380516001836020036101000a031916815260200191505b50945050505050602060405180830381600087803b158015612f2557600080fd5b505af1158015612f39573d6000803e3d6000fd5b505050506040513d6020811015612f4f57600080fd5b8101908080519060200190929190505050612fb5576040517f08c379a00000000000000000000000000000000000000000000000000000000081526004018080602001828103825260238152602001806138736023913960400191505060405180910390fd5b60016004600082825401925050819055508090509392505050565b612fd86137ac565b612fe885608001516101006132ac565b508385600001818152505082856020019073ffffffffffffffffffffffffffffffffffffffff16908173ffffffffffffffffffffffffffffffffffffffff16815250508185604001907bffffffffffffffffffffffffffffffffffffffffffffffffffffffff191690817bffffffffffffffffffffffffffffffffffffffffffffffffffffffff191681525050849050949350505050565b61308d8260038351613300565b6130a0818361344590919063ffffffff16565b505050565b6060600360009054906101000a900473ffffffffffffffffffffffffffffffffffffffff1673ffffffffffffffffffffffffffffffffffffffff166340429946905060e01b60008084600001518560200151866040015187606001516001896080015160000151604051602401808973ffffffffffffffffffffffffffffffffffffffff1673ffffffffffffffffffffffffffffffffffffffff1681526020018881526020018781526020018673ffffffffffffffffffffffffffffffffffffffff1673ffffffffffffffffffffffffffffffffffffffff168152602001857bffffffffffffffffffffffffffffffffffffffffffffffffffffffff19167bffffffffffffffffffffffffffffffffffffffffffffffffffffffff1916815260200184815260200183815260200180602001828103825283818151815260200191508051906020019080838360005b8381101561320f5780820151818401526020810190506131f4565b50505050905090810190601f16801561323c5780820380516001836020036101000a031916815260200191505b509950505050505050505050604051602081830303815290604052907bffffffffffffffffffffffffffffffffffffffffffffffffffffffff19166020820180517bffffffffffffffffffffffffffffffffffffffffffffffffffffffff83818316178352505050509050919050565b6132b4613819565b6000602083816132c057fe5b06146132d957602082816132d057fe5b06602003820191505b81836020018181525050604051808452600081528281016020016040525082905092915050565b6017811161332d576133278160058460ff16901b60ff16178461346790919063ffffffff16565b50613440565b60ff811161336f57613352601860058460ff16901b178461346790919063ffffffff16565b50613369816001856134879092919063ffffffff16565b5061343f565b61ffff81116133b257613395601960058460ff16901b178461346790919063ffffffff16565b506133ac816002856134879092919063ffffffff16565b5061343e565b63ffffffff81116133f7576133da601a60058460ff16901b178461346790919063ffffffff16565b506133f1816004856134879092919063ffffffff16565b5061343d565b67ffffffffffffffff811161343c57613423601b60058460ff16901b178461346790919063ffffffff16565b5061343a816008856134879092919063ffffffff16565b505b5b5b5b5b505050565b61344d613819565b61345f838460000151518485516134a9565b905092915050565b61346f613819565b61347f8384600001515184613562565b905092915050565b61348f613819565b6134a08485600001515185856135b0565b90509392505050565b6134b1613819565b82518211156134bf57600080fd5b846020015182850111156134ea576134e98560026134e38860200151888701613611565b0261362d565b5b6000808651805187602083010193508088870111156135095787860182525b60208701925050505b602084106135355780518252602082019150602081019050602084039350613512565b60006001856020036101000a03905080198251168184511681811785525050879350505050949350505050565b61356a613819565b836020015183106135875761358684600286602001510261362d565b5b83518051602085830101848153818614156135a3576001820183525b5050508390509392505050565b6135b8613819565b846020015184830111156135d6576135d58560028685010261362d565b5b60006001836101000a03905085518386820101858319825116178152815185880111156136035784870182525b505085915050949350505050565b60008183111561362357829050613627565b8190505b92915050565b60608260000151905061364083836132ac565b5061364b8382613445565b50505050565b604051806101e00160405280600073ffffffffffffffffffffffffffffffffffffffff168152602001600081526020016000815260200160008152602001600081526020016000815260200160008152602001600081526020016000815260200160008152602001600081526020016060815260200160001515815260200160608152602001606081525090565b828054600181600116156101000203166002900490600052602060002090601f016020900481019282601f1061372057805160ff191683800117855561374e565b8280016001018555821561374e579182015b8281111561374d578251825591602001919060010190613732565b5b50905061375b9190613833565b5090565b82805482825590600052602060002090810192821561379b579160200282015b8281111561379a57825182559160200191906001019061377f565b5b5090506137a89190613833565b5090565b6040518060a0016040528060008019168152602001600073ffffffffffffffffffffffffffffffffffffffff16815260200160007bffffffffffffffffffffffffffffffffffffffffffffffffffffffff1916815260200160008152602001613813613858565b81525090565b604051806040016040528060608152602001600081525090565b61385591905b80821115613851576000816000905550600101613839565b5090565b90565b60405180604001604052806060815260200160008152509056fe756e61626c6520746f207472616e73666572416e6443616c6c20746f206f7261636c65536f75726365206d75737420626520746865206f7261636c65206f66207468652072657175657374a2646970667358221220345629746180c7e28899aa9eafb0edd4c959f90e7ab6a5bec9d8aad344b53bc264736f6c63430006000033",
  "source": "pragma solidity ^0.6.0;\r\n\r\nimport \"./Reputation.sol\";\r\nimport \"./Finalizer.sol\";\r\n\r\n/**\r\n* @title Arena contract handles the main logic for decimal odds betting \r\n*/\r\ncontract Arena is Finalizer, Reputation{\r\n\r\n  uint256 public uuid;\r\n\r\n  address owner;\r\n\r\n  struct Match {\r\n    address admin;\r\n\r\n    uint256 teamA;\r\n    uint256 teamB;\r\n    uint256 winner;\r\n    uint256 totalPayoutA;\r\n    uint256 totalPayoutB;\r\n    uint256 bookieMargin;\r\n    uint256 totalCollection;\r\n    uint256 bookiePayout;\r\n\r\n    uint256 oddsA; //Granularity - 100\r\n    uint256 oddsB; \r\n\r\n    string apiUrl; //API url to retrieve the winner of the match \r\n\r\n    bool ended;\r\n\r\n    uint256[] oddsHistoryA;\r\n    uint256[] oddsHistoryB;\r\n\r\n    mapping(address => mapping(uint256 => uint256)) betA; \r\n    mapping(address => mapping(uint256 => uint256)) betB;\r\n  }\r\n\r\n  mapping(uint256 => Match) public idToMatch;\r\n\r\n  constructor() public Finalizer() {\r\n      uuid = 1;\r\n      owner = msg.sender;\r\n  }\r\n\r\n  /**\r\n  * @notice createMatch enables the setting up of a new betting book for a match.\r\n  * @param _teamA id of first team\r\n  * @param _teamB id of second team\r\n  * @param _oddsA initial odds for team A\r\n  * @param _oddsB initial odds for team B\r\n  * @param _url result url\r\n  */\r\n  function createMatch(\r\n    uint256 _teamA,\r\n    uint256 _teamB,\r\n    uint256 _oddsA,\r\n    uint256 _oddsB,\r\n    string memory _url\r\n  ) public payable validOdds(_oddsA, _oddsB) {\r\n\r\n    Match memory newMatch = Match(\r\n      msg.sender,\r\n      _teamA,\r\n      _teamB,\r\n      0,\r\n      0,\r\n      0,\r\n      msg.value,\r\n      0,\r\n      0,\r\n      _oddsA,\r\n      _oddsB,\r\n      _url,\r\n      false,\r\n      new uint256[](0),\r\n      new uint256[](0)\r\n    );\r\n\r\n    idToMatch[uuid] = newMatch;\r\n    idToMatch[uuid].oddsHistoryA.push(_oddsA);\r\n    idToMatch[uuid].oddsHistoryB.push(_oddsB);\r\n    uuid++;\r\n  }\r\n\r\n  /**\r\n   * @notice allows placing of bets\r\n   * @param _matchId the id of the match\r\n   * @param _team The team being selected\r\n   */\r\n  function bet(uint256 _matchId, uint256 _team) public payable validBet(_matchId) {\r\n    Match storage _match = idToMatch[_matchId];\r\n    \r\n    if(_team == 0) {\r\n      _match.betA[msg.sender][_match.oddsA] += msg.value;\r\n      _match.totalPayoutA += (msg.value * _match.oddsA) / 100;\r\n    } else if(_team == 1) {\r\n      _match.betB[msg.sender][_match.oddsB] += msg.value;\r\n      _match.totalPayoutB += (msg.value * _match.oddsB) / 100;\r\n    }\r\n\r\n    _match.totalCollection += msg.value;\r\n  }\r\n\r\n  /**\r\n   * @notice allows the admin to change the odds\r\n   */\r\n  function changeOdds(uint256 _matchId, uint256 _oddsA, uint256 _oddsB) \r\n    public onlyAdmin(_matchId) validOdds(_oddsA, _oddsB){\r\n      Match storage _match = idToMatch[_matchId];\r\n      require(!_match.ended, \"match has ended\");\r\n      if(_oddsA != _match.oddsA) {\r\n        _match.oddsA = _oddsA;\r\n        _match.oddsHistoryA.push(_oddsA);\r\n      }\r\n      if(_oddsB != _match.oddsB) {\r\n        _match.oddsB = _oddsB;\r\n        _match.oddsHistoryB.push(_oddsB);\r\n      }\r\n  }\r\n\r\n  /**\r\n   * @notice allows the admin to add to the margin of a bet\r\n   */\r\n  function addMargin(uint256 _matchId) public payable onlyAdmin(_matchId) {\r\n    Match storage _match = idToMatch[_matchId];\r\n    require(!_match.ended, \"not allowed\");\r\n    require(msg.value > 0, \"invalid amount\");\r\n    _match.bookieMargin += msg.value;\r\n  }\r\n\r\n  /**\r\n   * @notice allows the admin to close a match that is over\r\n   */\r\n  function closeMatch(uint256 _matchId) public onlyAdmin(_matchId) {\r\n    Match storage _match = idToMatch[_matchId];\r\n    require(!_match.ended, \"match has already ended\");\r\n    requestResult(_match.apiUrl, _matchId, this.setResult.selector);\r\n  } \r\n\r\n  /**\r\n   * @notice called by the oracle to set the result\r\n   */\r\n  function setResult(bytes32 _requestId, uint256 _result) public recordChainlinkFulfillment(_requestId){\r\n    uint256 _id = requestIdToMatch[_requestId];\r\n    Match storage _match = idToMatch[_id];\r\n    _match.ended = true;\r\n    _match.winner = _result;\r\n    if(_result == _match.teamA){\r\n      require((_match.totalCollection + _match.bookieMargin) >= _match.totalPayoutA, \r\n        \"insufficient payout amount\");\r\n      _match.bookiePayout = (_match.totalCollection + _match.bookieMargin) - _match.totalPayoutA;\r\n    } else if(_result == _match.teamB) {\r\n      require((_match.totalCollection + _match.bookieMargin) >= _match.totalPayoutB, \r\n        \"insufficient payout amount\");\r\n      _match.bookiePayout = (_match.totalCollection + _match.bookieMargin) - _match.totalPayoutB;\r\n    }\r\n\r\n    increaseRep(_match.admin);\r\n  }\r\n\r\n  /**\r\n  * @notice allows the bettor to retrieve payout if they have won.\r\n  */\r\n  function retrievePayout(uint256 _matchId, uint256 _odds) public {\r\n    Match storage _match = idToMatch[_matchId];\r\n    require(_match.ended, \"match has not been closed\");\r\n    if(_match.winner != 0) {\r\n      if(_match.winner == _match.teamA) {\r\n        require(_match.betA[msg.sender][_odds] > 0, \"no payout for this odds\");\r\n        uint256 _amt = (_match.betA[msg.sender][_odds] * _odds) / 100;\r\n        _match.betA[msg.sender][_odds] = 0;\r\n        (bool success, ) = msg.sender.call.value(_amt)(\"\");\r\n        require(success, \"transfer failed\");\r\n      } else {\r\n        require(_match.betB[msg.sender][_odds] > 0, \"no payout for this odds\");\r\n        uint256 _amt = (_match.betB[msg.sender][_odds] * _odds) / 100;\r\n        _match.betB[msg.sender][_odds] = 0;\r\n        (bool success, ) = msg.sender.call.value(_amt)(\"\");\r\n        require(success, \"transfer failed\");\r\n      }\r\n    } else {\r\n      if(_match.betA[msg.sender][_odds] > 0) {\r\n        uint256 _amt = _match.betA[msg.sender][_odds];\r\n        _match.betA[msg.sender][_odds] = 0;\r\n        (bool success, ) = msg.sender.call.value(_amt)(\"\");\r\n        require(success, \"transfer failed\");\r\n      } \r\n      if(_match.betB[msg.sender][_odds] > 0) {\r\n        uint256 _amt = _match.betB[msg.sender][_odds];\r\n        _match.betB[msg.sender][_odds] = 0;\r\n        (bool success, ) = msg.sender.call.value(_amt)(\"\");\r\n        require(success, \"transfer failed\");\r\n      }\r\n    } \r\n  } \r\n\r\n  /**\r\n  * @notice allows the owner of the dapp to margin call a bookie\r\n  */\r\n  function marginCall(uint256 _matchId) public {\r\n    require(msg.sender == owner, \"not authorized\");\r\n    Match storage _match = idToMatch[_matchId];\r\n    require(!_match.ended, \"match has ended\");\r\n    require((_match.totalCollection + _match.bookieMargin) < _match.totalPayoutA ||\r\n      (_match.totalCollection + _match.bookieMargin) < _match.totalPayoutB, \r\n      \"margin satisfied\");\r\n    _match.ended = true;\r\n    (bool success1, ) = msg.sender.call.value(_match.bookieMargin / 5)(\"\");\r\n    require(success1, \"transaction failed\");\r\n    (bool success2, ) = _match.admin.call.value((_match.bookieMargin * 4) / 5)(\"\");\r\n    require(success2, \"transaction failed\");\r\n\r\n    decreaseRep(_match.admin);\r\n  }\r\n\r\n  /**\r\n  * @notice allows the admin of a match to retrieve the payout\r\n  */\r\n  function retrieveBookiePayout(uint256 _matchId) onlyAdmin(_matchId) public {\r\n    Match storage _match = idToMatch[_matchId];\r\n    require(_match.ended, \"match is yet to end\");\r\n    require(_match.bookiePayout > 0, \"no payout\");\r\n    uint256 _amt = _match.bookiePayout;\r\n    _match.bookiePayout = 0;\r\n    (bool success, ) = msg.sender.call.value(_amt)(\"\"); \r\n    require(success, \"transaction failed\");\r\n  }\r\n\r\n  /**\r\n  * @notice utility to help get the odds history \r\n  */\r\n  function getOddsHistory(uint256 _matchId) public view returns(uint256[] memory, uint256[] memory) {\r\n    Match storage _match = idToMatch[_matchId];\r\n    return(_match.oddsHistoryA, _match.oddsHistoryB);\r\n  }\r\n\r\n  /**\r\n  * @notice utility to get the bet for a specific odds\r\n  */\r\n  function getBetA(uint256 _matchId, uint256 _odds) public view returns(uint256) {\r\n    Match storage _match = idToMatch[_matchId];\r\n    return _match.betA[msg.sender][_odds];\r\n  }\r\n\r\n  /**\r\n  * @notice utility to get the bet for a specific odds\r\n  */\r\n  function getBetB(uint256 _matchId, uint256 _odds) public view returns(uint256) {\r\n    Match storage _match = idToMatch[_matchId];\r\n    return _match.betB[msg.sender][_odds];\r\n  }  \r\n\r\n  modifier onlyAdmin(uint256 _id) {\r\n    Match storage _match  = idToMatch[_id];\r\n    require(msg.sender == _match.admin, \"not authorized\");\r\n    _;\r\n  } \r\n\r\n  modifier validBet(uint256 _id) {\r\n    Match storage _match = idToMatch[_id];\r\n    require(!_match.ended, \"match has already ended.\");\r\n    require(msg.value > 0, \"invalid bet amount\");\r\n    _;\r\n  }\r\n\r\n  modifier validOdds(uint256 _oddsA, uint256 _oddsB) {\r\n    require(_oddsA >= 1, \"invalid odds for team A\");\r\n    require(_oddsB >= 1, \"invalid odds for team B\");\r\n    _;\r\n  }\r\n}",
  "sourcePath": "C:/Users/AnshuJalan/Documents/Ethereum/Etherpunk/chain-arena/contracts/Arena.sol",
  "compiler": {
    "name": "solc",
    "version": "0.6.0+commit.26b70077.Emscripten.clang"
  },
  "schemaVersion": "3.3.1",
  "updatedAt": "2021-02-27T09:22:48.712Z",
  "networkType": "ethereum",
  "devdoc": {
    "methods": {
      "bet(uint256,uint256)": {
        "params": {
          "_matchId": "the id of the match",
          "_team": "The team being selected"
        }
      },
      "createMatch(uint256,uint256,uint256,uint256,string)": {
        "params": {
          "_oddsA": "initial odds for team A",
          "_oddsB": "initial odds for team B",
          "_teamA": "id of first team",
          "_teamB": "id of second team",
          "_url": "result url"
        }
      }
    },
    "title": "Arena contract handles the main logic for decimal odds betting "
  },
  "userdoc": {
    "methods": {
      "addMargin(uint256)": {
        "notice": "allows the admin to add to the margin of a bet"
      },
      "bet(uint256,uint256)": {
        "notice": "allows placing of bets"
      },
      "changeOdds(uint256,uint256,uint256)": {
        "notice": "allows the admin to change the odds"
      },
      "closeMatch(uint256)": {
        "notice": "allows the admin to close a match that is over"
      },
      "createMatch(uint256,uint256,uint256,uint256,string)": {
        "notice": "createMatch enables the setting up of a new betting book for a match."
      },
      "getBetA(uint256,uint256)": {
        "notice": "utility to get the bet for a specific odds"
      },
      "getBetB(uint256,uint256)": {
        "notice": "utility to get the bet for a specific odds"
      },
      "getOddsHistory(uint256)": {
        "notice": "utility to help get the odds history "
      },
      "marginCall(uint256)": {
        "notice": "allows the owner of the dapp to margin call a bookie"
      },
      "retrieveBookiePayout(uint256)": {
        "notice": "allows the admin of a match to retrieve the payout"
      },
      "retrievePayout(uint256,uint256)": {
        "notice": "allows the bettor to retrieve payout if they have won."
      },
      "setResult(bytes32,uint256)": {
        "notice": "called by the oracle to set the result"
      }
    }
  }
}