{
  "contractName": "BEP20",
  "abi": [
    {
      "inputs": [
        {
          "internalType": "address",
          "name": "",
          "type": "address"
        }
      ],
      "name": "balanceOf",
      "outputs": [
        {
          "internalType": "uint256",
          "name": "",
          "type": "uint256"
        }
      ],
      "stateMutability": "view",
      "type": "function"
    },
    {
      "inputs": [
        {
          "internalType": "address",
          "name": "spender",
          "type": "address"
        },
        {
          "internalType": "uint256",
          "name": "amount",
          "type": "uint256"
        }
      ],
      "name": "approve",
      "outputs": [
        {
          "internalType": "bool",
          "name": "",
          "type": "bool"
        }
      ],
      "stateMutability": "nonpayable",
      "type": "function"
    },
    {
      "inputs": [],
      "name": "deposit",
      "outputs": [],
      "stateMutability": "payable",
      "type": "function"
    },
    {
      "inputs": [
        {
          "internalType": "address",
          "name": "dst",
          "type": "address"
        },
        {
          "internalType": "uint256",
          "name": "amount",
          "type": "uint256"
        }
      ],
      "name": "transfer",
      "outputs": [
        {
          "internalType": "bool",
          "name": "",
          "type": "bool"
        }
      ],
      "stateMutability": "nonpayable",
      "type": "function"
    }
  ],
  "bytecode": "0x608060405234801561001057600080fd5b506102be806100206000396000f3fe60806040526004361061003f5760003560e01c8063095ea7b31461004457806370a0823114610081578063a9059cbb146100be578063d0e30db0146100fb575b600080fd5b34801561005057600080fd5b5061006b60048036038101906100669190610182565b610105565b60405161007891906101dc565b60405180910390f35b34801561008d57600080fd5b506100a860048036038101906100a39190610159565b61010d565b6040516100b591906101f7565b60405180910390f35b3480156100ca57600080fd5b506100e560048036038101906100e09190610182565b610125565b6040516100f291906101dc565b60405180910390f35b61010361012d565b005b600092915050565b60006020528060005260406000206000915090505481565b600092915050565b565b60008135905061013e8161025a565b92915050565b60008135905061015381610271565b92915050565b60006020828403121561016b57600080fd5b60006101798482850161012f565b91505092915050565b6000806040838503121561019557600080fd5b60006101a38582860161012f565b92505060206101b485828601610144565b9150509250929050565b6101c781610224565b82525050565b6101d681610250565b82525050565b60006020820190506101f160008301846101be565b92915050565b600060208201905061020c60008301846101cd565b92915050565b600061021d82610230565b9050919050565b60008115159050919050565b600073ffffffffffffffffffffffffffffffffffffffff82169050919050565b6000819050919050565b61026381610212565b811461026e57600080fd5b50565b61027a81610250565b811461028557600080fd5b5056fea2646970667358221220543f911cfe052dbac30a21992d3765615eeebb1abe4754f76812efc4170e49f864736f6c63430007060033",
  "immutableReferences": {},
  "source": "pragma solidity ^0.7.0;\npragma experimental ABIEncoderV2;\n\ncontract BEP20 {\n\n    mapping (address => uint) public  balanceOf;\n    /**\n    * @dev Sets `amount` as the allowance of `spender` over the caller's tokens.\n    *\n    * Returns a boolean value indicating whether the operation succeeded.\n    *\n    * IMPORTANT: Beware that changing an allowance with this method brings the risk\n    * that someone may use both the old and the new allowance by unfortunate\n    * transaction ordering. One possible solution to mitigate this race\n    * condition is to first reduce the spender's allowance to 0 and set the\n    * desired value afterwards:\n    * https://github.com/ethereum/EIPs/issues/20#issuecomment-263524729\n    *\n    * Emits an {Approval} event.\n    */\n    function approve(address spender, uint256 amount) public returns (bool) {}\n\n    // funds goes as `msg.value`\n    function deposit() public payable {}\n\n    function transfer(address dst, uint amount) public returns (bool) {}\n}",
  "sourcePath": "/Users/ajibigad/crytoproject/SmartBet/contracts/BEP20.sol",
  "compiler": {
    "name": "solc",
    "version": "0.7.6+commit.7338295f.Emscripten.clang"
  },
  "schemaVersion": "3.3.4",
  "updatedAt": "2021-04-13T08:20:22.129Z",
  "devdoc": {
    "kind": "dev",
    "methods": {
      "approve(address,uint256)": {
        "details": "Sets `amount` as the allowance of `spender` over the caller's tokens. Returns a boolean value indicating whether the operation succeeded. IMPORTANT: Beware that changing an allowance with this method brings the risk that someone may use both the old and the new allowance by unfortunate transaction ordering. One possible solution to mitigate this race condition is to first reduce the spender's allowance to 0 and set the desired value afterwards: https://github.com/ethereum/EIPs/issues/20#issuecomment-263524729 Emits an {Approval} event."
      }
    },
    "version": 1
  },
  "userdoc": {
    "kind": "user",
    "methods": {},
    "version": 1
  }
}