{
  "contractName": "Bep20",
  "abi": [
    {
      "inputs": [
        {
          "internalType": "address",
          "name": "spender",
          "type": "address"
        },
        {
          "internalType": "uint256",
          "name": "amount",
          "type": "uint256"
        }
      ],
      "name": "approve",
      "outputs": [
        {
          "internalType": "bool",
          "name": "",
          "type": "bool"
        }
      ],
      "stateMutability": "nonpayable",
      "type": "function"
    }
  ],
  "bytecode": "0x608060405234801561001057600080fd5b506101a4806100206000396000f3fe608060405234801561001057600080fd5b506004361061002b5760003560e01c8063095ea7b314610030575b600080fd5b61004a60048036038101906100459190610092565b610060565b60405161005791906100dd565b60405180910390f35b600092915050565b60008135905061007781610140565b92915050565b60008135905061008c81610157565b92915050565b600080604083850312156100a557600080fd5b60006100b385828601610068565b92505060206100c48582860161007d565b9150509250929050565b6100d78161010a565b82525050565b60006020820190506100f260008301846100ce565b92915050565b600061010382610116565b9050919050565b60008115159050919050565b600073ffffffffffffffffffffffffffffffffffffffff82169050919050565b6000819050919050565b610149816100f8565b811461015457600080fd5b50565b61016081610136565b811461016b57600080fd5b5056fea2646970667358221220c75e3925d39f8f0bf559af533896a5a5572833823f48963bbf1377baae52008764736f6c63430007060033",
  "immutableReferences": {},
  "source": "pragma solidity ^0.7.0;\npragma experimental ABIEncoderV2;\n\n\n//TODO: move to VToken.sol\ncontract VToken {\n    // No implementation, just the function signature. This is just so Solidity can work out how to call it.\n    \n    /*\n    * @notice   The mint function transfers an asset into the protocol, which begins accumulating interest\n    * based on the current Supply Rate for The user receives a quantity of vTokens equal to the\n    * underlying tokens tokens supplied, divided by the current Exchange Rate.\n    * msg.sender: The account which shall supply the asset, and own the minted vTokens.\n    * @param    mintAmount The amount of the asset to be supplied, in units of the underlying asset.\n    * @return   status 0 on success, otherwise an Error code\n    */\n    function mint(uint mintAmount) public returns (uint) {}\n    \n    /*\n    * @notice   The redeem underlying function converts vTokens into a specified quantity of the underlying asset, \n    * and returns them to the user. The amount of vTokens redeemed is equal to the quantity of underlying tokens received, \n    * divided by the current Exchange Rate. The amount redeemed must be less than the user's Account Liquidity \n    * and the market's available liquidity.\n    * msg.sender: The account to which redeemed funds shall be transferred.\n    * @param    redeemAmount The amount of underlying to be redeemed.\n    * @return   status 0 on success, otherwise an Error code\n    */\n    function redeemUnderlying(uint redeemAmount) public returns (uint) {}\n    \n    /*\n    * @notice   The user's underlying balance, representing their assets in the protocol,\n    * is equal to the user's vToken balance multiplied by the Exchange Rate.\n    * @param    account The account to get the underlying balance of.\n    * @return   The amount of underlying currently owned by the account.\n    */\n    function balanceOfUnderlying(address account) public returns (uint) {}\n    \n    \n    // function exchangeRateCurrent() returns (uint) {}\n    //exchangeRate = (getCash() + totalBorrows() - totalReserves()) / totalSupply()\n}\n\n//TODO: move to Bep20.sol\ncontract Bep20 {\n    /**\n   * @dev Sets `amount` as the allowance of `spender` over the caller's tokens.\n   *\n   * Returns a boolean value indicating whether the operation succeeded.\n   *\n   * IMPORTANT: Beware that changing an allowance with this method brings the risk\n   * that someone may use both the old and the new allowance by unfortunate\n   * transaction ordering. One possible solution to mitigate this race\n   * condition is to first reduce the spender's allowance to 0 and set the\n   * desired value afterwards:\n   * https://github.com/ethereum/EIPs/issues/20#issuecomment-263524729\n   *\n   * Emits an {Approval} event.\n   */\n  function approve(address spender, uint256 amount) public returns (bool) {}\n}\n\n/*\n* @notice Integrates with Venus lending protocol\n*/\ncontract SmartInvestV1 {\n    \n    uint256 public totalTreasury;\n    address public constant vTOKEN_ADDRESS = 0x08e0A5575De71037aE36AbfAfb516595fE68e5e4; // BSC testnet Venus vTokens (vBUSD)\n    address public constant BASE_BEP20 = 0x8301F2213c0eeD49a7E28Ae4c3e91722919B8B47; //underlying asset: BUSD\n    \n    function invest(uint256 amount) public {\n        \n        Bep20 underlying = Bep20(BASE_BEP20);     // get a handle for the underlying asset\n        VToken vToken = VToken(vTOKEN_ADDRESS);   // get a handle for the corresponding vToken Contract\n        underlying.approve(address(vToken), amount); // approve the transfer\n        assert(vToken.mint(amount) == 0);            // mint the vTokens and assert there is no error\n    }\n    \n    function redeem(uint256 amount) public {\n        VToken vToken = VToken(vTOKEN_ADDRESS);\n        require(vToken.redeemUnderlying(amount) == 0, \"something went wrong\");\n    }\n    \n    function getBalance() public {\n        VToken vToken = VToken(vTOKEN_ADDRESS);\n        uint tokens = vToken.balanceOfUnderlying(msg.sender);\n    }\n    \n    // function exchangeRateCurrent() public {\n    //     VBep20 vToken = VToken(vTOKEN_ADDRESS);\n    //     uint exchangeRateMantissa = vToken.exchangeRateCurrent();\n    // }\n    \n}\n\n\n// const vTokenDecimals = 8; // all vTokens have 8 decimal places\n// const underlying = new web3.eth.Contract(bep20Abi, busdAddress);\n// const vToken = new web3.eth.Contract(vTokenAbi, vBusdAddress);\n// const underlyingDecimals = await underlying.methods.decimals().call();\n// const exchangeRateCurrent = await vToken.methods.exchangeRateCurrent().call();\n// const mantissa = 18 + parseInt(underlyingDecimals) - vTokenDecimals;\n// const onevTokenInUnderlying = exchangeRateCurrent / Math.pow(10, mantissa);\n// console.log('1 vBUSD can be redeemed for', oneVTokenInUnderlying, 'BUSD');",
  "sourcePath": "/Users/ajibigad/crytoproject/SmartBet/contracts/SmartInvestV1.sol",
  "compiler": {
    "name": "solc",
    "version": "0.7.6+commit.7338295f.Emscripten.clang"
  },
  "schemaVersion": "3.3.4",
  "updatedAt": "2021-04-10T14:35:58.128Z",
  "devdoc": {
    "kind": "dev",
    "methods": {
      "approve(address,uint256)": {
        "details": "Sets `amount` as the allowance of `spender` over the caller's tokens. Returns a boolean value indicating whether the operation succeeded. IMPORTANT: Beware that changing an allowance with this method brings the risk that someone may use both the old and the new allowance by unfortunate transaction ordering. One possible solution to mitigate this race condition is to first reduce the spender's allowance to 0 and set the desired value afterwards: https://github.com/ethereum/EIPs/issues/20#issuecomment-263524729 Emits an {Approval} event."
      }
    },
    "version": 1
  },
  "userdoc": {
    "kind": "user",
    "methods": {},
    "version": 1
  }
}