{
  "contractName": "HelperPancakeSwap_ROUTER",
  "abi": [
    {
      "inputs": [
        {
          "internalType": "uint256",
          "name": "amountIn",
          "type": "uint256"
        },
        {
          "internalType": "uint256",
          "name": "amountOutMin",
          "type": "uint256"
        },
        {
          "internalType": "address[]",
          "name": "path",
          "type": "address[]"
        },
        {
          "internalType": "address",
          "name": "to",
          "type": "address"
        },
        {
          "internalType": "uint256",
          "name": "deadline",
          "type": "uint256"
        }
      ],
      "name": "swapExactTokensForTokens",
      "outputs": [
        {
          "internalType": "uint256[]",
          "name": "amounts",
          "type": "uint256[]"
        }
      ],
      "stateMutability": "nonpayable",
      "type": "function"
    },
    {
      "inputs": [
        {
          "internalType": "uint256",
          "name": "amountIn",
          "type": "uint256"
        },
        {
          "internalType": "uint256",
          "name": "amountOutMin",
          "type": "uint256"
        },
        {
          "internalType": "address[]",
          "name": "path",
          "type": "address[]"
        },
        {
          "internalType": "address",
          "name": "to",
          "type": "address"
        },
        {
          "internalType": "uint256",
          "name": "deadline",
          "type": "uint256"
        }
      ],
      "name": "swapExactTokensForTokensSupportingFeeOnTransferTokens",
      "outputs": [],
      "stateMutability": "nonpayable",
      "type": "function"
    }
  ],
  "bytecode": "0x608060405234801561001057600080fd5b50610321806100206000396000f3fe608060405234801561001057600080fd5b50600436106100365760003560e01c806338ed17391461003b5780635c11d7951461006b575b600080fd5b6100556004803603810190610050919061010f565b610087565b6040516100629190610226565b60405180910390f35b6100856004803603810190610080919061010f565b610093565b005b60609695505050505050565b505050505050565b6000813590506100aa816102bd565b92915050565b60008083601f8401126100c257600080fd5b8235905067ffffffffffffffff8111156100db57600080fd5b6020830191508360208202830111156100f357600080fd5b9250929050565b600081359050610109816102d4565b92915050565b60008060008060008060a0878903121561012857600080fd5b600061013689828a016100fa565b965050602061014789828a016100fa565b955050604087013567ffffffffffffffff81111561016457600080fd5b61017089828a016100b0565b9450945050606061018389828a0161009b565b925050608061019489828a016100fa565b9150509295509295509295565b60006101ad8383610217565b60208301905092915050565b60006101c482610258565b6101ce8185610270565b93506101d983610248565b8060005b8381101561020a5781516101f188826101a1565b97506101fc83610263565b9250506001810190506101dd565b5085935050505092915050565b610220816102b3565b82525050565b6000602082019050818103600083015261024081846101b9565b905092915050565b6000819050602082019050919050565b600081519050919050565b6000602082019050919050565b600082825260208201905092915050565b600061028c82610293565b9050919050565b600073ffffffffffffffffffffffffffffffffffffffff82169050919050565b6000819050919050565b6102c681610281565b81146102d157600080fd5b50565b6102dd816102b3565b81146102e857600080fd5b5056fea264697066735822122014a955d4f1c010d25f8ee15c22660c71862e1dabaad8374a980320f2800e94ee64736f6c63430007060033",
  "immutableReferences": {},
  "source": "pragma solidity ^0.7.0;\r\npragma experimental ABIEncoderV2;\r\n\r\nimport \"./Bep20.sol\";\r\n\r\n//TODO: move to HelperPancakeSwap_ROUTER.sol\r\ncontract HelperPancakeSwap_ROUTER {\r\n    // No implementation, just the function signature. This is just so Solidity can work out how to call it.\r\n    \r\n    /*\r\n    * @notice   Swaps an exact amount of input tokens for as many output tokens as possible, \r\n    *           along the route determined by the path. The first element of path is the input token, \r\n    *           the last is the output token, and any intermediate elements represent intermediate pairs\r\n    *           to trade through (if, for example, a direct pair does not exist).\r\n    *           ``msg.sender`` should have already given the router an allowance of at least amountIn on the input token.\r\n    * @param    amountIn    The amount of input tokens to send.\r\n    * @param    amountOutMin    The minimum amount of output tokens that must be received for the transaction not to revert.\r\n    * @param    path    An array of token addresses. ``path.length`` must be >= 2. Pools for each consecutive pair of addresses must exist and have liquidity.\r\n    * @param    to      Recipient of the output tokens.\r\n    * @param    deadline    \tUnix timestamp after which the transaction will revert.\r\n    * @return    amounts    \tThe input token amount and all subsequent output token amounts.\r\n    */\r\n    function swapExactTokensForTokens(\r\n        uint amountIn,\r\n        uint amountOutMin,\r\n        address[] calldata path,\r\n        address to,\r\n        uint deadline\r\n    ) external returns (uint[] memory amounts) {}\r\n    \r\n\r\n    /*\r\n    * @notice   Same as \r\n    *           Succeeds for tokens that take a fee on transfer.* and the market's available liquidity.\r\n    *           ``msg.sender`` should have already given the router an allowance of at least amountIn on the input token.\r\n    * @param    redeemAmount The amount of underlying to be redeemed.\r\n    * @return   status 0 on success, otherwise an Error code\r\n    */\r\n    function swapExactTokensForTokensSupportingFeeOnTransferTokens(\r\n        uint amountIn,\r\n        uint amountOutMin,\r\n        address[] calldata path,\r\n        address to,\r\n        uint deadline\r\n    ) external {}\r\n    \r\n}\r\n\r\n\r\n/*\r\n* @notice Integrates with Pancakeswap DEX\r\n*/\r\ncontract SmartExchange {\r\n    \r\n    address public constant wBNB = 0xae13d989daC2f0dEbFf460aC112a837C89BAa7cd; //underlying asset: BUSD\r\n    address public constant BUSD = 0x8301F2213c0eeD49a7E28Ae4c3e91722919B8B47; //underlying asset: BUSD\r\n    address public constant pROUTER = 0xD99D1c33F9fC3444f8101754aBC46c52416550D1; // Pancakeswap Router (BSC Testnet)\r\n    //address public constant pFACTORY = 0x6725F303b657a9451d8BA641348b6761A6CC7a17; // Pancakeswap factory (BSC Testnet)\r\n    \r\n   function swap(uint256 amount, address to) public returns (uint[] memory) {\r\n        \r\n        HelperPancakeSwap_ROUTER router = HelperPancakeSwap_ROUTER(pROUTER);     // get a handle for the exchange router\r\n        Bep20 busdContract = Bep20(BUSD);     // get a handle for the BUSD asset\r\n        Bep20 wbnbContract = Bep20(wBNB);     // get a handle for the wBNB asset\r\n        \r\n        wbnbContract.deposit{value: amount}(); // deposit native BNB\r\n        \r\n        wbnbContract.approve(address(router), 0); // security: reset allowance\r\n        wbnbContract.approve(address(router), amount); // allow pancakeswap router to access wBNB\r\n\r\n        uint256 amountIn = amount;\r\n        uint256 amountOutMin = 0;\r\n        address[] memory path = new address[](2);\r\n        path[0] = address(wbnbContract);\r\n        path[1] = address(busdContract);\r\n        address to = to;\r\n        uint deadline = block.timestamp + 10 minutes; // addition 10 mins\r\n\r\n        uint[] memory amountOut = router.swapExactTokensForTokens(amountIn, amountOutMin, path, to, deadline);\r\n        \r\n        // assert(amountOut > 0, \"swapping failed with returning 0\");\r\n\r\n        return amountOut;\r\n    }      \r\n}",
  "sourcePath": "C:/Users/USER/Desktop/BLOCKCHAIN/SmartBet/contracts/SmartExchange.sol",
  "compiler": {
    "name": "solc",
    "version": "0.7.6+commit.7338295f.Emscripten.clang"
  },
  "schemaVersion": "3.3.4",
  "updatedAt": "2021-04-11T12:56:10.557Z",
  "devdoc": {
    "kind": "dev",
    "methods": {},
    "version": 1
  },
  "userdoc": {
    "kind": "user",
    "methods": {},
    "version": 1
  }
}