{
  "contractName": "HelperPancakeSwapROUTER",
  "abi": [
    {
      "inputs": [
        {
          "internalType": "uint256",
          "name": "amountIn",
          "type": "uint256"
        },
        {
          "internalType": "uint256",
          "name": "amountOutMin",
          "type": "uint256"
        },
        {
          "internalType": "address[]",
          "name": "path",
          "type": "address[]"
        },
        {
          "internalType": "address",
          "name": "to",
          "type": "address"
        },
        {
          "internalType": "uint256",
          "name": "deadline",
          "type": "uint256"
        }
      ],
      "name": "swapExactTokensForTokens",
      "outputs": [
        {
          "internalType": "uint256[]",
          "name": "amounts",
          "type": "uint256[]"
        }
      ],
      "stateMutability": "nonpayable",
      "type": "function"
    },
    {
      "inputs": [
        {
          "internalType": "uint256",
          "name": "amountIn",
          "type": "uint256"
        },
        {
          "internalType": "uint256",
          "name": "amountOutMin",
          "type": "uint256"
        },
        {
          "internalType": "address[]",
          "name": "path",
          "type": "address[]"
        },
        {
          "internalType": "address",
          "name": "to",
          "type": "address"
        },
        {
          "internalType": "uint256",
          "name": "deadline",
          "type": "uint256"
        }
      ],
      "name": "swapExactTokensForTokensSupportingFeeOnTransferTokens",
      "outputs": [],
      "stateMutability": "nonpayable",
      "type": "function"
    }
  ],
  "bytecode": "0x608060405234801561001057600080fd5b506101ed806100206000396000f3fe608060405234801561001057600080fd5b50600436106100365760003560e01c806338ed17391461003b5780635c11d79514610116575b600080fd5b6100c6600480360360a081101561005157600080fd5b81359160208101359181019060608101604082013564010000000081111561007857600080fd5b82018360208201111561008a57600080fd5b803590602001918460208302840111640100000000831117156100ac57600080fd5b91935091506001600160a01b0381351690602001356101a3565b60408051602080825283518183015283519192839290830191858101910280838360005b838110156101025781810151838201526020016100ea565b505050509050019250505060405180910390f35b6101a1600480360360a081101561012c57600080fd5b81359160208101359181019060608101604082013564010000000081111561015357600080fd5b82018360208201111561016557600080fd5b8035906020019184602083028401116401000000008311171561018757600080fd5b91935091506001600160a01b0381351690602001356101af565b005b60609695505050505050565b50505050505056fea26469706673582212203b6f4b394f61caa8c5d00e04069b6660e2f792f27536d5c09caed2d1f25dfcc464736f6c63430007060033",
  "immutableReferences": {},
  "source": "pragma solidity ^0.7.0;\n\ncontract HelperPancakeSwapROUTER {\n    // No implementation, just the function signature. This is just so Solidity can work out how to call it.\n    \n    /*\n    * @notice   Swaps an exact amount of input tokens for as many output tokens as possible, \n    *           along the route determined by the path. The first element of path is the input token, \n    *           the last is the output token, and any intermediate elements represent intermediate pairs\n    *           to trade through (if, for example, a direct pair does not exist).\n    *           ``msg.sender`` should have already given the router an allowance of at least amountIn on the input token.\n    * @param    amountIn    The amount of input tokens to send.\n    * @param    amountOutMin    The minimum amount of output tokens that must be received for the transaction not to revert.\n    * @param    path    An array of token addresses. ``path.length`` must be >= 2. Pools for each consecutive pair of addresses must exist and have liquidity.\n    * @param    to      Recipient of the output tokens.\n    * @param    deadline    \tUnix timestamp after which the transaction will revert.\n    * @return    amounts    \tThe input token amount and all subsequent output token amounts.\n    */\n    function swapExactTokensForTokens(\n        uint amountIn,\n        uint amountOutMin,\n        address[] calldata path,\n        address to,\n        uint deadline\n    ) external returns (uint[] memory amounts) {}\n    \n\n    /*\n    * @notice   Same as \n    *           Succeeds for tokens that take a fee on transfer.* and the market's available liquidity.\n    *           ``msg.sender`` should have already given the router an allowance of at least amountIn on the input token.\n    * @param    redeemAmount The amount of underlying to be redeemed.\n    * @return   status 0 on success, otherwise an Error code\n    */\n    function swapExactTokensForTokensSupportingFeeOnTransferTokens(\n        uint amountIn,\n        uint amountOutMin,\n        address[] calldata path,\n        address to,\n        uint deadline\n    ) external {}\n    \n}",
  "sourcePath": "/Users/ajibigad/crytoproject/SmartBet/contracts/HelperPancakeSwapROUTER.sol",
  "compiler": {
    "name": "solc",
    "version": "0.7.6+commit.7338295f.Emscripten.clang"
  },
  "schemaVersion": "3.3.4",
  "updatedAt": "2021-04-17T17:27:58.210Z",
  "devdoc": {
    "kind": "dev",
    "methods": {},
    "version": 1
  },
  "userdoc": {
    "kind": "user",
    "methods": {},
    "version": 1
  }
}