{
  "contractName": "PriceConsumerV3",
  "abi": [
    {
      "inputs": [],
      "stateMutability": "nonpayable",
      "type": "constructor"
    },
    {
      "inputs": [],
      "name": "getLatestPrice",
      "outputs": [
        {
          "internalType": "int256",
          "name": "",
          "type": "int256"
        }
      ],
      "stateMutability": "view",
      "type": "function"
    }
  ],
  "bytecode": "0x608060405234801561001057600080fd5b50730630521ac362bc7a19a4ee44b57ce72ea34ad01c6000806101000a81548173ffffffffffffffffffffffffffffffffffffffff021916908373ffffffffffffffffffffffffffffffffffffffff16021790555061016b806100746000396000f3fe608060405234801561001057600080fd5b506004361061002b5760003560e01c80638e15f47314610030575b600080fd5b61003861004e565b6040518082815260200191505060405180910390f35b60008060008060008060008054906101000a900473ffffffffffffffffffffffffffffffffffffffff1673ffffffffffffffffffffffffffffffffffffffff1663feaf968c6040518163ffffffff1660e01b815260040160a06040518083038186803b1580156100bd57600080fd5b505afa1580156100d1573d6000803e3d6000fd5b505050506040513d60a08110156100e757600080fd5b8101908080519060200190929190805190602001909291908051906020019092919080519060200190929190805190602001909291905050509450945094509450945083955050505050509056fea2646970667358221220ce38919ea5e0ade08f6390216219baa51b00d8a3efcea661b64f9c8358e680ec64736f6c63430007060033",
  "immutableReferences": {},
  "source": "pragma solidity ^0.7.0;\r\n\r\nimport \"@chainlink/contracts/src/v0.7/interfaces/AggregatorV3Interface.sol\";\r\n\r\ncontract PriceConsumerV3 {\r\n\r\n    AggregatorV3Interface internal priceFeed;\r\n\r\n    /**\r\n     * Network: BSC Testnet\r\n     * Aggregator: BNB/DAI\r\n     * Address: 0x0630521aC362bc7A19a4eE44b57cE72Ea34AD01c\r\n     */\r\n    constructor() public {\r\n        priceFeed = AggregatorV3Interface(0x0630521aC362bc7A19a4eE44b57cE72Ea34AD01c);\r\n    }\r\n\r\n    /**\r\n     * Returns the latest price\r\n     */\r\n    function getLatestPrice() public view returns (int) {\r\n        (\r\n            uint80 roundID, \r\n            int price,\r\n            uint startedAt,\r\n            uint timeStamp,\r\n            uint80 answeredInRound\r\n        ) = priceFeed.latestRoundData();\r\n        return price;\r\n    }\r\n}",
  "sourcePath": "C:/Users/USER/Desktop/BLOCKCHAIN/SmartBet/contracts/PriceConsumerV3.sol",
  "compiler": {
    "name": "solc",
    "version": "0.7.6+commit.7338295f.Emscripten.clang"
  },
  "schemaVersion": "3.3.4",
  "updatedAt": "2021-04-09T16:41:29.442Z",
  "devdoc": {
    "kind": "dev",
    "methods": {},
    "version": 1
  },
  "userdoc": {
    "kind": "user",
    "methods": {
      "constructor": {
        "notice": "Network: BSC Testnet Aggregator: BNB/DAI Address: 0x0630521aC362bc7A19a4eE44b57cE72Ea34AD01c"
      },
      "getLatestPrice()": {
        "notice": "Returns the latest price"
      }
    },
    "version": 1
  }
}