{
  "contractName": "PriceConsumerV3",
  "abi": [
    {
      "inputs": [],
      "stateMutability": "nonpayable",
      "type": "constructor"
    },
    {
      "inputs": [],
      "name": "getLatestPrice",
      "outputs": [
        {
          "internalType": "int256",
          "name": "",
          "type": "int256"
        }
      ],
      "stateMutability": "view",
      "type": "function"
    },
    {
      "inputs": [],
      "name": "getLatestBUSD_USDPrice",
      "outputs": [
        {
          "internalType": "int256",
          "name": "",
          "type": "int256"
        }
      ],
      "stateMutability": "view",
      "type": "function"
    }
  ],
  "bytecode": "0x608060405234801561001057600080fd5b50732514895c72f50d8bd4b4f9b1110f0d6bd2c975266000806101000a81548173ffffffffffffffffffffffffffffffffffffffff021916908373ffffffffffffffffffffffffffffffffffffffff160217905550739331b55d9830ef609a2abcfac0fbce050a52fdea600160006101000a81548173ffffffffffffffffffffffffffffffffffffffff021916908373ffffffffffffffffffffffffffffffffffffffff1602179055506102ab806100c96000396000f3fe608060405234801561001057600080fd5b50600436106100365760003560e01c80635de8877b1461003b5780638e15f47314610059575b600080fd5b610043610077565b6040518082815260200191505060405180910390f35b610061610171565b6040518082815260200191505060405180910390f35b600080600080600080600160009054906101000a900473ffffffffffffffffffffffffffffffffffffffff1673ffffffffffffffffffffffffffffffffffffffff1663feaf968c6040518163ffffffff1660e01b815260040160a06040518083038186803b1580156100e857600080fd5b505afa1580156100fc573d6000803e3d6000fd5b505050506040513d60a081101561011257600080fd5b8101908080519060200190929190805190602001909291908051906020019092919080519060200190929190805190602001909291905050509450945094509450945083670de0b6b3a76400008161016657fe5b059550505050505090565b60008060008060008060008054906101000a900473ffffffffffffffffffffffffffffffffffffffff1673ffffffffffffffffffffffffffffffffffffffff1663feaf968c6040518163ffffffff1660e01b815260040160a06040518083038186803b1580156101e057600080fd5b505afa1580156101f4573d6000803e3d6000fd5b505050506040513d60a081101561020a57600080fd5b81019080805190602001909291908051906020019092919080519060200190929190805190602001909291908051906020019092919050505094509450945094509450600064e8d4a5100061025d610077565b86028161026657fe5b0590508096505050505050509056fea26469706673582212209232cffbc2dc6752959d32afa058dbd84d900fc53763e5e7c60ea92e7072bb0c64736f6c63430007060033",
  "immutableReferences": {},
  "source": "pragma solidity ^0.7.0;\r\n\r\nimport \"@chainlink/contracts/src/v0.7/interfaces/AggregatorV3Interface.sol\";\r\n//import \"https://github.com/smartcontractkit/chainlink/blob/develop/evm-contracts/src/v0.7/interfaces/AggregatorV3Interface.sol\";\r\n\r\ncontract PriceConsumerV3 {\r\n\r\n    AggregatorV3Interface internal BNB_USD_Feed;\r\n    AggregatorV3Interface internal BUSD_USD_Feed;\r\n\r\n    /**\r\n     * Network: BSC Testnet\r\n     * Aggregator: BNB/USD\r\n     * Address: 0x2514895c72f50D8bd4B4F9b1110F0D6bD2c97526\r\n     *\r\n     * Aggregator: BUSD/USD\r\n     * Address: 0x9331b55D9830EF609A2aBCfAc0FBCE050A52fdEa\r\n     */\r\n    constructor() public {\r\n        BNB_USD_Feed = AggregatorV3Interface(0x2514895c72f50D8bd4B4F9b1110F0D6bD2c97526);\r\n        BUSD_USD_Feed = AggregatorV3Interface(0x9331b55D9830EF609A2aBCfAc0FBCE050A52fdEa);\r\n    }\r\n\r\n    /**\r\n     * Returns the latest price BNB vs BUSD\r\n     */\r\n    function getLatestPrice() public view returns (int) {\r\n        (\r\n            uint80 roundID, \r\n            int price,\r\n            uint startedAt,\r\n            uint timeStamp,\r\n            uint80 answeredInRound\r\n        ) = BNB_USD_Feed.latestRoundData();\r\n\r\n        int busd = (price * getLatestBUSD_USDPrice()) / 10**12; // per 1 BNB (6 decimals)\r\n        return busd;\r\n    }\r\n\r\n    function getLatestBUSD_USDPrice() public view returns (int) {\r\n        (\r\n            uint80 roundID, \r\n            int price,\r\n            uint startedAt,\r\n            uint timeStamp,\r\n            uint80 answeredInRound\r\n        ) = BUSD_USD_Feed.latestRoundData();\r\n\r\n        return (1 * 10**18) / price; // BUSD per 1 USD \r\n    }\r\n}",
  "sourcePath": "C:/Users/USER/Desktop/BLOCKCHAIN/SmartBet/contracts/PriceConsumerV3.sol",
  "compiler": {
    "name": "solc",
    "version": "0.7.6+commit.7338295f.Emscripten.clang"
  },
  "schemaVersion": "3.3.4",
  "updatedAt": "2021-04-11T19:32:08.246Z",
  "devdoc": {
    "kind": "dev",
    "methods": {},
    "version": 1
  },
  "userdoc": {
    "kind": "user",
    "methods": {
      "constructor": {
        "notice": "Network: BSC Testnet Aggregator: BNB/USD Address: 0x2514895c72f50D8bd4B4F9b1110F0D6bD2c97526 Aggregator: BUSD/USD Address: 0x9331b55D9830EF609A2aBCfAc0FBCE050A52fdEa"
      },
      "getLatestPrice()": {
        "notice": "Returns the latest price BNB vs BUSD"
      }
    },
    "version": 1
  }
}