{
  "contractName": "PriceConsumerV3",
  "abi": [
    {
      "inputs": [],
      "stateMutability": "nonpayable",
      "type": "constructor"
    },
    {
      "inputs": [],
      "name": "getLatestPrice",
      "outputs": [
        {
          "internalType": "int256",
          "name": "",
          "type": "int256"
        }
      ],
      "stateMutability": "view",
      "type": "function"
    },
    {
      "inputs": [],
      "name": "getLatestBUSD_USDPrice",
      "outputs": [
        {
          "internalType": "int256",
          "name": "",
          "type": "int256"
        }
      ],
      "stateMutability": "view",
      "type": "function"
    }
  ],
  "bytecode": "0x608060405234801561001057600080fd5b50732514895c72f50d8bd4b4f9b1110f0d6bd2c975266000806101000a81548173ffffffffffffffffffffffffffffffffffffffff021916908373ffffffffffffffffffffffffffffffffffffffff160217905550739331b55d9830ef609a2abcfac0fbce050a52fdea600160006101000a81548173ffffffffffffffffffffffffffffffffffffffff021916908373ffffffffffffffffffffffffffffffffffffffff1602179055506102ab806100c96000396000f3fe608060405234801561001057600080fd5b50600436106100365760003560e01c80635de8877b1461003b5780638e15f47314610059575b600080fd5b610043610077565b6040518082815260200191505060405180910390f35b610061610171565b6040518082815260200191505060405180910390f35b600080600080600080600160009054906101000a900473ffffffffffffffffffffffffffffffffffffffff1673ffffffffffffffffffffffffffffffffffffffff1663feaf968c6040518163ffffffff1660e01b815260040160a06040518083038186803b1580156100e857600080fd5b505afa1580156100fc573d6000803e3d6000fd5b505050506040513d60a081101561011257600080fd5b8101908080519060200190929190805190602001909291908051906020019092919080519060200190929190805190602001909291905050509450945094509450945083670de0b6b3a76400008161016657fe5b059550505050505090565b60008060008060008060008054906101000a900473ffffffffffffffffffffffffffffffffffffffff1673ffffffffffffffffffffffffffffffffffffffff1663feaf968c6040518163ffffffff1660e01b815260040160a06040518083038186803b1580156101e057600080fd5b505afa1580156101f4573d6000803e3d6000fd5b505050506040513d60a081101561020a57600080fd5b81019080805190602001909291908051906020019092919080519060200190929190805190602001909291908051906020019092919050505094509450945094509450600064e8d4a5100061025d610077565b86028161026657fe5b0590508096505050505050509056fea2646970667358221220d77fb3f993fd949d24154bcf8b5b9532c67e011c3e7a773c344ce16933036e7f64736f6c63430007060033",
  "immutableReferences": {},
  "source": "pragma solidity ^0.7.0;\n\nimport \"@chainlink/contracts/src/v0.7/interfaces/AggregatorV3Interface.sol\";\n// import \"https://github.com/smartcontractkit/chainlink/blob/develop/evm-contracts/src/v0.7/interfaces/AggregatorV3Interface.sol\";\n\ncontract PriceConsumerV3 {\n\n    AggregatorV3Interface internal BNB_USD_Feed;\n    AggregatorV3Interface internal BUSD_USD_Feed;\n\n    /**\n     * Network: BSC Testnet\n     * Aggregator: BNB/USD\n     * Address: 0x2514895c72f50D8bd4B4F9b1110F0D6bD2c97526\n     *\n     * Aggregator: BUSD/USD\n     * Address: 0x9331b55D9830EF609A2aBCfAc0FBCE050A52fdEa\n     */\n    constructor() public {\n        BNB_USD_Feed = AggregatorV3Interface(0x2514895c72f50D8bd4B4F9b1110F0D6bD2c97526);\n        BUSD_USD_Feed = AggregatorV3Interface(0x9331b55D9830EF609A2aBCfAc0FBCE050A52fdEa);\n    }\n\n    /**\n     * Returns the latest price BNB vs BUSD\n     */\n    function getLatestPrice() public view returns (int) {\n        (\n            uint80 roundID, \n            int price,\n            uint startedAt,\n            uint timeStamp,\n            uint80 answeredInRound\n        ) = BNB_USD_Feed.latestRoundData();\n\n        int busd = (price * getLatestBUSD_USDPrice()) / 10**12; // per 1 BNB (6 decimals)\n        return busd;\n    }\n\n    function getLatestBUSD_USDPrice() public view returns (int) {\n        (\n            uint80 roundID, \n            int price,\n            uint startedAt,\n            uint timeStamp,\n            uint80 answeredInRound\n        ) = BUSD_USD_Feed.latestRoundData();\n\n        return (1 * 10**18) / price; // BUSD per 1 USD \n    }\n}",
  "sourcePath": "/Users/ajibigad/crytoproject/SmartBet/contracts/PriceConsumerV3.sol",
  "compiler": {
    "name": "solc",
    "version": "0.7.6+commit.7338295f.Emscripten.clang"
  },
  "schemaVersion": "3.3.4",
  "updatedAt": "2021-04-13T08:20:22.135Z",
  "devdoc": {
    "kind": "dev",
    "methods": {},
    "version": 1
  },
  "userdoc": {
    "kind": "user",
    "methods": {
      "constructor": {
        "notice": "Network: BSC Testnet Aggregator: BNB/USD Address: 0x2514895c72f50D8bd4B4F9b1110F0D6bD2c97526 Aggregator: BUSD/USD Address: 0x9331b55D9830EF609A2aBCfAc0FBCE050A52fdEa"
      },
      "getLatestPrice()": {
        "notice": "Returns the latest price BNB vs BUSD"
      }
    },
    "version": 1
  }
}