{
  "contractName": "Reputation",
  "abi": [
    {
      "inputs": [
        {
          "internalType": "address",
          "name": "",
          "type": "address"
        }
      ],
      "name": "reputation",
      "outputs": [
        {
          "internalType": "int256",
          "name": "",
          "type": "int256"
        }
      ],
      "stateMutability": "view",
      "type": "function"
    }
  ],
  "bytecode": "0x608060405234801561001057600080fd5b5060d08061001f6000396000f3fe6080604052348015600f57600080fd5b506004361060285760003560e01c8063b9f7945114602d575b600080fd5b606c60048036036020811015604157600080fd5b81019080803573ffffffffffffffffffffffffffffffffffffffff1690602001909291905050506082565b6040518082815260200191505060405180910390f35b6000602052806000526040600020600091509050548156fea2646970667358221220b155057d0b107a6d98e23d625befe984f43b3e088a165a59ffe2471acf08605364736f6c63430006000033",
  "source": "pragma solidity ^0.6.0;\r\n\r\n/**\r\n * @title Reputation handles the reputation of bookies\r\n */\r\ncontract Reputation {\r\n  mapping(address => int256) public reputation;\r\n\r\n  function increaseRep(address _address) internal {\r\n    reputation[_address] += 1;\r\n  }\r\n\r\n  function decreaseRep(address _address) internal {\r\n    reputation[_address] -= 1;\r\n  }\r\n}",
  "sourcePath": "C:\\Users\\AnshuJalan\\Documents\\Ethereum\\Etherpunk\\chain-arena\\contracts\\Reputation.sol",
  "compiler": {
    "name": "solc",
    "version": "0.6.0+commit.26b70077.Emscripten.clang"
  },
  "schemaVersion": "3.3.1",
  "updatedAt": "2021-02-27T09:21:58.087Z",
  "devdoc": {
    "methods": {},
    "title": "Reputation handles the reputation of bookies"
  },
  "userdoc": {
    "methods": {}
  }
}