{
  "contractName": "SmartBet",
  "abi": [
    {
      "inputs": [],
      "stateMutability": "nonpayable",
      "type": "constructor"
    },
    {
      "anonymous": false,
      "inputs": [
        {
          "indexed": true,
          "internalType": "address",
          "name": "owner",
          "type": "address"
        },
        {
          "indexed": true,
          "internalType": "address",
          "name": "approved",
          "type": "address"
        },
        {
          "indexed": true,
          "internalType": "uint256",
          "name": "tokenId",
          "type": "uint256"
        }
      ],
      "name": "Approval",
      "type": "event"
    },
    {
      "anonymous": false,
      "inputs": [
        {
          "indexed": true,
          "internalType": "address",
          "name": "owner",
          "type": "address"
        },
        {
          "indexed": true,
          "internalType": "address",
          "name": "operator",
          "type": "address"
        },
        {
          "indexed": false,
          "internalType": "bool",
          "name": "approved",
          "type": "bool"
        }
      ],
      "name": "ApprovalForAll",
      "type": "event"
    },
    {
      "anonymous": false,
      "inputs": [
        {
          "indexed": true,
          "internalType": "address",
          "name": "by",
          "type": "address"
        },
        {
          "indexed": true,
          "internalType": "uint256",
          "name": "matchId",
          "type": "uint256"
        },
        {
          "indexed": false,
          "internalType": "uint256",
          "name": "amount",
          "type": "uint256"
        },
        {
          "indexed": false,
          "internalType": "uint256",
          "name": "liquidatedAt",
          "type": "uint256"
        }
      ],
      "name": "AssetLiquidatedEvent",
      "type": "event"
    },
    {
      "anonymous": false,
      "inputs": [
        {
          "indexed": true,
          "internalType": "address",
          "name": "bettor",
          "type": "address"
        },
        {
          "indexed": true,
          "internalType": "uint256",
          "name": "matchId",
          "type": "uint256"
        },
        {
          "indexed": false,
          "internalType": "uint256",
          "name": "amount",
          "type": "uint256"
        },
        {
          "indexed": true,
          "internalType": "uint256",
          "name": "betPlacedAt",
          "type": "uint256"
        }
      ],
      "name": "BetPlacedEvent",
      "type": "event"
    },
    {
      "anonymous": false,
      "inputs": [
        {
          "indexed": true,
          "internalType": "address",
          "name": "by",
          "type": "address"
        },
        {
          "indexed": true,
          "internalType": "uint256",
          "name": "matchId",
          "type": "uint256"
        },
        {
          "indexed": false,
          "internalType": "uint256",
          "name": "closedAt",
          "type": "uint256"
        }
      ],
      "name": "MatchClosedEvent",
      "type": "event"
    },
    {
      "anonymous": false,
      "inputs": [
        {
          "indexed": true,
          "internalType": "address",
          "name": "creator",
          "type": "address"
        },
        {
          "indexed": false,
          "internalType": "uint256",
          "name": "matchId",
          "type": "uint256"
        },
        {
          "indexed": true,
          "internalType": "uint256",
          "name": "startAt",
          "type": "uint256"
        },
        {
          "indexed": true,
          "internalType": "uint256",
          "name": "createdOn",
          "type": "uint256"
        }
      ],
      "name": "MatchCreatedEvent",
      "type": "event"
    },
    {
      "anonymous": false,
      "inputs": [
        {
          "indexed": true,
          "internalType": "uint256",
          "name": "matchId",
          "type": "uint256"
        },
        {
          "indexed": false,
          "internalType": "enum SmartBet.MatchResult",
          "name": "result",
          "type": "uint8"
        },
        {
          "indexed": false,
          "internalType": "uint256",
          "name": "setAt",
          "type": "uint256"
        }
      ],
      "name": "MatchResultSetEvent",
      "type": "event"
    },
    {
      "anonymous": false,
      "inputs": [
        {
          "indexed": true,
          "internalType": "address",
          "name": "awardee",
          "type": "address"
        },
        {
          "indexed": false,
          "internalType": "uint256",
          "name": "smartAssetId",
          "type": "uint256"
        },
        {
          "indexed": false,
          "internalType": "uint256",
          "name": "awardedAt",
          "type": "uint256"
        }
      ],
      "name": "SmartAssetAwardedEvent",
      "type": "event"
    },
    {
      "anonymous": false,
      "inputs": [
        {
          "indexed": true,
          "internalType": "address",
          "name": "from",
          "type": "address"
        },
        {
          "indexed": true,
          "internalType": "address",
          "name": "to",
          "type": "address"
        },
        {
          "indexed": true,
          "internalType": "uint256",
          "name": "tokenId",
          "type": "uint256"
        }
      ],
      "name": "Transfer",
      "type": "event"
    },
    {
      "inputs": [],
      "name": "BUSD",
      "outputs": [
        {
          "internalType": "address",
          "name": "",
          "type": "address"
        }
      ],
      "stateMutability": "view",
      "type": "function"
    },
    {
      "inputs": [
        {
          "internalType": "address",
          "name": "to",
          "type": "address"
        },
        {
          "internalType": "uint256",
          "name": "tokenId",
          "type": "uint256"
        }
      ],
      "name": "approve",
      "outputs": [],
      "stateMutability": "nonpayable",
      "type": "function"
    },
    {
      "inputs": [
        {
          "internalType": "address",
          "name": "owner",
          "type": "address"
        }
      ],
      "name": "balanceOf",
      "outputs": [
        {
          "internalType": "uint256",
          "name": "",
          "type": "uint256"
        }
      ],
      "stateMutability": "view",
      "type": "function"
    },
    {
      "inputs": [],
      "name": "baseURI",
      "outputs": [
        {
          "internalType": "string",
          "name": "",
          "type": "string"
        }
      ],
      "stateMutability": "view",
      "type": "function"
    },
    {
      "inputs": [
        {
          "internalType": "uint256",
          "name": "tokenId",
          "type": "uint256"
        }
      ],
      "name": "getApproved",
      "outputs": [
        {
          "internalType": "address",
          "name": "",
          "type": "address"
        }
      ],
      "stateMutability": "view",
      "type": "function"
    },
    {
      "inputs": [
        {
          "internalType": "address",
          "name": "owner",
          "type": "address"
        },
        {
          "internalType": "address",
          "name": "operator",
          "type": "address"
        }
      ],
      "name": "isApprovedForAll",
      "outputs": [
        {
          "internalType": "bool",
          "name": "",
          "type": "bool"
        }
      ],
      "stateMutability": "view",
      "type": "function"
    },
    {
      "inputs": [],
      "name": "name",
      "outputs": [
        {
          "internalType": "string",
          "name": "",
          "type": "string"
        }
      ],
      "stateMutability": "view",
      "type": "function"
    },
    {
      "inputs": [
        {
          "internalType": "uint256",
          "name": "tokenId",
          "type": "uint256"
        }
      ],
      "name": "ownerOf",
      "outputs": [
        {
          "internalType": "address",
          "name": "",
          "type": "address"
        }
      ],
      "stateMutability": "view",
      "type": "function"
    },
    {
      "inputs": [],
      "name": "pROUTER",
      "outputs": [
        {
          "internalType": "address",
          "name": "",
          "type": "address"
        }
      ],
      "stateMutability": "view",
      "type": "function"
    },
    {
      "inputs": [
        {
          "internalType": "address",
          "name": "from",
          "type": "address"
        },
        {
          "internalType": "address",
          "name": "to",
          "type": "address"
        },
        {
          "internalType": "uint256",
          "name": "tokenId",
          "type": "uint256"
        }
      ],
      "name": "safeTransferFrom",
      "outputs": [],
      "stateMutability": "nonpayable",
      "type": "function"
    },
    {
      "inputs": [
        {
          "internalType": "address",
          "name": "from",
          "type": "address"
        },
        {
          "internalType": "address",
          "name": "to",
          "type": "address"
        },
        {
          "internalType": "uint256",
          "name": "tokenId",
          "type": "uint256"
        },
        {
          "internalType": "bytes",
          "name": "_data",
          "type": "bytes"
        }
      ],
      "name": "safeTransferFrom",
      "outputs": [],
      "stateMutability": "nonpayable",
      "type": "function"
    },
    {
      "inputs": [
        {
          "internalType": "address",
          "name": "operator",
          "type": "address"
        },
        {
          "internalType": "bool",
          "name": "approved",
          "type": "bool"
        }
      ],
      "name": "setApprovalForAll",
      "outputs": [],
      "stateMutability": "nonpayable",
      "type": "function"
    },
    {
      "inputs": [
        {
          "internalType": "bytes4",
          "name": "interfaceId",
          "type": "bytes4"
        }
      ],
      "name": "supportsInterface",
      "outputs": [
        {
          "internalType": "bool",
          "name": "",
          "type": "bool"
        }
      ],
      "stateMutability": "view",
      "type": "function"
    },
    {
      "inputs": [],
      "name": "symbol",
      "outputs": [
        {
          "internalType": "string",
          "name": "",
          "type": "string"
        }
      ],
      "stateMutability": "view",
      "type": "function"
    },
    {
      "inputs": [
        {
          "internalType": "uint256",
          "name": "index",
          "type": "uint256"
        }
      ],
      "name": "tokenByIndex",
      "outputs": [
        {
          "internalType": "uint256",
          "name": "",
          "type": "uint256"
        }
      ],
      "stateMutability": "view",
      "type": "function"
    },
    {
      "inputs": [
        {
          "internalType": "address",
          "name": "owner",
          "type": "address"
        },
        {
          "internalType": "uint256",
          "name": "index",
          "type": "uint256"
        }
      ],
      "name": "tokenOfOwnerByIndex",
      "outputs": [
        {
          "internalType": "uint256",
          "name": "",
          "type": "uint256"
        }
      ],
      "stateMutability": "view",
      "type": "function"
    },
    {
      "inputs": [
        {
          "internalType": "uint256",
          "name": "tokenId",
          "type": "uint256"
        }
      ],
      "name": "tokenURI",
      "outputs": [
        {
          "internalType": "string",
          "name": "",
          "type": "string"
        }
      ],
      "stateMutability": "view",
      "type": "function"
    },
    {
      "inputs": [],
      "name": "totalSupply",
      "outputs": [
        {
          "internalType": "uint256",
          "name": "",
          "type": "uint256"
        }
      ],
      "stateMutability": "view",
      "type": "function"
    },
    {
      "inputs": [
        {
          "internalType": "address",
          "name": "from",
          "type": "address"
        },
        {
          "internalType": "address",
          "name": "to",
          "type": "address"
        },
        {
          "internalType": "uint256",
          "name": "tokenId",
          "type": "uint256"
        }
      ],
      "name": "transferFrom",
      "outputs": [],
      "stateMutability": "nonpayable",
      "type": "function"
    },
    {
      "inputs": [],
      "name": "wBNB",
      "outputs": [
        {
          "internalType": "address",
          "name": "",
          "type": "address"
        }
      ],
      "stateMutability": "view",
      "type": "function"
    },
    {
      "stateMutability": "payable",
      "type": "receive"
    },
    {
      "inputs": [
        {
          "internalType": "uint256",
          "name": "_apiMatchId",
          "type": "uint256"
        },
        {
          "internalType": "string",
          "name": "_matchResultLink",
          "type": "string"
        },
        {
          "internalType": "uint8",
          "name": "_oddsTeamA",
          "type": "uint8"
        },
        {
          "internalType": "uint8",
          "name": "_oddsTeamB",
          "type": "uint8"
        },
        {
          "internalType": "uint8",
          "name": "_oddsDraw",
          "type": "uint8"
        },
        {
          "internalType": "uint256",
          "name": "_startAt",
          "type": "uint256"
        }
      ],
      "name": "createMatch",
      "outputs": [
        {
          "internalType": "uint256",
          "name": "",
          "type": "uint256"
        }
      ],
      "stateMutability": "nonpayable",
      "type": "function"
    },
    {
      "inputs": [
        {
          "internalType": "uint128",
          "name": "_matchId",
          "type": "uint128"
        },
        {
          "internalType": "uint8",
          "name": "_resultBetOn",
          "type": "uint8"
        }
      ],
      "name": "placeBet",
      "outputs": [
        {
          "internalType": "uint256",
          "name": "",
          "type": "uint256"
        }
      ],
      "stateMutability": "payable",
      "type": "function"
    },
    {
      "inputs": [
        {
          "internalType": "uint128",
          "name": "_matchId",
          "type": "uint128"
        }
      ],
      "name": "startMatch",
      "outputs": [],
      "stateMutability": "nonpayable",
      "type": "function"
    },
    {
      "inputs": [
        {
          "internalType": "uint128",
          "name": "_matchId",
          "type": "uint128"
        },
        {
          "internalType": "uint8",
          "name": "_matchResult",
          "type": "uint8"
        }
      ],
      "name": "closeMatch",
      "outputs": [],
      "stateMutability": "nonpayable",
      "type": "function"
    },
    {
      "inputs": [
        {
          "internalType": "uint128",
          "name": "_smartAssetId",
          "type": "uint128"
        }
      ],
      "name": "liquidateAsset",
      "outputs": [
        {
          "internalType": "bool",
          "name": "",
          "type": "bool"
        }
      ],
      "stateMutability": "payable",
      "type": "function"
    },
    {
      "inputs": [],
      "name": "toggleCircuitBreaker",
      "outputs": [],
      "stateMutability": "nonpayable",
      "type": "function"
    },
    {
      "inputs": [
        {
          "internalType": "uint256",
          "name": "_matchId",
          "type": "uint256"
        }
      ],
      "name": "getMatch",
      "outputs": [
        {
          "components": [
            {
              "internalType": "address",
              "name": "creator",
              "type": "address"
            },
            {
              "internalType": "uint8",
              "name": "oddsTeamA",
              "type": "uint8"
            },
            {
              "internalType": "uint8",
              "name": "oddsTeamB",
              "type": "uint8"
            },
            {
              "internalType": "uint8",
              "name": "oddsDraw",
              "type": "uint8"
            },
            {
              "internalType": "string",
              "name": "matchResultLink",
              "type": "string"
            },
            {
              "internalType": "uint256",
              "name": "totalPayoutTeamA",
              "type": "uint256"
            },
            {
              "internalType": "uint256",
              "name": "totalPayoutTeamB",
              "type": "uint256"
            },
            {
              "internalType": "uint256",
              "name": "totalPayoutDraw",
              "type": "uint256"
            },
            {
              "internalType": "uint256",
              "name": "totalCollected",
              "type": "uint256"
            },
            {
              "internalType": "enum SmartBet.MatchResult",
              "name": "result",
              "type": "uint8"
            },
            {
              "internalType": "enum SmartBet.MatchState",
              "name": "state",
              "type": "uint8"
            },
            {
              "internalType": "uint256",
              "name": "startsAt",
              "type": "uint256"
            },
            {
              "internalType": "bool",
              "name": "exists",
              "type": "bool"
            }
          ],
          "internalType": "struct SmartBet.Match",
          "name": "match_",
          "type": "tuple"
        }
      ],
      "stateMutability": "view",
      "type": "function"
    },
    {
      "inputs": [
        {
          "internalType": "uint256",
          "name": "_smartAssetId",
          "type": "uint256"
        }
      ],
      "name": "getSmartAsset",
      "outputs": [
        {
          "components": [
            {
              "internalType": "address",
              "name": "owner",
              "type": "address"
            },
            {
              "internalType": "uint256",
              "name": "matchId",
              "type": "uint256"
            },
            {
              "internalType": "enum SmartBet.MatchResult",
              "name": "matchResult",
              "type": "uint8"
            },
            {
              "internalType": "uint256",
              "name": "initialValue",
              "type": "uint256"
            },
            {
              "internalType": "uint8",
              "name": "accruedInterest",
              "type": "uint8"
            }
          ],
          "internalType": "struct SmartBet.SmartAsset",
          "name": "asset",
          "type": "tuple"
        }
      ],
      "stateMutability": "view",
      "type": "function"
    },
    {
      "inputs": [],
      "name": "isAdmin",
      "outputs": [
        {
          "internalType": "bool",
          "name": "",
          "type": "bool"
        }
      ],
      "stateMutability": "view",
      "type": "function"
    }
  ],
  "bytecode": "0x60806040526000600d60006101000a81548160ff0219169083151502179055503480156200002c57600080fd5b506040518060400160405280600881526020017f536d6172744265740000000000000000000000000000000000000000000000008152506040518060400160405280600481526020017f534d425400000000000000000000000000000000000000000000000000000000815250620000b16301ffc9a760e01b620002c860201b60201c565b8160069080519060200190620000c9929190620003d1565b508060079080519060200190620000e2929190620003d1565b50620000fb6380ac58cd60e01b620002c860201b60201c565b62000113635b5e139f60e01b620002c860201b60201c565b6200012b63780e9d6360e01b620002c860201b60201c565b505033600a60006101000a81548173ffffffffffffffffffffffffffffffffffffffff021916908373ffffffffffffffffffffffffffffffffffffffff160217905550738301f2213c0eed49a7e28ae4c3e91722919b8b47601460006101000a81548173ffffffffffffffffffffffffffffffffffffffff021916908373ffffffffffffffffffffffffffffffffffffffff16021790555073ae13d989dac2f0debff460ac112a837c89baa7cd601360006101000a81548173ffffffffffffffffffffffffffffffffffffffff021916908373ffffffffffffffffffffffffffffffffffffffff160217905550738301f2213c0eed49a7e28ae4c3e91722919b8b47601460006101000a81548173ffffffffffffffffffffffffffffffffffffffff021916908373ffffffffffffffffffffffffffffffffffffffff16021790555073d99d1c33f9fc3444f8101754abc46c52416550d1601560006101000a81548173ffffffffffffffffffffffffffffffffffffffff021916908373ffffffffffffffffffffffffffffffffffffffff16021790555062000487565b63ffffffff60e01b817bffffffffffffffffffffffffffffffffffffffffffffffffffffffff1916141562000365576040517f08c379a000000000000000000000000000000000000000000000000000000000815260040180806020018281038252601c8152602001807f4552433136353a20696e76616c696420696e746572666163652069640000000081525060200191505060405180910390fd5b6001600080837bffffffffffffffffffffffffffffffffffffffffffffffffffffffff19167bffffffffffffffffffffffffffffffffffffffffffffffffffffffff1916815260200190815260200160002060006101000a81548160ff02191690831515021790555050565b828054600181600116156101000203166002900490600052602060002090601f01602090048101928262000409576000855562000455565b82601f106200042457805160ff191683800117855562000455565b8280016001018555821562000455579182015b828111156200045457825182559160200191906001019062000437565b5b50905062000464919062000468565b5090565b5b808211156200048357600081600090555060010162000469565b5090565b61621480620004976000396000f3fe6080604052600436106101c65760003560e01c80636352211e116100f7578063b88d4fde11610095578063d2c2cc8411610064578063d2c2cc84146106a3578063d5eb63cc146106e0578063e71efd95146106f7578063e985e9c514610722576101cd565b8063b88d4fde146105e9578063c87b56dd14610612578063cec85ad71461064f578063d02eb3f414610678576101cd565b806395d89b41116100d157806395d89b411461053a578063a09506b514610565578063a22cb46514610595578063b6db75a0146105be576101cd565b80636352211e146104955780636c0360eb146104d257806370a08231146104fd576101cd565b80632f745c5911610164578063484f4ea91161013e578063484f4ea9146103c05780634f6ccce7146103eb57806352d21e231461042857806358d33e6d14610465576101cd565b80632f745c591461031d5780633d092b3d1461035a57806342842e0e14610397576101cd565b8063095ea7b3116101a0578063095ea7b3146102775780630e5cc1a5146102a057806318160ddd146102c957806323b872dd146102f4576101cd565b806301ffc9a7146101d257806306fdde031461020f578063081812fc1461023a576101cd565b366101cd57005b600080fd5b3480156101de57600080fd5b506101f960048036038101906101f4919061511b565b61075f565b60405161020691906159ad565b60405180910390f35b34801561021b57600080fd5b506102246107c6565b60405161023191906159f1565b60405180910390f35b34801561024657600080fd5b50610261600480360381019061025c91906151a9565b610868565b60405161026e9190615925565b60405180910390f35b34801561028357600080fd5b5061029e60048036038101906102999190615075565b610903565b005b3480156102ac57600080fd5b506102c760048036038101906102c29190615144565b610a47565b005b3480156102d557600080fd5b506102de610c2b565b6040516102eb9190615bf0565b60405180910390f35b34801561030057600080fd5b5061031b60048036038101906103169190614f6f565b610c3c565b005b34801561032957600080fd5b50610344600480360381019061033f9190615075565b610cb2565b6040516103519190615bf0565b60405180910390f35b34801561036657600080fd5b50610381600480360381019061037c91906151a9565b610d0d565b60405161038e9190615bb3565b60405180910390f35b3480156103a357600080fd5b506103be60048036038101906103b99190614f6f565b610f96565b005b3480156103cc57600080fd5b506103d5610fb6565b6040516103e29190615925565b60405180910390f35b3480156103f757600080fd5b50610412600480360381019061040d91906151a9565b610fce565b60405161041f9190615bf0565b60405180910390f35b34801561043457600080fd5b5061044f600480360381019061044a91906151fb565b610ff1565b60405161045c9190615bf0565b60405180910390f35b61047f600480360381019061047a919061516d565b6113c9565b60405161048c9190615bf0565b60405180910390f35b3480156104a157600080fd5b506104bc60048036038101906104b791906151a9565b611a07565b6040516104c99190615925565b60405180910390f35b3480156104de57600080fd5b506104e7611a3e565b6040516104f491906159f1565b60405180910390f35b34801561050957600080fd5b50610524600480360381019061051f9190614f0a565b611ae0565b6040516105319190615bf0565b60405180910390f35b34801561054657600080fd5b5061054f611bb5565b60405161055c91906159f1565b60405180910390f35b61057f600480360381019061057a9190615144565b611c57565b60405161058c91906159ad565b60405180910390f35b3480156105a157600080fd5b506105bc60048036038101906105b79190615039565b612119565b005b3480156105ca57600080fd5b506105d36122cf565b6040516105e091906159ad565b60405180910390f35b3480156105f557600080fd5b50610610600480360381019061060b9190614fbe565b612327565b005b34801561061e57600080fd5b50610639600480360381019061063491906151a9565b61239f565b60405161064691906159f1565b60405180910390f35b34801561065b57600080fd5b506106766004803603810190610671919061516d565b612688565b005b34801561068457600080fd5b5061068d612de3565b60405161069a9190615925565b60405180910390f35b3480156106af57600080fd5b506106ca60048036038101906106c591906151a9565b612dfb565b6040516106d79190615bd5565b60405180910390f35b3480156106ec57600080fd5b506106f5612f9e565b005b34801561070357600080fd5b5061070c61305a565b6040516107199190615925565b60405180910390f35b34801561072e57600080fd5b5061074960048036038101906107449190614f33565b613072565b60405161075691906159ad565b60405180910390f35b6000806000837bffffffffffffffffffffffffffffffffffffffffffffffffffffffff19167bffffffffffffffffffffffffffffffffffffffffffffffffffffffff1916815260200190815260200160002060009054906101000a900460ff169050919050565b606060068054600181600116156101000203166002900480601f01602080910402602001604051908101604052809291908181526020018280546001816001161561010002031660029004801561085e5780601f106108335761010080835404028352916020019161085e565b820191906000526020600020905b81548152906001019060200180831161084157829003601f168201915b5050505050905090565b600061087382613106565b6108c8576040517f08c379a000000000000000000000000000000000000000000000000000000000815260040180806020018281038252602c815260200180616109602c913960400191505060405180910390fd5b6004600083815260200190815260200160002060009054906101000a900473ffffffffffffffffffffffffffffffffffffffff169050919050565b600061090e82611a07565b90508073ffffffffffffffffffffffffffffffffffffffff168373ffffffffffffffffffffffffffffffffffffffff161415610995576040517f08c379a000000000000000000000000000000000000000000000000000000000815260040180806020018281038252602181526020018061618d6021913960400191505060405180910390fd5b8073ffffffffffffffffffffffffffffffffffffffff166109b4613123565b73ffffffffffffffffffffffffffffffffffffffff1614806109e357506109e2816109dd613123565b613072565b5b610a38576040517f08c379a000000000000000000000000000000000000000000000000000000000815260040180806020018281038252603881526020018061605c6038913960400191505060405180910390fd5b610a42838361312b565b505050565b600a60009054906101000a900473ffffffffffffffffffffffffffffffffffffffff1673ffffffffffffffffffffffffffffffffffffffff163373ffffffffffffffffffffffffffffffffffffffff1614610ad7576040517f08c379a0000000000000000000000000000000000000000000000000000000008152600401610ace90615ab3565b60405180910390fd5b806fffffffffffffffffffffffffffffffff16600f600082815260200190815260200160002060080160009054906101000a900460ff16610b4d576040517f08c379a0000000000000000000000000000000000000000000000000000000008152600401610b4490615b13565b60405180910390fd5b816fffffffffffffffffffffffffffffffff1660006002811115610b6d57fe5b600f600083815260200190815260200160002060060160019054906101000a900460ff166002811115610b9c57fe5b14610bdc576040517f08c379a0000000000000000000000000000000000000000000000000000000008152600401610bd390615a93565b60405180910390fd5b6001600f6000856fffffffffffffffffffffffffffffffff16815260200190815260200160002060060160016101000a81548160ff02191690836002811115610c2157fe5b0217905550505050565b6000610c3760026131e4565b905090565b610c4d610c47613123565b826131f9565b610ca2576040517f08c379a00000000000000000000000000000000000000000000000000000000081526004018080602001828103825260318152602001806161ae6031913960400191505060405180910390fd5b610cad8383836132ed565b505050565b6000610d0582600160008673ffffffffffffffffffffffffffffffffffffffff1673ffffffffffffffffffffffffffffffffffffffff16815260200190815260200160002061353090919063ffffffff16565b905092915050565b610d15614b35565b81600f600082815260200190815260200160002060080160009054906101000a900460ff16610d79576040517f08c379a0000000000000000000000000000000000000000000000000000000008152600401610d7090615b13565b60405180910390fd5b600f6000848152602001908152602001600020604051806101a00160405290816000820160009054906101000a900473ffffffffffffffffffffffffffffffffffffffff1673ffffffffffffffffffffffffffffffffffffffff1673ffffffffffffffffffffffffffffffffffffffff1681526020016000820160149054906101000a900460ff1660ff1660ff1681526020016000820160159054906101000a900460ff1660ff1660ff1681526020016000820160169054906101000a900460ff1660ff1660ff168152602001600182018054600181600116156101000203166002900480601f016020809104026020016040519081016040528092919081815260200182805460018160011615610100020316600290048015610ede5780601f10610eb357610100808354040283529160200191610ede565b820191906000526020600020905b815481529060010190602001808311610ec157829003601f168201915b50505050508152602001600282015481526020016003820154815260200160048201548152602001600582015481526020016006820160009054906101000a900460ff166003811115610f2d57fe5b6003811115610f3857fe5b81526020016006820160019054906101000a900460ff166002811115610f5a57fe5b6002811115610f6557fe5b8152602001600782015481526020016008820160009054906101000a900460ff161515151581525050915050919050565b610fb183838360405180602001604052806000815250612327565b505050565b738301f2213c0eed49a7e28ae4c3e91722919b8b4781565b600080610fe583600261354a90919063ffffffff16565b50905080915050919050565b600087600060106000838152602001908152602001600020541461104a576040517f08c379a000000000000000000000000000000000000000000000000000000000815260040161104190615ad3565b60405180910390fd5b600a60009054906101000a900473ffffffffffffffffffffffffffffffffffffffff1673ffffffffffffffffffffffffffffffffffffffff163373ffffffffffffffffffffffffffffffffffffffff16146110da576040517f08c379a00000000000000000000000000000000000000000000000000000000081526004016110d190615ab3565b60405180910390fd5b6110e4600b613576565b60006110f0600b61358c565b9050604051806101a001604052803373ffffffffffffffffffffffffffffffffffffffff1681526020018860ff1681526020018760ff1681526020018660ff1681526020018a8a8080601f016020809104026020016040519081016040528093929190818152602001838380828437600081840152601f19601f82011690508083019250505050505050815260200160008152602001600081526020016000815260200160008152602001600060038111156111a857fe5b8152602001600060028111156111ba57fe5b815260200185815260200160011515815250600f600083815260200190815260200160002060008201518160000160006101000a81548173ffffffffffffffffffffffffffffffffffffffff021916908373ffffffffffffffffffffffffffffffffffffffff16021790555060208201518160000160146101000a81548160ff021916908360ff16021790555060408201518160000160156101000a81548160ff021916908360ff16021790555060608201518160000160166101000a81548160ff021916908360ff16021790555060808201518160010190805190602001906112a5929190614bd4565b5060a0820151816002015560c0820151816003015560e0820151816004015561010082015181600501556101208201518160060160006101000a81548160ff021916908360038111156112f457fe5b02179055506101408201518160060160016101000a81548160ff0219169083600281111561131e57fe5b021790555061016082015181600701556101808201518160080160006101000a81548160ff02191690831515021790555090505080601060008c81526020019081526020016000208190555042843373ffffffffffffffffffffffffffffffffffffffff167ebe7447ab3e31a705f7f1de4d55c8f821c89ef30288b0cb3e6458ac2d2d0ec5846040516113b19190615bf0565b60405180910390a48092505050979650505050505050565b6000600d60009054906101000a900460ff161561141b576040517f08c379a000000000000000000000000000000000000000000000000000000000815260040161141290615af3565b60405180910390fd5b826fffffffffffffffffffffffffffffffff16600f600082815260200190815260200160002060080160009054906101000a900460ff16611491576040517f08c379a000000000000000000000000000000000000000000000000000000000815260040161148890615b13565b60405180910390fd5b836fffffffffffffffffffffffffffffffff16600060028111156114b157fe5b600f600083815260200190815260200160002060060160019054906101000a900460ff1660028111156114e057fe5b14611520576040517f08c379a000000000000000000000000000000000000000000000000000000000815260040161151790615a93565b60405180910390fd5b846fffffffffffffffffffffffffffffffff166001611574576040517f08c379a000000000000000000000000000000000000000000000000000000000815260040161156b90615b33565b60405180910390fd5b846002600381111561158257fe5b8160ff16600381111561159157fe5b600381111561159c57fe5b14806115cb57506003808111156115af57fe5b8160ff1660038111156115be57fe5b60038111156115c957fe5b145b806115fa5750600160038111156115de57fe5b8160ff1660038111156115ed57fe5b60038111156115f857fe5b145b611639576040517f08c379a000000000000000000000000000000000000000000000000000000000815260040161163090615a53565b60405180910390fd5b600034141561167d576040517f08c379a000000000000000000000000000000000000000000000000000000000815260040161167490615b53565b60405180910390fd5b42600f6000896fffffffffffffffffffffffffffffffff168152602001908152602001600020600701541015611700576001600f6000896fffffffffffffffffffffffffffffffff16815260200190815260200160002060060160016101000a81548160ff021916908360028111156116f257fe5b0217905550600094506119fd565b600033905060008061171061359a565b905060008960ff16600381111561172357fe5b90506002600381111561173257fe5b81600381111561173e57fe5b14156117bc57600f60008c6fffffffffffffffffffffffffffffffff16815260200190815260200160002060000160149054906101000a900460ff1660ff168202925082600f60008d6fffffffffffffffffffffffffffffffff168152602001908152602001600020600201600082825401925050819055506118c7565b6003808111156117c857fe5b8160038111156117d457fe5b141561185257600f60008c6fffffffffffffffffffffffffffffffff16815260200190815260200160002060000160159054906101000a900460ff1660ff168202925082600f60008d6fffffffffffffffffffffffffffffffff168152602001908152602001600020600301600082825401925050819055506118c6565b600f60008c6fffffffffffffffffffffffffffffffff16815260200190815260200160002060000160169054906101000a900460ff1660ff168202925082600f60008d6fffffffffffffffffffffffffffffffff168152602001908152602001600020600401600082825401925050819055505b5b81600f60008d6fffffffffffffffffffffffffffffffff16815260200190815260200160002060050160008282540192505081905550600061191d85858e6fffffffffffffffffffffffffffffffff16856138cc565b9050601160008d6fffffffffffffffffffffffffffffffff168152602001908152602001600020600083600381111561195257fe5b600381111561195d57fe5b8152602001908152602001600020819080600181540180825580915050600190039060005260206000200160009091909190915055428c6fffffffffffffffffffffffffffffffff168673ffffffffffffffffffffffffffffffffffffffff167fb1283c9c8bacdf8cd70a313323578124c5fe2beedea39d5b268157d1638236aa866040516119ec9190615bf0565b60405180910390a480995050505050505b5050505092915050565b6000611a37826040518060600160405280602981526020016160be602991396002613a539092919063ffffffff16565b9050919050565b606060098054600181600116156101000203166002900480601f016020809104026020016040519081016040528092919081815260200182805460018160011615610100020316600290048015611ad65780601f10611aab57610100808354040283529160200191611ad6565b820191906000526020600020905b815481529060010190602001808311611ab957829003601f168201915b5050505050905090565b60008073ffffffffffffffffffffffffffffffffffffffff168273ffffffffffffffffffffffffffffffffffffffff161415611b67576040517f08c379a000000000000000000000000000000000000000000000000000000000815260040180806020018281038252602a815260200180616094602a913960400191505060405180910390fd5b611bae600160008473ffffffffffffffffffffffffffffffffffffffff1673ffffffffffffffffffffffffffffffffffffffff168152602001908152602001600020613a72565b9050919050565b606060078054600181600116156101000203166002900480601f016020809104026020016040519081016040528092919081815260200182805460018160011615610100020316600290048015611c4d5780601f10611c2257610100808354040283529160200191611c4d565b820191906000526020600020905b815481529060010190602001808311611c3057829003601f168201915b5050505050905090565b6000600d60009054906101000a900460ff1615611ca9576040517f08c379a0000000000000000000000000000000000000000000000000000000008152600401611ca090615af3565b60405180910390fd5b816fffffffffffffffffffffffffffffffff16611cc581613106565b611d04576040517f08c379a0000000000000000000000000000000000000000000000000000000008152600401611cfb90615a33565b60405180910390fd5b826fffffffffffffffffffffffffffffffff163373ffffffffffffffffffffffffffffffffffffffff16611d3782611a07565b73ffffffffffffffffffffffffffffffffffffffff1614611d8d576040517f08c379a0000000000000000000000000000000000000000000000000000000008152600401611d8490615a73565b60405180910390fd5b6000600e6000866fffffffffffffffffffffffffffffffff1681526020019081526020016000206040518060a00160405290816000820160009054906101000a900473ffffffffffffffffffffffffffffffffffffffff1673ffffffffffffffffffffffffffffffffffffffff1673ffffffffffffffffffffffffffffffffffffffff168152602001600182015481526020016002820160009054906101000a900460ff166003811115611e3d57fe5b6003811115611e4857fe5b8152602001600382015481526020016004820160009054906101000a900460ff1660ff1660ff16815250509050600280811115611e8157fe5b600f60008360200151815260200190815260200160002060060160019054906101000a900460ff166002811115611eb457fe5b14611ef4576040517f08c379a0000000000000000000000000000000000000000000000000000000008152600401611eeb90615b93565b60405180910390fd5b8060600151601460009054906101000a900473ffffffffffffffffffffffffffffffffffffffff1673ffffffffffffffffffffffffffffffffffffffff166370a08231306040518263ffffffff1660e01b8152600401611f549190615940565b60206040518083038186803b158015611f6c57600080fd5b505afa158015611f80573d6000803e3d6000fd5b505050506040513d601f19601f82011682018060405250810190611fa491906151d2565b1015611fe5576040517f08c379a0000000000000000000000000000000000000000000000000000000008152600401611fdc90615a13565b60405180910390fd5b612000856fffffffffffffffffffffffffffffffff16613a87565b601460009054906101000a900473ffffffffffffffffffffffffffffffffffffffff1673ffffffffffffffffffffffffffffffffffffffff1663a9059cbb3383606001516040518363ffffffff1660e01b815260040161206192919061595b565b602060405180830381600087803b15801561207b57600080fd5b505af115801561208f573d6000803e3d6000fd5b505050506040513d601f19601f820116820180604052508101906120b391906150f2565b5080602001513373ffffffffffffffffffffffffffffffffffffffff167f272d35cd904617477d1f00fc52a260e0fd2bbdb7052bb00fc0793393cc1c8d1a836060015142604051612105929190615c65565b60405180910390a360019350505050919050565b612121613123565b73ffffffffffffffffffffffffffffffffffffffff168273ffffffffffffffffffffffffffffffffffffffff1614156121c2576040517f08c379a00000000000000000000000000000000000000000000000000000000081526004018080602001828103825260198152602001807f4552433732313a20617070726f766520746f2063616c6c65720000000000000081525060200191505060405180910390fd5b80600560006121cf613123565b73ffffffffffffffffffffffffffffffffffffffff1673ffffffffffffffffffffffffffffffffffffffff16815260200190815260200160002060008473ffffffffffffffffffffffffffffffffffffffff1673ffffffffffffffffffffffffffffffffffffffff16815260200190815260200160002060006101000a81548160ff0219169083151502179055508173ffffffffffffffffffffffffffffffffffffffff1661227c613123565b73ffffffffffffffffffffffffffffffffffffffff167f17307eab39ab6107e8899845ad3d59bd9653f200f220920489ca2b5937696c318360405180821515815260200191505060405180910390a35050565b6000600a60009054906101000a900473ffffffffffffffffffffffffffffffffffffffff1673ffffffffffffffffffffffffffffffffffffffff163373ffffffffffffffffffffffffffffffffffffffff1614905090565b612338612332613123565b836131f9565b61238d576040517f08c379a00000000000000000000000000000000000000000000000000000000081526004018080602001828103825260318152602001806161ae6031913960400191505060405180910390fd5b61239984848484613a93565b50505050565b60606123aa82613106565b6123ff576040517f08c379a000000000000000000000000000000000000000000000000000000000815260040180806020018281038252602f81526020018061615e602f913960400191505060405180910390fd5b6000600860008481526020019081526020016000208054600181600116156101000203166002900480601f0160208091040260200160405190810160405280929190818152602001828054600181600116156101000203166002900480156124a85780601f1061247d576101008083540402835291602001916124a8565b820191906000526020600020905b81548152906001019060200180831161248b57829003601f168201915b505050505090506000600980546001816001161561010002031660029004905014156124d75780915050612683565b6000815111156125b05760098160405160200180838054600181600116156101000203166002900480156125425780601f10612520576101008083540402835291820191612542565b820191906000526020600020905b81548152906001019060200180831161252e575b505082805190602001908083835b602083106125735780518252602082019150602081019050602083039250612550565b6001836020036101000a03801982511681845116808217855250505050505090500192505050604051602081830303815290604052915050612683565b60096125bb84613b05565b60405160200180838054600181600116156101000203166002900480156126195780601f106125f7576101008083540402835291820191612619565b820191906000526020600020905b815481529060010190602001808311612605575b505082805190602001908083835b6020831061264a5780518252602082019150602081019050602083039250612627565b6001836020036101000a038019825116818451168082178552505050505050905001925050506040516020818303038152906040529150505b919050565b600a60009054906101000a900473ffffffffffffffffffffffffffffffffffffffff1673ffffffffffffffffffffffffffffffffffffffff163373ffffffffffffffffffffffffffffffffffffffff1614612718576040517f08c379a000000000000000000000000000000000000000000000000000000000815260040161270f90615ab3565b60405180910390fd5b816fffffffffffffffffffffffffffffffff16600f600082815260200190815260200160002060080160009054906101000a900460ff1661278e576040517f08c379a000000000000000000000000000000000000000000000000000000000815260040161278590615b13565b60405180910390fd5b826fffffffffffffffffffffffffffffffff16600160028111156127ae57fe5b600f600083815260200190815260200160002060060160019054906101000a900460ff1660028111156127dd57fe5b1461281d576040517f08c379a000000000000000000000000000000000000000000000000000000000815260040161281490615b73565b60405180910390fd5b826002600381111561282b57fe5b8160ff16600381111561283a57fe5b600381111561284557fe5b1480612874575060038081111561285857fe5b8160ff16600381111561286757fe5b600381111561287257fe5b145b806128a357506001600381111561288757fe5b8160ff16600381111561289657fe5b60038111156128a157fe5b145b6128e2576040517f08c379a00000000000000000000000000000000000000000000000000000000081526004016128d990615a53565b60405180910390fd5b6002600f6000876fffffffffffffffffffffffffffffffff16815260200190815260200160002060060160016101000a81548160ff0219169083600281111561292757fe5b021790555060008460ff16600381111561293d57fe5b905061295b866fffffffffffffffffffffffffffffffff1682613c4c565b6002600381111561296857fe5b81600381111561297457fe5b1415612ac657612a1d60116000886fffffffffffffffffffffffffffffffff16815260200190815260200160002060006003808111156129b057fe5b60038111156129bb57fe5b8152602001908152602001600020805480602002602001604051908101604052809291908181526020018280548015612a1357602002820191906000526020600020905b8154815260200190600101908083116129ff575b5050505050613ce4565b612ac160116000886fffffffffffffffffffffffffffffffff168152602001908152602001600020600060016003811115612a5457fe5b6003811115612a5f57fe5b8152602001908152602001600020805480602002602001604051908101604052809291908181526020018280548015612ab757602002820191906000526020600020905b815481526020019060010190808311612aa3575b5050505050613ce4565b612d7a565b600380811115612ad257fe5b816003811115612ade57fe5b1415612c3157612b8860116000886fffffffffffffffffffffffffffffffff168152602001908152602001600020600060026003811115612b1b57fe5b6003811115612b2657fe5b8152602001908152602001600020805480602002602001604051908101604052809291908181526020018280548015612b7e57602002820191906000526020600020905b815481526020019060010190808311612b6a575b5050505050613ce4565b612c2c60116000886fffffffffffffffffffffffffffffffff168152602001908152602001600020600060016003811115612bbf57fe5b6003811115612bca57fe5b8152602001908152602001600020805480602002602001604051908101604052809291908181526020018280548015612c2257602002820191906000526020600020905b815481526020019060010190808311612c0e575b5050505050613ce4565b612d79565b612cd560116000886fffffffffffffffffffffffffffffffff168152602001908152602001600020600060026003811115612c6857fe5b6003811115612c7357fe5b8152602001908152602001600020805480602002602001604051908101604052809291908181526020018280548015612ccb57602002820191906000526020600020905b815481526020019060010190808311612cb7575b5050505050613ce4565b612d7860116000886fffffffffffffffffffffffffffffffff1681526020019081526020016000206000600380811115612d0b57fe5b6003811115612d1657fe5b8152602001908152602001600020805480602002602001604051908101604052809291908181526020018280548015612d6e57602002820191906000526020600020905b815481526020019060010190808311612d5a575b5050505050613ce4565b5b5b856fffffffffffffffffffffffffffffffff163373ffffffffffffffffffffffffffffffffffffffff167fd29dba8c386c3bc42bf8ec778a1dfa55ec92d4ec2799213b01d4d627487d97bb42604051612dd39190615bf0565b60405180910390a3505050505050565b73ae13d989dac2f0debff460ac112a837c89baa7cd81565b612e03614c62565b81612e0d81613106565b612e4c576040517f08c379a0000000000000000000000000000000000000000000000000000000008152600401612e4390615a33565b60405180910390fd5b823373ffffffffffffffffffffffffffffffffffffffff16612e6d82611a07565b73ffffffffffffffffffffffffffffffffffffffff1614612ec3576040517f08c379a0000000000000000000000000000000000000000000000000000000008152600401612eba90615a73565b60405180910390fd5b600e60008581526020019081526020016000206040518060a00160405290816000820160009054906101000a900473ffffffffffffffffffffffffffffffffffffffff1673ffffffffffffffffffffffffffffffffffffffff1673ffffffffffffffffffffffffffffffffffffffff168152602001600182015481526020016002820160009054906101000a900460ff166003811115612f5f57fe5b6003811115612f6a57fe5b8152602001600382015481526020016004820160009054906101000a900460ff1660ff1660ff168152505092505050919050565b600a60009054906101000a900473ffffffffffffffffffffffffffffffffffffffff1673ffffffffffffffffffffffffffffffffffffffff163373ffffffffffffffffffffffffffffffffffffffff161461302e576040517f08c379a000000000000000000000000000000000000000000000000000000000815260040161302590615ab3565b60405180910390fd5b600d60009054906101000a900460ff1615600d60006101000a81548160ff021916908315150217905550565b73d99d1c33f9fc3444f8101754abc46c52416550d181565b6000600560008473ffffffffffffffffffffffffffffffffffffffff1673ffffffffffffffffffffffffffffffffffffffff16815260200190815260200160002060008373ffffffffffffffffffffffffffffffffffffffff1673ffffffffffffffffffffffffffffffffffffffff16815260200190815260200160002060009054906101000a900460ff16905092915050565b600061311c826002613d1d90919063ffffffff16565b9050919050565b600033905090565b816004600083815260200190815260200160002060006101000a81548173ffffffffffffffffffffffffffffffffffffffff021916908373ffffffffffffffffffffffffffffffffffffffff160217905550808273ffffffffffffffffffffffffffffffffffffffff1661319e83611a07565b73ffffffffffffffffffffffffffffffffffffffff167f8c5be1e5ebec7d5bd14f71427d1e84f3dd0314c0f7b2291e5b200ac8c7c3b92560405160405180910390a45050565b60006131f282600001613d37565b9050919050565b600061320482613106565b613259576040517f08c379a000000000000000000000000000000000000000000000000000000000815260040180806020018281038252602c815260200180616030602c913960400191505060405180910390fd5b600061326483611a07565b90508073ffffffffffffffffffffffffffffffffffffffff168473ffffffffffffffffffffffffffffffffffffffff1614806132d357508373ffffffffffffffffffffffffffffffffffffffff166132bb84610868565b73ffffffffffffffffffffffffffffffffffffffff16145b806132e457506132e38185613072565b5b91505092915050565b8273ffffffffffffffffffffffffffffffffffffffff1661330d82611a07565b73ffffffffffffffffffffffffffffffffffffffff1614613379576040517f08c379a00000000000000000000000000000000000000000000000000000000081526004018080602001828103825260298152602001806161356029913960400191505060405180910390fd5b600073ffffffffffffffffffffffffffffffffffffffff168273ffffffffffffffffffffffffffffffffffffffff1614156133ff576040517f08c379a000000000000000000000000000000000000000000000000000000000815260040180806020018281038252602481526020018061600c6024913960400191505060405180910390fd5b61340a838383613d48565b61341560008261312b565b61346681600160008673ffffffffffffffffffffffffffffffffffffffff1673ffffffffffffffffffffffffffffffffffffffff168152602001908152602001600020613d4d90919063ffffffff16565b506134b881600160008573ffffffffffffffffffffffffffffffffffffffff1673ffffffffffffffffffffffffffffffffffffffff168152602001908152602001600020613d6790919063ffffffff16565b506134cf81836002613d819092919063ffffffff16565b50808273ffffffffffffffffffffffffffffffffffffffff168473ffffffffffffffffffffffffffffffffffffffff167fddf252ad1be2c89b69c2b068fc378daa952ba7f163c4a11628f55a4df523b3ef60405160405180910390a4505050565b600061353f8360000183613db6565b60001c905092915050565b60008060008061355d8660000186613e39565b915091508160001c8160001c9350935050509250929050565b6001816000016000828254019250508190555050565b600081600001549050919050565b6000601360009054906101000a900473ffffffffffffffffffffffffffffffffffffffff1673ffffffffffffffffffffffffffffffffffffffff1663d0e30db0346040518263ffffffff1660e01b81526004016000604051808303818588803b15801561360657600080fd5b505af115801561361a573d6000803e3d6000fd5b5050505050601360009054906101000a900473ffffffffffffffffffffffffffffffffffffffff1673ffffffffffffffffffffffffffffffffffffffff1663095ea7b373d99d1c33f9fc3444f8101754abc46c52416550d1346040518363ffffffff1660e01b8152600401613690929190615984565b602060405180830381600087803b1580156136aa57600080fd5b505af11580156136be573d6000803e3d6000fd5b505050506040513d601f19601f820116820180604052508101906136e291906150f2565b506000610258420190506000600267ffffffffffffffff8111801561370657600080fd5b506040519080825280602002602001820160405280156137355781602001602082028036833780820191505090505b50905073ae13d989dac2f0debff460ac112a837c89baa7cd8160008151811061375a57fe5b602002602001019073ffffffffffffffffffffffffffffffffffffffff16908173ffffffffffffffffffffffffffffffffffffffff1681525050738301f2213c0eed49a7e28ae4c3e91722919b8b47816001815181106137b657fe5b602002602001019073ffffffffffffffffffffffffffffffffffffffff16908173ffffffffffffffffffffffffffffffffffffffff16815250506000601560009054906101000a900473ffffffffffffffffffffffffffffffffffffffff1673ffffffffffffffffffffffffffffffffffffffff166338ed17393460008530886040518663ffffffff1660e01b8152600401613856959493929190615c0b565b600060405180830381600087803b15801561387057600080fd5b505af1158015613884573d6000803e3d6000fd5b505050506040513d6000823e3d601f19601f820116820180604052508101906138ad91906150b1565b9050806001815181106138bc57fe5b6020026020010151935050505090565b60006138d8600c613576565b60006138e4600c61358c565b90506138f08682613ed2565b6040518060a001604052803373ffffffffffffffffffffffffffffffffffffffff16815260200185815260200184600381111561392957fe5b8152602001868152602001600060ff16815250600e600083815260200190815260200160002060008201518160000160006101000a81548173ffffffffffffffffffffffffffffffffffffffff021916908373ffffffffffffffffffffffffffffffffffffffff1602179055506020820151816001015560408201518160020160006101000a81548160ff021916908360038111156139c457fe5b02179055506060820151816003015560808201518160040160006101000a81548160ff021916908360ff1602179055509050508573ffffffffffffffffffffffffffffffffffffffff167fc4513e6a2d519757839359ef7a4177aac1624cd70664ae9ecdc9eab45bafca408242604051613a3f929190615c65565b60405180910390a280915050949350505050565b6000613a66846000018460001b846140c6565b60001c90509392505050565b6000613a80826000016141bc565b9050919050565b613a90816141cd565b50565b613a9e8484846132ed565b613aaa84848484614307565b613aff576040517f08c379a0000000000000000000000000000000000000000000000000000000008152600401808060200182810382526032815260200180615fda6032913960400191505060405180910390fd5b50505050565b60606000821415613b4d576040518060400160405280600181526020017f30000000000000000000000000000000000000000000000000000000000000008152509050613c47565b600082905060005b60008214613b77578080600101915050600a8281613b6f57fe5b049150613b55565b60008167ffffffffffffffff81118015613b9057600080fd5b506040519080825280601f01601f191660200182016040528015613bc35781602001600182028036833780820191505090505b50905060006001830390508593505b60008414613c3f57600a8481613be457fe5b0660300160f81b82828060019003935081518110613bfe57fe5b60200101907effffffffffffffffffffffffffffffffffffffffffffffffffffffffffffff1916908160001a905350600a8481613c3757fe5b049350613bd2565b819450505050505b919050565b80600f600084815260200190815260200160002060060160006101000a81548160ff02191690836003811115613c7e57fe5b0217905550817f82ab24714d54369c755574228baf8bf3da9c1170142baa4a09b52257853c6dae600f600085815260200190815260200160002060060160009054906101000a900460ff1642604051613cd89291906159c8565b60405180910390a25050565b60005b8151811015613d1957613d0c828281518110613cff57fe5b6020026020010151613a87565b8080600101915050613ce7565b5050565b6000613d2f836000018360001b614520565b905092915050565b600081600001805490509050919050565b505050565b6000613d5f836000018360001b614543565b905092915050565b6000613d79836000018360001b61462b565b905092915050565b6000613dad846000018460001b8473ffffffffffffffffffffffffffffffffffffffff1660001b61469b565b90509392505050565b600081836000018054905011613e17576040517f08c379a0000000000000000000000000000000000000000000000000000000008152600401808060200182810382526022815260200180615fb86022913960400191505060405180910390fd5b826000018281548110613e2657fe5b9060005260206000200154905092915050565b60008082846000018054905011613e9b576040517f08c379a00000000000000000000000000000000000000000000000000000000081526004018080602001828103825260228152602001806160e76022913960400191505060405180910390fd5b6000846000018481548110613eac57fe5b906000526020600020906002020190508060000154816001015492509250509250929050565b600073ffffffffffffffffffffffffffffffffffffffff168273ffffffffffffffffffffffffffffffffffffffff161415613f75576040517f08c379a00000000000000000000000000000000000000000000000000000000081526004018080602001828103825260208152602001807f4552433732313a206d696e7420746f20746865207a65726f206164647265737381525060200191505060405180910390fd5b613f7e81613106565b15613ff1576040517f08c379a000000000000000000000000000000000000000000000000000000000815260040180806020018281038252601c8152602001807f4552433732313a20746f6b656e20616c7265616479206d696e7465640000000081525060200191505060405180910390fd5b613ffd60008383613d48565b61404e81600160008573ffffffffffffffffffffffffffffffffffffffff1673ffffffffffffffffffffffffffffffffffffffff168152602001908152602001600020613d6790919063ffffffff16565b5061406581836002613d819092919063ffffffff16565b50808273ffffffffffffffffffffffffffffffffffffffff16600073ffffffffffffffffffffffffffffffffffffffff167fddf252ad1be2c89b69c2b068fc378daa952ba7f163c4a11628f55a4df523b3ef60405160405180910390a45050565b6000808460010160008581526020019081526020016000205490506000811415839061418d576040517f08c379a00000000000000000000000000000000000000000000000000000000081526004018080602001828103825283818151815260200191508051906020019080838360005b83811015614152578082015181840152602081019050614137565b50505050905090810190601f16801561417f5780820380516001836020036101000a031916815260200191505b509250505060405180910390fd5b508460000160018203815481106141a057fe5b9060005260206000209060020201600101549150509392505050565b600081600001805490509050919050565b60006141d882611a07565b90506141e681600084613d48565b6141f160008361312b565b600060086000848152602001908152602001600020805460018160011615610100020316600290049050146142405760086000838152602001908152602001600020600061423f9190614cb5565b5b61429182600160008473ffffffffffffffffffffffffffffffffffffffff1673ffffffffffffffffffffffffffffffffffffffff168152602001908152602001600020613d4d90919063ffffffff16565b506142a682600261477790919063ffffffff16565b5081600073ffffffffffffffffffffffffffffffffffffffff168273ffffffffffffffffffffffffffffffffffffffff167fddf252ad1be2c89b69c2b068fc378daa952ba7f163c4a11628f55a4df523b3ef60405160405180910390a45050565b60006143288473ffffffffffffffffffffffffffffffffffffffff16614791565b6143355760019050614518565b600061449f63150b7a0260e01b61434a613123565b888787604051602401808573ffffffffffffffffffffffffffffffffffffffff1681526020018473ffffffffffffffffffffffffffffffffffffffff16815260200183815260200180602001828103825283818151815260200191508051906020019080838360005b838110156143ce5780820151818401526020810190506143b3565b50505050905090810190601f1680156143fb5780820380516001836020036101000a031916815260200191505b5095505050505050604051602081830303815290604052907bffffffffffffffffffffffffffffffffffffffffffffffffffffffff19166020820180517bffffffffffffffffffffffffffffffffffffffffffffffffffffffff8381831617835250505050604051806060016040528060328152602001615fda603291398773ffffffffffffffffffffffffffffffffffffffff166147dc9092919063ffffffff16565b905060008180602001905160208110156144b857600080fd5b8101908080519060200190929190505050905063150b7a0260e01b7bffffffffffffffffffffffffffffffffffffffffffffffffffffffff1916817bffffffffffffffffffffffffffffffffffffffffffffffffffffffff191614925050505b949350505050565b600080836001016000848152602001908152602001600020541415905092915050565b6000808360010160008481526020019081526020016000205490506000811461461f576000600182039050600060018660000180549050039050600086600001828154811061458e57fe5b90600052602060002001549050808760000184815481106145ab57fe5b90600052602060002001819055506001830187600101600083815260200190815260200160002081905550866000018054806145e357fe5b60019003818190600052602060002001600090559055866001016000878152602001908152602001600020600090556001945050505050614625565b60009150505b92915050565b600061463783836147f4565b614690578260000182908060018154018082558091505060019003906000526020600020016000909190919091505582600001805490508360010160008481526020019081526020016000208190555060019050614695565b600090505b92915050565b600080846001016000858152602001908152602001600020549050600081141561474257846000016040518060400160405280868152602001858152509080600181540180825580915050600190039060005260206000209060020201600090919091909150600082015181600001556020820151816001015550508460000180549050856001016000868152602001908152602001600020819055506001915050614770565b8285600001600183038154811061475557fe5b90600052602060002090600202016001018190555060009150505b9392505050565b6000614789836000018360001b614817565b905092915050565b60008060007fc5d2460186f7233c927e7db2dcc703c0e500b653ca82273b7bfad8045d85a47060001b9050833f91508082141580156147d357506000801b8214155b92505050919050565b60606147eb8484600085614930565b90509392505050565b600080836001016000848152602001908152602001600020541415905092915050565b60008083600101600084815260200190815260200160002054905060008114614924576000600182039050600060018660000180549050039050600086600001828154811061486257fe5b906000526020600020906002020190508087600001848154811061488257fe5b90600052602060002090600202016000820154816000015560018201548160010155905050600183018760010160008360000154815260200190815260200160002081905550866000018054806148d557fe5b600190038181906000526020600020906002020160008082016000905560018201600090555050905586600101600087815260200190815260200160002060009055600194505050505061492a565b60009150505b92915050565b606061493b85614791565b6149ad576040517f08c379a000000000000000000000000000000000000000000000000000000000815260040180806020018281038252601d8152602001807f416464726573733a2063616c6c20746f206e6f6e2d636f6e747261637400000081525060200191505060405180910390fd5b6000808673ffffffffffffffffffffffffffffffffffffffff1685876040518082805190602001908083835b602083106149fc57805182526020820191506020810190506020830392506149d9565b6001836020036101000a03801982511681845116808217855250505050505090500191505060006040518083038185875af1925050503d8060008114614a5e576040519150601f19603f3d011682016040523d82523d6000602084013e614a63565b606091505b50915091508115614a78578092505050614b2d565b600081511115614a8b5780518082602001fd5b836040517f08c379a00000000000000000000000000000000000000000000000000000000081526004018080602001828103825283818151815260200191508051906020019080838360005b83811015614af2578082015181840152602081019050614ad7565b50505050905090810190601f168015614b1f5780820380516001836020036101000a031916815260200191505b509250505060405180910390fd5b949350505050565b604051806101a00160405280600073ffffffffffffffffffffffffffffffffffffffff168152602001600060ff168152602001600060ff168152602001600060ff168152602001606081526020016000815260200160008152602001600081526020016000815260200160006003811115614bac57fe5b815260200160006002811115614bbe57fe5b8152602001600081526020016000151581525090565b828054600181600116156101000203166002900490600052602060002090601f016020900481019282614c0a5760008555614c51565b82601f10614c2357805160ff1916838001178555614c51565b82800160010185558215614c51579182015b82811115614c50578251825591602001919060010190614c35565b5b509050614c5e9190614cfd565b5090565b6040518060a00160405280600073ffffffffffffffffffffffffffffffffffffffff1681526020016000815260200160006003811115614c9e57fe5b815260200160008152602001600060ff1681525090565b50805460018160011615610100020316600290046000825580601f10614cdb5750614cfa565b601f016020900490600052602060002090810190614cf99190614cfd565b5b50565b5b80821115614d16576000816000905550600101614cfe565b5090565b6000614d2d614d2884615cbf565b615c8e565b90508083825260208201905082856020860282011115614d4c57600080fd5b60005b85811015614d7c5781614d628882614ee0565b845260208401935060208301925050600181019050614d4f565b5050509392505050565b6000614d99614d9484615ceb565b615c8e565b905082815260208101848484011115614db157600080fd5b614dbc848285615eb0565b509392505050565b600081359050614dd381615f2d565b92915050565b600082601f830112614dea57600080fd5b8151614dfa848260208601614d1a565b91505092915050565b600081359050614e1281615f44565b92915050565b600081519050614e2781615f44565b92915050565b600081359050614e3c81615f5b565b92915050565b600082601f830112614e5357600080fd5b8135614e63848260208601614d86565b91505092915050565b60008083601f840112614e7e57600080fd5b8235905067ffffffffffffffff811115614e9757600080fd5b602083019150836001820283011115614eaf57600080fd5b9250929050565b600081359050614ec581615f72565b92915050565b600081359050614eda81615f89565b92915050565b600081519050614eef81615f89565b92915050565b600081359050614f0481615fa0565b92915050565b600060208284031215614f1c57600080fd5b6000614f2a84828501614dc4565b91505092915050565b60008060408385031215614f4657600080fd5b6000614f5485828601614dc4565b9250506020614f6585828601614dc4565b9150509250929050565b600080600060608486031215614f8457600080fd5b6000614f9286828701614dc4565b9350506020614fa386828701614dc4565b9250506040614fb486828701614ecb565b9150509250925092565b60008060008060808587031215614fd457600080fd5b6000614fe287828801614dc4565b9450506020614ff387828801614dc4565b935050604061500487828801614ecb565b925050606085013567ffffffffffffffff81111561502157600080fd5b61502d87828801614e42565b91505092959194509250565b6000806040838503121561504c57600080fd5b600061505a85828601614dc4565b925050602061506b85828601614e03565b9150509250929050565b6000806040838503121561508857600080fd5b600061509685828601614dc4565b92505060206150a785828601614ecb565b9150509250929050565b6000602082840312156150c357600080fd5b600082015167ffffffffffffffff8111156150dd57600080fd5b6150e984828501614dd9565b91505092915050565b60006020828403121561510457600080fd5b600061511284828501614e18565b91505092915050565b60006020828403121561512d57600080fd5b600061513b84828501614e2d565b91505092915050565b60006020828403121561515657600080fd5b600061516484828501614eb6565b91505092915050565b6000806040838503121561518057600080fd5b600061518e85828601614eb6565b925050602061519f85828601614ef5565b9150509250929050565b6000602082840312156151bb57600080fd5b60006151c984828501614ecb565b91505092915050565b6000602082840312156151e457600080fd5b60006151f284828501614ee0565b91505092915050565b600080600080600080600060c0888a03121561521657600080fd5b60006152248a828b01614ecb565b975050602088013567ffffffffffffffff81111561524157600080fd5b61524d8a828b01614e6c565b965096505060406152608a828b01614ef5565b94505060606152718a828b01614ef5565b93505060806152828a828b01614ef5565b92505060a06152938a828b01614ecb565b91505092959891949750929550565b60006152ae83836152c9565b60208301905092915050565b6152c381615e44565b82525050565b6152d281615d81565b82525050565b6152e181615d81565b82525050565b60006152f282615d2b565b6152fc8185615d4e565b935061530783615d1b565b8060005b8381101561533857815161531f88826152a2565b975061532a83615d41565b92505060018101905061530b565b5085935050505092915050565b61534e81615d93565b82525050565b61535d81615d93565b82525050565b61536c81615e56565b82525050565b61537b81615e56565b82525050565b61538a81615e68565b82525050565b61539981615e7a565b82525050565b60006153aa82615d36565b6153b48185615d5f565b93506153c4818560208601615ebf565b6153cd81615ef4565b840191505092915050565b60006153e382615d36565b6153ed8185615d70565b93506153fd818560208601615ebf565b61540681615ef4565b840191505092915050565b600061541e601f83615d70565b91507f436f6e74726163742068617320696e73756666696369656e742066756e6473006000830152602082019050919050565b600061545e600d83615d70565b91507f496e76616c696420746f6b656e000000000000000000000000000000000000006000830152602082019050919050565b600061549e601483615d70565b91507f496e76616c6964206d6174636820726573756c740000000000000000000000006000830152602082019050919050565b60006154de601983615d70565b91507f63616c6c6572206973206e6f7420746f6b656e206f776e6572000000000000006000830152602082019050919050565b600061551e600d83615d70565b91507f6d617463682073746172746564000000000000000000000000000000000000006000830152602082019050919050565b600061555e601383615d70565b91507f63616c6c6572206973206e6f74206f776e6572000000000000000000000000006000830152602082019050919050565b600061559e601383615d70565b91507f617069206d6174636820494420657869737473000000000000000000000000006000830152602082019050919050565b60006155de601583615d70565b91507f4369726375697420627265616b6572206973206f6e00000000000000000000006000830152602082019050919050565b600061561e601d83615d70565b91507f6f6e20636861696e206d6174636820646f6573206e6f742065786973740000006000830152602082019050919050565b600061565e601283615d70565b91507f426574206973206e6f7420616c6c6f77656400000000000000000000000000006000830152602082019050919050565b600061569e601283615d70565b91507f496e76616c696420616d6f756e742062657400000000000000000000000000006000830152602082019050919050565b60006156de601183615d70565b91507f6d61746368206e6f7420737461727465640000000000000000000000000000006000830152602082019050919050565b600061571e602e83615d70565b91507f43616e6e6f74206c697175696461746520617373657420756e74696c206d617460008301527f63682069732066696e69736865640000000000000000000000000000000000006020830152604082019050919050565b60006101a08301600083015161579060008601826152c9565b5060208301516157a36020860182615916565b5060408301516157b66040860182615916565b5060608301516157c96060860182615916565b50608083015184820360808601526157e1828261539f565b91505060a08301516157f660a08601826158f8565b5060c083015161580960c08601826158f8565b5060e083015161581c60e08601826158f8565b506101008301516158316101008601826158f8565b50610120830151615846610120860182615363565b5061014083015161585b610140860182615381565b506101608301516158706101608601826158f8565b50610180830151615885610180860182615345565b508091505092915050565b60a0820160008201516158a660008501826152c9565b5060208201516158b960208501826158f8565b5060408201516158cc6040850182615363565b5060608201516158df60608501826158f8565b5060808201516158f26080850182615916565b50505050565b61590181615e2d565b82525050565b61591081615e2d565b82525050565b61591f81615e37565b82525050565b600060208201905061593a60008301846152d8565b92915050565b600060208201905061595560008301846152ba565b92915050565b600060408201905061597060008301856152ba565b61597d6020830184615907565b9392505050565b600060408201905061599960008301856152d8565b6159a66020830184615907565b9392505050565b60006020820190506159c26000830184615354565b92915050565b60006040820190506159dd6000830185615372565b6159ea6020830184615907565b9392505050565b60006020820190508181036000830152615a0b81846153d8565b905092915050565b60006020820190508181036000830152615a2c81615411565b9050919050565b60006020820190508181036000830152615a4c81615451565b9050919050565b60006020820190508181036000830152615a6c81615491565b9050919050565b60006020820190508181036000830152615a8c816154d1565b9050919050565b60006020820190508181036000830152615aac81615511565b9050919050565b60006020820190508181036000830152615acc81615551565b9050919050565b60006020820190508181036000830152615aec81615591565b9050919050565b60006020820190508181036000830152615b0c816155d1565b9050919050565b60006020820190508181036000830152615b2c81615611565b9050919050565b60006020820190508181036000830152615b4c81615651565b9050919050565b60006020820190508181036000830152615b6c81615691565b9050919050565b60006020820190508181036000830152615b8c816156d1565b9050919050565b60006020820190508181036000830152615bac81615711565b9050919050565b60006020820190508181036000830152615bcd8184615777565b905092915050565b600060a082019050615bea6000830184615890565b92915050565b6000602082019050615c056000830184615907565b92915050565b600060a082019050615c206000830188615907565b615c2d6020830187615390565b8181036040830152615c3f81866152e7565b9050615c4e60608301856152ba565b615c5b6080830184615907565b9695505050505050565b6000604082019050615c7a6000830185615907565b615c876020830184615907565b9392505050565b6000604051905081810181811067ffffffffffffffff82111715615cb557615cb4615ef2565b5b8060405250919050565b600067ffffffffffffffff821115615cda57615cd9615ef2565b5b602082029050602081019050919050565b600067ffffffffffffffff821115615d0657615d05615ef2565b5b601f19601f8301169050602081019050919050565b6000819050602082019050919050565b600081519050919050565b600081519050919050565b6000602082019050919050565b600082825260208201905092915050565b600082825260208201905092915050565b600082825260208201905092915050565b6000615d8c82615e0d565b9050919050565b60008115159050919050565b60007fffffffff0000000000000000000000000000000000000000000000000000000082169050919050565b6000819050615dd982615f05565b919050565b6000819050615dec82615f19565b919050565b60006fffffffffffffffffffffffffffffffff82169050919050565b600073ffffffffffffffffffffffffffffffffffffffff82169050919050565b6000819050919050565b600060ff82169050919050565b6000615e4f82615e8c565b9050919050565b6000615e6182615dcb565b9050919050565b6000615e7382615dde565b9050919050565b6000615e8582615e2d565b9050919050565b6000615e9782615e9e565b9050919050565b6000615ea982615e0d565b9050919050565b82818337600083830152505050565b60005b83811015615edd578082015181840152602081019050615ec2565b83811115615eec576000848401525b50505050565bfe5b6000601f19601f8301169050919050565b60048110615f1657615f15615ef2565b5b50565b60038110615f2a57615f29615ef2565b5b50565b615f3681615d81565b8114615f4157600080fd5b50565b615f4d81615d93565b8114615f5857600080fd5b50565b615f6481615d9f565b8114615f6f57600080fd5b50565b615f7b81615df1565b8114615f8657600080fd5b50565b615f9281615e2d565b8114615f9d57600080fd5b50565b615fa981615e37565b8114615fb457600080fd5b5056fe456e756d657261626c655365743a20696e646578206f7574206f6620626f756e64734552433732313a207472616e7366657220746f206e6f6e20455243373231526563656976657220696d706c656d656e7465724552433732313a207472616e7366657220746f20746865207a65726f20616464726573734552433732313a206f70657261746f7220717565727920666f72206e6f6e6578697374656e7420746f6b656e4552433732313a20617070726f76652063616c6c6572206973206e6f74206f776e6572206e6f7220617070726f76656420666f7220616c6c4552433732313a2062616c616e636520717565727920666f7220746865207a65726f20616464726573734552433732313a206f776e657220717565727920666f72206e6f6e6578697374656e7420746f6b656e456e756d657261626c654d61703a20696e646578206f7574206f6620626f756e64734552433732313a20617070726f76656420717565727920666f72206e6f6e6578697374656e7420746f6b656e4552433732313a207472616e73666572206f6620746f6b656e2074686174206973206e6f74206f776e4552433732314d657461646174613a2055524920717565727920666f72206e6f6e6578697374656e7420746f6b656e4552433732313a20617070726f76616c20746f2063757272656e74206f776e65724552433732313a207472616e736665722063616c6c6572206973206e6f74206f776e6572206e6f7220617070726f766564a2646970667358221220527bfc9a3f1d68500ca054ec7bf7524d25a9435f91b33c58b5f62d436122f23a64736f6c63430007060033",
  "immutableReferences": {},
  "source": "pragma solidity ^0.7.0;\npragma experimental ABIEncoderV2;\n\nimport \"@chainlink/contracts/src/v0.7/ChainlinkClient.sol\";\nimport \"@openzeppelin/contracts/token/ERC721/ERC721.sol\";\nimport \"@openzeppelin/contracts/utils/Counters.sol\";\n// import \"@openzeppelin/contracts/math/SafeMath.sol\";\nimport \"./BEP20.sol\";\nimport \"./SmartExchange.sol\";\n\n// import \"https://github.com/OpenZeppelin/openzeppelin-contracts/blob/18c7efe800df6fc19554ece3b1f238e9e028a1db/contracts/token/ERC721/ERC721.sol\";\n// import \"https://github.com/OpenZeppelin/openzeppelin-contracts/blob/18c7efe800df6fc19554ece3b1f238e9e028a1db/contracts/utils/Counters.sol\";\n\n\n/*\n * @notice SmartBet core smart contract. Handles matches, bets and farming\n */\ncontract SmartBet is ERC721 {\n\n    using Counters for Counters.Counter;\n    // using SafeMath for uint256;\n\n    ////////////////////////////////////////\n    //                                    //\n    //         STATE VARIABLES            //\n    //                                    //      \n    ////////////////////////////////////////\n    // contract owner adress\n    address private owner;\n\n    // incremented for match id generation\n    Counters.Counter private matchIds;\n\n    // incremented id for NFT minting\n    Counters.Counter private tokenIds;\n\n    // flag to determine if contracts core functionalities can be performed\n    bool circuitBreaker = false;\n\n    enum MatchResult {NOT_DETERMINED, DRAW, TEAM_A_WON, TEAM_B_WON}\n    enum MatchState {NOT_STARTED, STARTED, FINISHED}\n\n    uint8 private constant TEAM_A = 1;\n    uint8 private constant TEAM_B = 2;\n\n    struct Match {\n        address creator;\n        uint8 oddsTeamA;\n        uint8 oddsTeamB;\n        uint8 oddsDraw;\n        string matchResultLink;\n        uint256 totalPayoutTeamA;\n        uint256 totalPayoutTeamB;\n        uint256 totalPayoutDraw;\n        uint256 totalCollected;\n        MatchResult result;\n        MatchState state;\n        uint256 startsAt;\n        bool exists;\n    }\n\n    // NFT issued to winner\n    struct SmartAsset {\n        address owner;\n        uint256 matchId;\n        MatchResult matchResult;\n        uint256 initialValue;\n        uint8 accruedInterest;\n    }\n\n    // holds all NFTs issued to winners\n    mapping(uint256 => SmartAsset) smartAssets;\n\n    // holds all created matches (key: idCounter)\n    mapping(uint256 => Match) matches;\n    \n    // holds all apiMatchId -> onChainMatchId to prevent duplicate entries\n    mapping(uint256 => uint256) apiMatches;\n\n    // holds all bets on a match\n    // mapping(matchId => mapping(gameResult => smartAssetId[])) matchBets;\n    mapping(uint256 => mapping(MatchResult => uint256[])) matchBets;\n\n    mapping(bytes32 => uint256) matchResultRequestIds;\n\n    address public constant wBNB = 0xae13d989daC2f0dEbFf460aC112a837C89BAa7cd; //underlying asset: wBNB\n    address public constant BUSD = 0x8301F2213c0eeD49a7E28Ae4c3e91722919B8B47; //underlying asset: BUSD\n    address public constant pROUTER = 0xD99D1c33F9fC3444f8101754aBC46c52416550D1; // Pancakeswap Router (BSC Testnet)\n\n    // ExchangeInterface private smartExchange;\n    BEP20 private wBNBToken;\n    BEP20 private bUSDToken;\n    HelperPancakeSwapROUTER private router;\n\n\n    ////////////////////////////////////////\n    //                                    //\n    //           CONSTRUCTOR              //\n    //                                    //      \n    ////////////////////////////////////////\n\n    constructor() ERC721(\"SmartBet\", \"SMBT\") {\n        owner = msg.sender;\n        // smartExchange = new SmartExchange();\n        // bUSDToken = BEP20(smartExchange.BUSD());\n        bUSDToken = BEP20(BUSD);\n        wBNBToken = BEP20(wBNB);     // get a handle for the wBNB asset\n        bUSDToken = BEP20(BUSD);     // get a handle for the wBNB asset\n        router = HelperPancakeSwapROUTER(pROUTER);     // get a handle for the exchange router\n    }\n\n    ////////////////////////////////////////\n    //                                    //\n    //              EVENTS                //\n    //                                    //      \n    ////////////////////////////////////////\n\n    //Can be used by the clients to get all matches in a particular time\n    event MatchCreatedEvent(address indexed creator, uint256 matchId, uint256 indexed startAt, uint256 indexed createdOn);\n    //Can be used by the clients to get all bets placed by a better in a particular time\n    event BetPlacedEvent(address indexed bettor, uint256 indexed matchId, uint256 amount, uint256 indexed betPlacedAt);\n    event SmartAssetAwardedEvent(address indexed awardee, uint256 smartAssetId, uint256 awardedAt);\n    event MatchClosedEvent(address indexed by, uint256 indexed matchId, uint256 closedAt);\n    event MatchResultSetEvent(uint256 indexed matchId, MatchResult result, uint256 setAt);\n    event AssetLiquidatedEvent(address indexed by, uint256 indexed matchId, uint256 amount, uint256 liquidatedAt);\n\n\n    ////////////////////////////////////////\n    //                                    //\n    //              MODIFIERS             //\n    //                                    //      \n    ////////////////////////////////////////\n\n    /*\n    *  @notice  Restrict caller only owner\n    */\n    modifier onlyOwner() {\n        require(msg.sender == owner, \"caller is not owner\");\n        _;\n    }\n\n    /*\n    *  @notice  Ensure match does not previously exist\n    */\n    modifier isNewMatch(uint256 _matchId) {\n        require(!matches[_matchId].exists, \"on chain match exists\");\n        _;\n    }\n\n    /*\n    *  @notice  Ensure api match does not previously exist\n    */\n    modifier isNewAPIMatch(uint256 _api_matchId) {\n        require(apiMatches[_api_matchId] == 0, \"api match ID exists\");\n        _;\n    }\n\n    /*\n    *  @notice  Ensure match exists\n    */\n    modifier matchExists(uint256 _matchId){\n        require(matches[_matchId].exists, \"on chain match does not exist\");\n        _;\n    }\n\n    /*\n    *  @notice  Ensure match has not started\n    */\n    modifier matchNotStarted(uint256 _matchId){\n        require(matches[_matchId].state == MatchState.NOT_STARTED, \"match started\");\n        _;\n    }\n\n    /*\n    *  @notice  Ensure match has started\n    */\n    modifier matchStarted(uint256 _matchId){\n        require(matches[_matchId].state == MatchState.STARTED, \"match not started\");\n        _;\n    }\n\n    /*\n    *  @notice  Ensure match has ended\n    */\n    modifier matchFinished(uint256 _matchId){\n        require(matches[_matchId].state == MatchState.FINISHED, \"match not finished\");\n        _;\n    }\n\n    /*\n    *  @notice Checks if core functionalities can be performed\n    *  @dev Checks if the circuitBreaker state variable is false\n    */\n    modifier isCircuitBreakOff() {\n        require(!circuitBreaker, \"Circuit breaker is on\");\n        _;\n    }\n\n    /*\n    *  @notice Checks if the NFT is valid\n    *  @dev Validates NFT\n    */\n    modifier validateToken(uint256 _tokenId) {\n        require(_exists(_tokenId), \"Invalid token\");\n        _;\n    }\n    \n    /*\n    *  @notice  Ensure token belongs to the caller\n    */\n    modifier isTokenOwner(uint256 _tokenId) {\n        require(ownerOf(_tokenId) == msg.sender , \"caller is not token owner\");\n        _;\n    }\n\n    /*\n    *  @notice  Ensures bets are allowed on the match\n    *  @dev     The totalCollected on the match must be greater than the total payout on the team the bettor wants to bet on. The incoming bet is inclusive in the calculation\n    */\n    modifier isBetAllowed(uint256 _matchId) {\n        require(true, \"Bet is not allowed\");\n        _;\n    }\n    \n    modifier validateMatchResult(uint8 _matchResult) {\n        require(MatchResult(_matchResult) == MatchResult.TEAM_A_WON || MatchResult(_matchResult) == MatchResult.TEAM_B_WON || MatchResult(_matchResult) == MatchResult.DRAW, \"Invalid match result\");\n        _;\n    }\n\n    ////////////////////////////////////////\n    //                                    //\n    //              FUNCTIONS             //\n    //                                    //      \n    ////////////////////////////////////////\n\n    /*\n    *  @notice  New match creation\n    *  @dev     \n    *  @param   \n    *  @return  match Id\n    */\n    function createMatch(uint256 _apiMatchId, string calldata _matchResultLink, uint8 _oddsTeamA, uint8 _oddsTeamB, uint8 _oddsDraw, uint256 _startAt)\n        public \n        isNewAPIMatch(_apiMatchId)\n        onlyOwner\n        returns(uint)\n    {\n        matchIds.increment();\n        uint256 matchId = matchIds.current();\n        matches[matchId] = Match(msg.sender, _oddsTeamA, _oddsTeamB, _oddsDraw, _matchResultLink, 0, 0, 0, 0, MatchResult.NOT_DETERMINED, MatchState.NOT_STARTED, _startAt, true); \n        apiMatches[_apiMatchId] = matchId;\n        emit MatchCreatedEvent(msg.sender, matchId, _startAt, block.timestamp);\n\n        return matchId;\n    }\n\n    function swapBNBForBUSD() internal returns(uint) {\n        wBNBToken.deposit{value: msg.value}(); // deposit native BNB\n        wBNBToken.approve(pROUTER, msg.value); // allow pancakeswap router to access wBNB\n\n        uint deadline = block.timestamp + 10 minutes; // addition 10 mins\n        \n        address[] memory path = new address[](2);\n        path[0] = wBNB;\n        path[1] = BUSD;\n        uint[] memory amounts = router.swapExactTokensForTokens(msg.value, 0, path, address(this), deadline);\n        \n        return amounts[1];\n    }\n\n\n    /*\n    *  @notice  New bet creation. Mint NFT to bettor\n    *  @dev   \n    *  @param  \n    *  @return  token id\n    */\n    function placeBet(uint128 _matchId, uint8 _resultBetOn)\n        public \n        payable\n        isCircuitBreakOff\n        matchExists(_matchId) \n        matchNotStarted(_matchId) \n        isBetAllowed(_matchId)\n        validateMatchResult(_resultBetOn)\n        returns(uint256)\n    {\n        require(msg.value != 0, \"Invalid amount bet\");\n        if (matches[_matchId].startsAt < block.timestamp) {\n            matches[_matchId].state = MatchState.STARTED;\n            return 0;\n        }\n\n        address bettor = msg.sender;\n        uint256 assetValue = 0;\n\n        // uint[] memory amounts = smartExchange.swap(msg.value, address(this));\n        uint256 amountBet = swapBNBForBUSD();\n\n        MatchResult matchResultBetOn = MatchResult(_resultBetOn);\n        \n        //update team's total payout\n        if (matchResultBetOn == MatchResult.TEAM_A_WON) {\n            assetValue = amountBet * matches[_matchId].oddsTeamA;\n            matches[_matchId].totalPayoutTeamA += assetValue;\n        } else if(matchResultBetOn == MatchResult.TEAM_B_WON) {\n            assetValue = amountBet * matches[_matchId].oddsTeamB;\n            matches[_matchId].totalPayoutTeamB += assetValue;\n        } else {\n            assetValue = amountBet * matches[_matchId].oddsDraw;\n            matches[_matchId].totalPayoutDraw += assetValue;\n        }\n\n        //increase totalCollected on the match\n        matches[_matchId].totalCollected += amountBet;\n\n        uint256 smartAssetId = awardSmartAsset(bettor, assetValue, _matchId, matchResultBetOn);\n        \n        //Save bettor's bet\n        matchBets[_matchId][matchResultBetOn].push(smartAssetId);\n        \n        emit BetPlacedEvent(bettor, _matchId, amountBet, block.timestamp);\n\n        return smartAssetId;\n    }\n\n\n    function awardSmartAsset(address bettor, uint256 assetValue, uint256 _matchId, MatchResult _matchResultBetOn) \n        internal returns (uint256) \n    {\n        tokenIds.increment();\n\n        uint256 smartAssetId = tokenIds.current();\n        _mint(bettor, smartAssetId);\n        \n        smartAssets[smartAssetId] = SmartAsset(msg.sender, _matchId, _matchResultBetOn, assetValue, 0);\n\n        emit SmartAssetAwardedEvent(bettor, smartAssetId, block.timestamp);\n\n        return smartAssetId;\n    }\n    \n    function startMatch(uint128 _matchId) \n        public\n        onlyOwner\n        matchExists(_matchId) \n        matchNotStarted(_matchId)\n    {\n        matches[_matchId].state = MatchState.STARTED;\n    }\n\n\n    /*\n    *  @notice  Match manual close by admin. Trigger \"getResult()\" \n    *  @dev     [Real] ChainlinkClient API Request oracles gets match result of winning team. Then, match is closed.\n    *           [Temporary] (Implemented because there's no BSC testnet oracle node)\n    *                       Frontend gets result via result link and posts winning team. Then, match is closed.\n    *  @param  \n    *  @return  success success status\n    */\n    function closeMatch(uint128 _matchId, uint8 _matchResult)\n        public \n        onlyOwner\n        matchExists(_matchId) \n        matchStarted(_matchId)\n        validateMatchResult(_matchResult)\n    {\n        matches[_matchId].state = MatchState.FINISHED;\n        \n        // getMatchResult(_matchId);\n        MatchResult matchResult = MatchResult(_matchResult);\n        setMatchResult(_matchId, matchResult);\n        \n        if (matchResult == MatchResult.TEAM_A_WON) {\n            invalidateAssets(matchBets[_matchId][MatchResult.TEAM_B_WON]);\n            invalidateAssets(matchBets[_matchId][MatchResult.DRAW]);\n        } else if (matchResult == MatchResult.TEAM_B_WON) {\n            invalidateAssets(matchBets[_matchId][MatchResult.TEAM_A_WON]);\n            invalidateAssets(matchBets[_matchId][MatchResult.DRAW]);\n        } else {\n            invalidateAssets(matchBets[_matchId][MatchResult.TEAM_A_WON]);\n            invalidateAssets(matchBets[_matchId][MatchResult.TEAM_B_WON]);\n        }\n        \n        \n        emit MatchClosedEvent(msg.sender, _matchId, block.timestamp);\n    }\n    \n    function setMatchResult(uint256 _matchId, MatchResult _matchResult) internal {\n        matches[_matchId].result = _matchResult;\n        emit MatchResultSetEvent(_matchId, matches[_matchId].result, block.timestamp);\n    }\n    \n    function invalidateAssets(uint256[] memory assets) internal {\n        for (uint i = 0; i < assets.length; i++) {\n            invalidateAsset(assets[i]);\n        }\n    }\n\n    function invalidateAsset(uint256 _smartAssetId) internal {\n        _burn(_smartAssetId);\n    }\n\n    /*\n    *  @notice  Liquidate smart asset's value\n    *  @dev     validated   NFT is burned and caller gets value funds in account\n    *  @param   _smartAssetId smart asset id\n    *  @return  success status\n    */\n    function liquidateAsset(uint128 _smartAssetId)\n        public \n        payable\n        isCircuitBreakOff\n        validateToken(_smartAssetId)\n        isTokenOwner(_smartAssetId)\n        returns(bool)\n    {\n        SmartAsset memory smartAsset = smartAssets[_smartAssetId];\n        \n        require(matches[smartAsset.matchId].state == MatchState.FINISHED, \"Cannot liquidate asset until match is finished\");\n        \n        require (bUSDToken.balanceOf(address(this)) >= smartAsset.initialValue, \"Contract has insufficient funds\");\n        // require (address(this).balance >= smartAsset.initialValue, \"Contract has insufficient funds\");\n        \n        invalidateAsset(_smartAssetId);\n        bUSDToken.transfer(msg.sender, smartAsset.initialValue);\n        // msg.sender.transfer(smartAsset.initialValue);\n\n        emit AssetLiquidatedEvent(msg.sender, smartAsset.matchId, smartAsset.initialValue, block.timestamp);\n        return true;\n    }\n\n    /*\n    *  @notice  Contract Circuit Breaker\n    *  @dev     Admin can [de]activate core functons in contract\n    *  @param   \n    *  @return  success success status\n    */\n    function toggleCircuitBreaker()\n        public \n        onlyOwner\n    {\n        circuitBreaker = !circuitBreaker;\n    }\n\n    /*\n    *  @notice  Fetch match details\n    *  @dev         \n    *  @oaram   _matchId\n    *  @return match match details\n    */\n    function getMatch(uint256 _matchId)\n        public \n        view\n        matchExists(_matchId)\n        returns(Match memory match_)\n    {\n        return matches[_matchId];\n    }\n\n    /*\n    *  @notice  Fetch single SmartAsset\n    *  @dev          \n    *  @param   _smartAssetId\n    *  @return  asset details\n    */\n    function getSmartAsset(uint256 _smartAssetId)\n        public \n        view\n        validateToken(_smartAssetId)\n        isTokenOwner(_smartAssetId)\n        returns(SmartAsset memory asset)\n    {\n        return smartAssets[_smartAssetId];\n    }\n\n    /*\n    *  @notice  Tells of the msg.sender is the admin\n    *  @dev\n    *  @return  true if msg.sender is admin else false\n    */\n    function isAdmin() public view returns(bool) {\n        return msg.sender == owner;\n    }\n\n    receive() external payable {}\n    \n}\n",
  "sourcePath": "/Users/ajibigad/crytoproject/SmartBet/contracts/SmartBet.sol",
  "compiler": {
    "name": "solc",
    "version": "0.7.6+commit.7338295f.Emscripten.clang"
  },
  "schemaVersion": "3.3.4",
  "updatedAt": "2021-04-16T17:26:22.487Z",
  "devdoc": {
    "kind": "dev",
    "methods": {
      "approve(address,uint256)": {
        "details": "See {IERC721-approve}."
      },
      "balanceOf(address)": {
        "details": "See {IERC721-balanceOf}."
      },
      "baseURI()": {
        "details": "Returns the base URI set via {_setBaseURI}. This will be automatically added as a prefix in {tokenURI} to each token's URI, or to the token ID if no specific URI is set for that token ID."
      },
      "getApproved(uint256)": {
        "details": "See {IERC721-getApproved}."
      },
      "isApprovedForAll(address,address)": {
        "details": "See {IERC721-isApprovedForAll}."
      },
      "name()": {
        "details": "See {IERC721Metadata-name}."
      },
      "ownerOf(uint256)": {
        "details": "See {IERC721-ownerOf}."
      },
      "safeTransferFrom(address,address,uint256)": {
        "details": "See {IERC721-safeTransferFrom}."
      },
      "safeTransferFrom(address,address,uint256,bytes)": {
        "details": "See {IERC721-safeTransferFrom}."
      },
      "setApprovalForAll(address,bool)": {
        "details": "See {IERC721-setApprovalForAll}."
      },
      "supportsInterface(bytes4)": {
        "details": "See {IERC165-supportsInterface}. Time complexity O(1), guaranteed to always use less than 30 000 gas."
      },
      "symbol()": {
        "details": "See {IERC721Metadata-symbol}."
      },
      "tokenByIndex(uint256)": {
        "details": "See {IERC721Enumerable-tokenByIndex}."
      },
      "tokenOfOwnerByIndex(address,uint256)": {
        "details": "See {IERC721Enumerable-tokenOfOwnerByIndex}."
      },
      "tokenURI(uint256)": {
        "details": "See {IERC721Metadata-tokenURI}."
      },
      "totalSupply()": {
        "details": "See {IERC721Enumerable-totalSupply}."
      },
      "transferFrom(address,address,uint256)": {
        "details": "See {IERC721-transferFrom}."
      }
    },
    "version": 1
  },
  "userdoc": {
    "kind": "user",
    "methods": {},
    "version": 1
  }
}