{
  "contractName": "SmartBet",
  "abi": [
    {
      "inputs": [],
      "stateMutability": "nonpayable",
      "type": "constructor"
    },
    {
      "anonymous": false,
      "inputs": [
        {
          "indexed": true,
          "internalType": "address",
          "name": "owner",
          "type": "address"
        },
        {
          "indexed": true,
          "internalType": "address",
          "name": "approved",
          "type": "address"
        },
        {
          "indexed": true,
          "internalType": "uint256",
          "name": "tokenId",
          "type": "uint256"
        }
      ],
      "name": "Approval",
      "type": "event"
    },
    {
      "anonymous": false,
      "inputs": [
        {
          "indexed": true,
          "internalType": "address",
          "name": "owner",
          "type": "address"
        },
        {
          "indexed": true,
          "internalType": "address",
          "name": "operator",
          "type": "address"
        },
        {
          "indexed": false,
          "internalType": "bool",
          "name": "approved",
          "type": "bool"
        }
      ],
      "name": "ApprovalForAll",
      "type": "event"
    },
    {
      "anonymous": false,
      "inputs": [
        {
          "indexed": true,
          "internalType": "address",
          "name": "by",
          "type": "address"
        },
        {
          "indexed": true,
          "internalType": "uint256",
          "name": "matchId",
          "type": "uint256"
        },
        {
          "indexed": false,
          "internalType": "uint256",
          "name": "amount",
          "type": "uint256"
        },
        {
          "indexed": false,
          "internalType": "uint256",
          "name": "liquidatedAt",
          "type": "uint256"
        }
      ],
      "name": "AssetLiquidatedEvent",
      "type": "event"
    },
    {
      "anonymous": false,
      "inputs": [
        {
          "indexed": true,
          "internalType": "address",
          "name": "bettor",
          "type": "address"
        },
        {
          "indexed": true,
          "internalType": "uint256",
          "name": "matchId",
          "type": "uint256"
        },
        {
          "indexed": false,
          "internalType": "uint256",
          "name": "amount",
          "type": "uint256"
        },
        {
          "indexed": true,
          "internalType": "uint256",
          "name": "betPlacedAt",
          "type": "uint256"
        }
      ],
      "name": "BetPlacedEvent",
      "type": "event"
    },
    {
      "anonymous": false,
      "inputs": [
        {
          "indexed": true,
          "internalType": "bytes32",
          "name": "id",
          "type": "bytes32"
        }
      ],
      "name": "ChainlinkCancelled",
      "type": "event"
    },
    {
      "anonymous": false,
      "inputs": [
        {
          "indexed": true,
          "internalType": "bytes32",
          "name": "id",
          "type": "bytes32"
        }
      ],
      "name": "ChainlinkFulfilled",
      "type": "event"
    },
    {
      "anonymous": false,
      "inputs": [
        {
          "indexed": true,
          "internalType": "bytes32",
          "name": "id",
          "type": "bytes32"
        }
      ],
      "name": "ChainlinkRequested",
      "type": "event"
    },
    {
      "anonymous": false,
      "inputs": [
        {
          "indexed": true,
          "internalType": "address",
          "name": "by",
          "type": "address"
        },
        {
          "indexed": true,
          "internalType": "uint256",
          "name": "matchId",
          "type": "uint256"
        },
        {
          "indexed": false,
          "internalType": "uint256",
          "name": "closedAt",
          "type": "uint256"
        }
      ],
      "name": "MatchClosedEvent",
      "type": "event"
    },
    {
      "anonymous": false,
      "inputs": [
        {
          "indexed": true,
          "internalType": "address",
          "name": "creator",
          "type": "address"
        },
        {
          "indexed": false,
          "internalType": "uint256",
          "name": "matchId",
          "type": "uint256"
        },
        {
          "indexed": true,
          "internalType": "uint256",
          "name": "startAt",
          "type": "uint256"
        },
        {
          "indexed": true,
          "internalType": "uint256",
          "name": "createdOn",
          "type": "uint256"
        }
      ],
      "name": "MatchCreatedEvent",
      "type": "event"
    },
    {
      "anonymous": false,
      "inputs": [
        {
          "indexed": true,
          "internalType": "uint256",
          "name": "matchId",
          "type": "uint256"
        },
        {
          "indexed": false,
          "internalType": "enum SmartBet.MatchResult",
          "name": "result",
          "type": "uint8"
        },
        {
          "indexed": false,
          "internalType": "uint256",
          "name": "setAt",
          "type": "uint256"
        }
      ],
      "name": "MatchResultSetEvent",
      "type": "event"
    },
    {
      "anonymous": false,
      "inputs": [
        {
          "indexed": true,
          "internalType": "address",
          "name": "awardee",
          "type": "address"
        },
        {
          "indexed": false,
          "internalType": "uint256",
          "name": "smartAssetId",
          "type": "uint256"
        },
        {
          "indexed": false,
          "internalType": "uint256",
          "name": "awardedAt",
          "type": "uint256"
        }
      ],
      "name": "SmartAssetAwardedEvent",
      "type": "event"
    },
    {
      "anonymous": false,
      "inputs": [
        {
          "indexed": true,
          "internalType": "address",
          "name": "from",
          "type": "address"
        },
        {
          "indexed": true,
          "internalType": "address",
          "name": "to",
          "type": "address"
        },
        {
          "indexed": true,
          "internalType": "uint256",
          "name": "tokenId",
          "type": "uint256"
        }
      ],
      "name": "Transfer",
      "type": "event"
    },
    {
      "inputs": [
        {
          "internalType": "address",
          "name": "to",
          "type": "address"
        },
        {
          "internalType": "uint256",
          "name": "tokenId",
          "type": "uint256"
        }
      ],
      "name": "approve",
      "outputs": [],
      "stateMutability": "nonpayable",
      "type": "function"
    },
    {
      "inputs": [
        {
          "internalType": "address",
          "name": "owner",
          "type": "address"
        }
      ],
      "name": "balanceOf",
      "outputs": [
        {
          "internalType": "uint256",
          "name": "",
          "type": "uint256"
        }
      ],
      "stateMutability": "view",
      "type": "function"
    },
    {
      "inputs": [],
      "name": "baseURI",
      "outputs": [
        {
          "internalType": "string",
          "name": "",
          "type": "string"
        }
      ],
      "stateMutability": "view",
      "type": "function"
    },
    {
      "inputs": [
        {
          "internalType": "uint256",
          "name": "tokenId",
          "type": "uint256"
        }
      ],
      "name": "getApproved",
      "outputs": [
        {
          "internalType": "address",
          "name": "",
          "type": "address"
        }
      ],
      "stateMutability": "view",
      "type": "function"
    },
    {
      "inputs": [
        {
          "internalType": "address",
          "name": "owner",
          "type": "address"
        },
        {
          "internalType": "address",
          "name": "operator",
          "type": "address"
        }
      ],
      "name": "isApprovedForAll",
      "outputs": [
        {
          "internalType": "bool",
          "name": "",
          "type": "bool"
        }
      ],
      "stateMutability": "view",
      "type": "function"
    },
    {
      "inputs": [],
      "name": "name",
      "outputs": [
        {
          "internalType": "string",
          "name": "",
          "type": "string"
        }
      ],
      "stateMutability": "view",
      "type": "function"
    },
    {
      "inputs": [
        {
          "internalType": "uint256",
          "name": "tokenId",
          "type": "uint256"
        }
      ],
      "name": "ownerOf",
      "outputs": [
        {
          "internalType": "address",
          "name": "",
          "type": "address"
        }
      ],
      "stateMutability": "view",
      "type": "function"
    },
    {
      "inputs": [
        {
          "internalType": "address",
          "name": "from",
          "type": "address"
        },
        {
          "internalType": "address",
          "name": "to",
          "type": "address"
        },
        {
          "internalType": "uint256",
          "name": "tokenId",
          "type": "uint256"
        }
      ],
      "name": "safeTransferFrom",
      "outputs": [],
      "stateMutability": "nonpayable",
      "type": "function"
    },
    {
      "inputs": [
        {
          "internalType": "address",
          "name": "from",
          "type": "address"
        },
        {
          "internalType": "address",
          "name": "to",
          "type": "address"
        },
        {
          "internalType": "uint256",
          "name": "tokenId",
          "type": "uint256"
        },
        {
          "internalType": "bytes",
          "name": "_data",
          "type": "bytes"
        }
      ],
      "name": "safeTransferFrom",
      "outputs": [],
      "stateMutability": "nonpayable",
      "type": "function"
    },
    {
      "inputs": [
        {
          "internalType": "address",
          "name": "operator",
          "type": "address"
        },
        {
          "internalType": "bool",
          "name": "approved",
          "type": "bool"
        }
      ],
      "name": "setApprovalForAll",
      "outputs": [],
      "stateMutability": "nonpayable",
      "type": "function"
    },
    {
      "inputs": [
        {
          "internalType": "bytes4",
          "name": "interfaceId",
          "type": "bytes4"
        }
      ],
      "name": "supportsInterface",
      "outputs": [
        {
          "internalType": "bool",
          "name": "",
          "type": "bool"
        }
      ],
      "stateMutability": "view",
      "type": "function"
    },
    {
      "inputs": [],
      "name": "symbol",
      "outputs": [
        {
          "internalType": "string",
          "name": "",
          "type": "string"
        }
      ],
      "stateMutability": "view",
      "type": "function"
    },
    {
      "inputs": [
        {
          "internalType": "uint256",
          "name": "index",
          "type": "uint256"
        }
      ],
      "name": "tokenByIndex",
      "outputs": [
        {
          "internalType": "uint256",
          "name": "",
          "type": "uint256"
        }
      ],
      "stateMutability": "view",
      "type": "function"
    },
    {
      "inputs": [
        {
          "internalType": "address",
          "name": "owner",
          "type": "address"
        },
        {
          "internalType": "uint256",
          "name": "index",
          "type": "uint256"
        }
      ],
      "name": "tokenOfOwnerByIndex",
      "outputs": [
        {
          "internalType": "uint256",
          "name": "",
          "type": "uint256"
        }
      ],
      "stateMutability": "view",
      "type": "function"
    },
    {
      "inputs": [
        {
          "internalType": "uint256",
          "name": "tokenId",
          "type": "uint256"
        }
      ],
      "name": "tokenURI",
      "outputs": [
        {
          "internalType": "string",
          "name": "",
          "type": "string"
        }
      ],
      "stateMutability": "view",
      "type": "function"
    },
    {
      "inputs": [],
      "name": "totalSupply",
      "outputs": [
        {
          "internalType": "uint256",
          "name": "",
          "type": "uint256"
        }
      ],
      "stateMutability": "view",
      "type": "function"
    },
    {
      "inputs": [
        {
          "internalType": "address",
          "name": "from",
          "type": "address"
        },
        {
          "internalType": "address",
          "name": "to",
          "type": "address"
        },
        {
          "internalType": "uint256",
          "name": "tokenId",
          "type": "uint256"
        }
      ],
      "name": "transferFrom",
      "outputs": [],
      "stateMutability": "nonpayable",
      "type": "function"
    },
    {
      "inputs": [
        {
          "internalType": "uint256",
          "name": "_apiMatchId",
          "type": "uint256"
        },
        {
          "internalType": "string",
          "name": "_matchResultLink",
          "type": "string"
        },
        {
          "internalType": "uint8",
          "name": "_oddsTeamA",
          "type": "uint8"
        },
        {
          "internalType": "uint8",
          "name": "_oddsTeamB",
          "type": "uint8"
        },
        {
          "internalType": "uint8",
          "name": "_oddsDraw",
          "type": "uint8"
        },
        {
          "internalType": "uint256",
          "name": "_startAt",
          "type": "uint256"
        }
      ],
      "name": "createMatch",
      "outputs": [
        {
          "internalType": "uint256",
          "name": "",
          "type": "uint256"
        }
      ],
      "stateMutability": "nonpayable",
      "type": "function"
    },
    {
      "inputs": [
        {
          "internalType": "uint128",
          "name": "_matchId",
          "type": "uint128"
        },
        {
          "internalType": "uint8",
          "name": "_resultBetOn",
          "type": "uint8"
        }
      ],
      "name": "placeBet",
      "outputs": [
        {
          "internalType": "uint256",
          "name": "",
          "type": "uint256"
        }
      ],
      "stateMutability": "payable",
      "type": "function"
    },
    {
      "inputs": [
        {
          "internalType": "uint128",
          "name": "_matchId",
          "type": "uint128"
        }
      ],
      "name": "startMatch",
      "outputs": [],
      "stateMutability": "nonpayable",
      "type": "function"
    },
    {
      "inputs": [
        {
          "internalType": "uint128",
          "name": "_matchId",
          "type": "uint128"
        },
        {
          "internalType": "uint8",
          "name": "_matchResult",
          "type": "uint8"
        }
      ],
      "name": "closeMatch",
      "outputs": [],
      "stateMutability": "nonpayable",
      "type": "function"
    },
    {
      "inputs": [
        {
          "internalType": "uint128",
          "name": "_smartAssetId",
          "type": "uint128"
        }
      ],
      "name": "liquidateAsset",
      "outputs": [
        {
          "internalType": "bool",
          "name": "",
          "type": "bool"
        }
      ],
      "stateMutability": "payable",
      "type": "function"
    },
    {
      "inputs": [],
      "name": "toggleCircuitBreaker",
      "outputs": [],
      "stateMutability": "nonpayable",
      "type": "function"
    },
    {
      "inputs": [
        {
          "internalType": "uint256",
          "name": "_matchId",
          "type": "uint256"
        }
      ],
      "name": "getMatch",
      "outputs": [
        {
          "components": [
            {
              "internalType": "address",
              "name": "creator",
              "type": "address"
            },
            {
              "internalType": "uint8",
              "name": "oddsTeamA",
              "type": "uint8"
            },
            {
              "internalType": "uint8",
              "name": "oddsTeamB",
              "type": "uint8"
            },
            {
              "internalType": "uint8",
              "name": "oddsDraw",
              "type": "uint8"
            },
            {
              "internalType": "string",
              "name": "matchResultLink",
              "type": "string"
            },
            {
              "internalType": "uint256",
              "name": "totalPayoutTeamA",
              "type": "uint256"
            },
            {
              "internalType": "uint256",
              "name": "totalPayoutTeamB",
              "type": "uint256"
            },
            {
              "internalType": "uint256",
              "name": "totalPayoutDraw",
              "type": "uint256"
            },
            {
              "internalType": "uint256",
              "name": "totalCollected",
              "type": "uint256"
            },
            {
              "internalType": "enum SmartBet.MatchResult",
              "name": "result",
              "type": "uint8"
            },
            {
              "internalType": "enum SmartBet.MatchState",
              "name": "state",
              "type": "uint8"
            },
            {
              "internalType": "bool",
              "name": "exists",
              "type": "bool"
            }
          ],
          "internalType": "struct SmartBet.Match",
          "name": "match_",
          "type": "tuple"
        }
      ],
      "stateMutability": "view",
      "type": "function"
    },
    {
      "inputs": [
        {
          "internalType": "uint256",
          "name": "_smartAssetId",
          "type": "uint256"
        }
      ],
      "name": "getSmartAsset",
      "outputs": [
        {
          "components": [
            {
              "internalType": "address",
              "name": "owner",
              "type": "address"
            },
            {
              "internalType": "uint256",
              "name": "matchId",
              "type": "uint256"
            },
            {
              "internalType": "enum SmartBet.MatchResult",
              "name": "matchResult",
              "type": "uint8"
            },
            {
              "internalType": "uint256",
              "name": "initialValue",
              "type": "uint256"
            },
            {
              "internalType": "uint8",
              "name": "accruedInterest",
              "type": "uint8"
            }
          ],
          "internalType": "struct SmartBet.SmartAsset",
          "name": "asset",
          "type": "tuple"
        }
      ],
      "stateMutability": "view",
      "type": "function"
    },
    {
      "inputs": [],
      "name": "isAdmin",
      "outputs": [
        {
          "internalType": "bool",
          "name": "",
          "type": "bool"
        }
      ],
      "stateMutability": "view",
      "type": "function"
    }
  ],
  "bytecode": "0x60806040526001600e5560006014806101000a81548160ff0219169083151502179055503480156200003057600080fd5b506040518060400160405280600881526020017f536d6172744265740000000000000000000000000000000000000000000000008152506040518060400160405280600481526020017f534d425400000000000000000000000000000000000000000000000000000000815250620000b56301ffc9a760e01b620002c860201b60201c565b8160069080519060200190620000cd929190620003d1565b508060079080519060200190620000e6929190620003d1565b50620000ff6380ac58cd60e01b620002c860201b60201c565b62000117635b5e139f60e01b620002c860201b60201c565b6200012f63780e9d6360e01b620002c860201b60201c565b505033601060006101000a81548173ffffffffffffffffffffffffffffffffffffffff021916908373ffffffffffffffffffffffffffffffffffffffff160217905550604051620001809062000468565b604051809103906000f0801580156200019d573d6000803e3d6000fd5b50601360006101000a81548173ffffffffffffffffffffffffffffffffffffffff021916908373ffffffffffffffffffffffffffffffffffffffff160217905550601360009054906101000a900473ffffffffffffffffffffffffffffffffffffffff1673ffffffffffffffffffffffffffffffffffffffff1663484f4ea96040518163ffffffff1660e01b815260040160206040518083038186803b1580156200024757600080fd5b505afa1580156200025c573d6000803e3d6000fd5b505050506040513d601f19601f82011682018060405250810190620002829190620004ac565b601460006101000a81548173ffffffffffffffffffffffffffffffffffffffff021916908373ffffffffffffffffffffffffffffffffffffffff16021790555062000526565b63ffffffff60e01b817bffffffffffffffffffffffffffffffffffffffffffffffffffffffff1916141562000365576040517f08c379a000000000000000000000000000000000000000000000000000000000815260040180806020018281038252601c8152602001807f4552433136353a20696e76616c696420696e746572666163652069640000000081525060200191505060405180910390fd5b6001600080837bffffffffffffffffffffffffffffffffffffffffffffffffffffffff19167bffffffffffffffffffffffffffffffffffffffffffffffffffffffff1916815260200190815260200160002060006101000a81548160ff02191690831515021790555050565b828054600181600116156101000203166002900490600052602060002090601f01602090048101928262000409576000855562000455565b82601f106200042457805160ff191683800117855562000455565b8280016001018555821562000455579182015b828111156200045457825182559160200191906001019062000437565b5b50905062000464919062000476565b5090565b610d4b80620061c283390190565b5b808211156200049157600081600090555060010162000477565b5090565b600081519050620004a6816200050c565b92915050565b600060208284031215620004bf57600080fd5b6000620004cf8482850162000495565b91505092915050565b6000620004e582620004ec565b9050919050565b600073ffffffffffffffffffffffffffffffffffffffff82169050919050565b6200051781620004d8565b81146200052357600080fd5b50565b615c8c80620005366000396000f3fe6080604052600436106101815760003560e01c80636352211e116100d1578063b6db75a01161008a578063cec85ad711610064578063cec85ad7146105d8578063d2c2cc8414610601578063d5eb63cc1461063e578063e985e9c51461065557610181565b8063b6db75a014610547578063b88d4fde14610572578063c87b56dd1461059b57610181565b80636352211e1461041e5780636c0360eb1461045b57806370a082311461048657806395d89b41146104c3578063a09506b5146104ee578063a22cb4651461051e57610181565b806323b872dd1161013e57806342842e0e1161011857806342842e0e1461034b5780634f6ccce71461037457806352d21e23146103b157806358d33e6d146103ee57610181565b806323b872dd146102a85780632f745c59146102d15780633d092b3d1461030e57610181565b806301ffc9a71461018657806306fdde03146101c3578063081812fc146101ee578063095ea7b31461022b5780630e5cc1a51461025457806318160ddd1461027d575b600080fd5b34801561019257600080fd5b506101ad60048036038101906101a89190614ced565b610692565b6040516101ba91906154a1565b60405180910390f35b3480156101cf57600080fd5b506101d86106f9565b6040516101e591906154e5565b60405180910390f35b3480156101fa57600080fd5b5061021560048036038101906102109190614d7b565b61079b565b604051610222919061545d565b60405180910390f35b34801561023757600080fd5b50610252600480360381019061024d9190614c47565b610836565b005b34801561026057600080fd5b5061027b60048036038101906102769190614d16565b61097a565b005b34801561028957600080fd5b50610292610b5e565b60405161029f91906156e4565b60405180910390f35b3480156102b457600080fd5b506102cf60048036038101906102ca9190614b41565b610b6f565b005b3480156102dd57600080fd5b506102f860048036038101906102f39190614c47565b610be5565b60405161030591906156e4565b60405180910390f35b34801561031a57600080fd5b5061033560048036038101906103309190614d7b565b610c40565b60405161034291906156a7565b60405180910390f35b34801561035757600080fd5b50610372600480360381019061036d9190614b41565b610ebf565b005b34801561038057600080fd5b5061039b60048036038101906103969190614d7b565b610edf565b6040516103a891906156e4565b60405180910390f35b3480156103bd57600080fd5b506103d860048036038101906103d39190614dcd565b610f02565b6040516103e591906156e4565b60405180910390f35b61040860048036038101906104039190614d3f565b6112c9565b60405161041591906156e4565b60405180910390f35b34801561042a57600080fd5b5061044560048036038101906104409190614d7b565b611947565b604051610452919061545d565b60405180910390f35b34801561046757600080fd5b5061047061197e565b60405161047d91906154e5565b60405180910390f35b34801561049257600080fd5b506104ad60048036038101906104a89190614adc565b611a20565b6040516104ba91906156e4565b60405180910390f35b3480156104cf57600080fd5b506104d8611af5565b6040516104e591906154e5565b60405180910390f35b61050860048036038101906105039190614d16565b611b97565b60405161051591906154a1565b60405180910390f35b34801561052a57600080fd5b5061054560048036038101906105409190614c0b565b612057565b005b34801561055357600080fd5b5061055c61220d565b60405161056991906154a1565b60405180910390f35b34801561057e57600080fd5b5061059960048036038101906105949190614b90565b612265565b005b3480156105a757600080fd5b506105c260048036038101906105bd9190614d7b565b6122dd565b6040516105cf91906154e5565b60405180910390f35b3480156105e457600080fd5b506105ff60048036038101906105fa9190614d3f565b6125c6565b005b34801561060d57600080fd5b5061062860048036038101906106239190614d7b565b612d21565b60405161063591906156c9565b60405180910390f35b34801561064a57600080fd5b50610653612ec4565b005b34801561066157600080fd5b5061067c60048036038101906106779190614b05565b612f7d565b60405161068991906154a1565b60405180910390f35b6000806000837bffffffffffffffffffffffffffffffffffffffffffffffffffffffff19167bffffffffffffffffffffffffffffffffffffffffffffffffffffffff1916815260200190815260200160002060009054906101000a900460ff169050919050565b606060068054600181600116156101000203166002900480601f0160208091040260200160405190810160405280929190818152602001828054600181600116156101000203166002900480156107915780601f1061076657610100808354040283529160200191610791565b820191906000526020600020905b81548152906001019060200180831161077457829003601f168201915b5050505050905090565b60006107a682613011565b6107fb576040517f08c379a000000000000000000000000000000000000000000000000000000000815260040180806020018281038252602c815260200180615b81602c913960400191505060405180910390fd5b6004600083815260200190815260200160002060009054906101000a900473ffffffffffffffffffffffffffffffffffffffff169050919050565b600061084182611947565b90508073ffffffffffffffffffffffffffffffffffffffff168373ffffffffffffffffffffffffffffffffffffffff1614156108c8576040517f08c379a0000000000000000000000000000000000000000000000000000000008152600401808060200182810382526021815260200180615c056021913960400191505060405180910390fd5b8073ffffffffffffffffffffffffffffffffffffffff166108e761302e565b73ffffffffffffffffffffffffffffffffffffffff16148061091657506109158161091061302e565b612f7d565b5b61096b576040517f08c379a0000000000000000000000000000000000000000000000000000000008152600401808060200182810382526038815260200180615ad46038913960400191505060405180910390fd5b6109758383613036565b505050565b601060009054906101000a900473ffffffffffffffffffffffffffffffffffffffff1673ffffffffffffffffffffffffffffffffffffffff163373ffffffffffffffffffffffffffffffffffffffff1614610a0a576040517f08c379a0000000000000000000000000000000000000000000000000000000008152600401610a01906155a7565b60405180910390fd5b806fffffffffffffffffffffffffffffffff166016600082815260200190815260200160002060060160029054906101000a900460ff16610a80576040517f08c379a0000000000000000000000000000000000000000000000000000000008152600401610a7790615607565b60405180910390fd5b816fffffffffffffffffffffffffffffffff1660006002811115610aa057fe5b6016600083815260200190815260200160002060060160019054906101000a900460ff166002811115610acf57fe5b14610b0f576040517f08c379a0000000000000000000000000000000000000000000000000000000008152600401610b0690615587565b60405180910390fd5b600160166000856fffffffffffffffffffffffffffffffff16815260200190815260200160002060060160016101000a81548160ff02191690836002811115610b5457fe5b0217905550505050565b6000610b6a60026130ef565b905090565b610b80610b7a61302e565b82613104565b610bd5576040517f08c379a0000000000000000000000000000000000000000000000000000000008152600401808060200182810382526031815260200180615c266031913960400191505060405180910390fd5b610be08383836131f8565b505050565b6000610c3882600160008673ffffffffffffffffffffffffffffffffffffffff1673ffffffffffffffffffffffffffffffffffffffff16815260200190815260200160002061343b90919063ffffffff16565b905092915050565b610c4861470e565b816016600082815260200190815260200160002060060160029054906101000a900460ff16610cac576040517f08c379a0000000000000000000000000000000000000000000000000000000008152600401610ca390615607565b60405180910390fd5b60166000848152602001908152602001600020604051806101800160405290816000820160009054906101000a900473ffffffffffffffffffffffffffffffffffffffff1673ffffffffffffffffffffffffffffffffffffffff1673ffffffffffffffffffffffffffffffffffffffff1681526020016000820160149054906101000a900460ff1660ff1660ff1681526020016000820160159054906101000a900460ff1660ff1660ff1681526020016000820160169054906101000a900460ff1660ff1660ff168152602001600182018054600181600116156101000203166002900480601f016020809104026020016040519081016040528092919081815260200182805460018160011615610100020316600290048015610e115780601f10610de657610100808354040283529160200191610e11565b820191906000526020600020905b815481529060010190602001808311610df457829003601f168201915b50505050508152602001600282015481526020016003820154815260200160048201548152602001600582015481526020016006820160009054906101000a900460ff166003811115610e6057fe5b6003811115610e6b57fe5b81526020016006820160019054906101000a900460ff166002811115610e8d57fe5b6002811115610e9857fe5b81526020016006820160029054906101000a900460ff161515151581525050915050919050565b610eda83838360405180602001604052806000815250612265565b505050565b600080610ef683600261345590919063ffffffff16565b50905080915050919050565b6000876000601760008381526020019081526020016000205414610f5b576040517f08c379a0000000000000000000000000000000000000000000000000000000008152600401610f52906155c7565b60405180910390fd5b601060009054906101000a900473ffffffffffffffffffffffffffffffffffffffff1673ffffffffffffffffffffffffffffffffffffffff163373ffffffffffffffffffffffffffffffffffffffff1614610feb576040517f08c379a0000000000000000000000000000000000000000000000000000000008152600401610fe2906155a7565b60405180910390fd5b610ff56011613481565b60006110016011613497565b90506040518061018001604052803373ffffffffffffffffffffffffffffffffffffffff1681526020018860ff1681526020018760ff1681526020018660ff1681526020018a8a8080601f016020809104026020016040519081016040528093929190818152602001838380828437600081840152601f19601f82011690508083019250505050505050815260200160008152602001600081526020016000815260200160008152602001600060038111156110b957fe5b8152602001600060028111156110cb57fe5b8152602001600115158152506016600083815260200190815260200160002060008201518160000160006101000a81548173ffffffffffffffffffffffffffffffffffffffff021916908373ffffffffffffffffffffffffffffffffffffffff16021790555060208201518160000160146101000a81548160ff021916908360ff16021790555060408201518160000160156101000a81548160ff021916908360ff16021790555060608201518160000160166101000a81548160ff021916908360ff16021790555060808201518160010190805190602001906111b09291906147a6565b5060a0820151816002015560c0820151816003015560e0820151816004015561010082015181600501556101208201518160060160006101000a81548160ff021916908360038111156111ff57fe5b02179055506101408201518160060160016101000a81548160ff0219169083600281111561122957fe5b02179055506101608201518160060160026101000a81548160ff02191690831515021790555090505080601760008c81526020019081526020016000208190555042843373ffffffffffffffffffffffffffffffffffffffff167ebe7447ab3e31a705f7f1de4d55c8f821c89ef30288b0cb3e6458ac2d2d0ec5846040516112b191906156e4565b60405180910390a48092505050979650505050505050565b600060148054906101000a900460ff1615611319576040517f08c379a0000000000000000000000000000000000000000000000000000000008152600401611310906155e7565b60405180910390fd5b826fffffffffffffffffffffffffffffffff166016600082815260200190815260200160002060060160029054906101000a900460ff1661138f576040517f08c379a000000000000000000000000000000000000000000000000000000000815260040161138690615607565b60405180910390fd5b836fffffffffffffffffffffffffffffffff16600060028111156113af57fe5b6016600083815260200190815260200160002060060160019054906101000a900460ff1660028111156113de57fe5b1461141e576040517f08c379a000000000000000000000000000000000000000000000000000000000815260040161141590615587565b60405180910390fd5b846fffffffffffffffffffffffffffffffff166001611472576040517f08c379a000000000000000000000000000000000000000000000000000000000815260040161146990615627565b60405180910390fd5b846002600381111561148057fe5b8160ff16600381111561148f57fe5b600381111561149a57fe5b14806114c957506003808111156114ad57fe5b8160ff1660038111156114bc57fe5b60038111156114c757fe5b145b806114f85750600160038111156114dc57fe5b8160ff1660038111156114eb57fe5b60038111156114f657fe5b145b611537576040517f08c379a000000000000000000000000000000000000000000000000000000000815260040161152e90615547565b60405180910390fd5b600034141561157b576040517f08c379a000000000000000000000000000000000000000000000000000000000815260040161157290615647565b60405180910390fd5b6000339050600080601360009054906101000a900473ffffffffffffffffffffffffffffffffffffffff1673ffffffffffffffffffffffffffffffffffffffff1663d3986f0834306040518363ffffffff1660e01b81526004016115e09291906156ff565b600060405180830381600087803b1580156115fa57600080fd5b505af115801561160e573d6000803e3d6000fd5b505050506040513d6000823e3d601f19601f820116820180604052508101906116379190614c83565b905060008160018151811061164857fe5b6020026020010151905060008a60ff16600381111561166357fe5b90506002600381111561167257fe5b81600381111561167e57fe5b14156116fc57601660008d6fffffffffffffffffffffffffffffffff16815260200190815260200160002060000160149054906101000a900460ff1660ff168202935083601660008e6fffffffffffffffffffffffffffffffff16815260200190815260200160002060020160008282540192505081905550611807565b60038081111561170857fe5b81600381111561171457fe5b141561179257601660008d6fffffffffffffffffffffffffffffffff16815260200190815260200160002060000160159054906101000a900460ff1660ff168202935083601660008e6fffffffffffffffffffffffffffffffff16815260200190815260200160002060030160008282540192505081905550611806565b601660008d6fffffffffffffffffffffffffffffffff16815260200190815260200160002060000160169054906101000a900460ff1660ff168202935083601660008e6fffffffffffffffffffffffffffffffff168152602001908152602001600020600401600082825401925050819055505b5b81601660008e6fffffffffffffffffffffffffffffffff16815260200190815260200160002060050160008282540192505081905550600061185d86868f6fffffffffffffffffffffffffffffffff16856134a5565b9050601860008e6fffffffffffffffffffffffffffffffff168152602001908152602001600020600083600381111561189257fe5b600381111561189d57fe5b8152602001908152602001600020819080600181540180825580915050600190039060005260206000200160009091909190915055428d6fffffffffffffffffffffffffffffffff168773ffffffffffffffffffffffffffffffffffffffff167fb1283c9c8bacdf8cd70a313323578124c5fe2beedea39d5b268157d1638236aa8660405161192c91906156e4565b60405180910390a4809a505050505050505050505092915050565b600061197782604051806060016040528060298152602001615b3660299139600261362c9092919063ffffffff16565b9050919050565b606060098054600181600116156101000203166002900480601f016020809104026020016040519081016040528092919081815260200182805460018160011615610100020316600290048015611a165780601f106119eb57610100808354040283529160200191611a16565b820191906000526020600020905b8154815290600101906020018083116119f957829003601f168201915b5050505050905090565b60008073ffffffffffffffffffffffffffffffffffffffff168273ffffffffffffffffffffffffffffffffffffffff161415611aa7576040517f08c379a000000000000000000000000000000000000000000000000000000000815260040180806020018281038252602a815260200180615b0c602a913960400191505060405180910390fd5b611aee600160008473ffffffffffffffffffffffffffffffffffffffff1673ffffffffffffffffffffffffffffffffffffffff16815260200190815260200160002061364b565b9050919050565b606060078054600181600116156101000203166002900480601f016020809104026020016040519081016040528092919081815260200182805460018160011615610100020316600290048015611b8d5780601f10611b6257610100808354040283529160200191611b8d565b820191906000526020600020905b815481529060010190602001808311611b7057829003601f168201915b5050505050905090565b600060148054906101000a900460ff1615611be7576040517f08c379a0000000000000000000000000000000000000000000000000000000008152600401611bde906155e7565b60405180910390fd5b816fffffffffffffffffffffffffffffffff16611c0381613011565b611c42576040517f08c379a0000000000000000000000000000000000000000000000000000000008152600401611c3990615527565b60405180910390fd5b826fffffffffffffffffffffffffffffffff163373ffffffffffffffffffffffffffffffffffffffff16611c7582611947565b73ffffffffffffffffffffffffffffffffffffffff1614611ccb576040517f08c379a0000000000000000000000000000000000000000000000000000000008152600401611cc290615567565b60405180910390fd5b600060156000866fffffffffffffffffffffffffffffffff1681526020019081526020016000206040518060a00160405290816000820160009054906101000a900473ffffffffffffffffffffffffffffffffffffffff1673ffffffffffffffffffffffffffffffffffffffff1673ffffffffffffffffffffffffffffffffffffffff168152602001600182015481526020016002820160009054906101000a900460ff166003811115611d7b57fe5b6003811115611d8657fe5b8152602001600382015481526020016004820160009054906101000a900460ff1660ff1660ff16815250509050600280811115611dbf57fe5b601660008360200151815260200190815260200160002060060160019054906101000a900460ff166002811115611df257fe5b14611e32576040517f08c379a0000000000000000000000000000000000000000000000000000000008152600401611e2990615687565b60405180910390fd5b8060600151601460009054906101000a900473ffffffffffffffffffffffffffffffffffffffff1673ffffffffffffffffffffffffffffffffffffffff166370a08231306040518263ffffffff1660e01b8152600401611e92919061545d565b60206040518083038186803b158015611eaa57600080fd5b505afa158015611ebe573d6000803e3d6000fd5b505050506040513d601f19601f82011682018060405250810190611ee29190614da4565b1015611f23576040517f08c379a0000000000000000000000000000000000000000000000000000000008152600401611f1a90615507565b60405180910390fd5b611f3e856fffffffffffffffffffffffffffffffff16613660565b601460009054906101000a900473ffffffffffffffffffffffffffffffffffffffff1673ffffffffffffffffffffffffffffffffffffffff1663a9059cbb3383606001516040518363ffffffff1660e01b8152600401611f9f929190615478565b602060405180830381600087803b158015611fb957600080fd5b505af1158015611fcd573d6000803e3d6000fd5b505050506040513d601f19601f82011682018060405250810190611ff19190614cc4565b5080602001513373ffffffffffffffffffffffffffffffffffffffff167f272d35cd904617477d1f00fc52a260e0fd2bbdb7052bb00fc0793393cc1c8d1a836060015142604051612043929190615728565b60405180910390a360019350505050919050565b61205f61302e565b73ffffffffffffffffffffffffffffffffffffffff168273ffffffffffffffffffffffffffffffffffffffff161415612100576040517f08c379a00000000000000000000000000000000000000000000000000000000081526004018080602001828103825260198152602001807f4552433732313a20617070726f766520746f2063616c6c65720000000000000081525060200191505060405180910390fd5b806005600061210d61302e565b73ffffffffffffffffffffffffffffffffffffffff1673ffffffffffffffffffffffffffffffffffffffff16815260200190815260200160002060008473ffffffffffffffffffffffffffffffffffffffff1673ffffffffffffffffffffffffffffffffffffffff16815260200190815260200160002060006101000a81548160ff0219169083151502179055508173ffffffffffffffffffffffffffffffffffffffff166121ba61302e565b73ffffffffffffffffffffffffffffffffffffffff167f17307eab39ab6107e8899845ad3d59bd9653f200f220920489ca2b5937696c318360405180821515815260200191505060405180910390a35050565b6000601060009054906101000a900473ffffffffffffffffffffffffffffffffffffffff1673ffffffffffffffffffffffffffffffffffffffff163373ffffffffffffffffffffffffffffffffffffffff1614905090565b61227661227061302e565b83613104565b6122cb576040517f08c379a0000000000000000000000000000000000000000000000000000000008152600401808060200182810382526031815260200180615c266031913960400191505060405180910390fd5b6122d78484848461366c565b50505050565b60606122e882613011565b61233d576040517f08c379a000000000000000000000000000000000000000000000000000000000815260040180806020018281038252602f815260200180615bd6602f913960400191505060405180910390fd5b6000600860008481526020019081526020016000208054600181600116156101000203166002900480601f0160208091040260200160405190810160405280929190818152602001828054600181600116156101000203166002900480156123e65780601f106123bb576101008083540402835291602001916123e6565b820191906000526020600020905b8154815290600101906020018083116123c957829003601f168201915b5050505050905060006009805460018160011615610100020316600290049050141561241557809150506125c1565b6000815111156124ee5760098160405160200180838054600181600116156101000203166002900480156124805780601f1061245e576101008083540402835291820191612480565b820191906000526020600020905b81548152906001019060200180831161246c575b505082805190602001908083835b602083106124b1578051825260208201915060208101905060208303925061248e565b6001836020036101000a038019825116818451168082178552505050505050905001925050506040516020818303038152906040529150506125c1565b60096124f9846136de565b60405160200180838054600181600116156101000203166002900480156125575780601f10612535576101008083540402835291820191612557565b820191906000526020600020905b815481529060010190602001808311612543575b505082805190602001908083835b602083106125885780518252602082019150602081019050602083039250612565565b6001836020036101000a038019825116818451168082178552505050505050905001925050506040516020818303038152906040529150505b919050565b601060009054906101000a900473ffffffffffffffffffffffffffffffffffffffff1673ffffffffffffffffffffffffffffffffffffffff163373ffffffffffffffffffffffffffffffffffffffff1614612656576040517f08c379a000000000000000000000000000000000000000000000000000000000815260040161264d906155a7565b60405180910390fd5b816fffffffffffffffffffffffffffffffff166016600082815260200190815260200160002060060160029054906101000a900460ff166126cc576040517f08c379a00000000000000000000000000000000000000000000000000000000081526004016126c390615607565b60405180910390fd5b826fffffffffffffffffffffffffffffffff16600160028111156126ec57fe5b6016600083815260200190815260200160002060060160019054906101000a900460ff16600281111561271b57fe5b1461275b576040517f08c379a000000000000000000000000000000000000000000000000000000000815260040161275290615667565b60405180910390fd5b826002600381111561276957fe5b8160ff16600381111561277857fe5b600381111561278357fe5b14806127b2575060038081111561279657fe5b8160ff1660038111156127a557fe5b60038111156127b057fe5b145b806127e15750600160038111156127c557fe5b8160ff1660038111156127d457fe5b60038111156127df57fe5b145b612820576040517f08c379a000000000000000000000000000000000000000000000000000000000815260040161281790615547565b60405180910390fd5b600260166000876fffffffffffffffffffffffffffffffff16815260200190815260200160002060060160016101000a81548160ff0219169083600281111561286557fe5b021790555060008460ff16600381111561287b57fe5b9050612899866fffffffffffffffffffffffffffffffff1682613825565b600260038111156128a657fe5b8160038111156128b257fe5b1415612a045761295b60186000886fffffffffffffffffffffffffffffffff16815260200190815260200160002060006003808111156128ee57fe5b60038111156128f957fe5b815260200190815260200160002080548060200260200160405190810160405280929190818152602001828054801561295157602002820191906000526020600020905b81548152602001906001019080831161293d575b50505050506138bd565b6129ff60186000886fffffffffffffffffffffffffffffffff16815260200190815260200160002060006001600381111561299257fe5b600381111561299d57fe5b81526020019081526020016000208054806020026020016040519081016040528092919081815260200182805480156129f557602002820191906000526020600020905b8154815260200190600101908083116129e1575b50505050506138bd565b612cb8565b600380811115612a1057fe5b816003811115612a1c57fe5b1415612b6f57612ac660186000886fffffffffffffffffffffffffffffffff168152602001908152602001600020600060026003811115612a5957fe5b6003811115612a6457fe5b8152602001908152602001600020805480602002602001604051908101604052809291908181526020018280548015612abc57602002820191906000526020600020905b815481526020019060010190808311612aa8575b50505050506138bd565b612b6a60186000886fffffffffffffffffffffffffffffffff168152602001908152602001600020600060016003811115612afd57fe5b6003811115612b0857fe5b8152602001908152602001600020805480602002602001604051908101604052809291908181526020018280548015612b6057602002820191906000526020600020905b815481526020019060010190808311612b4c575b50505050506138bd565b612cb7565b612c1360186000886fffffffffffffffffffffffffffffffff168152602001908152602001600020600060026003811115612ba657fe5b6003811115612bb157fe5b8152602001908152602001600020805480602002602001604051908101604052809291908181526020018280548015612c0957602002820191906000526020600020905b815481526020019060010190808311612bf5575b50505050506138bd565b612cb660186000886fffffffffffffffffffffffffffffffff1681526020019081526020016000206000600380811115612c4957fe5b6003811115612c5457fe5b8152602001908152602001600020805480602002602001604051908101604052809291908181526020018280548015612cac57602002820191906000526020600020905b815481526020019060010190808311612c98575b50505050506138bd565b5b5b856fffffffffffffffffffffffffffffffff163373ffffffffffffffffffffffffffffffffffffffff167fd29dba8c386c3bc42bf8ec778a1dfa55ec92d4ec2799213b01d4d627487d97bb42604051612d1191906156e4565b60405180910390a3505050505050565b612d29614834565b81612d3381613011565b612d72576040517f08c379a0000000000000000000000000000000000000000000000000000000008152600401612d6990615527565b60405180910390fd5b823373ffffffffffffffffffffffffffffffffffffffff16612d9382611947565b73ffffffffffffffffffffffffffffffffffffffff1614612de9576040517f08c379a0000000000000000000000000000000000000000000000000000000008152600401612de090615567565b60405180910390fd5b601560008581526020019081526020016000206040518060a00160405290816000820160009054906101000a900473ffffffffffffffffffffffffffffffffffffffff1673ffffffffffffffffffffffffffffffffffffffff1673ffffffffffffffffffffffffffffffffffffffff168152602001600182015481526020016002820160009054906101000a900460ff166003811115612e8557fe5b6003811115612e9057fe5b8152602001600382015481526020016004820160009054906101000a900460ff1660ff1660ff168152505092505050919050565b601060009054906101000a900473ffffffffffffffffffffffffffffffffffffffff1673ffffffffffffffffffffffffffffffffffffffff163373ffffffffffffffffffffffffffffffffffffffff1614612f54576040517f08c379a0000000000000000000000000000000000000000000000000000000008152600401612f4b906155a7565b60405180910390fd5b60148054906101000a900460ff16156014806101000a81548160ff021916908315150217905550565b6000600560008473ffffffffffffffffffffffffffffffffffffffff1673ffffffffffffffffffffffffffffffffffffffff16815260200190815260200160002060008373ffffffffffffffffffffffffffffffffffffffff1673ffffffffffffffffffffffffffffffffffffffff16815260200190815260200160002060009054906101000a900460ff16905092915050565b60006130278260026138f690919063ffffffff16565b9050919050565b600033905090565b816004600083815260200190815260200160002060006101000a81548173ffffffffffffffffffffffffffffffffffffffff021916908373ffffffffffffffffffffffffffffffffffffffff160217905550808273ffffffffffffffffffffffffffffffffffffffff166130a983611947565b73ffffffffffffffffffffffffffffffffffffffff167f8c5be1e5ebec7d5bd14f71427d1e84f3dd0314c0f7b2291e5b200ac8c7c3b92560405160405180910390a45050565b60006130fd82600001613910565b9050919050565b600061310f82613011565b613164576040517f08c379a000000000000000000000000000000000000000000000000000000000815260040180806020018281038252602c815260200180615aa8602c913960400191505060405180910390fd5b600061316f83611947565b90508073ffffffffffffffffffffffffffffffffffffffff168473ffffffffffffffffffffffffffffffffffffffff1614806131de57508373ffffffffffffffffffffffffffffffffffffffff166131c68461079b565b73ffffffffffffffffffffffffffffffffffffffff16145b806131ef57506131ee8185612f7d565b5b91505092915050565b8273ffffffffffffffffffffffffffffffffffffffff1661321882611947565b73ffffffffffffffffffffffffffffffffffffffff1614613284576040517f08c379a0000000000000000000000000000000000000000000000000000000008152600401808060200182810382526029815260200180615bad6029913960400191505060405180910390fd5b600073ffffffffffffffffffffffffffffffffffffffff168273ffffffffffffffffffffffffffffffffffffffff16141561330a576040517f08c379a0000000000000000000000000000000000000000000000000000000008152600401808060200182810382526024815260200180615a846024913960400191505060405180910390fd5b613315838383613921565b613320600082613036565b61337181600160008673ffffffffffffffffffffffffffffffffffffffff1673ffffffffffffffffffffffffffffffffffffffff16815260200190815260200160002061392690919063ffffffff16565b506133c381600160008573ffffffffffffffffffffffffffffffffffffffff1673ffffffffffffffffffffffffffffffffffffffff16815260200190815260200160002061394090919063ffffffff16565b506133da8183600261395a9092919063ffffffff16565b50808273ffffffffffffffffffffffffffffffffffffffff168473ffffffffffffffffffffffffffffffffffffffff167fddf252ad1be2c89b69c2b068fc378daa952ba7f163c4a11628f55a4df523b3ef60405160405180910390a4505050565b600061344a836000018361398f565b60001c905092915050565b6000806000806134688660000186613a12565b915091508160001c8160001c9350935050509250929050565b6001816000016000828254019250508190555050565b600081600001549050919050565b60006134b16012613481565b60006134bd6012613497565b90506134c98682613aab565b6040518060a001604052803373ffffffffffffffffffffffffffffffffffffffff16815260200185815260200184600381111561350257fe5b8152602001868152602001600060ff168152506015600083815260200190815260200160002060008201518160000160006101000a81548173ffffffffffffffffffffffffffffffffffffffff021916908373ffffffffffffffffffffffffffffffffffffffff1602179055506020820151816001015560408201518160020160006101000a81548160ff0219169083600381111561359d57fe5b02179055506060820151816003015560808201518160040160006101000a81548160ff021916908360ff1602179055509050508573ffffffffffffffffffffffffffffffffffffffff167fc4513e6a2d519757839359ef7a4177aac1624cd70664ae9ecdc9eab45bafca408242604051613618929190615728565b60405180910390a280915050949350505050565b600061363f846000018460001b84613c9f565b60001c90509392505050565b600061365982600001613d95565b9050919050565b61366981613da6565b50565b6136778484846131f8565b61368384848484613ee0565b6136d8576040517f08c379a0000000000000000000000000000000000000000000000000000000008152600401808060200182810382526032815260200180615a526032913960400191505060405180910390fd5b50505050565b60606000821415613726576040518060400160405280600181526020017f30000000000000000000000000000000000000000000000000000000000000008152509050613820565b600082905060005b60008214613750578080600101915050600a828161374857fe5b04915061372e565b60008167ffffffffffffffff8111801561376957600080fd5b506040519080825280601f01601f19166020018201604052801561379c5781602001600182028036833780820191505090505b50905060006001830390508593505b6000841461381857600a84816137bd57fe5b0660300160f81b828280600190039350815181106137d757fe5b60200101907effffffffffffffffffffffffffffffffffffffffffffffffffffffffffffff1916908160001a905350600a848161381057fe5b0493506137ab565b819450505050505b919050565b806016600084815260200190815260200160002060060160006101000a81548160ff0219169083600381111561385757fe5b0217905550817f82ab24714d54369c755574228baf8bf3da9c1170142baa4a09b52257853c6dae6016600085815260200190815260200160002060060160009054906101000a900460ff16426040516138b19291906154bc565b60405180910390a25050565b60005b81518110156138f2576138e58282815181106138d857fe5b6020026020010151613660565b80806001019150506138c0565b5050565b6000613908836000018360001b6140f9565b905092915050565b600081600001805490509050919050565b505050565b6000613938836000018360001b61411c565b905092915050565b6000613952836000018360001b614204565b905092915050565b6000613986846000018460001b8473ffffffffffffffffffffffffffffffffffffffff1660001b614274565b90509392505050565b6000818360000180549050116139f0576040517f08c379a0000000000000000000000000000000000000000000000000000000008152600401808060200182810382526022815260200180615a306022913960400191505060405180910390fd5b8260000182815481106139ff57fe5b9060005260206000200154905092915050565b60008082846000018054905011613a74576040517f08c379a0000000000000000000000000000000000000000000000000000000008152600401808060200182810382526022815260200180615b5f6022913960400191505060405180910390fd5b6000846000018481548110613a8557fe5b906000526020600020906002020190508060000154816001015492509250509250929050565b600073ffffffffffffffffffffffffffffffffffffffff168273ffffffffffffffffffffffffffffffffffffffff161415613b4e576040517f08c379a00000000000000000000000000000000000000000000000000000000081526004018080602001828103825260208152602001807f4552433732313a206d696e7420746f20746865207a65726f206164647265737381525060200191505060405180910390fd5b613b5781613011565b15613bca576040517f08c379a000000000000000000000000000000000000000000000000000000000815260040180806020018281038252601c8152602001807f4552433732313a20746f6b656e20616c7265616479206d696e7465640000000081525060200191505060405180910390fd5b613bd660008383613921565b613c2781600160008573ffffffffffffffffffffffffffffffffffffffff1673ffffffffffffffffffffffffffffffffffffffff16815260200190815260200160002061394090919063ffffffff16565b50613c3e8183600261395a9092919063ffffffff16565b50808273ffffffffffffffffffffffffffffffffffffffff16600073ffffffffffffffffffffffffffffffffffffffff167fddf252ad1be2c89b69c2b068fc378daa952ba7f163c4a11628f55a4df523b3ef60405160405180910390a45050565b60008084600101600085815260200190815260200160002054905060008114158390613d66576040517f08c379a00000000000000000000000000000000000000000000000000000000081526004018080602001828103825283818151815260200191508051906020019080838360005b83811015613d2b578082015181840152602081019050613d10565b50505050905090810190601f168015613d585780820380516001836020036101000a031916815260200191505b509250505060405180910390fd5b50846000016001820381548110613d7957fe5b9060005260206000209060020201600101549150509392505050565b600081600001805490509050919050565b6000613db182611947565b9050613dbf81600084613921565b613dca600083613036565b60006008600084815260200190815260200160002080546001816001161561010002031660029004905014613e1957600860008381526020019081526020016000206000613e189190614887565b5b613e6a82600160008473ffffffffffffffffffffffffffffffffffffffff1673ffffffffffffffffffffffffffffffffffffffff16815260200190815260200160002061392690919063ffffffff16565b50613e7f82600261435090919063ffffffff16565b5081600073ffffffffffffffffffffffffffffffffffffffff168273ffffffffffffffffffffffffffffffffffffffff167fddf252ad1be2c89b69c2b068fc378daa952ba7f163c4a11628f55a4df523b3ef60405160405180910390a45050565b6000613f018473ffffffffffffffffffffffffffffffffffffffff1661436a565b613f0e57600190506140f1565b600061407863150b7a0260e01b613f2361302e565b888787604051602401808573ffffffffffffffffffffffffffffffffffffffff1681526020018473ffffffffffffffffffffffffffffffffffffffff16815260200183815260200180602001828103825283818151815260200191508051906020019080838360005b83811015613fa7578082015181840152602081019050613f8c565b50505050905090810190601f168015613fd45780820380516001836020036101000a031916815260200191505b5095505050505050604051602081830303815290604052907bffffffffffffffffffffffffffffffffffffffffffffffffffffffff19166020820180517bffffffffffffffffffffffffffffffffffffffffffffffffffffffff8381831617835250505050604051806060016040528060328152602001615a52603291398773ffffffffffffffffffffffffffffffffffffffff166143b59092919063ffffffff16565b9050600081806020019051602081101561409157600080fd5b8101908080519060200190929190505050905063150b7a0260e01b7bffffffffffffffffffffffffffffffffffffffffffffffffffffffff1916817bffffffffffffffffffffffffffffffffffffffffffffffffffffffff191614925050505b949350505050565b600080836001016000848152602001908152602001600020541415905092915050565b600080836001016000848152602001908152602001600020549050600081146141f8576000600182039050600060018660000180549050039050600086600001828154811061416757fe5b906000526020600020015490508087600001848154811061418457fe5b90600052602060002001819055506001830187600101600083815260200190815260200160002081905550866000018054806141bc57fe5b600190038181906000526020600020016000905590558660010160008781526020019081526020016000206000905560019450505050506141fe565b60009150505b92915050565b600061421083836143cd565b61426957826000018290806001815401808255809150506001900390600052602060002001600090919091909150558260000180549050836001016000848152602001908152602001600020819055506001905061426e565b600090505b92915050565b600080846001016000858152602001908152602001600020549050600081141561431b57846000016040518060400160405280868152602001858152509080600181540180825580915050600190039060005260206000209060020201600090919091909150600082015181600001556020820151816001015550508460000180549050856001016000868152602001908152602001600020819055506001915050614349565b8285600001600183038154811061432e57fe5b90600052602060002090600202016001018190555060009150505b9392505050565b6000614362836000018360001b6143f0565b905092915050565b60008060007fc5d2460186f7233c927e7db2dcc703c0e500b653ca82273b7bfad8045d85a47060001b9050833f91508082141580156143ac57506000801b8214155b92505050919050565b60606143c48484600085614509565b90509392505050565b600080836001016000848152602001908152602001600020541415905092915050565b600080836001016000848152602001908152602001600020549050600081146144fd576000600182039050600060018660000180549050039050600086600001828154811061443b57fe5b906000526020600020906002020190508087600001848154811061445b57fe5b90600052602060002090600202016000820154816000015560018201548160010155905050600183018760010160008360000154815260200190815260200160002081905550866000018054806144ae57fe5b6001900381819060005260206000209060020201600080820160009055600182016000905550509055866001016000878152602001908152602001600020600090556001945050505050614503565b60009150505b92915050565b60606145148561436a565b614586576040517f08c379a000000000000000000000000000000000000000000000000000000000815260040180806020018281038252601d8152602001807f416464726573733a2063616c6c20746f206e6f6e2d636f6e747261637400000081525060200191505060405180910390fd5b6000808673ffffffffffffffffffffffffffffffffffffffff1685876040518082805190602001908083835b602083106145d557805182526020820191506020810190506020830392506145b2565b6001836020036101000a03801982511681845116808217855250505050505090500191505060006040518083038185875af1925050503d8060008114614637576040519150601f19603f3d011682016040523d82523d6000602084013e61463c565b606091505b50915091508115614651578092505050614706565b6000815111156146645780518082602001fd5b836040517f08c379a00000000000000000000000000000000000000000000000000000000081526004018080602001828103825283818151815260200191508051906020019080838360005b838110156146cb5780820151818401526020810190506146b0565b50505050905090810190601f1680156146f85780820380516001836020036101000a031916815260200191505b509250505060405180910390fd5b949350505050565b604051806101800160405280600073ffffffffffffffffffffffffffffffffffffffff168152602001600060ff168152602001600060ff168152602001600060ff16815260200160608152602001600081526020016000815260200160008152602001600081526020016000600381111561478557fe5b81526020016000600281111561479757fe5b81526020016000151581525090565b828054600181600116156101000203166002900490600052602060002090601f0160209004810192826147dc5760008555614823565b82601f106147f557805160ff1916838001178555614823565b82800160010185558215614823579182015b82811115614822578251825591602001919060010190614807565b5b50905061483091906148cf565b5090565b6040518060a00160405280600073ffffffffffffffffffffffffffffffffffffffff168152602001600081526020016000600381111561487057fe5b815260200160008152602001600060ff1681525090565b50805460018160011615610100020316600290046000825580601f106148ad57506148cc565b601f0160209004906000526020600020908101906148cb91906148cf565b5b50565b5b808211156148e85760008160009055506001016148d0565b5090565b60006148ff6148fa84615782565b615751565b9050808382526020820190508285602086028201111561491e57600080fd5b60005b8581101561494e57816149348882614ab2565b845260208401935060208301925050600181019050614921565b5050509392505050565b600061496b614966846157ae565b615751565b90508281526020810184848401111561498357600080fd5b61498e848285615928565b509392505050565b6000813590506149a5816159a5565b92915050565b600082601f8301126149bc57600080fd5b81516149cc8482602086016148ec565b91505092915050565b6000813590506149e4816159bc565b92915050565b6000815190506149f9816159bc565b92915050565b600081359050614a0e816159d3565b92915050565b600082601f830112614a2557600080fd5b8135614a35848260208601614958565b91505092915050565b60008083601f840112614a5057600080fd5b8235905067ffffffffffffffff811115614a6957600080fd5b602083019150836001820283011115614a8157600080fd5b9250929050565b600081359050614a97816159ea565b92915050565b600081359050614aac81615a01565b92915050565b600081519050614ac181615a01565b92915050565b600081359050614ad681615a18565b92915050565b600060208284031215614aee57600080fd5b6000614afc84828501614996565b91505092915050565b60008060408385031215614b1857600080fd5b6000614b2685828601614996565b9250506020614b3785828601614996565b9150509250929050565b600080600060608486031215614b5657600080fd5b6000614b6486828701614996565b9350506020614b7586828701614996565b9250506040614b8686828701614a9d565b9150509250925092565b60008060008060808587031215614ba657600080fd5b6000614bb487828801614996565b9450506020614bc587828801614996565b9350506040614bd687828801614a9d565b925050606085013567ffffffffffffffff811115614bf357600080fd5b614bff87828801614a14565b91505092959194509250565b60008060408385031215614c1e57600080fd5b6000614c2c85828601614996565b9250506020614c3d858286016149d5565b9150509250929050565b60008060408385031215614c5a57600080fd5b6000614c6885828601614996565b9250506020614c7985828601614a9d565b9150509250929050565b600060208284031215614c9557600080fd5b600082015167ffffffffffffffff811115614caf57600080fd5b614cbb848285016149ab565b91505092915050565b600060208284031215614cd657600080fd5b6000614ce4848285016149ea565b91505092915050565b600060208284031215614cff57600080fd5b6000614d0d848285016149ff565b91505092915050565b600060208284031215614d2857600080fd5b6000614d3684828501614a88565b91505092915050565b60008060408385031215614d5257600080fd5b6000614d6085828601614a88565b9250506020614d7185828601614ac7565b9150509250929050565b600060208284031215614d8d57600080fd5b6000614d9b84828501614a9d565b91505092915050565b600060208284031215614db657600080fd5b6000614dc484828501614ab2565b91505092915050565b600080600080600080600060c0888a031215614de857600080fd5b6000614df68a828b01614a9d565b975050602088013567ffffffffffffffff811115614e1357600080fd5b614e1f8a828b01614a3e565b96509650506040614e328a828b01614ac7565b9450506060614e438a828b01614ac7565b9350506080614e548a828b01614ac7565b92505060a0614e658a828b01614a9d565b91505092959891949750929550565b614e7d816158ce565b82525050565b614e8c8161580b565b82525050565b614e9b8161580b565b82525050565b614eaa8161581d565b82525050565b614eb98161581d565b82525050565b614ec8816158e0565b82525050565b614ed7816158e0565b82525050565b614ee6816158f2565b82525050565b6000614ef7826157de565b614f0181856157e9565b9350614f11818560208601615937565b614f1a8161596c565b840191505092915050565b6000614f30826157de565b614f3a81856157fa565b9350614f4a818560208601615937565b614f538161596c565b840191505092915050565b6000614f6b601f836157fa565b91507f436f6e74726163742068617320696e73756666696369656e742066756e6473006000830152602082019050919050565b6000614fab600d836157fa565b91507f496e76616c696420746f6b656e000000000000000000000000000000000000006000830152602082019050919050565b6000614feb6014836157fa565b91507f496e76616c6964206d6174636820726573756c740000000000000000000000006000830152602082019050919050565b600061502b6019836157fa565b91507f63616c6c6572206973206e6f7420746f6b656e206f776e6572000000000000006000830152602082019050919050565b600061506b600d836157fa565b91507f6d617463682073746172746564000000000000000000000000000000000000006000830152602082019050919050565b60006150ab6013836157fa565b91507f63616c6c6572206973206e6f74206f776e6572000000000000000000000000006000830152602082019050919050565b60006150eb6013836157fa565b91507f617069206d6174636820494420657869737473000000000000000000000000006000830152602082019050919050565b600061512b6015836157fa565b91507f4369726375697420627265616b6572206973206f6e00000000000000000000006000830152602082019050919050565b600061516b601d836157fa565b91507f6f6e20636861696e206d6174636820646f6573206e6f742065786973740000006000830152602082019050919050565b60006151ab6012836157fa565b91507f426574206973206e6f7420616c6c6f77656400000000000000000000000000006000830152602082019050919050565b60006151eb6012836157fa565b91507f496e76616c696420616d6f756e742062657400000000000000000000000000006000830152602082019050919050565b600061522b6011836157fa565b91507f6d61746368206e6f7420737461727465640000000000000000000000000000006000830152602082019050919050565b600061526b602e836157fa565b91507f43616e6e6f74206c697175696461746520617373657420756e74696c206d617460008301527f63682069732066696e69736865640000000000000000000000000000000000006020830152604082019050919050565b6000610180830160008301516152dd6000860182614e83565b5060208301516152f0602086018261544e565b506040830151615303604086018261544e565b506060830151615316606086018261544e565b506080830151848203608086015261532e8282614eec565b91505060a083015161534360a0860182615430565b5060c083015161535660c0860182615430565b5060e083015161536960e0860182615430565b5061010083015161537e610100860182615430565b50610120830151615393610120860182614ebf565b506101408301516153a8610140860182614edd565b506101608301516153bd610160860182614ea1565b508091505092915050565b60a0820160008201516153de6000850182614e83565b5060208201516153f16020850182615430565b5060408201516154046040850182614ebf565b5060608201516154176060850182615430565b50608082015161542a608085018261544e565b50505050565b615439816158b7565b82525050565b615448816158b7565b82525050565b615457816158c1565b82525050565b60006020820190506154726000830184614e92565b92915050565b600060408201905061548d6000830185614e74565b61549a602083018461543f565b9392505050565b60006020820190506154b66000830184614eb0565b92915050565b60006040820190506154d16000830185614ece565b6154de602083018461543f565b9392505050565b600060208201905081810360008301526154ff8184614f25565b905092915050565b6000602082019050818103600083015261552081614f5e565b9050919050565b6000602082019050818103600083015261554081614f9e565b9050919050565b6000602082019050818103600083015261556081614fde565b9050919050565b600060208201905081810360008301526155808161501e565b9050919050565b600060208201905081810360008301526155a08161505e565b9050919050565b600060208201905081810360008301526155c08161509e565b9050919050565b600060208201905081810360008301526155e0816150de565b9050919050565b600060208201905081810360008301526156008161511e565b9050919050565b600060208201905081810360008301526156208161515e565b9050919050565b600060208201905081810360008301526156408161519e565b9050919050565b60006020820190508181036000830152615660816151de565b9050919050565b600060208201905081810360008301526156808161521e565b9050919050565b600060208201905081810360008301526156a08161525e565b9050919050565b600060208201905081810360008301526156c181846152c4565b905092915050565b600060a0820190506156de60008301846153c8565b92915050565b60006020820190506156f9600083018461543f565b92915050565b6000604082019050615714600083018561543f565b6157216020830184614e92565b9392505050565b600060408201905061573d600083018561543f565b61574a602083018461543f565b9392505050565b6000604051905081810181811067ffffffffffffffff821117156157785761577761596a565b5b8060405250919050565b600067ffffffffffffffff82111561579d5761579c61596a565b5b602082029050602081019050919050565b600067ffffffffffffffff8211156157c9576157c861596a565b5b601f19601f8301169050602081019050919050565b600081519050919050565b600082825260208201905092915050565b600082825260208201905092915050565b600061581682615897565b9050919050565b60008115159050919050565b60007fffffffff0000000000000000000000000000000000000000000000000000000082169050919050565b60008190506158638261597d565b919050565b600081905061587682615991565b919050565b60006fffffffffffffffffffffffffffffffff82169050919050565b600073ffffffffffffffffffffffffffffffffffffffff82169050919050565b6000819050919050565b600060ff82169050919050565b60006158d982615904565b9050919050565b60006158eb82615855565b9050919050565b60006158fd82615868565b9050919050565b600061590f82615916565b9050919050565b600061592182615897565b9050919050565b82818337600083830152505050565b60005b8381101561595557808201518184015260208101905061593a565b83811115615964576000848401525b50505050565bfe5b6000601f19601f8301169050919050565b6004811061598e5761598d61596a565b5b50565b600381106159a2576159a161596a565b5b50565b6159ae8161580b565b81146159b957600080fd5b50565b6159c58161581d565b81146159d057600080fd5b50565b6159dc81615829565b81146159e757600080fd5b50565b6159f38161587b565b81146159fe57600080fd5b50565b615a0a816158b7565b8114615a1557600080fd5b50565b615a21816158c1565b8114615a2c57600080fd5b5056fe456e756d657261626c655365743a20696e646578206f7574206f6620626f756e64734552433732313a207472616e7366657220746f206e6f6e20455243373231526563656976657220696d706c656d656e7465724552433732313a207472616e7366657220746f20746865207a65726f20616464726573734552433732313a206f70657261746f7220717565727920666f72206e6f6e6578697374656e7420746f6b656e4552433732313a20617070726f76652063616c6c6572206973206e6f74206f776e6572206e6f7220617070726f76656420666f7220616c6c4552433732313a2062616c616e636520717565727920666f7220746865207a65726f20616464726573734552433732313a206f776e657220717565727920666f72206e6f6e6578697374656e7420746f6b656e456e756d657261626c654d61703a20696e646578206f7574206f6620626f756e64734552433732313a20617070726f76656420717565727920666f72206e6f6e6578697374656e7420746f6b656e4552433732313a207472616e73666572206f6620746f6b656e2074686174206973206e6f74206f776e4552433732314d657461646174613a2055524920717565727920666f72206e6f6e6578697374656e7420746f6b656e4552433732313a20617070726f76616c20746f2063757272656e74206f776e65724552433732313a207472616e736665722063616c6c6572206973206e6f74206f776e6572206e6f7220617070726f766564a2646970667358221220901c0453f1c8ba02195b8afc84952938985dff98e789f72626a4322810562ff164736f6c63430007060033608060405234801561001057600080fd5b5073ae13d989dac2f0debff460ac112a837c89baa7cd6000806101000a81548173ffffffffffffffffffffffffffffffffffffffff021916908373ffffffffffffffffffffffffffffffffffffffff160217905550738301f2213c0eed49a7e28ae4c3e91722919b8b47600160006101000a81548173ffffffffffffffffffffffffffffffffffffffff021916908373ffffffffffffffffffffffffffffffffffffffff16021790555073d99d1c33f9fc3444f8101754abc46c52416550d1600260006101000a81548173ffffffffffffffffffffffffffffffffffffffff021916908373ffffffffffffffffffffffffffffffffffffffff160217905550610c2d8061011e6000396000f3fe6080604052600436106100435760003560e01c8063484f4ea91461004f578063d02eb3f41461007a578063d3986f08146100a5578063e71efd95146100e25761004a565b3661004a57005b600080fd5b34801561005b57600080fd5b5061006461010d565b604051610071919061094d565b60405180910390f35b34801561008657600080fd5b5061008f610125565b60405161009c919061094d565b60405180910390f35b3480156100b157600080fd5b506100cc60048036038101906100c791906107cb565b61013d565b6040516100d991906109d5565b60405180910390f35b3480156100ee57600080fd5b506100f7610636565b604051610104919061094d565b60405180910390f35b738301f2213c0eed49a7e28ae4c3e91722919b8b4781565b73ae13d989dac2f0debff460ac112a837c89baa7cd81565b606060008054906101000a900473ffffffffffffffffffffffffffffffffffffffff1673ffffffffffffffffffffffffffffffffffffffff1663d0e30db0846040518263ffffffff1660e01b81526004016000604051808303818588803b1580156101a757600080fd5b505af11580156101bb573d6000803e3d6000fd5b505050505060008054906101000a900473ffffffffffffffffffffffffffffffffffffffff1673ffffffffffffffffffffffffffffffffffffffff1663095ea7b3600260009054906101000a900473ffffffffffffffffffffffffffffffffffffffff16856040518363ffffffff1660e01b815260040161023d9291906109ac565b602060405180830381600087803b15801561025757600080fd5b505af115801561026b573d6000803e3d6000fd5b505050506040513d601f19601f8201168201806040525081019061028f9190610779565b506000600267ffffffffffffffff811180156102aa57600080fd5b506040519080825280602002602001820160405280156102d95781602001602082028036833780820191505090505b50905073ae13d989dac2f0debff460ac112a837c89baa7cd816000815181106102fe57fe5b602002602001019073ffffffffffffffffffffffffffffffffffffffff16908173ffffffffffffffffffffffffffffffffffffffff1681525050738301f2213c0eed49a7e28ae4c3e91722919b8b478160018151811061035a57fe5b602002602001019073ffffffffffffffffffffffffffffffffffffffff16908173ffffffffffffffffffffffffffffffffffffffff16815250506000610258420190506000600260009054906101000a900473ffffffffffffffffffffffffffffffffffffffff1673ffffffffffffffffffffffffffffffffffffffff166338ed17398760008689876040518663ffffffff1660e01b81526004016104039594939291906109f7565b600060405180830381600087803b15801561041d57600080fd5b505af1158015610431573d6000803e3d6000fd5b505050506040513d6000823e3d601f19601f8201168201806040525081019061045a9190610738565b905060008060009054906101000a900473ffffffffffffffffffffffffffffffffffffffff1673ffffffffffffffffffffffffffffffffffffffff166370a08231306040518263ffffffff1660e01b81526004016104b89190610968565b60206040518083038186803b1580156104d057600080fd5b505afa1580156104e4573d6000803e3d6000fd5b505050506040513d601f19601f8201168201806040525081019061050891906107a2565b90507fe664862cc73c0e03c0f3ee110e89fea8ae7af45a3bd6ada129e3028d4c03bc8b308260405161053b929190610983565b60405180910390a1600160009054906101000a900473ffffffffffffffffffffffffffffffffffffffff1673ffffffffffffffffffffffffffffffffffffffff166370a08231306040518263ffffffff1660e01b815260040161059e9190610968565b60206040518083038186803b1580156105b657600080fd5b505afa1580156105ca573d6000803e3d6000fd5b505050506040513d601f19601f820116820180604052508101906105ee91906107a2565b90507fe664862cc73c0e03c0f3ee110e89fea8ae7af45a3bd6ada129e3028d4c03bc8b3082604051610621929190610983565b60405180910390a18194505050505092915050565b73d99d1c33f9fc3444f8101754abc46c52416550d181565b600061066161065c84610a82565b610a51565b9050808382526020820190508285602086028201111561068057600080fd5b60005b858110156106b057816106968882610723565b845260208401935060208301925050600181019050610683565b5050509392505050565b6000813590506106c981610bb2565b92915050565b600082601f8301126106e057600080fd5b81516106f084826020860161064e565b91505092915050565b60008151905061070881610bc9565b92915050565b60008135905061071d81610be0565b92915050565b60008151905061073281610be0565b92915050565b60006020828403121561074a57600080fd5b600082015167ffffffffffffffff81111561076457600080fd5b610770848285016106cf565b91505092915050565b60006020828403121561078b57600080fd5b6000610799848285016106f9565b91505092915050565b6000602082840312156107b457600080fd5b60006107c284828501610723565b91505092915050565b600080604083850312156107de57600080fd5b60006107ec8582860161070e565b92505060206107fd858286016106ba565b9150509250929050565b60006108138383610846565b60208301905092915050565b600061082b838361092f565b60208301905092915050565b61084081610b68565b82525050565b61084f81610b20565b82525050565b61085e81610b20565b82525050565b600061086f82610ace565b6108798185610afe565b935061088483610aae565b8060005b838110156108b557815161089c8882610807565b97506108a783610ae4565b925050600181019050610888565b5085935050505092915050565b60006108cd82610ad9565b6108d78185610b0f565b93506108e283610abe565b8060005b838110156109135781516108fa888261081f565b975061090583610af1565b9250506001810190506108e6565b5085935050505092915050565b61092981610b7a565b82525050565b61093881610b5e565b82525050565b61094781610b5e565b82525050565b60006020820190506109626000830184610855565b92915050565b600060208201905061097d6000830184610837565b92915050565b60006040820190506109986000830185610837565b6109a5602083018461093e565b9392505050565b60006040820190506109c16000830185610855565b6109ce602083018461093e565b9392505050565b600060208201905081810360008301526109ef81846108c2565b905092915050565b600060a082019050610a0c600083018861093e565b610a196020830187610920565b8181036040830152610a2b8186610864565b9050610a3a6060830185610855565b610a47608083018461093e565b9695505050505050565b6000604051905081810181811067ffffffffffffffff82111715610a7857610a77610bb0565b5b8060405250919050565b600067ffffffffffffffff821115610a9d57610a9c610bb0565b5b602082029050602081019050919050565b6000819050602082019050919050565b6000819050602082019050919050565b600081519050919050565b600081519050919050565b6000602082019050919050565b6000602082019050919050565b600082825260208201905092915050565b600082825260208201905092915050565b6000610b2b82610b3e565b9050919050565b60008115159050919050565b600073ffffffffffffffffffffffffffffffffffffffff82169050919050565b6000819050919050565b6000610b7382610b8c565b9050919050565b6000610b8582610b5e565b9050919050565b6000610b9782610b9e565b9050919050565b6000610ba982610b3e565b9050919050565bfe5b610bbb81610b20565b8114610bc657600080fd5b50565b610bd281610b32565b8114610bdd57600080fd5b50565b610be981610b5e565b8114610bf457600080fd5b5056fea264697066735822122066acccaf017ba0cb3c015540c3e21b31538a0b50416ea4222b59b01cd7de95de64736f6c63430007060033",
  "immutableReferences": {},
  "source": "pragma solidity ^0.7.0;\npragma experimental ABIEncoderV2;\n\nimport \"@chainlink/contracts/src/v0.7/ChainlinkClient.sol\";\nimport \"@openzeppelin/contracts/token/ERC721/ERC721.sol\";\nimport \"@openzeppelin/contracts/utils/Counters.sol\";\n// import \"@openzeppelin/contracts/math/SafeMath.sol\";\nimport \"./BEP20.sol\";\nimport \"./SmartExchange.sol\";\n\n// import \"https://github.com/OpenZeppelin/openzeppelin-contracts/blob/18c7efe800df6fc19554ece3b1f238e9e028a1db/contracts/token/ERC721/ERC721.sol\";\n// import \"https://github.com/OpenZeppelin/openzeppelin-contracts/blob/18c7efe800df6fc19554ece3b1f238e9e028a1db/contracts/utils/Counters.sol\";\n\n\n/*\n * @notice SmartBet core smart contract. Handles matches, bets and farming\n */\ncontract SmartBet is ERC721, ChainlinkClient {\n\n    using Counters for Counters.Counter;\n    // using SafeMath for uint256;\n\n    ////////////////////////////////////////\n    //                                    //\n    //         STATE VARIABLES            //\n    //                                    //      \n    ////////////////////////////////////////\n    // contract owner adress\n    address private owner;\n\n    // incremented for match id generation\n    Counters.Counter private matchIds;\n\n    // incremented id for NFT minting\n    Counters.Counter private tokenIds;\n\n    SmartExchange private smartExchange;\n\n    BEP20 private bUSDToken;\n\n    // flag to determine if contracts core functionalities can be performed\n    bool circuitBreaker = false;\n\n    enum MatchResult {NOT_DETERMINED, DRAW, TEAM_A_WON, TEAM_B_WON}\n    enum MatchState {NOT_STARTED, STARTED, FINISHED}\n\n    uint8 private constant TEAM_A = 1;\n    uint8 private constant TEAM_B = 2;\n\n    struct Match {\n        address creator;\n        uint8 oddsTeamA;\n        uint8 oddsTeamB;\n        uint8 oddsDraw;\n        string matchResultLink;\n        uint256 totalPayoutTeamA;\n        uint256 totalPayoutTeamB;\n        uint256 totalPayoutDraw;\n        uint256 totalCollected;\n        MatchResult result;\n        MatchState state;\n        bool exists;\n    }\n\n    // NFT issued to winner\n    struct SmartAsset {\n        address owner;\n        uint256 matchId;\n        MatchResult matchResult;\n        uint256 initialValue;\n        uint8 accruedInterest;\n    }\n\n    // holds all NFTs issued to winners\n    mapping(uint256 => SmartAsset) smartAssets;\n\n    // holds all created matches (key: idCounter)\n    mapping(uint256 => Match) matches;\n    \n    // holds all apiMatchId -> onChainMatchId to prevent duplicate entries\n    mapping(uint256 => uint256) apiMatches;\n\n    // holds all bets on a match\n    // mapping(matchId => mapping(gameResult => smartAssetId[])) matchBets;\n    mapping(uint256 => mapping(MatchResult => uint256[])) matchBets;\n\n    mapping(bytes32 => uint256) matchResultRequestIds;\n\n\n    ////////////////////////////////////////\n    //                                    //\n    //           CONSTRUCTOR              //\n    //                                    //      \n    ////////////////////////////////////////\n\n    constructor() ERC721(\"SmartBet\", \"SMBT\") {\n        owner = msg.sender;\n        smartExchange = new SmartExchange();\n        bUSDToken = BEP20(smartExchange.BUSD());\n    }\n\n    ////////////////////////////////////////\n    //                                    //\n    //              EVENTS                //\n    //                                    //      \n    ////////////////////////////////////////\n\n    //Can be used by the clients to get all matches in a particular time\n    event MatchCreatedEvent(address indexed creator, uint256 matchId, uint256 indexed startAt, uint256 indexed createdOn);\n    //Can be used by the clients to get all bets placed by a better in a particular time\n    event BetPlacedEvent(address indexed bettor, uint256 indexed matchId, uint256 amount, uint256 indexed betPlacedAt);\n    event SmartAssetAwardedEvent(address indexed awardee, uint256 smartAssetId, uint256 awardedAt);\n    event MatchClosedEvent(address indexed by, uint256 indexed matchId, uint256 closedAt);\n    event MatchResultSetEvent(uint256 indexed matchId, MatchResult result, uint256 setAt);\n    event AssetLiquidatedEvent(address indexed by, uint256 indexed matchId, uint256 amount, uint256 liquidatedAt);\n\n\n    ////////////////////////////////////////\n    //                                    //\n    //              MODIFIERS             //\n    //                                    //      \n    ////////////////////////////////////////\n\n    /*\n    *  @notice  Restrict caller only owner\n    */\n    modifier onlyOwner() {\n        require(msg.sender == owner, \"caller is not owner\");\n        _;\n    }\n\n    /*\n    *  @notice  Ensure match does not previously exist\n    */\n    modifier isNewMatch(uint256 _matchId) {\n        require(!matches[_matchId].exists, \"on chain match exists\");\n        _;\n    }\n\n    /*\n    *  @notice  Ensure api match does not previously exist\n    */\n    modifier isNewAPIMatch(uint256 _api_matchId) {\n        require(apiMatches[_api_matchId] == 0, \"api match ID exists\");\n        _;\n    }\n\n    /*\n    *  @notice  Ensure match exists\n    */\n    modifier matchExists(uint256 _matchId){\n        require(matches[_matchId].exists, \"on chain match does not exist\");\n        _;\n    }\n\n    /*\n    *  @notice  Ensure match has not started\n    */\n    modifier matchNotStarted(uint256 _matchId){\n        require(matches[_matchId].state == MatchState.NOT_STARTED, \"match started\");\n        _;\n    }\n\n    /*\n    *  @notice  Ensure match has started\n    */\n    modifier matchStarted(uint256 _matchId){\n        require(matches[_matchId].state == MatchState.STARTED, \"match not started\");\n        _;\n    }\n\n    /*\n    *  @notice  Ensure match has ended\n    */\n    modifier matchFinished(uint256 _matchId){\n        require(matches[_matchId].state == MatchState.FINISHED, \"match not finished\");\n        _;\n    }\n\n    /*\n    *  @notice Checks if core functionalities can be performed\n    *  @dev Checks if the circuitBreaker state variable is false\n    */\n    modifier isCircuitBreakOff() {\n        require(!circuitBreaker, \"Circuit breaker is on\");\n        _;\n    }\n\n    /*\n    *  @notice Checks if the NFT is valid\n    *  @dev Validates NFT\n    */\n    modifier validateToken(uint256 _tokenId) {\n        require(_exists(_tokenId), \"Invalid token\");\n        _;\n    }\n    \n    /*\n    *  @notice  Ensure token belongs to the caller\n    */\n    modifier isTokenOwner(uint256 _tokenId) {\n        require(ownerOf(_tokenId) == msg.sender , \"caller is not token owner\");\n        _;\n    }\n\n    /*\n    *  @notice  Ensures bets are allowed on the match\n    *  @dev     The totalCollected on the match must be greater than the total payout on the team the bettor wants to bet on. The incoming bet is inclusive in the calculation\n    */\n    modifier isBetAllowed(uint256 _matchId) {\n        require(true, \"Bet is not allowed\");\n        _;\n    }\n    \n    modifier validateMatchResult(uint8 _matchResult) {\n        require(MatchResult(_matchResult) == MatchResult.TEAM_A_WON || MatchResult(_matchResult) == MatchResult.TEAM_B_WON || MatchResult(_matchResult) == MatchResult.DRAW, \"Invalid match result\");\n        _;\n    }\n\n    ////////////////////////////////////////\n    //                                    //\n    //              FUNCTIONS             //\n    //                                    //      \n    ////////////////////////////////////////\n\n    /*\n    *  @notice  New match creation\n    *  @dev     \n    *  @param   \n    *  @return  match Id\n    */\n    function createMatch(uint256 _apiMatchId, string calldata _matchResultLink, uint8 _oddsTeamA, uint8 _oddsTeamB, uint8 _oddsDraw, uint256 _startAt)\n        public \n        isNewAPIMatch(_apiMatchId)\n        onlyOwner\n        returns(uint)\n    {\n        matchIds.increment();\n        uint256 matchId = matchIds.current();\n        matches[matchId] = Match(msg.sender, _oddsTeamA, _oddsTeamB, _oddsDraw, _matchResultLink, 0, 0, 0, 0, MatchResult.NOT_DETERMINED, MatchState.NOT_STARTED, true); \n        apiMatches[_apiMatchId] = matchId;\n        emit MatchCreatedEvent(msg.sender, matchId, _startAt, block.timestamp);\n\n        return matchId;\n    }\n\n\n    /*\n    *  @notice  New bet creation. Mint NFT to bettor\n    *  @dev   \n    *  @param  \n    *  @return  token id\n    */\n    function placeBet(uint128 _matchId, uint8 _resultBetOn)\n        public \n        payable\n        isCircuitBreakOff\n        matchExists(_matchId) \n        matchNotStarted(_matchId) \n        isBetAllowed(_matchId)\n        validateMatchResult(_resultBetOn)\n        returns(uint256)\n    {\n        require(msg.value != 0, \"Invalid amount bet\");\n\n        address bettor = msg.sender;\n        uint256 assetValue = 0;\n\n        uint[] memory amounts = smartExchange.swap(msg.value, address(this));\n        uint256 amountBet = amounts[1];\n\n        MatchResult matchResultBetOn = MatchResult(_resultBetOn);\n        \n        //update team's total payout\n        if (matchResultBetOn == MatchResult.TEAM_A_WON) {\n            assetValue = amountBet * matches[_matchId].oddsTeamA;\n            matches[_matchId].totalPayoutTeamA += assetValue;\n        } else if(matchResultBetOn == MatchResult.TEAM_B_WON) {\n            assetValue = amountBet * matches[_matchId].oddsTeamB;\n            matches[_matchId].totalPayoutTeamB += assetValue;\n        } else {\n            assetValue = amountBet * matches[_matchId].oddsDraw;\n            matches[_matchId].totalPayoutDraw += assetValue;\n        }\n\n        //increase totalCollected on the match\n        matches[_matchId].totalCollected += amountBet;\n\n        uint256 smartAssetId = awardSmartAsset(bettor, assetValue, _matchId, matchResultBetOn);\n        \n        //Save bettor's bet\n        matchBets[_matchId][matchResultBetOn].push(smartAssetId);\n        \n        emit BetPlacedEvent(bettor, _matchId, amountBet, block.timestamp);\n\n        return smartAssetId;\n    }\n\n\n    function awardSmartAsset(address bettor, uint256 assetValue, uint256 _matchId, MatchResult _matchResultBetOn) \n        internal returns (uint256) \n    {\n        tokenIds.increment();\n\n        uint256 smartAssetId = tokenIds.current();\n        _mint(bettor, smartAssetId);\n        \n        smartAssets[smartAssetId] = SmartAsset(msg.sender, _matchId, _matchResultBetOn, assetValue, 0);\n\n        emit SmartAssetAwardedEvent(bettor, smartAssetId, block.timestamp);\n\n        return smartAssetId;\n    }\n    \n    function startMatch(uint128 _matchId) \n        public\n        onlyOwner\n        matchExists(_matchId) \n        matchNotStarted(_matchId)\n    {\n        matches[_matchId].state = MatchState.STARTED;\n    }\n\n\n    /*\n    *  @notice  Match manual close by admin. Trigger \"getResult()\" \n    *  @dev     [Real] ChainlinkClient API Request oracles gets match result of winning team. Then, match is closed.\n    *           [Temporary] (Implemented because there's no BSC testnet oracle node)\n    *                       Frontend gets result via result link and posts winning team. Then, match is closed.\n    *  @param  \n    *  @return  success success status\n    */\n    function closeMatch(uint128 _matchId, uint8 _matchResult)\n        public \n        onlyOwner\n        matchExists(_matchId) \n        matchStarted(_matchId)\n        validateMatchResult(_matchResult)\n    {\n        matches[_matchId].state = MatchState.FINISHED;\n        \n        // getMatchResult(_matchId);\n        MatchResult matchResult = MatchResult(_matchResult);\n        setMatchResult(_matchId, matchResult);\n        \n        if (matchResult == MatchResult.TEAM_A_WON) {\n            invalidateAssets(matchBets[_matchId][MatchResult.TEAM_B_WON]);\n            invalidateAssets(matchBets[_matchId][MatchResult.DRAW]);\n        } else if (matchResult == MatchResult.TEAM_B_WON) {\n            invalidateAssets(matchBets[_matchId][MatchResult.TEAM_A_WON]);\n            invalidateAssets(matchBets[_matchId][MatchResult.DRAW]);\n        } else {\n            invalidateAssets(matchBets[_matchId][MatchResult.TEAM_A_WON]);\n            invalidateAssets(matchBets[_matchId][MatchResult.TEAM_B_WON]);\n        }\n        \n        \n        emit MatchClosedEvent(msg.sender, _matchId, block.timestamp);\n    }\n    \n    function setMatchResult(uint256 _matchId, MatchResult _matchResult) internal {\n        matches[_matchId].result = _matchResult;\n        emit MatchResultSetEvent(_matchId, matches[_matchId].result, block.timestamp);\n    }\n    \n    function invalidateAssets(uint256[] memory assets) internal {\n        for (uint i = 0; i < assets.length; i++) {\n            invalidateAsset(assets[i]);\n        }\n    }\n\n    function invalidateAsset(uint256 _smartAssetId) internal {\n        _burn(_smartAssetId);\n    }\n\n    /*\n    *  @notice  Liquidate smart asset's value\n    *  @dev     validated   NFT is burned and caller gets value funds in account\n    *  @param   _smartAssetId smart asset id\n    *  @return  success status\n    */\n    function liquidateAsset(uint128 _smartAssetId)\n        public \n        payable\n        isCircuitBreakOff\n        validateToken(_smartAssetId)\n        isTokenOwner(_smartAssetId)\n        returns(bool)\n    {\n        SmartAsset memory smartAsset = smartAssets[_smartAssetId];\n        \n        require(matches[smartAsset.matchId].state == MatchState.FINISHED, \"Cannot liquidate asset until match is finished\");\n        \n        require (bUSDToken.balanceOf(address(this)) >= smartAsset.initialValue, \"Contract has insufficient funds\");\n        // require (address(this).balance >= smartAsset.initialValue, \"Contract has insufficient funds\");\n        \n        invalidateAsset(_smartAssetId);\n        bUSDToken.transfer(msg.sender, smartAsset.initialValue);\n        // msg.sender.transfer(smartAsset.initialValue);\n\n        emit AssetLiquidatedEvent(msg.sender, smartAsset.matchId, smartAsset.initialValue, block.timestamp);\n        return true;\n    }\n\n    /*\n    *  @notice  Contract Circuit Breaker\n    *  @dev     Admin can [de]activate core functons in contract\n    *  @param   \n    *  @return  success success status\n    */\n    function toggleCircuitBreaker()\n        public \n        onlyOwner\n    {\n        circuitBreaker = !circuitBreaker;\n    }\n\n    /*\n    *  @notice  Fetch match details\n    *  @dev         \n    *  @oaram   _matchId\n    *  @return match match details\n    */\n    function getMatch(uint256 _matchId)\n        public \n        view\n        matchExists(_matchId)\n        returns(Match memory match_)\n    {\n        return matches[_matchId];\n    }\n\n    /*\n    *  @notice  Fetch single SmartAsset\n    *  @dev          \n    *  @param   _smartAssetId\n    *  @return  asset details\n    */\n    function getSmartAsset(uint256 _smartAssetId)\n        public \n        view\n        validateToken(_smartAssetId)\n        isTokenOwner(_smartAssetId)\n        returns(SmartAsset memory asset)\n    {\n        return smartAssets[_smartAssetId];\n    }\n\n    /*\n    *  @notice  Tells of the msg.sender is the admin\n    *  @dev\n    *  @return  true if msg.sender is admin else false\n    */\n    function isAdmin() public view returns(bool) {\n        return msg.sender == owner;\n    }\n    \n}\n",
  "sourcePath": "/Users/ajibigad/crytoproject/SmartBet/contracts/SmartBet.sol",
  "compiler": {
    "name": "solc",
    "version": "0.7.6+commit.7338295f.Emscripten.clang"
  },
  "schemaVersion": "3.3.4",
  "updatedAt": "2021-04-13T08:20:22.147Z",
  "devdoc": {
    "kind": "dev",
    "methods": {
      "approve(address,uint256)": {
        "details": "See {IERC721-approve}."
      },
      "balanceOf(address)": {
        "details": "See {IERC721-balanceOf}."
      },
      "baseURI()": {
        "details": "Returns the base URI set via {_setBaseURI}. This will be automatically added as a prefix in {tokenURI} to each token's URI, or to the token ID if no specific URI is set for that token ID."
      },
      "getApproved(uint256)": {
        "details": "See {IERC721-getApproved}."
      },
      "isApprovedForAll(address,address)": {
        "details": "See {IERC721-isApprovedForAll}."
      },
      "name()": {
        "details": "See {IERC721Metadata-name}."
      },
      "ownerOf(uint256)": {
        "details": "See {IERC721-ownerOf}."
      },
      "safeTransferFrom(address,address,uint256)": {
        "details": "See {IERC721-safeTransferFrom}."
      },
      "safeTransferFrom(address,address,uint256,bytes)": {
        "details": "See {IERC721-safeTransferFrom}."
      },
      "setApprovalForAll(address,bool)": {
        "details": "See {IERC721-setApprovalForAll}."
      },
      "supportsInterface(bytes4)": {
        "details": "See {IERC165-supportsInterface}. Time complexity O(1), guaranteed to always use less than 30 000 gas."
      },
      "symbol()": {
        "details": "See {IERC721Metadata-symbol}."
      },
      "tokenByIndex(uint256)": {
        "details": "See {IERC721Enumerable-tokenByIndex}."
      },
      "tokenOfOwnerByIndex(address,uint256)": {
        "details": "See {IERC721Enumerable-tokenOfOwnerByIndex}."
      },
      "tokenURI(uint256)": {
        "details": "See {IERC721Metadata-tokenURI}."
      },
      "totalSupply()": {
        "details": "See {IERC721Enumerable-totalSupply}."
      },
      "transferFrom(address,address,uint256)": {
        "details": "See {IERC721-transferFrom}."
      }
    },
    "version": 1
  },
  "userdoc": {
    "kind": "user",
    "methods": {},
    "version": 1
  }
}