{
  "contractName": "SmartExchange",
  "abi": [
    {
      "inputs": [],
      "name": "pFACTORY",
      "outputs": [
        {
          "internalType": "address",
          "name": "",
          "type": "address"
        }
      ],
      "stateMutability": "view",
      "type": "function"
    },
    {
      "inputs": [],
      "name": "pROUTER",
      "outputs": [
        {
          "internalType": "address",
          "name": "",
          "type": "address"
        }
      ],
      "stateMutability": "view",
      "type": "function"
    },
    {
      "inputs": [],
      "name": "totalTreasury",
      "outputs": [
        {
          "internalType": "uint256",
          "name": "",
          "type": "uint256"
        }
      ],
      "stateMutability": "view",
      "type": "function"
    },
    {
      "inputs": [
        {
          "internalType": "uint256",
          "name": "amount",
          "type": "uint256"
        }
      ],
      "name": "invest",
      "outputs": [],
      "stateMutability": "nonpayable",
      "type": "function"
    }
  ],
  "bytecode": "0x608060405234801561001057600080fd5b50610235806100206000396000f3fe608060405234801561001057600080fd5b506004361061004c5760003560e01c80632afcf48014610051578063897534a91461006d578063990cc0581461008b578063e71efd95146100a9575b600080fd5b61006b6004803603810190610066919061012f565b6100c7565b005b6100756100e4565b6040516100829190610191565b60405180910390f35b6100936100ea565b6040516100a09190610176565b60405180910390f35b6100b1610102565b6040516100be9190610176565b60405180910390f35b6000736725f303b657a9451d8ba641348b6761a6cc7a1790505050565b60005481565b736725f303b657a9451d8ba641348b6761a6cc7a1781565b73d99d1c33f9fc3444f8101754abc46c52416550d181565b600081359050610129816101e8565b92915050565b60006020828403121561014157600080fd5b600061014f8482850161011a565b91505092915050565b610161816101ac565b82525050565b610170816101de565b82525050565b600060208201905061018b6000830184610158565b92915050565b60006020820190506101a66000830184610167565b92915050565b60006101b7826101be565b9050919050565b600073ffffffffffffffffffffffffffffffffffffffff82169050919050565b6000819050919050565b6101f1816101de565b81146101fc57600080fd5b5056fea2646970667358221220b05e5c074b8ad48426743fca758a7d672f2a77c6c52e307b2c15734c59944bbd64736f6c63430007060033",
  "immutableReferences": {},
  "source": "pragma solidity ^0.7.0;\r\npragma experimental ABIEncoderV2;\r\n\r\n\r\n//TODO: move to HelperPancakeSwap_ROUTER.sol\r\ncontract HelperPancakeSwap_ROUTER {\r\n    // No implementation, just the function signature. This is just so Solidity can work out how to call it.\r\n    \r\n    /*\r\n    * @notice   Swaps an exact amount of input tokens for as many output tokens as possible, \r\n    *           along the route determined by the path. The first element of path is the input token, \r\n    *           the last is the output token, and any intermediate elements represent intermediate pairs \r\n    *           to trade through (if, for example, a direct pair does not exist). \r\n    *           ``msg.sender`` should have already given the router an allowance of at least amountIn on the input token.\r\n    * @param    amountIn    The amount of input tokens to send.\r\n    * @param    amountOutMin    The minimum amount of output tokens that must be received for the transaction not to revert.\r\n    * @param    path    An array of token addresses. ``path.length`` must be >= 2. Pools for each consecutive pair of addresses must exist and have liquidity.\r\n    * @param    to      Recipient of the output tokens.\r\n    * @param    deadline    \tUnix timestamp after which the transaction will revert.\r\n    * @return    amounts    \tThe input token amount and all subsequent output token amounts.\r\n    */\r\n    function swapExactTokensForTokens(\r\n        uint amountIn,\r\n        uint amountOutMin,\r\n        address[] calldata path,\r\n        address to,\r\n        uint deadline\r\n    ) external returns (uint[] memory amounts) {}\r\n    \r\n\r\n    /*\r\n    * @notice   Same as \r\n    *           Succeeds for tokens that take a fee on transfer.* and the market's available liquidity.\r\n    *           ``msg.sender`` should have already given the router an allowance of at least amountIn on the input token.\r\n    * @param    redeemAmount The amount of underlying to be redeemed.\r\n    * @return   status 0 on success, otherwise an Error code\r\n    */\r\n    function swapExactTokensForTokensSupportingFeeOnTransferTokens(\r\n        uint amountIn,\r\n        uint amountOutMin,\r\n        address[] calldata path,\r\n        address to,\r\n        uint deadline\r\n    ) external {}\r\n    \r\n}\r\n\r\n\r\n/*\r\n* @notice Integrates with Pancakeswap DEX\r\n*/\r\ncontract SmartExchange {\r\n    \r\n    uint256 public totalTreasury;\r\n    address public constant pROUTER = 0xD99D1c33F9fC3444f8101754aBC46c52416550D1; // Pancakeswap Router (BSC Testnet)\r\n    address public constant pFACTORY = 0x6725F303b657a9451d8BA641348b6761A6CC7a17; // Pancakeswap factory (BSC Testnet)\r\n    \r\n    function invest(uint256 amount) public {\r\n        \r\n        HelperPancakeSwap_ROUTER underlying = HelperPancakeSwap_ROUTER(pFACTORY);     // get a handle for the exchange router\r\n        // VToken vToken = VToken(pROUTER);   // get a handle for the corresponding dex factory\r\n        // underlying.approve(address(vToken), amount); // approve the transfer\r\n        // assert(vToken.mint(amount) == 0);            // mint the vTokens and assert there is no error\r\n    }\r\n    \r\n}",
  "sourcePath": "C:/Users/USER/Desktop/BLOCKCHAIN/SmartBet/contracts/SmartExchange.sol",
  "compiler": {
    "name": "solc",
    "version": "0.7.6+commit.7338295f.Emscripten.clang"
  },
  "schemaVersion": "3.3.4",
  "updatedAt": "2021-04-09T16:41:29.482Z",
  "devdoc": {
    "kind": "dev",
    "methods": {},
    "version": 1
  },
  "userdoc": {
    "kind": "user",
    "methods": {},
    "version": 1
  }
}