{
  "contractName": "SmartBet",
  "abi": [
    {
      "inputs": [],
      "stateMutability": "nonpayable",
      "type": "constructor"
    },
    {
      "anonymous": false,
      "inputs": [
        {
          "indexed": true,
          "internalType": "address",
          "name": "owner",
          "type": "address"
        },
        {
          "indexed": true,
          "internalType": "address",
          "name": "approved",
          "type": "address"
        },
        {
          "indexed": true,
          "internalType": "uint256",
          "name": "tokenId",
          "type": "uint256"
        }
      ],
      "name": "Approval",
      "type": "event"
    },
    {
      "anonymous": false,
      "inputs": [
        {
          "indexed": true,
          "internalType": "address",
          "name": "owner",
          "type": "address"
        },
        {
          "indexed": true,
          "internalType": "address",
          "name": "operator",
          "type": "address"
        },
        {
          "indexed": false,
          "internalType": "bool",
          "name": "approved",
          "type": "bool"
        }
      ],
      "name": "ApprovalForAll",
      "type": "event"
    },
    {
      "anonymous": false,
      "inputs": [
        {
          "indexed": true,
          "internalType": "address",
          "name": "by",
          "type": "address"
        },
        {
          "indexed": true,
          "internalType": "uint256",
          "name": "matchId",
          "type": "uint256"
        },
        {
          "indexed": false,
          "internalType": "uint256",
          "name": "amount",
          "type": "uint256"
        },
        {
          "indexed": false,
          "internalType": "uint256",
          "name": "liquidatedAt",
          "type": "uint256"
        }
      ],
      "name": "AssetLiquidatedEvent",
      "type": "event"
    },
    {
      "anonymous": false,
      "inputs": [
        {
          "indexed": true,
          "internalType": "address",
          "name": "bettor",
          "type": "address"
        },
        {
          "indexed": true,
          "internalType": "uint256",
          "name": "matchId",
          "type": "uint256"
        },
        {
          "indexed": false,
          "internalType": "uint256",
          "name": "amount",
          "type": "uint256"
        },
        {
          "indexed": true,
          "internalType": "uint256",
          "name": "betPlacedAt",
          "type": "uint256"
        }
      ],
      "name": "BetPlacedEvent",
      "type": "event"
    },
    {
      "anonymous": false,
      "inputs": [
        {
          "indexed": true,
          "internalType": "bytes32",
          "name": "id",
          "type": "bytes32"
        }
      ],
      "name": "ChainlinkCancelled",
      "type": "event"
    },
    {
      "anonymous": false,
      "inputs": [
        {
          "indexed": true,
          "internalType": "bytes32",
          "name": "id",
          "type": "bytes32"
        }
      ],
      "name": "ChainlinkFulfilled",
      "type": "event"
    },
    {
      "anonymous": false,
      "inputs": [
        {
          "indexed": true,
          "internalType": "bytes32",
          "name": "id",
          "type": "bytes32"
        }
      ],
      "name": "ChainlinkRequested",
      "type": "event"
    },
    {
      "anonymous": false,
      "inputs": [
        {
          "indexed": true,
          "internalType": "address",
          "name": "by",
          "type": "address"
        },
        {
          "indexed": true,
          "internalType": "uint256",
          "name": "matchId",
          "type": "uint256"
        },
        {
          "indexed": false,
          "internalType": "uint256",
          "name": "closedAt",
          "type": "uint256"
        }
      ],
      "name": "MatchClosedEvent",
      "type": "event"
    },
    {
      "anonymous": false,
      "inputs": [
        {
          "indexed": false,
          "internalType": "address",
          "name": "creator",
          "type": "address"
        },
        {
          "indexed": true,
          "internalType": "uint256",
          "name": "matchId",
          "type": "uint256"
        },
        {
          "indexed": true,
          "internalType": "uint256",
          "name": "apiMatchId",
          "type": "uint256"
        },
        {
          "indexed": false,
          "internalType": "uint256",
          "name": "startAt",
          "type": "uint256"
        },
        {
          "indexed": true,
          "internalType": "uint256",
          "name": "createdOn",
          "type": "uint256"
        },
        {
          "indexed": false,
          "internalType": "uint32",
          "name": "oddsA",
          "type": "uint32"
        },
        {
          "indexed": false,
          "internalType": "uint32",
          "name": "oddsB",
          "type": "uint32"
        },
        {
          "indexed": false,
          "internalType": "uint32",
          "name": "oddsDraw",
          "type": "uint32"
        }
      ],
      "name": "MatchCreatedEvent",
      "type": "event"
    },
    {
      "anonymous": false,
      "inputs": [
        {
          "indexed": true,
          "internalType": "uint256",
          "name": "matchId",
          "type": "uint256"
        },
        {
          "indexed": false,
          "internalType": "enum SmartBet.MatchResult",
          "name": "result",
          "type": "uint8"
        },
        {
          "indexed": false,
          "internalType": "uint256",
          "name": "setAt",
          "type": "uint256"
        }
      ],
      "name": "MatchResultSetEvent",
      "type": "event"
    },
    {
      "anonymous": false,
      "inputs": [
        {
          "indexed": true,
          "internalType": "address",
          "name": "awardee",
          "type": "address"
        },
        {
          "indexed": false,
          "internalType": "uint256",
          "name": "smartAssetId",
          "type": "uint256"
        },
        {
          "indexed": false,
          "internalType": "uint256",
          "name": "awardedAt",
          "type": "uint256"
        }
      ],
      "name": "SmartAssetAwardedEvent",
      "type": "event"
    },
    {
      "anonymous": false,
      "inputs": [
        {
          "indexed": true,
          "internalType": "address",
          "name": "from",
          "type": "address"
        },
        {
          "indexed": true,
          "internalType": "address",
          "name": "to",
          "type": "address"
        },
        {
          "indexed": true,
          "internalType": "uint256",
          "name": "tokenId",
          "type": "uint256"
        }
      ],
      "name": "Transfer",
      "type": "event"
    },
    {
      "inputs": [
        {
          "internalType": "address",
          "name": "to",
          "type": "address"
        },
        {
          "internalType": "uint256",
          "name": "tokenId",
          "type": "uint256"
        }
      ],
      "name": "approve",
      "outputs": [],
      "stateMutability": "nonpayable",
      "type": "function"
    },
    {
      "inputs": [
        {
          "internalType": "address",
          "name": "owner",
          "type": "address"
        }
      ],
      "name": "balanceOf",
      "outputs": [
        {
          "internalType": "uint256",
          "name": "",
          "type": "uint256"
        }
      ],
      "stateMutability": "view",
      "type": "function",
      "constant": true
    },
    {
      "inputs": [],
      "name": "baseURI",
      "outputs": [
        {
          "internalType": "string",
          "name": "",
          "type": "string"
        }
      ],
      "stateMutability": "view",
      "type": "function",
      "constant": true
    },
    {
      "inputs": [
        {
          "internalType": "uint256",
          "name": "tokenId",
          "type": "uint256"
        }
      ],
      "name": "getApproved",
      "outputs": [
        {
          "internalType": "address",
          "name": "",
          "type": "address"
        }
      ],
      "stateMutability": "view",
      "type": "function",
      "constant": true
    },
    {
      "inputs": [
        {
          "internalType": "address",
          "name": "owner",
          "type": "address"
        },
        {
          "internalType": "address",
          "name": "operator",
          "type": "address"
        }
      ],
      "name": "isApprovedForAll",
      "outputs": [
        {
          "internalType": "bool",
          "name": "",
          "type": "bool"
        }
      ],
      "stateMutability": "view",
      "type": "function",
      "constant": true
    },
    {
      "inputs": [],
      "name": "name",
      "outputs": [
        {
          "internalType": "string",
          "name": "",
          "type": "string"
        }
      ],
      "stateMutability": "view",
      "type": "function",
      "constant": true
    },
    {
      "inputs": [
        {
          "internalType": "uint256",
          "name": "tokenId",
          "type": "uint256"
        }
      ],
      "name": "ownerOf",
      "outputs": [
        {
          "internalType": "address",
          "name": "",
          "type": "address"
        }
      ],
      "stateMutability": "view",
      "type": "function",
      "constant": true
    },
    {
      "inputs": [
        {
          "internalType": "address",
          "name": "from",
          "type": "address"
        },
        {
          "internalType": "address",
          "name": "to",
          "type": "address"
        },
        {
          "internalType": "uint256",
          "name": "tokenId",
          "type": "uint256"
        }
      ],
      "name": "safeTransferFrom",
      "outputs": [],
      "stateMutability": "nonpayable",
      "type": "function"
    },
    {
      "inputs": [
        {
          "internalType": "address",
          "name": "from",
          "type": "address"
        },
        {
          "internalType": "address",
          "name": "to",
          "type": "address"
        },
        {
          "internalType": "uint256",
          "name": "tokenId",
          "type": "uint256"
        },
        {
          "internalType": "bytes",
          "name": "_data",
          "type": "bytes"
        }
      ],
      "name": "safeTransferFrom",
      "outputs": [],
      "stateMutability": "nonpayable",
      "type": "function"
    },
    {
      "inputs": [
        {
          "internalType": "address",
          "name": "operator",
          "type": "address"
        },
        {
          "internalType": "bool",
          "name": "approved",
          "type": "bool"
        }
      ],
      "name": "setApprovalForAll",
      "outputs": [],
      "stateMutability": "nonpayable",
      "type": "function"
    },
    {
      "inputs": [
        {
          "internalType": "bytes4",
          "name": "interfaceId",
          "type": "bytes4"
        }
      ],
      "name": "supportsInterface",
      "outputs": [
        {
          "internalType": "bool",
          "name": "",
          "type": "bool"
        }
      ],
      "stateMutability": "view",
      "type": "function",
      "constant": true
    },
    {
      "inputs": [],
      "name": "symbol",
      "outputs": [
        {
          "internalType": "string",
          "name": "",
          "type": "string"
        }
      ],
      "stateMutability": "view",
      "type": "function",
      "constant": true
    },
    {
      "inputs": [
        {
          "internalType": "uint256",
          "name": "index",
          "type": "uint256"
        }
      ],
      "name": "tokenByIndex",
      "outputs": [
        {
          "internalType": "uint256",
          "name": "",
          "type": "uint256"
        }
      ],
      "stateMutability": "view",
      "type": "function",
      "constant": true
    },
    {
      "inputs": [
        {
          "internalType": "address",
          "name": "owner",
          "type": "address"
        },
        {
          "internalType": "uint256",
          "name": "index",
          "type": "uint256"
        }
      ],
      "name": "tokenOfOwnerByIndex",
      "outputs": [
        {
          "internalType": "uint256",
          "name": "",
          "type": "uint256"
        }
      ],
      "stateMutability": "view",
      "type": "function",
      "constant": true
    },
    {
      "inputs": [
        {
          "internalType": "uint256",
          "name": "tokenId",
          "type": "uint256"
        }
      ],
      "name": "tokenURI",
      "outputs": [
        {
          "internalType": "string",
          "name": "",
          "type": "string"
        }
      ],
      "stateMutability": "view",
      "type": "function",
      "constant": true
    },
    {
      "inputs": [],
      "name": "totalSupply",
      "outputs": [
        {
          "internalType": "uint256",
          "name": "",
          "type": "uint256"
        }
      ],
      "stateMutability": "view",
      "type": "function",
      "constant": true
    },
    {
      "inputs": [
        {
          "internalType": "address",
          "name": "from",
          "type": "address"
        },
        {
          "internalType": "address",
          "name": "to",
          "type": "address"
        },
        {
          "internalType": "uint256",
          "name": "tokenId",
          "type": "uint256"
        }
      ],
      "name": "transferFrom",
      "outputs": [],
      "stateMutability": "nonpayable",
      "type": "function"
    },
    {
      "inputs": [
        {
          "internalType": "uint256",
          "name": "_apiMatchId",
          "type": "uint256"
        },
        {
          "internalType": "string",
          "name": "_matchResultLink",
          "type": "string"
        },
        {
          "internalType": "uint32",
          "name": "_oddsTeamA",
          "type": "uint32"
        },
        {
          "internalType": "uint32",
          "name": "_oddsTeamB",
          "type": "uint32"
        },
        {
          "internalType": "uint32",
          "name": "_oddsDraw",
          "type": "uint32"
        },
        {
          "internalType": "uint256",
          "name": "_startAt",
          "type": "uint256"
        }
      ],
      "name": "createMatch",
      "outputs": [
        {
          "internalType": "uint256",
          "name": "",
          "type": "uint256"
        }
      ],
      "stateMutability": "nonpayable",
      "type": "function"
    },
    {
      "inputs": [
        {
          "internalType": "uint128",
          "name": "_matchId",
          "type": "uint128"
        },
        {
          "internalType": "uint8",
          "name": "_resultBetOn",
          "type": "uint8"
        }
      ],
      "name": "placeBet",
      "outputs": [
        {
          "internalType": "uint256",
          "name": "",
          "type": "uint256"
        }
      ],
      "stateMutability": "payable",
      "type": "function",
      "payable": true
    },
    {
      "inputs": [
        {
          "internalType": "uint128",
          "name": "_matchId",
          "type": "uint128"
        }
      ],
      "name": "startMatch",
      "outputs": [],
      "stateMutability": "nonpayable",
      "type": "function"
    },
    {
      "inputs": [
        {
          "internalType": "uint128",
          "name": "_matchId",
          "type": "uint128"
        },
        {
          "internalType": "uint8",
          "name": "_matchResult",
          "type": "uint8"
        }
      ],
      "name": "closeMatch",
      "outputs": [],
      "stateMutability": "nonpayable",
      "type": "function"
    },
    {
      "inputs": [
        {
          "internalType": "uint128",
          "name": "_smartAssetId",
          "type": "uint128"
        }
      ],
      "name": "liquidateAsset",
      "outputs": [
        {
          "internalType": "bool",
          "name": "",
          "type": "bool"
        }
      ],
      "stateMutability": "payable",
      "type": "function",
      "payable": true
    },
    {
      "inputs": [],
      "name": "toggleCircuitBreaker",
      "outputs": [],
      "stateMutability": "nonpayable",
      "type": "function"
    },
    {
      "inputs": [
        {
          "internalType": "uint256",
          "name": "_matchId",
          "type": "uint256"
        }
      ],
      "name": "getMatch",
      "outputs": [
        {
          "components": [
            {
              "internalType": "address",
              "name": "creator",
              "type": "address"
            },
            {
              "internalType": "uint32",
              "name": "oddsTeamA",
              "type": "uint32"
            },
            {
              "internalType": "uint32",
              "name": "oddsTeamB",
              "type": "uint32"
            },
            {
              "internalType": "uint32",
              "name": "oddsDraw",
              "type": "uint32"
            },
            {
              "internalType": "string",
              "name": "matchResultLink",
              "type": "string"
            },
            {
              "internalType": "uint256",
              "name": "totalPayoutTeamA",
              "type": "uint256"
            },
            {
              "internalType": "uint256",
              "name": "totalPayoutTeamB",
              "type": "uint256"
            },
            {
              "internalType": "uint256",
              "name": "totalPayoutDraw",
              "type": "uint256"
            },
            {
              "internalType": "uint256",
              "name": "totalCollected",
              "type": "uint256"
            },
            {
              "internalType": "enum SmartBet.MatchResult",
              "name": "result",
              "type": "uint8"
            },
            {
              "internalType": "enum SmartBet.MatchState",
              "name": "state",
              "type": "uint8"
            },
            {
              "internalType": "bool",
              "name": "exists",
              "type": "bool"
            }
          ],
          "internalType": "struct SmartBet.Match",
          "name": "match_",
          "type": "tuple"
        }
      ],
      "stateMutability": "view",
      "type": "function",
      "constant": true
    },
    {
      "inputs": [
        {
          "internalType": "uint256",
          "name": "_smartAssetId",
          "type": "uint256"
        }
      ],
      "name": "getSmartAsset",
      "outputs": [
        {
          "components": [
            {
              "internalType": "address",
              "name": "owner",
              "type": "address"
            },
            {
              "internalType": "uint256",
              "name": "matchId",
              "type": "uint256"
            },
            {
              "internalType": "enum SmartBet.MatchResult",
              "name": "matchResult",
              "type": "uint8"
            },
            {
              "internalType": "uint256",
              "name": "initialValue",
              "type": "uint256"
            },
            {
              "internalType": "uint8",
              "name": "accruedInterest",
              "type": "uint8"
            }
          ],
          "internalType": "struct SmartBet.SmartAsset",
          "name": "asset",
          "type": "tuple"
        }
      ],
      "stateMutability": "view",
      "type": "function",
      "constant": true
    }
  ],
  "bytecode": "0x60806040526001600e556000601360006101000a81548160ff0219169083151502179055503480156200003157600080fd5b506040518060400160405280600881526020017f536d6172744265740000000000000000000000000000000000000000000000008152506040518060400160405280600481526020017f534d425400000000000000000000000000000000000000000000000000000000815250620000b66301ffc9a760e01b6200017960201b60201c565b8160069080519060200190620000ce92919062000282565b508060079080519060200190620000e792919062000282565b50620001006380ac58cd60e01b6200017960201b60201c565b62000118635b5e139f60e01b6200017960201b60201c565b6200013063780e9d6360e01b6200017960201b60201c565b505033601060006101000a81548173ffffffffffffffffffffffffffffffffffffffff021916908373ffffffffffffffffffffffffffffffffffffffff16021790555062000338565b63ffffffff60e01b817bffffffffffffffffffffffffffffffffffffffffffffffffffffffff1916141562000216576040517f08c379a000000000000000000000000000000000000000000000000000000000815260040180806020018281038252601c8152602001807f4552433136353a20696e76616c696420696e746572666163652069640000000081525060200191505060405180910390fd5b6001600080837bffffffffffffffffffffffffffffffffffffffffffffffffffffffff19167bffffffffffffffffffffffffffffffffffffffffffffffffffffffff1916815260200190815260200160002060006101000a81548160ff02191690831515021790555050565b828054600181600116156101000203166002900490600052602060002090601f016020900481019282620002ba576000855562000306565b82601f10620002d557805160ff191683800117855562000306565b8280016001018555821562000306579182015b8281111562000305578251825591602001919060010190620002e8565b5b50905062000315919062000319565b5090565b5b80821115620003345760008160009055506001016200031a565b5090565b61594980620003486000396000f3fe6080604052600436106101665760003560e01c80636352211e116100d1578063b88d4fde1161008a578063d2c2cc8411610064578063d2c2cc841461057e578063d5eb63cc146105bb578063e985e9c5146105d2578063fcba1c231461060f57610166565b8063b88d4fde146104ef578063c87b56dd14610518578063cec85ad71461055557610166565b80636352211e146103c65780636c0360eb1461040357806370a082311461042e57806395d89b411461046b578063a09506b514610496578063a22cb465146104c657610166565b806323b872dd1161012357806323b872dd1461028d5780632f745c59146102b65780633d092b3d146102f357806342842e0e146103305780634f6ccce71461035957806358d33e6d1461039657610166565b806301ffc9a71461016b57806306fdde03146101a8578063081812fc146101d3578063095ea7b3146102105780630e5cc1a51461023957806318160ddd14610262575b600080fd5b34801561017757600080fd5b50610192600480360381019061018d91906149b9565b61064c565b60405161019f919061518c565b60405180910390f35b3480156101b457600080fd5b506101bd6106b3565b6040516101ca91906151d0565b60405180910390f35b3480156101df57600080fd5b506101fa60048036038101906101f59190614a47565b610755565b604051610207919061511e565b60405180910390f35b34801561021c57600080fd5b506102376004803603810190610232919061497d565b6107f0565b005b34801561024557600080fd5b50610260600480360381019061025b91906149e2565b610934565b005b34801561026e57600080fd5b50610277610b18565b60405161028491906153cf565b60405180910390f35b34801561029957600080fd5b506102b460048036038101906102af9190614877565b610b29565b005b3480156102c257600080fd5b506102dd60048036038101906102d8919061497d565b610b9f565b6040516102ea91906153cf565b60405180910390f35b3480156102ff57600080fd5b5061031a60048036038101906103159190614a47565b610bfa565b6040516103279190615392565b60405180910390f35b34801561033c57600080fd5b5061035760048036038101906103529190614877565b610e94565b005b34801561036557600080fd5b50610380600480360381019061037b9190614a47565b610eb4565b60405161038d91906153cf565b60405180910390f35b6103b060048036038101906103ab9190614a0b565b610ed7565b6040516103bd91906153cf565b60405180910390f35b3480156103d257600080fd5b506103ed60048036038101906103e89190614a47565b61149c565b6040516103fa919061511e565b60405180910390f35b34801561040f57600080fd5b506104186114d3565b60405161042591906151d0565b60405180910390f35b34801561043a57600080fd5b5061045560048036038101906104509190614812565b611575565b60405161046291906153cf565b60405180910390f35b34801561047757600080fd5b5061048061164a565b60405161048d91906151d0565b60405180910390f35b6104b060048036038101906104ab91906149e2565b6116ec565b6040516104bd919061518c565b60405180910390f35b3480156104d257600080fd5b506104ed60048036038101906104e89190614941565b611a9b565b005b3480156104fb57600080fd5b50610516600480360381019061051191906148c6565b611c51565b005b34801561052457600080fd5b5061053f600480360381019061053a9190614a47565b611cc9565b60405161054c91906151d0565b60405180910390f35b34801561056157600080fd5b5061057c60048036038101906105779190614a0b565b611fb2565b005b34801561058a57600080fd5b506105a560048036038101906105a09190614a47565b61270d565b6040516105b291906153b4565b60405180910390f35b3480156105c757600080fd5b506105d06128b0565b005b3480156105de57600080fd5b506105f960048036038101906105f4919061483b565b61296c565b604051610606919061518c565b60405180910390f35b34801561061b57600080fd5b5061063660048036038101906106319190614a70565b612a00565b60405161064391906153cf565b60405180910390f35b6000806000837bffffffffffffffffffffffffffffffffffffffffffffffffffffffff19167bffffffffffffffffffffffffffffffffffffffffffffffffffffffff1916815260200190815260200160002060009054906101000a900460ff169050919050565b606060068054600181600116156101000203166002900480601f01602080910402602001604051908101604052809291908181526020018280546001816001161561010002031660029004801561074b5780601f106107205761010080835404028352916020019161074b565b820191906000526020600020905b81548152906001019060200180831161072e57829003601f168201915b5050505050905090565b600061076082612de9565b6107b5576040517f08c379a000000000000000000000000000000000000000000000000000000000815260040180806020018281038252602c81526020018061583e602c913960400191505060405180910390fd5b6004600083815260200190815260200160002060009054906101000a900473ffffffffffffffffffffffffffffffffffffffff169050919050565b60006107fb8261149c565b90508073ffffffffffffffffffffffffffffffffffffffff168373ffffffffffffffffffffffffffffffffffffffff161415610882576040517f08c379a00000000000000000000000000000000000000000000000000000000081526004018080602001828103825260218152602001806158c26021913960400191505060405180910390fd5b8073ffffffffffffffffffffffffffffffffffffffff166108a1612e06565b73ffffffffffffffffffffffffffffffffffffffff1614806108d057506108cf816108ca612e06565b61296c565b5b610925576040517f08c379a00000000000000000000000000000000000000000000000000000000081526004018080602001828103825260388152602001806157916038913960400191505060405180910390fd5b61092f8383612e0e565b505050565b601060009054906101000a900473ffffffffffffffffffffffffffffffffffffffff1673ffffffffffffffffffffffffffffffffffffffff163373ffffffffffffffffffffffffffffffffffffffff16146109c4576040517f08c379a00000000000000000000000000000000000000000000000000000000081526004016109bb90615292565b60405180910390fd5b806fffffffffffffffffffffffffffffffff166015600082815260200190815260200160002060060160029054906101000a900460ff16610a3a576040517f08c379a0000000000000000000000000000000000000000000000000000000008152600401610a31906152f2565b60405180910390fd5b816fffffffffffffffffffffffffffffffff1660006002811115610a5a57fe5b6015600083815260200190815260200160002060060160019054906101000a900460ff166002811115610a8957fe5b14610ac9576040517f08c379a0000000000000000000000000000000000000000000000000000000008152600401610ac090615272565b60405180910390fd5b600160156000856fffffffffffffffffffffffffffffffff16815260200190815260200160002060060160016101000a81548160ff02191690836002811115610b0e57fe5b0217905550505050565b6000610b246002612ec7565b905090565b610b3a610b34612e06565b82612edc565b610b8f576040517f08c379a00000000000000000000000000000000000000000000000000000000081526004018080602001828103825260318152602001806158e36031913960400191505060405180910390fd5b610b9a838383612fd0565b505050565b6000610bf282600160008673ffffffffffffffffffffffffffffffffffffffff1673ffffffffffffffffffffffffffffffffffffffff16815260200190815260200160002061321390919063ffffffff16565b905092915050565b610c026144e6565b816015600082815260200190815260200160002060060160029054906101000a900460ff16610c66576040517f08c379a0000000000000000000000000000000000000000000000000000000008152600401610c5d906152f2565b60405180910390fd5b60156000848152602001908152602001600020604051806101800160405290816000820160009054906101000a900473ffffffffffffffffffffffffffffffffffffffff1673ffffffffffffffffffffffffffffffffffffffff1673ffffffffffffffffffffffffffffffffffffffff1681526020016000820160149054906101000a900463ffffffff1663ffffffff1663ffffffff1681526020016000820160189054906101000a900463ffffffff1663ffffffff1663ffffffff16815260200160008201601c9054906101000a900463ffffffff1663ffffffff1663ffffffff168152602001600182018054600181600116156101000203166002900480601f016020809104026020016040519081016040528092919081815260200182805460018160011615610100020316600290048015610de65780601f10610dbb57610100808354040283529160200191610de6565b820191906000526020600020905b815481529060010190602001808311610dc957829003601f168201915b50505050508152602001600282015481526020016003820154815260200160048201548152602001600582015481526020016006820160009054906101000a900460ff166003811115610e3557fe5b6003811115610e4057fe5b81526020016006820160019054906101000a900460ff166002811115610e6257fe5b6002811115610e6d57fe5b81526020016006820160029054906101000a900460ff161515151581525050915050919050565b610eaf83838360405180602001604052806000815250611c51565b505050565b600080610ecb83600261322d90919063ffffffff16565b50905080915050919050565b6000601360009054906101000a900460ff1615610f29576040517f08c379a0000000000000000000000000000000000000000000000000000000008152600401610f20906152d2565b60405180910390fd5b826fffffffffffffffffffffffffffffffff166015600082815260200190815260200160002060060160029054906101000a900460ff16610f9f576040517f08c379a0000000000000000000000000000000000000000000000000000000008152600401610f96906152f2565b60405180910390fd5b836fffffffffffffffffffffffffffffffff1660006002811115610fbf57fe5b6015600083815260200190815260200160002060060160019054906101000a900460ff166002811115610fee57fe5b1461102e576040517f08c379a000000000000000000000000000000000000000000000000000000000815260040161102590615272565b60405180910390fd5b846fffffffffffffffffffffffffffffffff166001611082576040517f08c379a000000000000000000000000000000000000000000000000000000000815260040161107990615312565b60405180910390fd5b846002600381111561109057fe5b8160ff16600381111561109f57fe5b60038111156110aa57fe5b14806110d957506003808111156110bd57fe5b8160ff1660038111156110cc57fe5b60038111156110d757fe5b145b806111085750600160038111156110ec57fe5b8160ff1660038111156110fb57fe5b600381111561110657fe5b145b611147576040517f08c379a000000000000000000000000000000000000000000000000000000000815260040161113e90615232565b60405180910390fd5b600034141561118b576040517f08c379a000000000000000000000000000000000000000000000000000000000815260040161118290615332565b60405180910390fd5b600033905060003490506000808960ff1660038111156111a757fe5b9050600260038111156111b657fe5b8160038111156111c257fe5b141561124657601560008c6fffffffffffffffffffffffffffffffff16815260200190815260200160002060000160149054906101000a900463ffffffff1663ffffffff168302915081601560008d6fffffffffffffffffffffffffffffffff1681526020019081526020016000206002016000828254019250508190555061135d565b60038081111561125257fe5b81600381111561125e57fe5b14156112e257601560008c6fffffffffffffffffffffffffffffffff16815260200190815260200160002060000160189054906101000a900463ffffffff1663ffffffff168302915081601560008d6fffffffffffffffffffffffffffffffff1681526020019081526020016000206003016000828254019250508190555061135c565b601560008c6fffffffffffffffffffffffffffffffff168152602001908152602001600020600001601c9054906101000a900463ffffffff1663ffffffff168302915081601560008d6fffffffffffffffffffffffffffffffff168152602001908152602001600020600401600082825401925050819055505b5b82601560008d6fffffffffffffffffffffffffffffffff1681526020019081526020016000206005016000828254019250508190555060006113b385848e6fffffffffffffffffffffffffffffffff1685613259565b9050601760008d6fffffffffffffffffffffffffffffffff16815260200190815260200160002060008360038111156113e857fe5b60038111156113f357fe5b8152602001908152602001600020819080600181540180825580915050600190039060005260206000200160009091909190915055428c6fffffffffffffffffffffffffffffffff168673ffffffffffffffffffffffffffffffffffffffff167fb1283c9c8bacdf8cd70a313323578124c5fe2beedea39d5b268157d1638236aa8760405161148291906153cf565b60405180910390a480995050505050505050505092915050565b60006114cc826040518060600160405280602981526020016157f36029913960026133e09092919063ffffffff16565b9050919050565b606060098054600181600116156101000203166002900480601f01602080910402602001604051908101604052809291908181526020018280546001816001161561010002031660029004801561156b5780601f106115405761010080835404028352916020019161156b565b820191906000526020600020905b81548152906001019060200180831161154e57829003601f168201915b5050505050905090565b60008073ffffffffffffffffffffffffffffffffffffffff168273ffffffffffffffffffffffffffffffffffffffff1614156115fc576040517f08c379a000000000000000000000000000000000000000000000000000000000815260040180806020018281038252602a8152602001806157c9602a913960400191505060405180910390fd5b611643600160008473ffffffffffffffffffffffffffffffffffffffff1673ffffffffffffffffffffffffffffffffffffffff1681526020019081526020016000206133ff565b9050919050565b606060078054600181600116156101000203166002900480601f0160208091040260200160405190810160405280929190818152602001828054600181600116156101000203166002900480156116e25780601f106116b7576101008083540402835291602001916116e2565b820191906000526020600020905b8154815290600101906020018083116116c557829003601f168201915b5050505050905090565b6000601360009054906101000a900460ff161561173e576040517f08c379a0000000000000000000000000000000000000000000000000000000008152600401611735906152d2565b60405180910390fd5b816fffffffffffffffffffffffffffffffff1661175a81612de9565b611799576040517f08c379a000000000000000000000000000000000000000000000000000000000815260040161179090615212565b60405180910390fd5b826fffffffffffffffffffffffffffffffff163373ffffffffffffffffffffffffffffffffffffffff166117cc8261149c565b73ffffffffffffffffffffffffffffffffffffffff1614611822576040517f08c379a000000000000000000000000000000000000000000000000000000000815260040161181990615252565b60405180910390fd5b600060146000866fffffffffffffffffffffffffffffffff1681526020019081526020016000206040518060a00160405290816000820160009054906101000a900473ffffffffffffffffffffffffffffffffffffffff1673ffffffffffffffffffffffffffffffffffffffff1673ffffffffffffffffffffffffffffffffffffffff168152602001600182015481526020016002820160009054906101000a900460ff1660038111156118d257fe5b60038111156118dd57fe5b8152602001600382015481526020016004820160009054906101000a900460ff1660ff1660ff1681525050905060028081111561191657fe5b601560008360200151815260200190815260200160002060060160019054906101000a900460ff16600281111561194957fe5b14611989576040517f08c379a000000000000000000000000000000000000000000000000000000000815260040161198090615372565b60405180910390fd5b80606001514710156119d0576040517f08c379a00000000000000000000000000000000000000000000000000000000081526004016119c7906151f2565b60405180910390fd5b6119eb856fffffffffffffffffffffffffffffffff16613414565b3373ffffffffffffffffffffffffffffffffffffffff166108fc82606001519081150290604051600060405180830381858888f19350505050158015611a35573d6000803e3d6000fd5b5080602001513373ffffffffffffffffffffffffffffffffffffffff167f272d35cd904617477d1f00fc52a260e0fd2bbdb7052bb00fc0793393cc1c8d1a836060015142604051611a879291906153ea565b60405180910390a360019350505050919050565b611aa3612e06565b73ffffffffffffffffffffffffffffffffffffffff168273ffffffffffffffffffffffffffffffffffffffff161415611b44576040517f08c379a00000000000000000000000000000000000000000000000000000000081526004018080602001828103825260198152602001807f4552433732313a20617070726f766520746f2063616c6c65720000000000000081525060200191505060405180910390fd5b8060056000611b51612e06565b73ffffffffffffffffffffffffffffffffffffffff1673ffffffffffffffffffffffffffffffffffffffff16815260200190815260200160002060008473ffffffffffffffffffffffffffffffffffffffff1673ffffffffffffffffffffffffffffffffffffffff16815260200190815260200160002060006101000a81548160ff0219169083151502179055508173ffffffffffffffffffffffffffffffffffffffff16611bfe612e06565b73ffffffffffffffffffffffffffffffffffffffff167f17307eab39ab6107e8899845ad3d59bd9653f200f220920489ca2b5937696c318360405180821515815260200191505060405180910390a35050565b611c62611c5c612e06565b83612edc565b611cb7576040517f08c379a00000000000000000000000000000000000000000000000000000000081526004018080602001828103825260318152602001806158e36031913960400191505060405180910390fd5b611cc384848484613420565b50505050565b6060611cd482612de9565b611d29576040517f08c379a000000000000000000000000000000000000000000000000000000000815260040180806020018281038252602f815260200180615893602f913960400191505060405180910390fd5b6000600860008481526020019081526020016000208054600181600116156101000203166002900480601f016020809104026020016040519081016040528092919081815260200182805460018160011615610100020316600290048015611dd25780601f10611da757610100808354040283529160200191611dd2565b820191906000526020600020905b815481529060010190602001808311611db557829003601f168201915b50505050509050600060098054600181600116156101000203166002900490501415611e015780915050611fad565b600081511115611eda576009816040516020018083805460018160011615610100020316600290048015611e6c5780601f10611e4a576101008083540402835291820191611e6c565b820191906000526020600020905b815481529060010190602001808311611e58575b505082805190602001908083835b60208310611e9d5780518252602082019150602081019050602083039250611e7a565b6001836020036101000a03801982511681845116808217855250505050505090500192505050604051602081830303815290604052915050611fad565b6009611ee584613492565b6040516020018083805460018160011615610100020316600290048015611f435780601f10611f21576101008083540402835291820191611f43565b820191906000526020600020905b815481529060010190602001808311611f2f575b505082805190602001908083835b60208310611f745780518252602082019150602081019050602083039250611f51565b6001836020036101000a038019825116818451168082178552505050505050905001925050506040516020818303038152906040529150505b919050565b601060009054906101000a900473ffffffffffffffffffffffffffffffffffffffff1673ffffffffffffffffffffffffffffffffffffffff163373ffffffffffffffffffffffffffffffffffffffff1614612042576040517f08c379a000000000000000000000000000000000000000000000000000000000815260040161203990615292565b60405180910390fd5b816fffffffffffffffffffffffffffffffff166015600082815260200190815260200160002060060160029054906101000a900460ff166120b8576040517f08c379a00000000000000000000000000000000000000000000000000000000081526004016120af906152f2565b60405180910390fd5b826fffffffffffffffffffffffffffffffff16600160028111156120d857fe5b6015600083815260200190815260200160002060060160019054906101000a900460ff16600281111561210757fe5b14612147576040517f08c379a000000000000000000000000000000000000000000000000000000000815260040161213e90615352565b60405180910390fd5b826002600381111561215557fe5b8160ff16600381111561216457fe5b600381111561216f57fe5b148061219e575060038081111561218257fe5b8160ff16600381111561219157fe5b600381111561219c57fe5b145b806121cd5750600160038111156121b157fe5b8160ff1660038111156121c057fe5b60038111156121cb57fe5b145b61220c576040517f08c379a000000000000000000000000000000000000000000000000000000000815260040161220390615232565b60405180910390fd5b600260156000876fffffffffffffffffffffffffffffffff16815260200190815260200160002060060160016101000a81548160ff0219169083600281111561225157fe5b021790555060008460ff16600381111561226757fe5b9050612285866fffffffffffffffffffffffffffffffff16826135d9565b6002600381111561229257fe5b81600381111561229e57fe5b14156123f05761234760176000886fffffffffffffffffffffffffffffffff16815260200190815260200160002060006003808111156122da57fe5b60038111156122e557fe5b815260200190815260200160002080548060200260200160405190810160405280929190818152602001828054801561233d57602002820191906000526020600020905b815481526020019060010190808311612329575b5050505050613671565b6123eb60176000886fffffffffffffffffffffffffffffffff16815260200190815260200160002060006001600381111561237e57fe5b600381111561238957fe5b81526020019081526020016000208054806020026020016040519081016040528092919081815260200182805480156123e157602002820191906000526020600020905b8154815260200190600101908083116123cd575b5050505050613671565b6126a4565b6003808111156123fc57fe5b81600381111561240857fe5b141561255b576124b260176000886fffffffffffffffffffffffffffffffff16815260200190815260200160002060006002600381111561244557fe5b600381111561245057fe5b81526020019081526020016000208054806020026020016040519081016040528092919081815260200182805480156124a857602002820191906000526020600020905b815481526020019060010190808311612494575b5050505050613671565b61255660176000886fffffffffffffffffffffffffffffffff1681526020019081526020016000206000600160038111156124e957fe5b60038111156124f457fe5b815260200190815260200160002080548060200260200160405190810160405280929190818152602001828054801561254c57602002820191906000526020600020905b815481526020019060010190808311612538575b5050505050613671565b6126a3565b6125ff60176000886fffffffffffffffffffffffffffffffff16815260200190815260200160002060006002600381111561259257fe5b600381111561259d57fe5b81526020019081526020016000208054806020026020016040519081016040528092919081815260200182805480156125f557602002820191906000526020600020905b8154815260200190600101908083116125e1575b5050505050613671565b6126a260176000886fffffffffffffffffffffffffffffffff168152602001908152602001600020600060038081111561263557fe5b600381111561264057fe5b815260200190815260200160002080548060200260200160405190810160405280929190818152602001828054801561269857602002820191906000526020600020905b815481526020019060010190808311612684575b5050505050613671565b5b5b856fffffffffffffffffffffffffffffffff163373ffffffffffffffffffffffffffffffffffffffff167fd29dba8c386c3bc42bf8ec778a1dfa55ec92d4ec2799213b01d4d627487d97bb426040516126fd91906153cf565b60405180910390a3505050505050565b612715614587565b8161271f81612de9565b61275e576040517f08c379a000000000000000000000000000000000000000000000000000000000815260040161275590615212565b60405180910390fd5b823373ffffffffffffffffffffffffffffffffffffffff1661277f8261149c565b73ffffffffffffffffffffffffffffffffffffffff16146127d5576040517f08c379a00000000000000000000000000000000000000000000000000000000081526004016127cc90615252565b60405180910390fd5b601460008581526020019081526020016000206040518060a00160405290816000820160009054906101000a900473ffffffffffffffffffffffffffffffffffffffff1673ffffffffffffffffffffffffffffffffffffffff1673ffffffffffffffffffffffffffffffffffffffff168152602001600182015481526020016002820160009054906101000a900460ff16600381111561287157fe5b600381111561287c57fe5b8152602001600382015481526020016004820160009054906101000a900460ff1660ff1660ff168152505092505050919050565b601060009054906101000a900473ffffffffffffffffffffffffffffffffffffffff1673ffffffffffffffffffffffffffffffffffffffff163373ffffffffffffffffffffffffffffffffffffffff1614612940576040517f08c379a000000000000000000000000000000000000000000000000000000000815260040161293790615292565b60405180910390fd5b601360009054906101000a900460ff1615601360006101000a81548160ff021916908315150217905550565b6000600560008473ffffffffffffffffffffffffffffffffffffffff1673ffffffffffffffffffffffffffffffffffffffff16815260200190815260200160002060008373ffffffffffffffffffffffffffffffffffffffff1673ffffffffffffffffffffffffffffffffffffffff16815260200190815260200160002060009054906101000a900460ff16905092915050565b6000876000601660008381526020019081526020016000205414612a59576040517f08c379a0000000000000000000000000000000000000000000000000000000008152600401612a50906152b2565b60405180910390fd5b601060009054906101000a900473ffffffffffffffffffffffffffffffffffffffff1673ffffffffffffffffffffffffffffffffffffffff163373ffffffffffffffffffffffffffffffffffffffff1614612ae9576040517f08c379a0000000000000000000000000000000000000000000000000000000008152600401612ae090615292565b60405180910390fd5b612af360116136aa565b6000612aff60116136c0565b90506040518061018001604052803373ffffffffffffffffffffffffffffffffffffffff1681526020018863ffffffff1681526020018763ffffffff1681526020018663ffffffff1681526020018a8a8080601f016020809104026020016040519081016040528093929190818152602001838380828437600081840152601f19601f8201169050808301925050505050505081526020016000815260200160008152602001600081526020016000815260200160006003811115612bc057fe5b815260200160006002811115612bd257fe5b8152602001600115158152506015600083815260200190815260200160002060008201518160000160006101000a81548173ffffffffffffffffffffffffffffffffffffffff021916908373ffffffffffffffffffffffffffffffffffffffff16021790555060208201518160000160146101000a81548163ffffffff021916908363ffffffff16021790555060408201518160000160186101000a81548163ffffffff021916908363ffffffff160217905550606082015181600001601c6101000a81548163ffffffff021916908363ffffffff1602179055506080820151816001019080519060200190612cc99291906145da565b5060a0820151816002015560c0820151816003015560e0820151816004015561010082015181600501556101208201518160060160006101000a81548160ff02191690836003811115612d1857fe5b02179055506101408201518160060160016101000a81548160ff02191690836002811115612d4257fe5b02179055506101608201518160060160026101000a81548160ff02191690831515021790555090505080601660008c8152602001908152602001600020819055506000620151804281612d9157fe5b0642039050808b837fef880b66cad6694f1d559f8c2a1c8db66b62664292c4d53e18eb7d13a2d9f47a33898d8d8d604051612dd0959493929190615139565b60405180910390a4819350505050979650505050505050565b6000612dff8260026136ce90919063ffffffff16565b9050919050565b600033905090565b816004600083815260200190815260200160002060006101000a81548173ffffffffffffffffffffffffffffffffffffffff021916908373ffffffffffffffffffffffffffffffffffffffff160217905550808273ffffffffffffffffffffffffffffffffffffffff16612e818361149c565b73ffffffffffffffffffffffffffffffffffffffff167f8c5be1e5ebec7d5bd14f71427d1e84f3dd0314c0f7b2291e5b200ac8c7c3b92560405160405180910390a45050565b6000612ed5826000016136e8565b9050919050565b6000612ee782612de9565b612f3c576040517f08c379a000000000000000000000000000000000000000000000000000000000815260040180806020018281038252602c815260200180615765602c913960400191505060405180910390fd5b6000612f478361149c565b90508073ffffffffffffffffffffffffffffffffffffffff168473ffffffffffffffffffffffffffffffffffffffff161480612fb657508373ffffffffffffffffffffffffffffffffffffffff16612f9e84610755565b73ffffffffffffffffffffffffffffffffffffffff16145b80612fc75750612fc6818561296c565b5b91505092915050565b8273ffffffffffffffffffffffffffffffffffffffff16612ff08261149c565b73ffffffffffffffffffffffffffffffffffffffff161461305c576040517f08c379a000000000000000000000000000000000000000000000000000000000815260040180806020018281038252602981526020018061586a6029913960400191505060405180910390fd5b600073ffffffffffffffffffffffffffffffffffffffff168273ffffffffffffffffffffffffffffffffffffffff1614156130e2576040517f08c379a00000000000000000000000000000000000000000000000000000000081526004018080602001828103825260248152602001806157416024913960400191505060405180910390fd5b6130ed8383836136f9565b6130f8600082612e0e565b61314981600160008673ffffffffffffffffffffffffffffffffffffffff1673ffffffffffffffffffffffffffffffffffffffff1681526020019081526020016000206136fe90919063ffffffff16565b5061319b81600160008573ffffffffffffffffffffffffffffffffffffffff1673ffffffffffffffffffffffffffffffffffffffff16815260200190815260200160002061371890919063ffffffff16565b506131b2818360026137329092919063ffffffff16565b50808273ffffffffffffffffffffffffffffffffffffffff168473ffffffffffffffffffffffffffffffffffffffff167fddf252ad1be2c89b69c2b068fc378daa952ba7f163c4a11628f55a4df523b3ef60405160405180910390a4505050565b60006132228360000183613767565b60001c905092915050565b60008060008061324086600001866137ea565b915091508160001c8160001c9350935050509250929050565b600061326560126136aa565b600061327160126136c0565b905061327d8682613883565b6040518060a001604052803373ffffffffffffffffffffffffffffffffffffffff1681526020018581526020018460038111156132b657fe5b8152602001868152602001600060ff168152506014600083815260200190815260200160002060008201518160000160006101000a81548173ffffffffffffffffffffffffffffffffffffffff021916908373ffffffffffffffffffffffffffffffffffffffff1602179055506020820151816001015560408201518160020160006101000a81548160ff0219169083600381111561335157fe5b02179055506060820151816003015560808201518160040160006101000a81548160ff021916908360ff1602179055509050508573ffffffffffffffffffffffffffffffffffffffff167fc4513e6a2d519757839359ef7a4177aac1624cd70664ae9ecdc9eab45bafca4082426040516133cc9291906153ea565b60405180910390a280915050949350505050565b60006133f3846000018460001b84613a77565b60001c90509392505050565b600061340d82600001613b6d565b9050919050565b61341d81613b7e565b50565b61342b848484612fd0565b61343784848484613cb8565b61348c576040517f08c379a000000000000000000000000000000000000000000000000000000000815260040180806020018281038252603281526020018061570f6032913960400191505060405180910390fd5b50505050565b606060008214156134da576040518060400160405280600181526020017f300000000000000000000000000000000000000000000000000000000000000081525090506135d4565b600082905060005b60008214613504578080600101915050600a82816134fc57fe5b0491506134e2565b60008167ffffffffffffffff8111801561351d57600080fd5b506040519080825280601f01601f1916602001820160405280156135505781602001600182028036833780820191505090505b50905060006001830390508593505b600084146135cc57600a848161357157fe5b0660300160f81b8282806001900393508151811061358b57fe5b60200101907effffffffffffffffffffffffffffffffffffffffffffffffffffffffffffff1916908160001a905350600a84816135c457fe5b04935061355f565b819450505050505b919050565b806015600084815260200190815260200160002060060160006101000a81548160ff0219169083600381111561360b57fe5b0217905550817f82ab24714d54369c755574228baf8bf3da9c1170142baa4a09b52257853c6dae6015600085815260200190815260200160002060060160009054906101000a900460ff16426040516136659291906151a7565b60405180910390a25050565b60005b81518110156136a65761369982828151811061368c57fe5b6020026020010151613414565b8080600101915050613674565b5050565b6001816000016000828254019250508190555050565b600081600001549050919050565b60006136e0836000018360001b613ed1565b905092915050565b600081600001805490509050919050565b505050565b6000613710836000018360001b613ef4565b905092915050565b600061372a836000018360001b613fdc565b905092915050565b600061375e846000018460001b8473ffffffffffffffffffffffffffffffffffffffff1660001b61404c565b90509392505050565b6000818360000180549050116137c8576040517f08c379a00000000000000000000000000000000000000000000000000000000081526004018080602001828103825260228152602001806156ed6022913960400191505060405180910390fd5b8260000182815481106137d757fe5b9060005260206000200154905092915050565b6000808284600001805490501161384c576040517f08c379a000000000000000000000000000000000000000000000000000000000815260040180806020018281038252602281526020018061581c6022913960400191505060405180910390fd5b600084600001848154811061385d57fe5b906000526020600020906002020190508060000154816001015492509250509250929050565b600073ffffffffffffffffffffffffffffffffffffffff168273ffffffffffffffffffffffffffffffffffffffff161415613926576040517f08c379a00000000000000000000000000000000000000000000000000000000081526004018080602001828103825260208152602001807f4552433732313a206d696e7420746f20746865207a65726f206164647265737381525060200191505060405180910390fd5b61392f81612de9565b156139a2576040517f08c379a000000000000000000000000000000000000000000000000000000000815260040180806020018281038252601c8152602001807f4552433732313a20746f6b656e20616c7265616479206d696e7465640000000081525060200191505060405180910390fd5b6139ae600083836136f9565b6139ff81600160008573ffffffffffffffffffffffffffffffffffffffff1673ffffffffffffffffffffffffffffffffffffffff16815260200190815260200160002061371890919063ffffffff16565b50613a16818360026137329092919063ffffffff16565b50808273ffffffffffffffffffffffffffffffffffffffff16600073ffffffffffffffffffffffffffffffffffffffff167fddf252ad1be2c89b69c2b068fc378daa952ba7f163c4a11628f55a4df523b3ef60405160405180910390a45050565b60008084600101600085815260200190815260200160002054905060008114158390613b3e576040517f08c379a00000000000000000000000000000000000000000000000000000000081526004018080602001828103825283818151815260200191508051906020019080838360005b83811015613b03578082015181840152602081019050613ae8565b50505050905090810190601f168015613b305780820380516001836020036101000a031916815260200191505b509250505060405180910390fd5b50846000016001820381548110613b5157fe5b9060005260206000209060020201600101549150509392505050565b600081600001805490509050919050565b6000613b898261149c565b9050613b97816000846136f9565b613ba2600083612e0e565b60006008600084815260200190815260200160002080546001816001161561010002031660029004905014613bf157600860008381526020019081526020016000206000613bf09190614668565b5b613c4282600160008473ffffffffffffffffffffffffffffffffffffffff1673ffffffffffffffffffffffffffffffffffffffff1681526020019081526020016000206136fe90919063ffffffff16565b50613c5782600261412890919063ffffffff16565b5081600073ffffffffffffffffffffffffffffffffffffffff168273ffffffffffffffffffffffffffffffffffffffff167fddf252ad1be2c89b69c2b068fc378daa952ba7f163c4a11628f55a4df523b3ef60405160405180910390a45050565b6000613cd98473ffffffffffffffffffffffffffffffffffffffff16614142565b613ce65760019050613ec9565b6000613e5063150b7a0260e01b613cfb612e06565b888787604051602401808573ffffffffffffffffffffffffffffffffffffffff1681526020018473ffffffffffffffffffffffffffffffffffffffff16815260200183815260200180602001828103825283818151815260200191508051906020019080838360005b83811015613d7f578082015181840152602081019050613d64565b50505050905090810190601f168015613dac5780820380516001836020036101000a031916815260200191505b5095505050505050604051602081830303815290604052907bffffffffffffffffffffffffffffffffffffffffffffffffffffffff19166020820180517bffffffffffffffffffffffffffffffffffffffffffffffffffffffff838183161783525050505060405180606001604052806032815260200161570f603291398773ffffffffffffffffffffffffffffffffffffffff1661418d9092919063ffffffff16565b90506000818060200190516020811015613e6957600080fd5b8101908080519060200190929190505050905063150b7a0260e01b7bffffffffffffffffffffffffffffffffffffffffffffffffffffffff1916817bffffffffffffffffffffffffffffffffffffffffffffffffffffffff191614925050505b949350505050565b600080836001016000848152602001908152602001600020541415905092915050565b60008083600101600084815260200190815260200160002054905060008114613fd05760006001820390506000600186600001805490500390506000866000018281548110613f3f57fe5b9060005260206000200154905080876000018481548110613f5c57fe5b9060005260206000200181905550600183018760010160008381526020019081526020016000208190555086600001805480613f9457fe5b60019003818190600052602060002001600090559055866001016000878152602001908152602001600020600090556001945050505050613fd6565b60009150505b92915050565b6000613fe883836141a5565b614041578260000182908060018154018082558091505060019003906000526020600020016000909190919091505582600001805490508360010160008481526020019081526020016000208190555060019050614046565b600090505b92915050565b60008084600101600085815260200190815260200160002054905060008114156140f357846000016040518060400160405280868152602001858152509080600181540180825580915050600190039060005260206000209060020201600090919091909150600082015181600001556020820151816001015550508460000180549050856001016000868152602001908152602001600020819055506001915050614121565b8285600001600183038154811061410657fe5b90600052602060002090600202016001018190555060009150505b9392505050565b600061413a836000018360001b6141c8565b905092915050565b60008060007fc5d2460186f7233c927e7db2dcc703c0e500b653ca82273b7bfad8045d85a47060001b9050833f915080821415801561418457506000801b8214155b92505050919050565b606061419c84846000856142e1565b90509392505050565b600080836001016000848152602001908152602001600020541415905092915050565b600080836001016000848152602001908152602001600020549050600081146142d5576000600182039050600060018660000180549050039050600086600001828154811061421357fe5b906000526020600020906002020190508087600001848154811061423357fe5b906000526020600020906002020160008201548160000155600182015481600101559050506001830187600101600083600001548152602001908152602001600020819055508660000180548061428657fe5b60019003818190600052602060002090600202016000808201600090556001820160009055505090558660010160008781526020019081526020016000206000905560019450505050506142db565b60009150505b92915050565b60606142ec85614142565b61435e576040517f08c379a000000000000000000000000000000000000000000000000000000000815260040180806020018281038252601d8152602001807f416464726573733a2063616c6c20746f206e6f6e2d636f6e747261637400000081525060200191505060405180910390fd5b6000808673ffffffffffffffffffffffffffffffffffffffff1685876040518082805190602001908083835b602083106143ad578051825260208201915060208101905060208303925061438a565b6001836020036101000a03801982511681845116808217855250505050505090500191505060006040518083038185875af1925050503d806000811461440f576040519150601f19603f3d011682016040523d82523d6000602084013e614414565b606091505b509150915081156144295780925050506144de565b60008151111561443c5780518082602001fd5b836040517f08c379a00000000000000000000000000000000000000000000000000000000081526004018080602001828103825283818151815260200191508051906020019080838360005b838110156144a3578082015181840152602081019050614488565b50505050905090810190601f1680156144d05780820380516001836020036101000a031916815260200191505b509250505060405180910390fd5b949350505050565b604051806101800160405280600073ffffffffffffffffffffffffffffffffffffffff168152602001600063ffffffff168152602001600063ffffffff168152602001600063ffffffff16815260200160608152602001600081526020016000815260200160008152602001600081526020016000600381111561456657fe5b81526020016000600281111561457857fe5b81526020016000151581525090565b6040518060a00160405280600073ffffffffffffffffffffffffffffffffffffffff16815260200160008152602001600060038111156145c357fe5b815260200160008152602001600060ff1681525090565b828054600181600116156101000203166002900490600052602060002090601f0160209004810192826146105760008555614657565b82601f1061462957805160ff1916838001178555614657565b82800160010185558215614657579182015b8281111561465657825182559160200191906001019061463b565b5b50905061466491906146b0565b5090565b50805460018160011615610100020316600290046000825580601f1061468e57506146ad565b601f0160209004906000526020600020908101906146ac91906146b0565b5b50565b5b808211156146c95760008160009055506001016146b1565b5090565b60006146e06146db84615444565b615413565b9050828152602081018484840111156146f857600080fd5b6147038482856155ce565b509392505050565b60008135905061471a8161564b565b92915050565b60008135905061472f81615662565b92915050565b60008135905061474481615679565b92915050565b600082601f83011261475b57600080fd5b813561476b8482602086016146cd565b91505092915050565b60008083601f84011261478657600080fd5b8235905067ffffffffffffffff81111561479f57600080fd5b6020830191508360018202830111156147b757600080fd5b9250929050565b6000813590506147cd81615690565b92915050565b6000813590506147e2816156a7565b92915050565b6000813590506147f7816156be565b92915050565b60008135905061480c816156d5565b92915050565b60006020828403121561482457600080fd5b60006148328482850161470b565b91505092915050565b6000806040838503121561484e57600080fd5b600061485c8582860161470b565b925050602061486d8582860161470b565b9150509250929050565b60008060006060848603121561488c57600080fd5b600061489a8682870161470b565b93505060206148ab8682870161470b565b92505060406148bc868287016147d3565b9150509250925092565b600080600080608085870312156148dc57600080fd5b60006148ea8782880161470b565b94505060206148fb8782880161470b565b935050604061490c878288016147d3565b925050606085013567ffffffffffffffff81111561492957600080fd5b6149358782880161474a565b91505092959194509250565b6000806040838503121561495457600080fd5b60006149628582860161470b565b925050602061497385828601614720565b9150509250929050565b6000806040838503121561499057600080fd5b600061499e8582860161470b565b92505060206149af858286016147d3565b9150509250929050565b6000602082840312156149cb57600080fd5b60006149d984828501614735565b91505092915050565b6000602082840312156149f457600080fd5b6000614a02848285016147be565b91505092915050565b60008060408385031215614a1e57600080fd5b6000614a2c858286016147be565b9250506020614a3d858286016147fd565b9150509250929050565b600060208284031215614a5957600080fd5b6000614a67848285016147d3565b91505092915050565b600080600080600080600060c0888a031215614a8b57600080fd5b6000614a998a828b016147d3565b975050602088013567ffffffffffffffff811115614ab657600080fd5b614ac28a828b01614774565b96509650506040614ad58a828b016147e8565b9450506060614ae68a828b016147e8565b9350506080614af78a828b016147e8565b92505060a0614b088a828b016147d3565b91505092959891949750929550565b614b2081615574565b82525050565b614b2f816154a1565b82525050565b614b3e816154a1565b82525050565b614b4d816154b3565b82525050565b614b5c816154b3565b82525050565b614b6b81615586565b82525050565b614b7a81615586565b82525050565b614b8981615598565b82525050565b6000614b9a82615474565b614ba4818561547f565b9350614bb48185602086016155dd565b614bbd81615612565b840191505092915050565b6000614bd382615474565b614bdd8185615490565b9350614bed8185602086016155dd565b614bf681615612565b840191505092915050565b6000614c0e601f83615490565b91507f436f6e74726163742068617320696e73756666696369656e742066756e6473006000830152602082019050919050565b6000614c4e600d83615490565b91507f496e76616c696420746f6b656e000000000000000000000000000000000000006000830152602082019050919050565b6000614c8e601483615490565b91507f496e76616c6964206d6174636820726573756c740000000000000000000000006000830152602082019050919050565b6000614cce601983615490565b91507f63616c6c6572206973206e6f7420746f6b656e206f776e6572000000000000006000830152602082019050919050565b6000614d0e600d83615490565b91507f6d617463682073746172746564000000000000000000000000000000000000006000830152602082019050919050565b6000614d4e601383615490565b91507f63616c6c6572206973206e6f74206f776e6572000000000000000000000000006000830152602082019050919050565b6000614d8e601383615490565b91507f617069206d6174636820494420657869737473000000000000000000000000006000830152602082019050919050565b6000614dce601583615490565b91507f4369726375697420627265616b6572206973206f6e00000000000000000000006000830152602082019050919050565b6000614e0e601d83615490565b91507f6f6e20636861696e206d6174636820646f6573206e6f742065786973740000006000830152602082019050919050565b6000614e4e601283615490565b91507f426574206973206e6f7420616c6c6f77656400000000000000000000000000006000830152602082019050919050565b6000614e8e601283615490565b91507f496e76616c696420616d6f756e742062657400000000000000000000000000006000830152602082019050919050565b6000614ece601183615490565b91507f6d61746368206e6f7420737461727465640000000000000000000000000000006000830152602082019050919050565b6000614f0e602e83615490565b91507f43616e6e6f74206c697175696461746520617373657420756e74696c206d617460008301527f63682069732066696e69736865640000000000000000000000000000000000006020830152604082019050919050565b600061018083016000830151614f806000860182614b26565b506020830151614f9360208601826150f1565b506040830151614fa660408601826150f1565b506060830151614fb960608601826150f1565b5060808301518482036080860152614fd18282614b8f565b91505060a0830151614fe660a08601826150d3565b5060c0830151614ff960c08601826150d3565b5060e083015161500c60e08601826150d3565b506101008301516150216101008601826150d3565b50610120830151615036610120860182614b62565b5061014083015161504b610140860182614b80565b50610160830151615060610160860182614b44565b508091505092915050565b60a0820160008201516150816000850182614b26565b50602082015161509460208501826150d3565b5060408201516150a76040850182614b62565b5060608201516150ba60608501826150d3565b5060808201516150cd608085018261510f565b50505050565b6150dc8161554d565b82525050565b6150eb8161554d565b82525050565b6150fa81615557565b82525050565b61510981615557565b82525050565b61511881615567565b82525050565b60006020820190506151336000830184614b35565b92915050565b600060a08201905061514e6000830188614b17565b61515b60208301876150e2565b6151686040830186615100565b6151756060830185615100565b6151826080830184615100565b9695505050505050565b60006020820190506151a16000830184614b53565b92915050565b60006040820190506151bc6000830185614b71565b6151c960208301846150e2565b9392505050565b600060208201905081810360008301526151ea8184614bc8565b905092915050565b6000602082019050818103600083015261520b81614c01565b9050919050565b6000602082019050818103600083015261522b81614c41565b9050919050565b6000602082019050818103600083015261524b81614c81565b9050919050565b6000602082019050818103600083015261526b81614cc1565b9050919050565b6000602082019050818103600083015261528b81614d01565b9050919050565b600060208201905081810360008301526152ab81614d41565b9050919050565b600060208201905081810360008301526152cb81614d81565b9050919050565b600060208201905081810360008301526152eb81614dc1565b9050919050565b6000602082019050818103600083015261530b81614e01565b9050919050565b6000602082019050818103600083015261532b81614e41565b9050919050565b6000602082019050818103600083015261534b81614e81565b9050919050565b6000602082019050818103600083015261536b81614ec1565b9050919050565b6000602082019050818103600083015261538b81614f01565b9050919050565b600060208201905081810360008301526153ac8184614f67565b905092915050565b600060a0820190506153c9600083018461506b565b92915050565b60006020820190506153e460008301846150e2565b92915050565b60006040820190506153ff60008301856150e2565b61540c60208301846150e2565b9392505050565b6000604051905081810181811067ffffffffffffffff8211171561543a57615439615610565b5b8060405250919050565b600067ffffffffffffffff82111561545f5761545e615610565b5b601f19601f8301169050602081019050919050565b600081519050919050565b600082825260208201905092915050565b600082825260208201905092915050565b60006154ac8261552d565b9050919050565b60008115159050919050565b60007fffffffff0000000000000000000000000000000000000000000000000000000082169050919050565b60008190506154f982615623565b919050565b600081905061550c82615637565b919050565b60006fffffffffffffffffffffffffffffffff82169050919050565b600073ffffffffffffffffffffffffffffffffffffffff82169050919050565b6000819050919050565b600063ffffffff82169050919050565b600060ff82169050919050565b600061557f826155aa565b9050919050565b6000615591826154eb565b9050919050565b60006155a3826154fe565b9050919050565b60006155b5826155bc565b9050919050565b60006155c78261552d565b9050919050565b82818337600083830152505050565b60005b838110156155fb5780820151818401526020810190506155e0565b8381111561560a576000848401525b50505050565bfe5b6000601f19601f8301169050919050565b6004811061563457615633615610565b5b50565b6003811061564857615647615610565b5b50565b615654816154a1565b811461565f57600080fd5b50565b61566b816154b3565b811461567657600080fd5b50565b615682816154bf565b811461568d57600080fd5b50565b61569981615511565b81146156a457600080fd5b50565b6156b08161554d565b81146156bb57600080fd5b50565b6156c781615557565b81146156d257600080fd5b50565b6156de81615567565b81146156e957600080fd5b5056fe456e756d657261626c655365743a20696e646578206f7574206f6620626f756e64734552433732313a207472616e7366657220746f206e6f6e20455243373231526563656976657220696d706c656d656e7465724552433732313a207472616e7366657220746f20746865207a65726f20616464726573734552433732313a206f70657261746f7220717565727920666f72206e6f6e6578697374656e7420746f6b656e4552433732313a20617070726f76652063616c6c6572206973206e6f74206f776e6572206e6f7220617070726f76656420666f7220616c6c4552433732313a2062616c616e636520717565727920666f7220746865207a65726f20616464726573734552433732313a206f776e657220717565727920666f72206e6f6e6578697374656e7420746f6b656e456e756d657261626c654d61703a20696e646578206f7574206f6620626f756e64734552433732313a20617070726f76656420717565727920666f72206e6f6e6578697374656e7420746f6b656e4552433732313a207472616e73666572206f6620746f6b656e2074686174206973206e6f74206f776e4552433732314d657461646174613a2055524920717565727920666f72206e6f6e6578697374656e7420746f6b656e4552433732313a20617070726f76616c20746f2063757272656e74206f776e65724552433732313a207472616e736665722063616c6c6572206973206e6f74206f776e6572206e6f7220617070726f766564a26469706673582212202579ec8901a3c2bc539313c5652b6782456bafa9f7e398b6c44ca3876ab3561064736f6c63430007060033",
  "immutableReferences": {},
  "source": "pragma solidity ^0.7.0;\r\npragma experimental ABIEncoderV2;\r\n\r\nimport \"@chainlink/contracts/src/v0.7/ChainlinkClient.sol\";\r\nimport \"@openzeppelin/contracts/token/ERC721/ERC721.sol\";\r\nimport \"@openzeppelin/contracts/utils/Counters.sol\";\r\n// import \"@openzeppelin/contracts/math/SafeMath.sol\";\r\n\r\n// import \"https://github.com/OpenZeppelin/openzeppelin-contracts/blob/18c7efe800df6fc19554ece3b1f238e9e028a1db/contracts/token/ERC721/ERC721.sol\";\r\n// import \"https://github.com/OpenZeppelin/openzeppelin-contracts/blob/18c7efe800df6fc19554ece3b1f238e9e028a1db/contracts/utils/Counters.sol\";\r\n\r\n\r\n/*\r\n * @notice SmartBet core smart contract. Handles matches, bets and farming\r\n */\r\ncontract SmartBet is ERC721, ChainlinkClient {\r\n\r\n    using Counters for Counters.Counter;\r\n    // using SafeMath for uint256;\r\n\r\n    ////////////////////////////////////////\r\n    //                                    //\r\n    //         STATE VARIABLES            //\r\n    //                                    //      \r\n    ////////////////////////////////////////\r\n    // contract owner adress\r\n    address private owner;\r\n\r\n    // incremented for match id generation\r\n    Counters.Counter private matchIds;\r\n\r\n    // incremented id for NFT minting\r\n    Counters.Counter private tokenIds;\r\n\r\n    // flag to determine if contracts core functionalities can be performed\r\n    bool circuitBreaker = false;\r\n\r\n    enum MatchResult {NOT_DETERMINED, DRAW, TEAM_A_WON, TEAM_B_WON}\r\n    enum MatchState {NOT_STARTED, STARTED, FINISHED}\r\n\r\n    uint8 private constant TEAM_A = 1;\r\n    uint8 private constant TEAM_B = 2;\r\n\r\n    struct Match {\r\n        address creator;\r\n        uint32 oddsTeamA;\r\n        uint32 oddsTeamB;\r\n        uint32 oddsDraw;\r\n        string matchResultLink;\r\n        uint256 totalPayoutTeamA;\r\n        uint256 totalPayoutTeamB;\r\n        uint256 totalPayoutDraw;\r\n        uint256 totalCollected;\r\n        MatchResult result;\r\n        MatchState state;\r\n        bool exists;\r\n    }\r\n\r\n    // NFT issued to winner\r\n    struct SmartAsset {\r\n        address owner;\r\n        uint256 matchId;\r\n        MatchResult matchResult;\r\n        uint256 initialValue;\r\n        uint8 accruedInterest;\r\n    }\r\n\r\n    // holds all NFTs issued to winners\r\n    mapping(uint256 => SmartAsset) smartAssets;\r\n\r\n    // holds all created matches (key: idCounter)\r\n    mapping(uint256 => Match) matches;\r\n    \r\n    // holds all apiMatchId -> onChainMatchId to prevent duplicate entries\r\n    mapping(uint256 => uint256) apiMatches;\r\n\r\n    // holds all bets on a match\r\n    // mapping(matchId => mapping(gameResult => smartAssetId[])) matchBets;\r\n    mapping(uint256 => mapping(MatchResult => uint256[])) matchBets;\r\n\r\n    mapping(bytes32 => uint256) matchResultRequestIds;\r\n\r\n\r\n    ////////////////////////////////////////\r\n    //                                    //\r\n    //           CONSTRUCTOR              //\r\n    //                                    //      \r\n    ////////////////////////////////////////\r\n\r\n    constructor() ERC721(\"SmartBet\", \"SMBT\") {\r\n        owner = msg.sender;\r\n    }\r\n\r\n    ////////////////////////////////////////\r\n    //                                    //\r\n    //              EVENTS                //\r\n    //                                    //      \r\n    ////////////////////////////////////////\r\n\r\n    //Can be used by the clients to get all matches in a particular time\r\n    event MatchCreatedEvent(address creator, uint256 indexed matchId, uint256 indexed apiMatchId, uint256 startAt, uint256 indexed createdOn, uint32 oddsA, uint32 oddsB, uint32 oddsDraw);\r\n    //Can be used by the clients to get all bets placed by a better in a particular time\r\n    event BetPlacedEvent(address indexed bettor, uint256 indexed matchId, uint256 amount, uint256 indexed betPlacedAt);\r\n    event SmartAssetAwardedEvent(address indexed awardee, uint256 smartAssetId, uint256 awardedAt);\r\n    event MatchClosedEvent(address indexed by, uint256 indexed matchId, uint256 closedAt);\r\n    event MatchResultSetEvent(uint256 indexed matchId, MatchResult result, uint256 setAt);\r\n    event AssetLiquidatedEvent(address indexed by, uint256 indexed matchId, uint256 amount, uint256 liquidatedAt);\r\n\r\n\r\n    ////////////////////////////////////////\r\n    //                                    //\r\n    //              MODIFIERS             //\r\n    //                                    //      \r\n    ////////////////////////////////////////\r\n\r\n    /*\r\n    *  @notice  Restrict caller only owner\r\n    */\r\n    modifier onlyOwner() {\r\n        require(msg.sender == owner, \"caller is not owner\");\r\n        _;\r\n    }\r\n\r\n    /*\r\n    *  @notice  Ensure match does not previously exist\r\n    */\r\n    modifier isNewMatch(uint256 _matchId) {\r\n        require(!matches[_matchId].exists, \"on chain match exists\");\r\n        _;\r\n    }\r\n\r\n    /*\r\n    *  @notice  Ensure api match does not previously exist\r\n    */\r\n    modifier isNewAPIMatch(uint256 _api_matchId) {\r\n        require(apiMatches[_api_matchId] == 0, \"api match ID exists\");\r\n        _;\r\n    }\r\n\r\n    /*\r\n    *  @notice  Ensure match exists\r\n    */\r\n    modifier matchExists(uint256 _matchId){\r\n        require(matches[_matchId].exists, \"on chain match does not exist\");\r\n        _;\r\n    }\r\n\r\n    /*\r\n    *  @notice  Ensure match has not started\r\n    */\r\n    modifier matchNotStarted(uint256 _matchId){\r\n        require(matches[_matchId].state == MatchState.NOT_STARTED, \"match started\");\r\n        _;\r\n    }\r\n\r\n    /*\r\n    *  @notice  Ensure match has started\r\n    */\r\n    modifier matchStarted(uint256 _matchId){\r\n        require(matches[_matchId].state == MatchState.STARTED, \"match not started\");\r\n        _;\r\n    }\r\n\r\n    /*\r\n    *  @notice  Ensure match has ended\r\n    */\r\n    modifier matchFinished(uint256 _matchId){\r\n        require(matches[_matchId].state == MatchState.FINISHED, \"match not finished\");\r\n        _;\r\n    }\r\n\r\n    /*\r\n    *  @notice Checks if core functionalities can be performed\r\n    *  @dev Checks if the circuitBreaker state variable is false\r\n    */\r\n    modifier isCircuitBreakOff() {\r\n        require(!circuitBreaker, \"Circuit breaker is on\");\r\n        _;\r\n    }\r\n\r\n    /*\r\n    *  @notice Checks if the NFT is valid\r\n    *  @dev Validates NFT\r\n    */\r\n    modifier validateToken(uint256 _tokenId) {\r\n        require(_exists(_tokenId), \"Invalid token\");\r\n        _;\r\n    }\r\n    \r\n    /*\r\n    *  @notice  Ensure token belongs to the caller\r\n    */\r\n    modifier isTokenOwner(uint256 _tokenId) {\r\n        require(ownerOf(_tokenId) == msg.sender , \"caller is not token owner\");\r\n        _;\r\n    }\r\n\r\n    /*\r\n    *  @notice  Ensures bets are allowed on the match\r\n    *  @dev     The totalCollected on the match must be greater than the total payout on the team the bettor wants to bet on. The incoming bet is inclusive in the calculation\r\n    */\r\n    modifier isBetAllowed(uint256 _matchId) {\r\n        require(true, \"Bet is not allowed\");\r\n        _;\r\n    }\r\n    \r\n    modifier validateMatchResult(uint8 _matchResult) {\r\n        require(MatchResult(_matchResult) == MatchResult.TEAM_A_WON || MatchResult(_matchResult) == MatchResult.TEAM_B_WON || MatchResult(_matchResult) == MatchResult.DRAW, \"Invalid match result\");\r\n        _;\r\n    }\r\n\r\n    ////////////////////////////////////////\r\n    //                                    //\r\n    //              FUNCTIONS             //\r\n    //                                    //      \r\n    ////////////////////////////////////////\r\n\r\n    /*\r\n    *  @notice  New match creation\r\n    *  @dev     \r\n    *  @param   \r\n    *  @return  match Id\r\n    */\r\n    function createMatch(uint256 _apiMatchId, string calldata _matchResultLink, uint32 _oddsTeamA, uint32 _oddsTeamB, uint32 _oddsDraw, uint256 _startAt)\r\n        public \r\n        isNewAPIMatch(_apiMatchId)\r\n        onlyOwner\r\n        returns(uint)\r\n    {\r\n        matchIds.increment();\r\n        uint256 matchId = matchIds.current();\r\n        matches[matchId] = Match(msg.sender, _oddsTeamA, _oddsTeamB, _oddsDraw, _matchResultLink, 0, 0, 0, 0, MatchResult.NOT_DETERMINED, MatchState.NOT_STARTED, true); \r\n        apiMatches[_apiMatchId] = matchId;\r\n        uint256 createdOnDay = block.timestamp - (block.timestamp % 86400);\r\n        emit MatchCreatedEvent(msg.sender, matchId, _apiMatchId, _startAt, createdOnDay, _oddsTeamA, _oddsTeamB, _oddsDraw);\r\n\r\n        return matchId;\r\n    }\r\n\r\n\r\n    /*\r\n    *  @notice  New bet creation. Mint NFT to bettor\r\n    *  @dev   \r\n    *  @param  \r\n    *  @return  token id\r\n    */\r\n    function placeBet(uint128 _matchId, uint8 _resultBetOn)\r\n        public \r\n        payable\r\n        isCircuitBreakOff\r\n        matchExists(_matchId) \r\n        matchNotStarted(_matchId) \r\n        isBetAllowed(_matchId)\r\n        validateMatchResult(_resultBetOn)\r\n        returns(uint256)\r\n    {\r\n        require(msg.value != 0, \"Invalid amount bet\");\r\n\r\n        address bettor = msg.sender;\r\n        uint256 amountBet = msg.value;\r\n        uint256 assetValue = 0;\r\n        MatchResult matchResultBetOn = MatchResult(_resultBetOn);\r\n        \r\n        //update team's total payout\r\n        if (matchResultBetOn == MatchResult.TEAM_A_WON) {\r\n            assetValue = amountBet * matches[_matchId].oddsTeamA;\r\n            matches[_matchId].totalPayoutTeamA += assetValue;\r\n        } else if(matchResultBetOn == MatchResult.TEAM_B_WON) {\r\n            assetValue = amountBet * matches[_matchId].oddsTeamB;\r\n            matches[_matchId].totalPayoutTeamB += assetValue;\r\n        } else {\r\n            assetValue = amountBet * matches[_matchId].oddsDraw;\r\n            matches[_matchId].totalPayoutDraw += assetValue;\r\n        }\r\n\r\n        //increase totalCollected on the match\r\n        matches[_matchId].totalCollected += amountBet;\r\n\r\n        uint256 smartAssetId = awardSmartAsset(bettor, assetValue, _matchId, matchResultBetOn);\r\n        \r\n        //Save bettor's bet\r\n        matchBets[_matchId][matchResultBetOn].push(smartAssetId);\r\n        \r\n        emit BetPlacedEvent(bettor, _matchId, amountBet, block.timestamp);\r\n\r\n        return smartAssetId;\r\n    }\r\n\r\n\r\n    function awardSmartAsset(address bettor, uint256 assetValue, uint256 _matchId, MatchResult _matchResultBetOn) \r\n        internal returns (uint256) \r\n    {\r\n        tokenIds.increment();\r\n\r\n        uint256 smartAssetId = tokenIds.current();\r\n        _mint(bettor, smartAssetId);\r\n        \r\n        smartAssets[smartAssetId] = SmartAsset(msg.sender, _matchId, _matchResultBetOn, assetValue, 0);\r\n\r\n        emit SmartAssetAwardedEvent(bettor, smartAssetId, block.timestamp);\r\n\r\n        return smartAssetId;\r\n    }\r\n    \r\n    function startMatch(uint128 _matchId) \r\n        public\r\n        onlyOwner\r\n        matchExists(_matchId) \r\n        matchNotStarted(_matchId)\r\n    {\r\n        matches[_matchId].state = MatchState.STARTED;\r\n    }\r\n\r\n\r\n    /*\r\n    *  @notice  Match manual close by admin. Trigger \"getResult()\" \r\n    *  @dev     [Real] ChainlinkClient API Request oracles gets match result of winning team. Then, match is closed.\r\n    *           [Temporary] (Implemented because there's no BSC testnet oracle node)\r\n    *                       Frontend gets result via result link and posts winning team. Then, match is closed.\r\n    *  @param  \r\n    *  @return  success success status\r\n    */\r\n    function closeMatch(uint128 _matchId, uint8 _matchResult)\r\n        public \r\n        onlyOwner\r\n        matchExists(_matchId) \r\n        matchStarted(_matchId)\r\n        validateMatchResult(_matchResult)\r\n    {\r\n        matches[_matchId].state = MatchState.FINISHED;\r\n        \r\n        // getMatchResult(_matchId);\r\n        MatchResult matchResult = MatchResult(_matchResult);\r\n        setMatchResult(_matchId, matchResult);\r\n        \r\n        if (matchResult == MatchResult.TEAM_A_WON) {\r\n            invalidateAssets(matchBets[_matchId][MatchResult.TEAM_B_WON]);\r\n            invalidateAssets(matchBets[_matchId][MatchResult.DRAW]);\r\n        } else if (matchResult == MatchResult.TEAM_B_WON) {\r\n            invalidateAssets(matchBets[_matchId][MatchResult.TEAM_A_WON]);\r\n            invalidateAssets(matchBets[_matchId][MatchResult.DRAW]);\r\n        } else {\r\n            invalidateAssets(matchBets[_matchId][MatchResult.TEAM_A_WON]);\r\n            invalidateAssets(matchBets[_matchId][MatchResult.TEAM_B_WON]);\r\n        }\r\n        \r\n        \r\n        emit MatchClosedEvent(msg.sender, _matchId, block.timestamp);\r\n    }\r\n    \r\n    function setMatchResult(uint256 _matchId, MatchResult _matchResult) internal {\r\n        matches[_matchId].result = _matchResult;\r\n        emit MatchResultSetEvent(_matchId, matches[_matchId].result, block.timestamp);\r\n    }\r\n    \r\n    function invalidateAssets(uint256[] memory assets) internal {\r\n        for (uint i = 0; i < assets.length; i++) {\r\n            invalidateAsset(assets[i]);\r\n        }\r\n    }\r\n\r\n    function invalidateAsset(uint256 _smartAssetId) internal {\r\n        _burn(_smartAssetId);\r\n    }\r\n\r\n    /*\r\n    *  @notice  Liquidate smart asset's value\r\n    *  @dev     validated   NFT is burned and caller gets value funds in account\r\n    *  @param   _smartAssetId smart asset id\r\n    *  @return  success status\r\n    */\r\n    function liquidateAsset(uint128 _smartAssetId)\r\n        public \r\n        payable\r\n        isCircuitBreakOff\r\n        validateToken(_smartAssetId)\r\n        isTokenOwner(_smartAssetId)\r\n        returns(bool)\r\n    {\r\n        SmartAsset memory smartAsset = smartAssets[_smartAssetId];\r\n        \r\n        require(matches[smartAsset.matchId].state == MatchState.FINISHED, \"Cannot liquidate asset until match is finished\");\r\n        \r\n        require (address(this).balance >= smartAsset.initialValue, \"Contract has insufficient funds\");\r\n        \r\n        invalidateAsset(_smartAssetId);\r\n        msg.sender.transfer(smartAsset.initialValue);\r\n\r\n        emit AssetLiquidatedEvent(msg.sender, smartAsset.matchId, smartAsset.initialValue, block.timestamp);\r\n        return true;\r\n    }\r\n\r\n    /*\r\n    *  @notice  Contract Circuit Breaker\r\n    *  @dev     Admin can [de]activate core functons in contract\r\n    *  @param   \r\n    *  @return  success success status\r\n    */\r\n    function toggleCircuitBreaker()\r\n        public \r\n        onlyOwner\r\n    {\r\n        circuitBreaker = !circuitBreaker;\r\n    }\r\n\r\n    /*\r\n    *  @notice  Fetch match details\r\n    *  @dev         \r\n    *  @oaram   _matchId\r\n    *  @return match match details\r\n    */\r\n    function getMatch(uint256 _matchId)\r\n        public \r\n        view\r\n        matchExists(_matchId)\r\n        returns(Match memory match_)\r\n    {\r\n        return matches[_matchId];\r\n    }\r\n\r\n    /*\r\n    *  @notice  Fetch single SmartAsset\r\n    *  @dev          \r\n    *  @param   _smartAssetId\r\n    *  @return  asset details\r\n    */\r\n    function getSmartAsset(uint256 _smartAssetId)\r\n        public \r\n        view\r\n        validateToken(_smartAssetId)\r\n        isTokenOwner(_smartAssetId)\r\n        returns(SmartAsset memory asset)\r\n    {\r\n        return smartAssets[_smartAssetId];\r\n    }\r\n    \r\n}\r\n",
  "sourcePath": "C:/Users/USER/Desktop/BLOCKCHAIN/SmartBet/contracts/SmartBet.sol",
  "compiler": {
    "name": "solc",
    "version": "0.7.6+commit.7338295f.Emscripten.clang"
  },
  "schemaVersion": "3.3.4",
  "updatedAt": "2021-04-16T23:38:23.260Z",
  "networkType": "ethereum",
  "devdoc": {
    "kind": "dev",
    "methods": {
      "approve(address,uint256)": {
        "details": "See {IERC721-approve}."
      },
      "balanceOf(address)": {
        "details": "See {IERC721-balanceOf}."
      },
      "baseURI()": {
        "details": "Returns the base URI set via {_setBaseURI}. This will be automatically added as a prefix in {tokenURI} to each token's URI, or to the token ID if no specific URI is set for that token ID."
      },
      "getApproved(uint256)": {
        "details": "See {IERC721-getApproved}."
      },
      "isApprovedForAll(address,address)": {
        "details": "See {IERC721-isApprovedForAll}."
      },
      "name()": {
        "details": "See {IERC721Metadata-name}."
      },
      "ownerOf(uint256)": {
        "details": "See {IERC721-ownerOf}."
      },
      "safeTransferFrom(address,address,uint256)": {
        "details": "See {IERC721-safeTransferFrom}."
      },
      "safeTransferFrom(address,address,uint256,bytes)": {
        "details": "See {IERC721-safeTransferFrom}."
      },
      "setApprovalForAll(address,bool)": {
        "details": "See {IERC721-setApprovalForAll}."
      },
      "supportsInterface(bytes4)": {
        "details": "See {IERC165-supportsInterface}. Time complexity O(1), guaranteed to always use less than 30 000 gas."
      },
      "symbol()": {
        "details": "See {IERC721Metadata-symbol}."
      },
      "tokenByIndex(uint256)": {
        "details": "See {IERC721Enumerable-tokenByIndex}."
      },
      "tokenOfOwnerByIndex(address,uint256)": {
        "details": "See {IERC721Enumerable-tokenOfOwnerByIndex}."
      },
      "tokenURI(uint256)": {
        "details": "See {IERC721Metadata-tokenURI}."
      },
      "totalSupply()": {
        "details": "See {IERC721Enumerable-totalSupply}."
      },
      "transferFrom(address,address,uint256)": {
        "details": "See {IERC721-transferFrom}."
      }
    },
    "version": 1
  },
  "userdoc": {
    "kind": "user",
    "methods": {},
    "version": 1
  }
}