{
  "contractName": "SmartInvestV1",
  "abi": [
    {
      "inputs": [],
      "name": "BASE_BEP20",
      "outputs": [
        {
          "internalType": "address",
          "name": "",
          "type": "address"
        }
      ],
      "stateMutability": "view",
      "type": "function"
    },
    {
      "inputs": [],
      "name": "totalTreasury",
      "outputs": [
        {
          "internalType": "uint256",
          "name": "",
          "type": "uint256"
        }
      ],
      "stateMutability": "view",
      "type": "function"
    },
    {
      "inputs": [],
      "name": "vTOKEN_ADDRESS",
      "outputs": [
        {
          "internalType": "address",
          "name": "",
          "type": "address"
        }
      ],
      "stateMutability": "view",
      "type": "function"
    },
    {
      "inputs": [
        {
          "internalType": "uint256",
          "name": "amount",
          "type": "uint256"
        }
      ],
      "name": "invest",
      "outputs": [],
      "stateMutability": "nonpayable",
      "type": "function"
    },
    {
      "inputs": [
        {
          "internalType": "uint256",
          "name": "amount",
          "type": "uint256"
        }
      ],
      "name": "redeem",
      "outputs": [],
      "stateMutability": "nonpayable",
      "type": "function"
    },
    {
      "inputs": [],
      "name": "getBalance",
      "outputs": [
        {
          "internalType": "uint256",
          "name": "",
          "type": "uint256"
        }
      ],
      "stateMutability": "nonpayable",
      "type": "function"
    }
  ],
  "bytecode": "0x608060405234801561001057600080fd5b506106f5806100206000396000f3fe608060405234801561001057600080fd5b50600436106100625760003560e01c806312065fe0146100675780631876ed4f146100855780632afcf480146100a3578063897534a9146100bf5780639b3c25a5146100dd578063db006a75146100fb575b600080fd5b61006f610117565b60405161007c91906105e7565b60405180910390f35b61008d6101c8565b60405161009a9190610568565b60405180910390f35b6100bd60048036038101906100b891906104a9565b6101e0565b005b6100c7610339565b6040516100d491906105e7565b60405180910390f35b6100e561033f565b6040516100f29190610568565b60405180910390f35b610115600480360381019061011091906104a9565b610357565b005b6000807308e0a5575de71037ae36abfafb516595fe68e5e4905060008173ffffffffffffffffffffffffffffffffffffffff16633af9e669336040518263ffffffff1660e01b815260040161016c9190610583565b602060405180830381600087803b15801561018657600080fd5b505af115801561019a573d6000803e3d6000fd5b505050506040513d601f19601f820116820180604052508101906101be91906104d2565b9050809250505090565b7308e0a5575de71037ae36abfafb516595fe68e5e481565b6000738301f2213c0eed49a7e28ae4c3e91722919b8b47905060007308e0a5575de71037ae36abfafb516595fe68e5e490508173ffffffffffffffffffffffffffffffffffffffff1663095ea7b382856040518363ffffffff1660e01b815260040161024d92919061059e565b602060405180830381600087803b15801561026757600080fd5b505af115801561027b573d6000803e3d6000fd5b505050506040513d601f19601f8201168201806040525081019061029f9190610480565b5060008173ffffffffffffffffffffffffffffffffffffffff1663a0712d68856040518263ffffffff1660e01b81526004016102db91906105e7565b602060405180830381600087803b1580156102f557600080fd5b505af1158015610309573d6000803e3d6000fd5b505050506040513d601f19601f8201168201806040525081019061032d91906104d2565b1461033457fe5b505050565b60005481565b738301f2213c0eed49a7e28ae4c3e91722919b8b4781565b60007308e0a5575de71037ae36abfafb516595fe68e5e4905060008173ffffffffffffffffffffffffffffffffffffffff1663852a12e3846040518263ffffffff1660e01b81526004016103ab91906105e7565b602060405180830381600087803b1580156103c557600080fd5b505af11580156103d9573d6000803e3d6000fd5b505050506040513d601f19601f820116820180604052508101906103fd91906104d2565b1461043d576040517f08c379a0000000000000000000000000000000000000000000000000000000008152600401610434906105c7565b60405180910390fd5b5050565b60008151905061045081610691565b92915050565b600081359050610465816106a8565b92915050565b60008151905061047a816106a8565b92915050565b60006020828403121561049257600080fd5b60006104a084828501610441565b91505092915050565b6000602082840312156104bb57600080fd5b60006104c984828501610456565b91505092915050565b6000602082840312156104e457600080fd5b60006104f28482850161046b565b91505092915050565b6105048161065b565b82525050565b61051381610613565b82525050565b6000610526601483610602565b91507f736f6d657468696e672077656e742077726f6e670000000000000000000000006000830152602082019050919050565b61056281610651565b82525050565b600060208201905061057d600083018461050a565b92915050565b600060208201905061059860008301846104fb565b92915050565b60006040820190506105b3600083018561050a565b6105c06020830184610559565b9392505050565b600060208201905081810360008301526105e081610519565b9050919050565b60006020820190506105fc6000830184610559565b92915050565b600082825260208201905092915050565b600061061e82610631565b9050919050565b60008115159050919050565b600073ffffffffffffffffffffffffffffffffffffffff82169050919050565b6000819050919050565b60006106668261066d565b9050919050565b60006106788261067f565b9050919050565b600061068a82610631565b9050919050565b61069a81610625565b81146106a557600080fd5b50565b6106b181610651565b81146106bc57600080fd5b5056fea2646970667358221220e7dae7d7566c98e02b27362e4684969e752cd38aa082d0b66e574fe1279f209c64736f6c63430007060033",
  "immutableReferences": {},
  "source": "pragma solidity ^0.7.0;\npragma experimental ABIEncoderV2;\n\nimport \"./BEP20.sol\";\nimport \"./VToken.sol\";\n\n/*\n* @notice Integrates with Venus lending protocol\n*/\ncontract SmartInvestV1 {\n    \n    uint256 public totalTreasury;\n    address public constant vTOKEN_ADDRESS = 0x08e0A5575De71037aE36AbfAfb516595fE68e5e4; // BSC testnet Venus vTokens (vBUSD)\n    address public constant BASE_BEP20 = 0x8301F2213c0eeD49a7E28Ae4c3e91722919B8B47; //underlying asset: BUSD\n    \n    function invest(uint256 amount) public {\n        \n        BEP20 underlying = BEP20(BASE_BEP20);     // get a handle for the underlying asset\n        VToken vToken = VToken(vTOKEN_ADDRESS);   // get a handle for the corresponding vToken Contract\n        underlying.approve(address(vToken), amount); // approve the transfer\n        assert(vToken.mint(amount) == 0);            // mint the vTokens and assert there is no error\n    }\n    \n    function redeem(uint256 amount) public {\n        VToken vToken = VToken(vTOKEN_ADDRESS);\n        require(vToken.redeemUnderlying(amount) == 0, \"something went wrong\");\n    }\n    \n    function getBalance() public returns (uint256){\n        VToken vToken = VToken(vTOKEN_ADDRESS);\n        uint tokens = vToken.balanceOfUnderlying(msg.sender);\n        return tokens;\n    }\n    \n    // function exchangeRateCurrent() public {\n    //     VBep20 vToken = VToken(vTOKEN_ADDRESS);\n    //     uint exchangeRateMantissa = vToken.exchangeRateCurrent();\n    // }\n    \n}\n\n\n// const vTokenDecimals = 8; // all vTokens have 8 decimal places\n// const underlying = new web3.eth.Contract(bep20Abi, busdAddress);\n// const vToken = new web3.eth.Contract(vTokenAbi, vBusdAddress);\n// const underlyingDecimals = await underlying.methods.decimals().call();\n// const exchangeRateCurrent = await vToken.methods.exchangeRateCurrent().call();\n// const mantissa = 18 + parseInt(underlyingDecimals) - vTokenDecimals;\n// const onevTokenInUnderlying = exchangeRateCurrent / Math.pow(10, mantissa);\n// console.log('1 vBUSD can be redeemed for', oneVTokenInUnderlying, 'BUSD');",
  "sourcePath": "/Users/ajibigad/crytoproject/SmartBet/contracts/SmartInvestV1.sol",
  "compiler": {
    "name": "solc",
    "version": "0.7.6+commit.7338295f.Emscripten.clang"
  },
  "schemaVersion": "3.3.4",
  "updatedAt": "2021-04-13T08:20:22.174Z",
  "devdoc": {
    "kind": "dev",
    "methods": {},
    "version": 1
  },
  "userdoc": {
    "kind": "user",
    "methods": {},
    "version": 1
  }
}