{
  "contractName": "SmartExchange",
  "abi": [
    {
      "inputs": [],
      "stateMutability": "nonpayable",
      "type": "constructor"
    },
    {
      "anonymous": false,
      "inputs": [
        {
          "indexed": false,
          "internalType": "address",
          "name": "owner",
          "type": "address"
        },
        {
          "indexed": false,
          "internalType": "uint256",
          "name": "balance",
          "type": "uint256"
        }
      ],
      "name": "BalanceEvent",
      "type": "event"
    },
    {
      "inputs": [],
      "name": "BUSD",
      "outputs": [
        {
          "internalType": "address",
          "name": "",
          "type": "address"
        }
      ],
      "stateMutability": "view",
      "type": "function"
    },
    {
      "inputs": [],
      "name": "pROUTER",
      "outputs": [
        {
          "internalType": "address",
          "name": "",
          "type": "address"
        }
      ],
      "stateMutability": "view",
      "type": "function"
    },
    {
      "inputs": [],
      "name": "wBNB",
      "outputs": [
        {
          "internalType": "address",
          "name": "",
          "type": "address"
        }
      ],
      "stateMutability": "view",
      "type": "function"
    },
    {
      "stateMutability": "payable",
      "type": "receive"
    },
    {
      "inputs": [
        {
          "internalType": "uint256",
          "name": "amount",
          "type": "uint256"
        },
        {
          "internalType": "address",
          "name": "to",
          "type": "address"
        }
      ],
      "name": "swap",
      "outputs": [
        {
          "internalType": "uint256[]",
          "name": "",
          "type": "uint256[]"
        }
      ],
      "stateMutability": "nonpayable",
      "type": "function"
    }
  ],
  "bytecode": "0x608060405234801561001057600080fd5b5073ae13d989dac2f0debff460ac112a837c89baa7cd6000806101000a81548173ffffffffffffffffffffffffffffffffffffffff021916908373ffffffffffffffffffffffffffffffffffffffff160217905550738301f2213c0eed49a7e28ae4c3e91722919b8b47600160006101000a81548173ffffffffffffffffffffffffffffffffffffffff021916908373ffffffffffffffffffffffffffffffffffffffff16021790555073d99d1c33f9fc3444f8101754abc46c52416550d1600260006101000a81548173ffffffffffffffffffffffffffffffffffffffff021916908373ffffffffffffffffffffffffffffffffffffffff160217905550610c2d8061011e6000396000f3fe6080604052600436106100435760003560e01c8063484f4ea91461004f578063d02eb3f41461007a578063d3986f08146100a5578063e71efd95146100e25761004a565b3661004a57005b600080fd5b34801561005b57600080fd5b5061006461010d565b604051610071919061094d565b60405180910390f35b34801561008657600080fd5b5061008f610125565b60405161009c919061094d565b60405180910390f35b3480156100b157600080fd5b506100cc60048036038101906100c791906107cb565b61013d565b6040516100d991906109d5565b60405180910390f35b3480156100ee57600080fd5b506100f7610636565b604051610104919061094d565b60405180910390f35b738301f2213c0eed49a7e28ae4c3e91722919b8b4781565b73ae13d989dac2f0debff460ac112a837c89baa7cd81565b606060008054906101000a900473ffffffffffffffffffffffffffffffffffffffff1673ffffffffffffffffffffffffffffffffffffffff1663d0e30db0846040518263ffffffff1660e01b81526004016000604051808303818588803b1580156101a757600080fd5b505af11580156101bb573d6000803e3d6000fd5b505050505060008054906101000a900473ffffffffffffffffffffffffffffffffffffffff1673ffffffffffffffffffffffffffffffffffffffff1663095ea7b3600260009054906101000a900473ffffffffffffffffffffffffffffffffffffffff16856040518363ffffffff1660e01b815260040161023d9291906109ac565b602060405180830381600087803b15801561025757600080fd5b505af115801561026b573d6000803e3d6000fd5b505050506040513d601f19601f8201168201806040525081019061028f9190610779565b506000600267ffffffffffffffff811180156102aa57600080fd5b506040519080825280602002602001820160405280156102d95781602001602082028036833780820191505090505b50905073ae13d989dac2f0debff460ac112a837c89baa7cd816000815181106102fe57fe5b602002602001019073ffffffffffffffffffffffffffffffffffffffff16908173ffffffffffffffffffffffffffffffffffffffff1681525050738301f2213c0eed49a7e28ae4c3e91722919b8b478160018151811061035a57fe5b602002602001019073ffffffffffffffffffffffffffffffffffffffff16908173ffffffffffffffffffffffffffffffffffffffff16815250506000610258420190506000600260009054906101000a900473ffffffffffffffffffffffffffffffffffffffff1673ffffffffffffffffffffffffffffffffffffffff166338ed17398760008689876040518663ffffffff1660e01b81526004016104039594939291906109f7565b600060405180830381600087803b15801561041d57600080fd5b505af1158015610431573d6000803e3d6000fd5b505050506040513d6000823e3d601f19601f8201168201806040525081019061045a9190610738565b905060008060009054906101000a900473ffffffffffffffffffffffffffffffffffffffff1673ffffffffffffffffffffffffffffffffffffffff166370a08231306040518263ffffffff1660e01b81526004016104b89190610968565b60206040518083038186803b1580156104d057600080fd5b505afa1580156104e4573d6000803e3d6000fd5b505050506040513d601f19601f8201168201806040525081019061050891906107a2565b90507fe664862cc73c0e03c0f3ee110e89fea8ae7af45a3bd6ada129e3028d4c03bc8b308260405161053b929190610983565b60405180910390a1600160009054906101000a900473ffffffffffffffffffffffffffffffffffffffff1673ffffffffffffffffffffffffffffffffffffffff166370a08231306040518263ffffffff1660e01b815260040161059e9190610968565b60206040518083038186803b1580156105b657600080fd5b505afa1580156105ca573d6000803e3d6000fd5b505050506040513d601f19601f820116820180604052508101906105ee91906107a2565b90507fe664862cc73c0e03c0f3ee110e89fea8ae7af45a3bd6ada129e3028d4c03bc8b3082604051610621929190610983565b60405180910390a18194505050505092915050565b73d99d1c33f9fc3444f8101754abc46c52416550d181565b600061066161065c84610a82565b610a51565b9050808382526020820190508285602086028201111561068057600080fd5b60005b858110156106b057816106968882610723565b845260208401935060208301925050600181019050610683565b5050509392505050565b6000813590506106c981610bb2565b92915050565b600082601f8301126106e057600080fd5b81516106f084826020860161064e565b91505092915050565b60008151905061070881610bc9565b92915050565b60008135905061071d81610be0565b92915050565b60008151905061073281610be0565b92915050565b60006020828403121561074a57600080fd5b600082015167ffffffffffffffff81111561076457600080fd5b610770848285016106cf565b91505092915050565b60006020828403121561078b57600080fd5b6000610799848285016106f9565b91505092915050565b6000602082840312156107b457600080fd5b60006107c284828501610723565b91505092915050565b600080604083850312156107de57600080fd5b60006107ec8582860161070e565b92505060206107fd858286016106ba565b9150509250929050565b60006108138383610846565b60208301905092915050565b600061082b838361092f565b60208301905092915050565b61084081610b68565b82525050565b61084f81610b20565b82525050565b61085e81610b20565b82525050565b600061086f82610ace565b6108798185610afe565b935061088483610aae565b8060005b838110156108b557815161089c8882610807565b97506108a783610ae4565b925050600181019050610888565b5085935050505092915050565b60006108cd82610ad9565b6108d78185610b0f565b93506108e283610abe565b8060005b838110156109135781516108fa888261081f565b975061090583610af1565b9250506001810190506108e6565b5085935050505092915050565b61092981610b7a565b82525050565b61093881610b5e565b82525050565b61094781610b5e565b82525050565b60006020820190506109626000830184610855565b92915050565b600060208201905061097d6000830184610837565b92915050565b60006040820190506109986000830185610837565b6109a5602083018461093e565b9392505050565b60006040820190506109c16000830185610855565b6109ce602083018461093e565b9392505050565b600060208201905081810360008301526109ef81846108c2565b905092915050565b600060a082019050610a0c600083018861093e565b610a196020830187610920565b8181036040830152610a2b8186610864565b9050610a3a6060830185610855565b610a47608083018461093e565b9695505050505050565b6000604051905081810181811067ffffffffffffffff82111715610a7857610a77610bb0565b5b8060405250919050565b600067ffffffffffffffff821115610a9d57610a9c610bb0565b5b602082029050602081019050919050565b6000819050602082019050919050565b6000819050602082019050919050565b600081519050919050565b600081519050919050565b6000602082019050919050565b6000602082019050919050565b600082825260208201905092915050565b600082825260208201905092915050565b6000610b2b82610b3e565b9050919050565b60008115159050919050565b600073ffffffffffffffffffffffffffffffffffffffff82169050919050565b6000819050919050565b6000610b7382610b8c565b9050919050565b6000610b8582610b5e565b9050919050565b6000610b9782610b9e565b9050919050565b6000610ba982610b3e565b9050919050565bfe5b610bbb81610b20565b8114610bc657600080fd5b50565b610bd281610b32565b8114610bdd57600080fd5b50565b610be981610b5e565b8114610bf457600080fd5b5056fea264697066735822122066acccaf017ba0cb3c015540c3e21b31538a0b50416ea4222b59b01cd7de95de64736f6c63430007060033",
  "immutableReferences": {},
  "source": "pragma solidity ^0.7.0;\npragma experimental ABIEncoderV2;\n\nimport \"./BEP20.sol\";\nimport \"./HelperPancakeSwapROUTER.sol\";\n\n/*\n* @notice Integrates with Pancakeswap DEX\n*/\ncontract SmartExchange {\n    \n    address public constant wBNB = 0xae13d989daC2f0dEbFf460aC112a837C89BAa7cd; //underlying asset: wBNB\n    address public constant BUSD = 0x8301F2213c0eeD49a7E28Ae4c3e91722919B8B47; //underlying asset: BUSD\n    address public constant pROUTER = 0xD99D1c33F9fC3444f8101754aBC46c52416550D1; // Pancakeswap Router (BSC Testnet)\n\n    BEP20 private wBNBToken;\n    BEP20 private bUSDToken;\n    HelperPancakeSwapROUTER private router;\n\n    event BalanceEvent(address owner, uint256 balance);\n\n    constructor() {\n        wBNBToken = BEP20(wBNB);     // get a handle for the wBNB asset\n        bUSDToken = BEP20(BUSD);     // get a handle for the wBNB asset\n        router = HelperPancakeSwapROUTER(pROUTER);     // get a handle for the exchange router\n    }\n\n    /*\n    * @notice swaps BNB to BUSD\n    * @param amount amount of BNB to swap to BUSD\n    * @param address to deposit the BUSD\n    */\n    function swap(uint256 amount, address to) public returns (uint[] memory) {\n        wBNBToken.deposit{value: amount}(); // deposit native BNB\n        wBNBToken.approve(address(router), amount); // allow pancakeswap router to access wBNB\n\n        address[] memory path = new address[](2);\n        path[0] = wBNB;\n        path[1] = BUSD;\n        uint deadline = block.timestamp + 10 minutes; // addition 10 mins\n\n        uint[] memory amountOut = router.swapExactTokensForTokens(amount, 0, path, to, deadline);\n        \n        uint256 balance = wBNBToken.balanceOf(address(this)); \n        emit BalanceEvent(address(this), balance);\n        \n        balance = bUSDToken.balanceOf(address(this)); \n        emit BalanceEvent(address(this), balance);\n\n        return amountOut;\n    }  \n\n    receive() external payable {}    \n}",
  "sourcePath": "/Users/ajibigad/crytoproject/SmartBet/contracts/SmartExchange.sol",
  "compiler": {
    "name": "solc",
    "version": "0.7.6+commit.7338295f.Emscripten.clang"
  },
  "schemaVersion": "3.3.4",
  "updatedAt": "2021-04-13T08:20:22.168Z",
  "devdoc": {
    "kind": "dev",
    "methods": {},
    "version": 1
  },
  "userdoc": {
    "kind": "user",
    "methods": {},
    "version": 1
  }
}