{
  "contractName": "SmartBet",
  "abi": [
    {
      "inputs": [],
      "stateMutability": "nonpayable",
      "type": "constructor"
    },
    {
      "anonymous": false,
      "inputs": [
        {
          "indexed": true,
          "internalType": "address",
          "name": "owner",
          "type": "address"
        },
        {
          "indexed": true,
          "internalType": "address",
          "name": "approved",
          "type": "address"
        },
        {
          "indexed": true,
          "internalType": "uint256",
          "name": "tokenId",
          "type": "uint256"
        }
      ],
      "name": "Approval",
      "type": "event"
    },
    {
      "anonymous": false,
      "inputs": [
        {
          "indexed": true,
          "internalType": "address",
          "name": "owner",
          "type": "address"
        },
        {
          "indexed": true,
          "internalType": "address",
          "name": "operator",
          "type": "address"
        },
        {
          "indexed": false,
          "internalType": "bool",
          "name": "approved",
          "type": "bool"
        }
      ],
      "name": "ApprovalForAll",
      "type": "event"
    },
    {
      "anonymous": false,
      "inputs": [
        {
          "indexed": true,
          "internalType": "address",
          "name": "by",
          "type": "address"
        },
        {
          "indexed": true,
          "internalType": "uint256",
          "name": "matchId",
          "type": "uint256"
        },
        {
          "indexed": false,
          "internalType": "uint256",
          "name": "amount",
          "type": "uint256"
        }
      ],
      "name": "AssetLiquidatedEvent",
      "type": "event"
    },
    {
      "anonymous": false,
      "inputs": [
        {
          "indexed": true,
          "internalType": "address",
          "name": "bettor",
          "type": "address"
        },
        {
          "indexed": true,
          "internalType": "uint256",
          "name": "matchId",
          "type": "uint256"
        },
        {
          "indexed": false,
          "internalType": "uint256",
          "name": "amount",
          "type": "uint256"
        },
        {
          "indexed": true,
          "internalType": "uint256",
          "name": "betAt",
          "type": "uint256"
        }
      ],
      "name": "BetPlacedEvent",
      "type": "event"
    },
    {
      "anonymous": false,
      "inputs": [
        {
          "indexed": true,
          "internalType": "bytes32",
          "name": "id",
          "type": "bytes32"
        }
      ],
      "name": "ChainlinkCancelled",
      "type": "event"
    },
    {
      "anonymous": false,
      "inputs": [
        {
          "indexed": true,
          "internalType": "bytes32",
          "name": "id",
          "type": "bytes32"
        }
      ],
      "name": "ChainlinkFulfilled",
      "type": "event"
    },
    {
      "anonymous": false,
      "inputs": [
        {
          "indexed": true,
          "internalType": "bytes32",
          "name": "id",
          "type": "bytes32"
        }
      ],
      "name": "ChainlinkRequested",
      "type": "event"
    },
    {
      "anonymous": false,
      "inputs": [
        {
          "indexed": true,
          "internalType": "address",
          "name": "creator",
          "type": "address"
        },
        {
          "indexed": false,
          "internalType": "uint256",
          "name": "matchId",
          "type": "uint256"
        },
        {
          "indexed": true,
          "internalType": "uint256",
          "name": "startAt",
          "type": "uint256"
        }
      ],
      "name": "MatchAddedEvent",
      "type": "event"
    },
    {
      "anonymous": false,
      "inputs": [
        {
          "indexed": true,
          "internalType": "address",
          "name": "by",
          "type": "address"
        },
        {
          "indexed": true,
          "internalType": "uint256",
          "name": "matchId",
          "type": "uint256"
        }
      ],
      "name": "MatchClosedEvent",
      "type": "event"
    },
    {
      "anonymous": false,
      "inputs": [
        {
          "indexed": true,
          "internalType": "uint256",
          "name": "matchId",
          "type": "uint256"
        },
        {
          "indexed": false,
          "internalType": "enum SmartBet.MatchResult",
          "name": "result",
          "type": "uint8"
        }
      ],
      "name": "MatchResultSetEvent",
      "type": "event"
    },
    {
      "anonymous": false,
      "inputs": [
        {
          "indexed": true,
          "internalType": "address",
          "name": "from",
          "type": "address"
        },
        {
          "indexed": true,
          "internalType": "address",
          "name": "to",
          "type": "address"
        },
        {
          "indexed": true,
          "internalType": "uint256",
          "name": "tokenId",
          "type": "uint256"
        }
      ],
      "name": "Transfer",
      "type": "event"
    },
    {
      "inputs": [
        {
          "internalType": "address",
          "name": "to",
          "type": "address"
        },
        {
          "internalType": "uint256",
          "name": "tokenId",
          "type": "uint256"
        }
      ],
      "name": "approve",
      "outputs": [],
      "stateMutability": "nonpayable",
      "type": "function"
    },
    {
      "inputs": [
        {
          "internalType": "address",
          "name": "owner",
          "type": "address"
        }
      ],
      "name": "balanceOf",
      "outputs": [
        {
          "internalType": "uint256",
          "name": "",
          "type": "uint256"
        }
      ],
      "stateMutability": "view",
      "type": "function",
      "constant": true
    },
    {
      "inputs": [],
      "name": "baseURI",
      "outputs": [
        {
          "internalType": "string",
          "name": "",
          "type": "string"
        }
      ],
      "stateMutability": "view",
      "type": "function",
      "constant": true
    },
    {
      "inputs": [
        {
          "internalType": "uint256",
          "name": "tokenId",
          "type": "uint256"
        }
      ],
      "name": "getApproved",
      "outputs": [
        {
          "internalType": "address",
          "name": "",
          "type": "address"
        }
      ],
      "stateMutability": "view",
      "type": "function",
      "constant": true
    },
    {
      "inputs": [
        {
          "internalType": "address",
          "name": "owner",
          "type": "address"
        },
        {
          "internalType": "address",
          "name": "operator",
          "type": "address"
        }
      ],
      "name": "isApprovedForAll",
      "outputs": [
        {
          "internalType": "bool",
          "name": "",
          "type": "bool"
        }
      ],
      "stateMutability": "view",
      "type": "function",
      "constant": true
    },
    {
      "inputs": [],
      "name": "name",
      "outputs": [
        {
          "internalType": "string",
          "name": "",
          "type": "string"
        }
      ],
      "stateMutability": "view",
      "type": "function",
      "constant": true
    },
    {
      "inputs": [
        {
          "internalType": "uint256",
          "name": "tokenId",
          "type": "uint256"
        }
      ],
      "name": "ownerOf",
      "outputs": [
        {
          "internalType": "address",
          "name": "",
          "type": "address"
        }
      ],
      "stateMutability": "view",
      "type": "function",
      "constant": true
    },
    {
      "inputs": [
        {
          "internalType": "address",
          "name": "from",
          "type": "address"
        },
        {
          "internalType": "address",
          "name": "to",
          "type": "address"
        },
        {
          "internalType": "uint256",
          "name": "tokenId",
          "type": "uint256"
        }
      ],
      "name": "safeTransferFrom",
      "outputs": [],
      "stateMutability": "nonpayable",
      "type": "function"
    },
    {
      "inputs": [
        {
          "internalType": "address",
          "name": "from",
          "type": "address"
        },
        {
          "internalType": "address",
          "name": "to",
          "type": "address"
        },
        {
          "internalType": "uint256",
          "name": "tokenId",
          "type": "uint256"
        },
        {
          "internalType": "bytes",
          "name": "_data",
          "type": "bytes"
        }
      ],
      "name": "safeTransferFrom",
      "outputs": [],
      "stateMutability": "nonpayable",
      "type": "function"
    },
    {
      "inputs": [
        {
          "internalType": "address",
          "name": "operator",
          "type": "address"
        },
        {
          "internalType": "bool",
          "name": "approved",
          "type": "bool"
        }
      ],
      "name": "setApprovalForAll",
      "outputs": [],
      "stateMutability": "nonpayable",
      "type": "function"
    },
    {
      "inputs": [
        {
          "internalType": "bytes4",
          "name": "interfaceId",
          "type": "bytes4"
        }
      ],
      "name": "supportsInterface",
      "outputs": [
        {
          "internalType": "bool",
          "name": "",
          "type": "bool"
        }
      ],
      "stateMutability": "view",
      "type": "function",
      "constant": true
    },
    {
      "inputs": [],
      "name": "symbol",
      "outputs": [
        {
          "internalType": "string",
          "name": "",
          "type": "string"
        }
      ],
      "stateMutability": "view",
      "type": "function",
      "constant": true
    },
    {
      "inputs": [
        {
          "internalType": "uint256",
          "name": "index",
          "type": "uint256"
        }
      ],
      "name": "tokenByIndex",
      "outputs": [
        {
          "internalType": "uint256",
          "name": "",
          "type": "uint256"
        }
      ],
      "stateMutability": "view",
      "type": "function",
      "constant": true
    },
    {
      "inputs": [
        {
          "internalType": "address",
          "name": "owner",
          "type": "address"
        },
        {
          "internalType": "uint256",
          "name": "index",
          "type": "uint256"
        }
      ],
      "name": "tokenOfOwnerByIndex",
      "outputs": [
        {
          "internalType": "uint256",
          "name": "",
          "type": "uint256"
        }
      ],
      "stateMutability": "view",
      "type": "function",
      "constant": true
    },
    {
      "inputs": [
        {
          "internalType": "uint256",
          "name": "tokenId",
          "type": "uint256"
        }
      ],
      "name": "tokenURI",
      "outputs": [
        {
          "internalType": "string",
          "name": "",
          "type": "string"
        }
      ],
      "stateMutability": "view",
      "type": "function",
      "constant": true
    },
    {
      "inputs": [],
      "name": "totalSupply",
      "outputs": [
        {
          "internalType": "uint256",
          "name": "",
          "type": "uint256"
        }
      ],
      "stateMutability": "view",
      "type": "function",
      "constant": true
    },
    {
      "inputs": [
        {
          "internalType": "address",
          "name": "from",
          "type": "address"
        },
        {
          "internalType": "address",
          "name": "to",
          "type": "address"
        },
        {
          "internalType": "uint256",
          "name": "tokenId",
          "type": "uint256"
        }
      ],
      "name": "transferFrom",
      "outputs": [],
      "stateMutability": "nonpayable",
      "type": "function"
    },
    {
      "inputs": [
        {
          "internalType": "uint256",
          "name": "_apiMatchId",
          "type": "uint256"
        },
        {
          "internalType": "string",
          "name": "_matchResultLink",
          "type": "string"
        },
        {
          "internalType": "uint8",
          "name": "_oddsTeamA",
          "type": "uint8"
        },
        {
          "internalType": "uint8",
          "name": "_oddsTeamB",
          "type": "uint8"
        },
        {
          "internalType": "uint8",
          "name": "_oddsDraw",
          "type": "uint8"
        },
        {
          "internalType": "uint256",
          "name": "_startAt",
          "type": "uint256"
        }
      ],
      "name": "createMatch",
      "outputs": [
        {
          "internalType": "uint256",
          "name": "",
          "type": "uint256"
        }
      ],
      "stateMutability": "nonpayable",
      "type": "function"
    },
    {
      "inputs": [
        {
          "internalType": "uint128",
          "name": "_matchId",
          "type": "uint128"
        },
        {
          "internalType": "uint8",
          "name": "_resultBetOn",
          "type": "uint8"
        }
      ],
      "name": "placeBet",
      "outputs": [
        {
          "internalType": "uint256",
          "name": "",
          "type": "uint256"
        }
      ],
      "stateMutability": "payable",
      "type": "function",
      "payable": true
    },
    {
      "inputs": [
        {
          "internalType": "uint128",
          "name": "_matchId",
          "type": "uint128"
        }
      ],
      "name": "startMatch",
      "outputs": [],
      "stateMutability": "nonpayable",
      "type": "function"
    },
    {
      "inputs": [
        {
          "internalType": "uint128",
          "name": "_matchId",
          "type": "uint128"
        },
        {
          "internalType": "uint8",
          "name": "_matchResult",
          "type": "uint8"
        }
      ],
      "name": "closeMatch",
      "outputs": [],
      "stateMutability": "nonpayable",
      "type": "function"
    },
    {
      "inputs": [
        {
          "internalType": "uint128",
          "name": "_smartAssetId",
          "type": "uint128"
        }
      ],
      "name": "liquidateAsset",
      "outputs": [
        {
          "internalType": "bool",
          "name": "",
          "type": "bool"
        }
      ],
      "stateMutability": "payable",
      "type": "function",
      "payable": true
    },
    {
      "inputs": [],
      "name": "toggleCircuitBreaker",
      "outputs": [],
      "stateMutability": "nonpayable",
      "type": "function"
    },
    {
      "inputs": [
        {
          "internalType": "uint256",
          "name": "_matchId",
          "type": "uint256"
        }
      ],
      "name": "getMatch",
      "outputs": [
        {
          "components": [
            {
              "internalType": "address",
              "name": "creator",
              "type": "address"
            },
            {
              "internalType": "uint8",
              "name": "oddsTeamA",
              "type": "uint8"
            },
            {
              "internalType": "uint8",
              "name": "oddsTeamB",
              "type": "uint8"
            },
            {
              "internalType": "uint8",
              "name": "oddsDraw",
              "type": "uint8"
            },
            {
              "internalType": "string",
              "name": "matchResultLink",
              "type": "string"
            },
            {
              "internalType": "uint256",
              "name": "totalPayoutTeamA",
              "type": "uint256"
            },
            {
              "internalType": "uint256",
              "name": "totalPayoutTeamB",
              "type": "uint256"
            },
            {
              "internalType": "uint256",
              "name": "totalPayoutDraw",
              "type": "uint256"
            },
            {
              "internalType": "uint256",
              "name": "totalCollected",
              "type": "uint256"
            },
            {
              "internalType": "enum SmartBet.MatchResult",
              "name": "result",
              "type": "uint8"
            },
            {
              "internalType": "enum SmartBet.MatchState",
              "name": "state",
              "type": "uint8"
            },
            {
              "internalType": "bool",
              "name": "exists",
              "type": "bool"
            }
          ],
          "internalType": "struct SmartBet.Match",
          "name": "match_",
          "type": "tuple"
        }
      ],
      "stateMutability": "view",
      "type": "function",
      "constant": true
    },
    {
      "inputs": [
        {
          "internalType": "uint256",
          "name": "_smartAssetId",
          "type": "uint256"
        }
      ],
      "name": "getSmartAsset",
      "outputs": [
        {
          "components": [
            {
              "internalType": "address",
              "name": "owner",
              "type": "address"
            },
            {
              "internalType": "uint256",
              "name": "matchId",
              "type": "uint256"
            },
            {
              "internalType": "enum SmartBet.MatchResult",
              "name": "matchResult",
              "type": "uint8"
            },
            {
              "internalType": "uint256",
              "name": "initialValue",
              "type": "uint256"
            },
            {
              "internalType": "uint8",
              "name": "accruedInterest",
              "type": "uint8"
            }
          ],
          "internalType": "struct SmartBet.SmartAsset",
          "name": "asset",
          "type": "tuple"
        }
      ],
      "stateMutability": "view",
      "type": "function",
      "constant": true
    }
  ],
  "bytecode": "0x60806040526001600e556000601360006101000a81548160ff0219169083151502179055503480156200003157600080fd5b506040518060400160405280600881526020017f536d6172744265740000000000000000000000000000000000000000000000008152506040518060400160405280600481526020017f534d425400000000000000000000000000000000000000000000000000000000815250620000b66301ffc9a760e01b6200017960201b60201c565b8160069080519060200190620000ce92919062000282565b508060079080519060200190620000e792919062000282565b50620001006380ac58cd60e01b6200017960201b60201c565b62000118635b5e139f60e01b6200017960201b60201c565b6200013063780e9d6360e01b6200017960201b60201c565b505033601060006101000a81548173ffffffffffffffffffffffffffffffffffffffff021916908373ffffffffffffffffffffffffffffffffffffffff16021790555062000338565b63ffffffff60e01b817bffffffffffffffffffffffffffffffffffffffffffffffffffffffff1916141562000216576040517f08c379a000000000000000000000000000000000000000000000000000000000815260040180806020018281038252601c8152602001807f4552433136353a20696e76616c696420696e746572666163652069640000000081525060200191505060405180910390fd5b6001600080837bffffffffffffffffffffffffffffffffffffffffffffffffffffffff19167bffffffffffffffffffffffffffffffffffffffffffffffffffffffff1916815260200190815260200160002060006101000a81548160ff02191690831515021790555050565b828054600181600116156101000203166002900490600052602060002090601f016020900481019282620002ba576000855562000306565b82601f10620002d557805160ff191683800117855562000306565b8280016001018555821562000306579182015b8281111562000305578251825591602001919060010190620002e8565b5b50905062000315919062000319565b5090565b5b80821115620003345760008160009055506001016200031a565b5090565b61576c80620003486000396000f3fe6080604052600436106101665760003560e01c806358d33e6d116100d1578063a22cb4651161008a578063cec85ad711610064578063cec85ad714610592578063d2c2cc84146105bb578063d5eb63cc146105f8578063e985e9c51461060f57610166565b8063a22cb46514610503578063b88d4fde1461052c578063c87b56dd1461055557610166565b806358d33e6d146103d35780636352211e146104035780636c0360eb1461044057806370a082311461046b57806395d89b41146104a8578063a09506b5146104d357610166565b806323b872dd1161012357806323b872dd1461028d5780632f745c59146102b65780633d092b3d146102f357806342842e0e146103305780634f6ccce71461035957806352d21e231461039657610166565b806301ffc9a71461016b57806306fdde03146101a8578063081812fc146101d3578063095ea7b3146102105780630e5cc1a51461023957806318160ddd14610262575b600080fd5b34801561017757600080fd5b50610192600480360381019061018d91906148c6565b61064c565b60405161019f9190615013565b60405180910390f35b3480156101b457600080fd5b506101bd6106b3565b6040516101ca9190615049565b60405180910390f35b3480156101df57600080fd5b506101fa60048036038101906101f59190614954565b610755565b6040516102079190614ff8565b60405180910390f35b34801561021c57600080fd5b506102376004803603810190610232919061488a565b6107f0565b005b34801561024557600080fd5b50610260600480360381019061025b91906148ef565b610934565b005b34801561026e57600080fd5b50610277610b18565b6040516102849190615248565b60405180910390f35b34801561029957600080fd5b506102b460048036038101906102af9190614784565b610b29565b005b3480156102c257600080fd5b506102dd60048036038101906102d8919061488a565b610b9f565b6040516102ea9190615248565b60405180910390f35b3480156102ff57600080fd5b5061031a60048036038101906103159190614954565b610bfa565b604051610327919061520b565b60405180910390f35b34801561033c57600080fd5b5061035760048036038101906103529190614784565b610e79565b005b34801561036557600080fd5b50610380600480360381019061037b9190614954565b610e99565b60405161038d9190615248565b60405180910390f35b3480156103a257600080fd5b506103bd60048036038101906103b8919061497d565b610ebc565b6040516103ca9190615248565b60405180910390f35b6103ed60048036038101906103e89190614918565b61123e565b6040516103fa9190615248565b60405180910390f35b34801561040f57600080fd5b5061042a60048036038101906104259190614954565b6117f1565b6040516104379190614ff8565b60405180910390f35b34801561044c57600080fd5b50610455611828565b6040516104629190615049565b60405180910390f35b34801561047757600080fd5b50610492600480360381019061048d919061471f565b6118ca565b60405161049f9190615248565b60405180910390f35b3480156104b457600080fd5b506104bd61199f565b6040516104ca9190615049565b60405180910390f35b6104ed60048036038101906104e891906148ef565b611a41565b6040516104fa9190615013565b60405180910390f35b34801561050f57600080fd5b5061052a6004803603810190610525919061484e565b611dee565b005b34801561053857600080fd5b50610553600480360381019061054e91906147d3565b611fa4565b005b34801561056157600080fd5b5061057c60048036038101906105779190614954565b61201c565b6040516105899190615049565b60405180910390f35b34801561059e57600080fd5b506105b960048036038101906105b49190614918565b612305565b005b3480156105c757600080fd5b506105e260048036038101906105dd9190614954565b612a55565b6040516105ef919061522d565b60405180910390f35b34801561060457600080fd5b5061060d612bf8565b005b34801561061b57600080fd5b5061063660048036038101906106319190614748565b612cb4565b6040516106439190615013565b60405180910390f35b6000806000837bffffffffffffffffffffffffffffffffffffffffffffffffffffffff19167bffffffffffffffffffffffffffffffffffffffffffffffffffffffff1916815260200190815260200160002060009054906101000a900460ff169050919050565b606060068054600181600116156101000203166002900480601f01602080910402602001604051908101604052809291908181526020018280546001816001161561010002031660029004801561074b5780601f106107205761010080835404028352916020019161074b565b820191906000526020600020905b81548152906001019060200180831161072e57829003601f168201915b5050505050905090565b600061076082612d48565b6107b5576040517f08c379a000000000000000000000000000000000000000000000000000000000815260040180806020018281038252602c815260200180615661602c913960400191505060405180910390fd5b6004600083815260200190815260200160002060009054906101000a900473ffffffffffffffffffffffffffffffffffffffff169050919050565b60006107fb826117f1565b90508073ffffffffffffffffffffffffffffffffffffffff168373ffffffffffffffffffffffffffffffffffffffff161415610882576040517f08c379a00000000000000000000000000000000000000000000000000000000081526004018080602001828103825260218152602001806156e56021913960400191505060405180910390fd5b8073ffffffffffffffffffffffffffffffffffffffff166108a1612d65565b73ffffffffffffffffffffffffffffffffffffffff1614806108d057506108cf816108ca612d65565b612cb4565b5b610925576040517f08c379a00000000000000000000000000000000000000000000000000000000081526004018080602001828103825260388152602001806155b46038913960400191505060405180910390fd5b61092f8383612d6d565b505050565b601060009054906101000a900473ffffffffffffffffffffffffffffffffffffffff1673ffffffffffffffffffffffffffffffffffffffff163373ffffffffffffffffffffffffffffffffffffffff16146109c4576040517f08c379a00000000000000000000000000000000000000000000000000000000081526004016109bb9061512b565b60405180910390fd5b806fffffffffffffffffffffffffffffffff166015600082815260200190815260200160002060060160029054906101000a900460ff16610a3a576040517f08c379a0000000000000000000000000000000000000000000000000000000008152600401610a319061516b565b60405180910390fd5b816fffffffffffffffffffffffffffffffff1660006002811115610a5a57fe5b6015600083815260200190815260200160002060060160019054906101000a900460ff166002811115610a8957fe5b14610ac9576040517f08c379a0000000000000000000000000000000000000000000000000000000008152600401610ac09061510b565b60405180910390fd5b600160156000856fffffffffffffffffffffffffffffffff16815260200190815260200160002060060160016101000a81548160ff02191690836002811115610b0e57fe5b0217905550505050565b6000610b246002612e26565b905090565b610b3a610b34612d65565b82612e3b565b610b8f576040517f08c379a00000000000000000000000000000000000000000000000000000000081526004018080602001828103825260318152602001806157066031913960400191505060405180910390fd5b610b9a838383612f2f565b505050565b6000610bf282600160008673ffffffffffffffffffffffffffffffffffffffff1673ffffffffffffffffffffffffffffffffffffffff16815260200190815260200160002061317290919063ffffffff16565b905092915050565b610c026143f3565b816015600082815260200190815260200160002060060160029054906101000a900460ff16610c66576040517f08c379a0000000000000000000000000000000000000000000000000000000008152600401610c5d9061516b565b60405180910390fd5b60156000848152602001908152602001600020604051806101800160405290816000820160009054906101000a900473ffffffffffffffffffffffffffffffffffffffff1673ffffffffffffffffffffffffffffffffffffffff1673ffffffffffffffffffffffffffffffffffffffff1681526020016000820160149054906101000a900460ff1660ff1660ff1681526020016000820160159054906101000a900460ff1660ff1660ff1681526020016000820160169054906101000a900460ff1660ff1660ff168152602001600182018054600181600116156101000203166002900480601f016020809104026020016040519081016040528092919081815260200182805460018160011615610100020316600290048015610dcb5780601f10610da057610100808354040283529160200191610dcb565b820191906000526020600020905b815481529060010190602001808311610dae57829003601f168201915b50505050508152602001600282015481526020016003820154815260200160048201548152602001600582015481526020016006820160009054906101000a900460ff166003811115610e1a57fe5b6003811115610e2557fe5b81526020016006820160019054906101000a900460ff166002811115610e4757fe5b6002811115610e5257fe5b81526020016006820160029054906101000a900460ff161515151581525050915050919050565b610e9483838360405180602001604052806000815250611fa4565b505050565b600080610eb083600261318c90919063ffffffff16565b50905080915050919050565b6000866000601660008381526020019081526020016000205414610f15576040517f08c379a0000000000000000000000000000000000000000000000000000000008152600401610f0c9061508b565b60405180910390fd5b601060009054906101000a900473ffffffffffffffffffffffffffffffffffffffff1673ffffffffffffffffffffffffffffffffffffffff163373ffffffffffffffffffffffffffffffffffffffff1614610fa5576040517f08c379a0000000000000000000000000000000000000000000000000000000008152600401610f9c9061512b565b60405180910390fd5b610faf60116131b8565b6000610fbb60116131ce565b90506040518061018001604052803373ffffffffffffffffffffffffffffffffffffffff1681526020018860ff1681526020018760ff1681526020018660ff168152602001898152602001600081526020016000815260200160008152602001600081526020016000600381111561102f57fe5b81526020016000600281111561104157fe5b8152602001600115158152506015600083815260200190815260200160002060008201518160000160006101000a81548173ffffffffffffffffffffffffffffffffffffffff021916908373ffffffffffffffffffffffffffffffffffffffff16021790555060208201518160000160146101000a81548160ff021916908360ff16021790555060408201518160000160156101000a81548160ff021916908360ff16021790555060608201518160000160166101000a81548160ff021916908360ff160217905550608082015181600101908051906020019061112692919061448b565b5060a0820151816002015560c0820151816003015560e0820151816004015561010082015181600501556101208201518160060160006101000a81548160ff0219169083600381111561117557fe5b02179055506101408201518160060160016101000a81548160ff0219169083600281111561119f57fe5b02179055506101608201518160060160026101000a81548160ff02191690831515021790555090505080601660008b815260200190815260200160002081905550833373ffffffffffffffffffffffffffffffffffffffff167fc207d335fe614b703b8a3189869caeaf63f6b51eccecfac069362c9d361fa62a836040516112279190615248565b60405180910390a380925050509695505050505050565b6000601360009054906101000a900460ff1615611290576040517f08c379a00000000000000000000000000000000000000000000000000000000081526004016112879061514b565b60405180910390fd5b826fffffffffffffffffffffffffffffffff166015600082815260200190815260200160002060060160029054906101000a900460ff16611306576040517f08c379a00000000000000000000000000000000000000000000000000000000081526004016112fd9061516b565b60405180910390fd5b836fffffffffffffffffffffffffffffffff166000600281111561132657fe5b6015600083815260200190815260200160002060060160019054906101000a900460ff16600281111561135557fe5b14611395576040517f08c379a000000000000000000000000000000000000000000000000000000000815260040161138c9061510b565b60405180910390fd5b846fffffffffffffffffffffffffffffffff1660016113e9576040517f08c379a00000000000000000000000000000000000000000000000000000000081526004016113e09061518b565b60405180910390fd5b84600260038111156113f757fe5b8160ff16600381111561140657fe5b600381111561141157fe5b1480611440575060038081111561142457fe5b8160ff16600381111561143357fe5b600381111561143e57fe5b145b8061146f57506001600381111561145357fe5b8160ff16600381111561146257fe5b600381111561146d57fe5b145b6114ae576040517f08c379a00000000000000000000000000000000000000000000000000000000081526004016114a5906150cb565b60405180910390fd5b60003414156114f2576040517f08c379a00000000000000000000000000000000000000000000000000000000081526004016114e9906151ab565b60405180910390fd5b600033905060003490506000808960ff16600381111561150e57fe5b90506002600381111561151d57fe5b81600381111561152957fe5b14156115a757601560008c6fffffffffffffffffffffffffffffffff16815260200190815260200160002060000160149054906101000a900460ff1660ff168302915081601560008d6fffffffffffffffffffffffffffffffff168152602001908152602001600020600201600082825401925050819055506116b2565b6003808111156115b357fe5b8160038111156115bf57fe5b141561163d57601560008c6fffffffffffffffffffffffffffffffff16815260200190815260200160002060000160159054906101000a900460ff1660ff168302915081601560008d6fffffffffffffffffffffffffffffffff168152602001908152602001600020600301600082825401925050819055506116b1565b601560008c6fffffffffffffffffffffffffffffffff16815260200190815260200160002060000160169054906101000a900460ff1660ff168302915081601560008d6fffffffffffffffffffffffffffffffff168152602001908152602001600020600401600082825401925050819055505b5b82601560008d6fffffffffffffffffffffffffffffffff16815260200190815260200160002060050160008282540192505081905550600061170885848e6fffffffffffffffffffffffffffffffff16856131dc565b9050601760008d6fffffffffffffffffffffffffffffffff168152602001908152602001600020600083600381111561173d57fe5b600381111561174857fe5b8152602001908152602001600020819080600181540180825580915050600190039060005260206000200160009091909190915055428c6fffffffffffffffffffffffffffffffff168673ffffffffffffffffffffffffffffffffffffffff167fb1283c9c8bacdf8cd70a313323578124c5fe2beedea39d5b268157d1638236aa876040516117d79190615248565b60405180910390a480995050505050505050505092915050565b6000611821826040518060600160405280602981526020016156166029913960026133139092919063ffffffff16565b9050919050565b606060098054600181600116156101000203166002900480601f0160208091040260200160405190810160405280929190818152602001828054600181600116156101000203166002900480156118c05780601f10611895576101008083540402835291602001916118c0565b820191906000526020600020905b8154815290600101906020018083116118a357829003601f168201915b5050505050905090565b60008073ffffffffffffffffffffffffffffffffffffffff168273ffffffffffffffffffffffffffffffffffffffff161415611951576040517f08c379a000000000000000000000000000000000000000000000000000000000815260040180806020018281038252602a8152602001806155ec602a913960400191505060405180910390fd5b611998600160008473ffffffffffffffffffffffffffffffffffffffff1673ffffffffffffffffffffffffffffffffffffffff168152602001908152602001600020613332565b9050919050565b606060078054600181600116156101000203166002900480601f016020809104026020016040519081016040528092919081815260200182805460018160011615610100020316600290048015611a375780601f10611a0c57610100808354040283529160200191611a37565b820191906000526020600020905b815481529060010190602001808311611a1a57829003601f168201915b5050505050905090565b6000601360009054906101000a900460ff1615611a93576040517f08c379a0000000000000000000000000000000000000000000000000000000008152600401611a8a9061514b565b60405180910390fd5b816fffffffffffffffffffffffffffffffff16611aaf81612d48565b611aee576040517f08c379a0000000000000000000000000000000000000000000000000000000008152600401611ae5906150ab565b60405180910390fd5b826fffffffffffffffffffffffffffffffff163373ffffffffffffffffffffffffffffffffffffffff16611b21826117f1565b73ffffffffffffffffffffffffffffffffffffffff1614611b77576040517f08c379a0000000000000000000000000000000000000000000000000000000008152600401611b6e906150eb565b60405180910390fd5b600060146000866fffffffffffffffffffffffffffffffff1681526020019081526020016000206040518060a00160405290816000820160009054906101000a900473ffffffffffffffffffffffffffffffffffffffff1673ffffffffffffffffffffffffffffffffffffffff1673ffffffffffffffffffffffffffffffffffffffff168152602001600182015481526020016002820160009054906101000a900460ff166003811115611c2757fe5b6003811115611c3257fe5b8152602001600382015481526020016004820160009054906101000a900460ff1660ff1660ff16815250509050600280811115611c6b57fe5b601560008360200151815260200190815260200160002060060160019054906101000a900460ff166002811115611c9e57fe5b14611cde576040517f08c379a0000000000000000000000000000000000000000000000000000000008152600401611cd5906151eb565b60405180910390fd5b8060600151471015611d25576040517f08c379a0000000000000000000000000000000000000000000000000000000008152600401611d1c9061506b565b60405180910390fd5b611d40856fffffffffffffffffffffffffffffffff16613347565b3373ffffffffffffffffffffffffffffffffffffffff166108fc82606001519081150290604051600060405180830381858888f19350505050158015611d8a573d6000803e3d6000fd5b5080602001513373ffffffffffffffffffffffffffffffffffffffff167f8b14c07a5f5edcab63b0a66e390f4caaa6b0c716759849f59ec813e4b1e5b13e8360600151604051611dda9190615248565b60405180910390a360019350505050919050565b611df6612d65565b73ffffffffffffffffffffffffffffffffffffffff168273ffffffffffffffffffffffffffffffffffffffff161415611e97576040517f08c379a00000000000000000000000000000000000000000000000000000000081526004018080602001828103825260198152602001807f4552433732313a20617070726f766520746f2063616c6c65720000000000000081525060200191505060405180910390fd5b8060056000611ea4612d65565b73ffffffffffffffffffffffffffffffffffffffff1673ffffffffffffffffffffffffffffffffffffffff16815260200190815260200160002060008473ffffffffffffffffffffffffffffffffffffffff1673ffffffffffffffffffffffffffffffffffffffff16815260200190815260200160002060006101000a81548160ff0219169083151502179055508173ffffffffffffffffffffffffffffffffffffffff16611f51612d65565b73ffffffffffffffffffffffffffffffffffffffff167f17307eab39ab6107e8899845ad3d59bd9653f200f220920489ca2b5937696c318360405180821515815260200191505060405180910390a35050565b611fb5611faf612d65565b83612e3b565b61200a576040517f08c379a00000000000000000000000000000000000000000000000000000000081526004018080602001828103825260318152602001806157066031913960400191505060405180910390fd5b61201684848484613353565b50505050565b606061202782612d48565b61207c576040517f08c379a000000000000000000000000000000000000000000000000000000000815260040180806020018281038252602f8152602001806156b6602f913960400191505060405180910390fd5b6000600860008481526020019081526020016000208054600181600116156101000203166002900480601f0160208091040260200160405190810160405280929190818152602001828054600181600116156101000203166002900480156121255780601f106120fa57610100808354040283529160200191612125565b820191906000526020600020905b81548152906001019060200180831161210857829003601f168201915b505050505090506000600980546001816001161561010002031660029004905014156121545780915050612300565b60008151111561222d5760098160405160200180838054600181600116156101000203166002900480156121bf5780601f1061219d5761010080835404028352918201916121bf565b820191906000526020600020905b8154815290600101906020018083116121ab575b505082805190602001908083835b602083106121f057805182526020820191506020810190506020830392506121cd565b6001836020036101000a03801982511681845116808217855250505050505090500192505050604051602081830303815290604052915050612300565b6009612238846133c5565b60405160200180838054600181600116156101000203166002900480156122965780601f10612274576101008083540402835291820191612296565b820191906000526020600020905b815481529060010190602001808311612282575b505082805190602001908083835b602083106122c757805182526020820191506020810190506020830392506122a4565b6001836020036101000a038019825116818451168082178552505050505050905001925050506040516020818303038152906040529150505b919050565b601060009054906101000a900473ffffffffffffffffffffffffffffffffffffffff1673ffffffffffffffffffffffffffffffffffffffff163373ffffffffffffffffffffffffffffffffffffffff1614612395576040517f08c379a000000000000000000000000000000000000000000000000000000000815260040161238c9061512b565b60405180910390fd5b816fffffffffffffffffffffffffffffffff166015600082815260200190815260200160002060060160029054906101000a900460ff1661240b576040517f08c379a00000000000000000000000000000000000000000000000000000000081526004016124029061516b565b60405180910390fd5b826fffffffffffffffffffffffffffffffff166001600281111561242b57fe5b6015600083815260200190815260200160002060060160019054906101000a900460ff16600281111561245a57fe5b1461249a576040517f08c379a0000000000000000000000000000000000000000000000000000000008152600401612491906151cb565b60405180910390fd5b82600260038111156124a857fe5b8160ff1660038111156124b757fe5b60038111156124c257fe5b14806124f157506003808111156124d557fe5b8160ff1660038111156124e457fe5b60038111156124ef57fe5b145b8061252057506001600381111561250457fe5b8160ff16600381111561251357fe5b600381111561251e57fe5b145b61255f576040517f08c379a0000000000000000000000000000000000000000000000000000000008152600401612556906150cb565b60405180910390fd5b600260156000876fffffffffffffffffffffffffffffffff16815260200190815260200160002060060160016101000a81548160ff021916908360028111156125a457fe5b021790555060008460ff1660038111156125ba57fe5b90506125d8866fffffffffffffffffffffffffffffffff168261350c565b600260038111156125e557fe5b8160038111156125f157fe5b14156127435761269a60176000886fffffffffffffffffffffffffffffffff168152602001908152602001600020600060038081111561262d57fe5b600381111561263857fe5b815260200190815260200160002080548060200260200160405190810160405280929190818152602001828054801561269057602002820191906000526020600020905b81548152602001906001019080831161267c575b50505050506135a2565b61273e60176000886fffffffffffffffffffffffffffffffff1681526020019081526020016000206000600160038111156126d157fe5b60038111156126dc57fe5b815260200190815260200160002080548060200260200160405190810160405280929190818152602001828054801561273457602002820191906000526020600020905b815481526020019060010190808311612720575b50505050506135a2565b6129f7565b60038081111561274f57fe5b81600381111561275b57fe5b14156128ae5761280560176000886fffffffffffffffffffffffffffffffff16815260200190815260200160002060006002600381111561279857fe5b60038111156127a357fe5b81526020019081526020016000208054806020026020016040519081016040528092919081815260200182805480156127fb57602002820191906000526020600020905b8154815260200190600101908083116127e7575b50505050506135a2565b6128a960176000886fffffffffffffffffffffffffffffffff16815260200190815260200160002060006001600381111561283c57fe5b600381111561284757fe5b815260200190815260200160002080548060200260200160405190810160405280929190818152602001828054801561289f57602002820191906000526020600020905b81548152602001906001019080831161288b575b50505050506135a2565b6129f6565b61295260176000886fffffffffffffffffffffffffffffffff1681526020019081526020016000206000600260038111156128e557fe5b60038111156128f057fe5b815260200190815260200160002080548060200260200160405190810160405280929190818152602001828054801561294857602002820191906000526020600020905b815481526020019060010190808311612934575b50505050506135a2565b6129f560176000886fffffffffffffffffffffffffffffffff168152602001908152602001600020600060038081111561298857fe5b600381111561299357fe5b81526020019081526020016000208054806020026020016040519081016040528092919081815260200182805480156129eb57602002820191906000526020600020905b8154815260200190600101908083116129d7575b50505050506135a2565b5b5b856fffffffffffffffffffffffffffffffff163373ffffffffffffffffffffffffffffffffffffffff167f82a1f841f29c1b44e5b770fc8814b767703346d61db831ba1c862bfa9cc6ac5960405160405180910390a3505050505050565b612a5d614519565b81612a6781612d48565b612aa6576040517f08c379a0000000000000000000000000000000000000000000000000000000008152600401612a9d906150ab565b60405180910390fd5b823373ffffffffffffffffffffffffffffffffffffffff16612ac7826117f1565b73ffffffffffffffffffffffffffffffffffffffff1614612b1d576040517f08c379a0000000000000000000000000000000000000000000000000000000008152600401612b14906150eb565b60405180910390fd5b601460008581526020019081526020016000206040518060a00160405290816000820160009054906101000a900473ffffffffffffffffffffffffffffffffffffffff1673ffffffffffffffffffffffffffffffffffffffff1673ffffffffffffffffffffffffffffffffffffffff168152602001600182015481526020016002820160009054906101000a900460ff166003811115612bb957fe5b6003811115612bc457fe5b8152602001600382015481526020016004820160009054906101000a900460ff1660ff1660ff168152505092505050919050565b601060009054906101000a900473ffffffffffffffffffffffffffffffffffffffff1673ffffffffffffffffffffffffffffffffffffffff163373ffffffffffffffffffffffffffffffffffffffff1614612c88576040517f08c379a0000000000000000000000000000000000000000000000000000000008152600401612c7f9061512b565b60405180910390fd5b601360009054906101000a900460ff1615601360006101000a81548160ff021916908315150217905550565b6000600560008473ffffffffffffffffffffffffffffffffffffffff1673ffffffffffffffffffffffffffffffffffffffff16815260200190815260200160002060008373ffffffffffffffffffffffffffffffffffffffff1673ffffffffffffffffffffffffffffffffffffffff16815260200190815260200160002060009054906101000a900460ff16905092915050565b6000612d5e8260026135db90919063ffffffff16565b9050919050565b600033905090565b816004600083815260200190815260200160002060006101000a81548173ffffffffffffffffffffffffffffffffffffffff021916908373ffffffffffffffffffffffffffffffffffffffff160217905550808273ffffffffffffffffffffffffffffffffffffffff16612de0836117f1565b73ffffffffffffffffffffffffffffffffffffffff167f8c5be1e5ebec7d5bd14f71427d1e84f3dd0314c0f7b2291e5b200ac8c7c3b92560405160405180910390a45050565b6000612e34826000016135f5565b9050919050565b6000612e4682612d48565b612e9b576040517f08c379a000000000000000000000000000000000000000000000000000000000815260040180806020018281038252602c815260200180615588602c913960400191505060405180910390fd5b6000612ea6836117f1565b90508073ffffffffffffffffffffffffffffffffffffffff168473ffffffffffffffffffffffffffffffffffffffff161480612f1557508373ffffffffffffffffffffffffffffffffffffffff16612efd84610755565b73ffffffffffffffffffffffffffffffffffffffff16145b80612f265750612f258185612cb4565b5b91505092915050565b8273ffffffffffffffffffffffffffffffffffffffff16612f4f826117f1565b73ffffffffffffffffffffffffffffffffffffffff1614612fbb576040517f08c379a000000000000000000000000000000000000000000000000000000000815260040180806020018281038252602981526020018061568d6029913960400191505060405180910390fd5b600073ffffffffffffffffffffffffffffffffffffffff168273ffffffffffffffffffffffffffffffffffffffff161415613041576040517f08c379a00000000000000000000000000000000000000000000000000000000081526004018080602001828103825260248152602001806155646024913960400191505060405180910390fd5b61304c838383613606565b613057600082612d6d565b6130a881600160008673ffffffffffffffffffffffffffffffffffffffff1673ffffffffffffffffffffffffffffffffffffffff16815260200190815260200160002061360b90919063ffffffff16565b506130fa81600160008573ffffffffffffffffffffffffffffffffffffffff1673ffffffffffffffffffffffffffffffffffffffff16815260200190815260200160002061362590919063ffffffff16565b506131118183600261363f9092919063ffffffff16565b50808273ffffffffffffffffffffffffffffffffffffffff168473ffffffffffffffffffffffffffffffffffffffff167fddf252ad1be2c89b69c2b068fc378daa952ba7f163c4a11628f55a4df523b3ef60405160405180910390a4505050565b60006131818360000183613674565b60001c905092915050565b60008060008061319f86600001866136f7565b915091508160001c8160001c9350935050509250929050565b6001816000016000828254019250508190555050565b600081600001549050919050565b60006131e860126131b8565b60006131f460126131ce565b90506132008682613790565b6040518060a001604052803373ffffffffffffffffffffffffffffffffffffffff16815260200185815260200184600381111561323957fe5b8152602001868152602001600060ff168152506014600083815260200190815260200160002060008201518160000160006101000a81548173ffffffffffffffffffffffffffffffffffffffff021916908373ffffffffffffffffffffffffffffffffffffffff1602179055506020820151816001015560408201518160020160006101000a81548160ff021916908360038111156132d457fe5b02179055506060820151816003015560808201518160040160006101000a81548160ff021916908360ff16021790555090505080915050949350505050565b6000613326846000018460001b84613984565b60001c90509392505050565b600061334082600001613a7a565b9050919050565b61335081613a8b565b50565b61335e848484612f2f565b61336a84848484613bc5565b6133bf576040517f08c379a00000000000000000000000000000000000000000000000000000000081526004018080602001828103825260328152602001806155326032913960400191505060405180910390fd5b50505050565b6060600082141561340d576040518060400160405280600181526020017f30000000000000000000000000000000000000000000000000000000000000008152509050613507565b600082905060005b60008214613437578080600101915050600a828161342f57fe5b049150613415565b60008167ffffffffffffffff8111801561345057600080fd5b506040519080825280601f01601f1916602001820160405280156134835781602001600182028036833780820191505090505b50905060006001830390508593505b600084146134ff57600a84816134a457fe5b0660300160f81b828280600190039350815181106134be57fe5b60200101907effffffffffffffffffffffffffffffffffffffffffffffffffffffffffffff1916908160001a905350600a84816134f757fe5b049350613492565b819450505050505b919050565b806015600084815260200190815260200160002060060160006101000a81548160ff0219169083600381111561353e57fe5b0217905550817f25b940ec92bb2718a0a1889133d16092ddc2dba848990f230247a6ba0a927f506015600085815260200190815260200160002060060160009054906101000a900460ff16604051613596919061502e565b60405180910390a25050565b60005b81518110156135d7576135ca8282815181106135bd57fe5b6020026020010151613347565b80806001019150506135a5565b5050565b60006135ed836000018360001b613dde565b905092915050565b600081600001805490509050919050565b505050565b600061361d836000018360001b613e01565b905092915050565b6000613637836000018360001b613ee9565b905092915050565b600061366b846000018460001b8473ffffffffffffffffffffffffffffffffffffffff1660001b613f59565b90509392505050565b6000818360000180549050116136d5576040517f08c379a00000000000000000000000000000000000000000000000000000000081526004018080602001828103825260228152602001806155106022913960400191505060405180910390fd5b8260000182815481106136e457fe5b9060005260206000200154905092915050565b60008082846000018054905011613759576040517f08c379a000000000000000000000000000000000000000000000000000000000815260040180806020018281038252602281526020018061563f6022913960400191505060405180910390fd5b600084600001848154811061376a57fe5b906000526020600020906002020190508060000154816001015492509250509250929050565b600073ffffffffffffffffffffffffffffffffffffffff168273ffffffffffffffffffffffffffffffffffffffff161415613833576040517f08c379a00000000000000000000000000000000000000000000000000000000081526004018080602001828103825260208152602001807f4552433732313a206d696e7420746f20746865207a65726f206164647265737381525060200191505060405180910390fd5b61383c81612d48565b156138af576040517f08c379a000000000000000000000000000000000000000000000000000000000815260040180806020018281038252601c8152602001807f4552433732313a20746f6b656e20616c7265616479206d696e7465640000000081525060200191505060405180910390fd5b6138bb60008383613606565b61390c81600160008573ffffffffffffffffffffffffffffffffffffffff1673ffffffffffffffffffffffffffffffffffffffff16815260200190815260200160002061362590919063ffffffff16565b506139238183600261363f9092919063ffffffff16565b50808273ffffffffffffffffffffffffffffffffffffffff16600073ffffffffffffffffffffffffffffffffffffffff167fddf252ad1be2c89b69c2b068fc378daa952ba7f163c4a11628f55a4df523b3ef60405160405180910390a45050565b60008084600101600085815260200190815260200160002054905060008114158390613a4b576040517f08c379a00000000000000000000000000000000000000000000000000000000081526004018080602001828103825283818151815260200191508051906020019080838360005b83811015613a105780820151818401526020810190506139f5565b50505050905090810190601f168015613a3d5780820380516001836020036101000a031916815260200191505b509250505060405180910390fd5b50846000016001820381548110613a5e57fe5b9060005260206000209060020201600101549150509392505050565b600081600001805490509050919050565b6000613a96826117f1565b9050613aa481600084613606565b613aaf600083612d6d565b60006008600084815260200190815260200160002080546001816001161561010002031660029004905014613afe57600860008381526020019081526020016000206000613afd919061456c565b5b613b4f82600160008473ffffffffffffffffffffffffffffffffffffffff1673ffffffffffffffffffffffffffffffffffffffff16815260200190815260200160002061360b90919063ffffffff16565b50613b6482600261403590919063ffffffff16565b5081600073ffffffffffffffffffffffffffffffffffffffff168273ffffffffffffffffffffffffffffffffffffffff167fddf252ad1be2c89b69c2b068fc378daa952ba7f163c4a11628f55a4df523b3ef60405160405180910390a45050565b6000613be68473ffffffffffffffffffffffffffffffffffffffff1661404f565b613bf35760019050613dd6565b6000613d5d63150b7a0260e01b613c08612d65565b888787604051602401808573ffffffffffffffffffffffffffffffffffffffff1681526020018473ffffffffffffffffffffffffffffffffffffffff16815260200183815260200180602001828103825283818151815260200191508051906020019080838360005b83811015613c8c578082015181840152602081019050613c71565b50505050905090810190601f168015613cb95780820380516001836020036101000a031916815260200191505b5095505050505050604051602081830303815290604052907bffffffffffffffffffffffffffffffffffffffffffffffffffffffff19166020820180517bffffffffffffffffffffffffffffffffffffffffffffffffffffffff8381831617835250505050604051806060016040528060328152602001615532603291398773ffffffffffffffffffffffffffffffffffffffff1661409a9092919063ffffffff16565b90506000818060200190516020811015613d7657600080fd5b8101908080519060200190929190505050905063150b7a0260e01b7bffffffffffffffffffffffffffffffffffffffffffffffffffffffff1916817bffffffffffffffffffffffffffffffffffffffffffffffffffffffff191614925050505b949350505050565b600080836001016000848152602001908152602001600020541415905092915050565b60008083600101600084815260200190815260200160002054905060008114613edd5760006001820390506000600186600001805490500390506000866000018281548110613e4c57fe5b9060005260206000200154905080876000018481548110613e6957fe5b9060005260206000200181905550600183018760010160008381526020019081526020016000208190555086600001805480613ea157fe5b60019003818190600052602060002001600090559055866001016000878152602001908152602001600020600090556001945050505050613ee3565b60009150505b92915050565b6000613ef583836140b2565b613f4e578260000182908060018154018082558091505060019003906000526020600020016000909190919091505582600001805490508360010160008481526020019081526020016000208190555060019050613f53565b600090505b92915050565b60008084600101600085815260200190815260200160002054905060008114156140005784600001604051806040016040528086815260200185815250908060018154018082558091505060019003906000526020600020906002020160009091909190915060008201518160000155602082015181600101555050846000018054905085600101600086815260200190815260200160002081905550600191505061402e565b8285600001600183038154811061401357fe5b90600052602060002090600202016001018190555060009150505b9392505050565b6000614047836000018360001b6140d5565b905092915050565b60008060007fc5d2460186f7233c927e7db2dcc703c0e500b653ca82273b7bfad8045d85a47060001b9050833f915080821415801561409157506000801b8214155b92505050919050565b60606140a984846000856141ee565b90509392505050565b600080836001016000848152602001908152602001600020541415905092915050565b600080836001016000848152602001908152602001600020549050600081146141e2576000600182039050600060018660000180549050039050600086600001828154811061412057fe5b906000526020600020906002020190508087600001848154811061414057fe5b906000526020600020906002020160008201548160000155600182015481600101559050506001830187600101600083600001548152602001908152602001600020819055508660000180548061419357fe5b60019003818190600052602060002090600202016000808201600090556001820160009055505090558660010160008781526020019081526020016000206000905560019450505050506141e8565b60009150505b92915050565b60606141f98561404f565b61426b576040517f08c379a000000000000000000000000000000000000000000000000000000000815260040180806020018281038252601d8152602001807f416464726573733a2063616c6c20746f206e6f6e2d636f6e747261637400000081525060200191505060405180910390fd5b6000808673ffffffffffffffffffffffffffffffffffffffff1685876040518082805190602001908083835b602083106142ba5780518252602082019150602081019050602083039250614297565b6001836020036101000a03801982511681845116808217855250505050505090500191505060006040518083038185875af1925050503d806000811461431c576040519150601f19603f3d011682016040523d82523d6000602084013e614321565b606091505b509150915081156143365780925050506143eb565b6000815111156143495780518082602001fd5b836040517f08c379a00000000000000000000000000000000000000000000000000000000081526004018080602001828103825283818151815260200191508051906020019080838360005b838110156143b0578082015181840152602081019050614395565b50505050905090810190601f1680156143dd5780820380516001836020036101000a031916815260200191505b509250505060405180910390fd5b949350505050565b604051806101800160405280600073ffffffffffffffffffffffffffffffffffffffff168152602001600060ff168152602001600060ff168152602001600060ff16815260200160608152602001600081526020016000815260200160008152602001600081526020016000600381111561446a57fe5b81526020016000600281111561447c57fe5b81526020016000151581525090565b828054600181600116156101000203166002900490600052602060002090601f0160209004810192826144c15760008555614508565b82601f106144da57805160ff1916838001178555614508565b82800160010185558215614508579182015b828111156145075782518255916020019190600101906144ec565b5b50905061451591906145b4565b5090565b6040518060a00160405280600073ffffffffffffffffffffffffffffffffffffffff168152602001600081526020016000600381111561455557fe5b815260200160008152602001600060ff1681525090565b50805460018160011615610100020316600290046000825580601f1061459257506145b1565b601f0160209004906000526020600020908101906145b091906145b4565b5b50565b5b808211156145cd5760008160009055506001016145b5565b5090565b60006145e46145df84615294565b615263565b9050828152602081018484840111156145fc57600080fd5b614607848285615408565b509392505050565b600061462261461d846152c4565b615263565b90508281526020810184848401111561463a57600080fd5b614645848285615408565b509392505050565b60008135905061465c81615485565b92915050565b6000813590506146718161549c565b92915050565b600081359050614686816154b3565b92915050565b600082601f83011261469d57600080fd5b81356146ad8482602086016145d1565b91505092915050565b600082601f8301126146c757600080fd5b81356146d784826020860161460f565b91505092915050565b6000813590506146ef816154ca565b92915050565b600081359050614704816154e1565b92915050565b600081359050614719816154f8565b92915050565b60006020828403121561473157600080fd5b600061473f8482850161464d565b91505092915050565b6000806040838503121561475b57600080fd5b60006147698582860161464d565b925050602061477a8582860161464d565b9150509250929050565b60008060006060848603121561479957600080fd5b60006147a78682870161464d565b93505060206147b88682870161464d565b92505060406147c9868287016146f5565b9150509250925092565b600080600080608085870312156147e957600080fd5b60006147f78782880161464d565b94505060206148088782880161464d565b9350506040614819878288016146f5565b925050606085013567ffffffffffffffff81111561483657600080fd5b6148428782880161468c565b91505092959194509250565b6000806040838503121561486157600080fd5b600061486f8582860161464d565b925050602061488085828601614662565b9150509250929050565b6000806040838503121561489d57600080fd5b60006148ab8582860161464d565b92505060206148bc858286016146f5565b9150509250929050565b6000602082840312156148d857600080fd5b60006148e684828501614677565b91505092915050565b60006020828403121561490157600080fd5b600061490f848285016146e0565b91505092915050565b6000806040838503121561492b57600080fd5b6000614939858286016146e0565b925050602061494a8582860161470a565b9150509250929050565b60006020828403121561496657600080fd5b6000614974848285016146f5565b91505092915050565b60008060008060008060c0878903121561499657600080fd5b60006149a489828a016146f5565b965050602087013567ffffffffffffffff8111156149c157600080fd5b6149cd89828a016146b6565b95505060406149de89828a0161470a565b94505060606149ef89828a0161470a565b9350506080614a0089828a0161470a565b92505060a0614a1189828a016146f5565b9150509295509295509295565b614a2781615321565b82525050565b614a3681615321565b82525050565b614a4581615333565b82525050565b614a5481615333565b82525050565b614a63816153e4565b82525050565b614a72816153e4565b82525050565b614a81816153f6565b82525050565b6000614a92826152f4565b614a9c81856152ff565b9350614aac818560208601615417565b614ab58161544c565b840191505092915050565b6000614acb826152f4565b614ad58185615310565b9350614ae5818560208601615417565b614aee8161544c565b840191505092915050565b6000614b06601f83615310565b91507f436f6e74726163742068617320696e73756666696369656e742066756e6473006000830152602082019050919050565b6000614b46601083615310565b91507f617069206d6174636820657869737473000000000000000000000000000000006000830152602082019050919050565b6000614b86600d83615310565b91507f496e76616c696420746f6b656e000000000000000000000000000000000000006000830152602082019050919050565b6000614bc6601483615310565b91507f496e76616c6964206d6174636820726573756c740000000000000000000000006000830152602082019050919050565b6000614c06601983615310565b91507f63616c6c6572206973206e6f7420746f6b656e206f776e6572000000000000006000830152602082019050919050565b6000614c46600d83615310565b91507f6d617463682073746172746564000000000000000000000000000000000000006000830152602082019050919050565b6000614c86601383615310565b91507f63616c6c6572206973206e6f74206f776e6572000000000000000000000000006000830152602082019050919050565b6000614cc6601583615310565b91507f4369726375697420627265616b6572206973206f6e00000000000000000000006000830152602082019050919050565b6000614d06601d83615310565b91507f6f6e20636861696e206d6174636820646f6573206e6f742065786973740000006000830152602082019050919050565b6000614d46601283615310565b91507f426574206973206e6f7420616c6c6f77656400000000000000000000000000006000830152602082019050919050565b6000614d86601283615310565b91507f496e76616c696420616d6f756e742062657400000000000000000000000000006000830152602082019050919050565b6000614dc6601183615310565b91507f6d61746368206e6f7420737461727465640000000000000000000000000000006000830152602082019050919050565b6000614e06602e83615310565b91507f43616e6e6f74206c697175696461746520617373657420756e74696c206d617460008301527f63682069732066696e69736865640000000000000000000000000000000000006020830152604082019050919050565b600061018083016000830151614e786000860182614a1e565b506020830151614e8b6020860182614fe9565b506040830151614e9e6040860182614fe9565b506060830151614eb16060860182614fe9565b5060808301518482036080860152614ec98282614a87565b91505060a0830151614ede60a0860182614fcb565b5060c0830151614ef160c0860182614fcb565b5060e0830151614f0460e0860182614fcb565b50610100830151614f19610100860182614fcb565b50610120830151614f2e610120860182614a5a565b50610140830151614f43610140860182614a78565b50610160830151614f58610160860182614a3c565b508091505092915050565b60a082016000820151614f796000850182614a1e565b506020820151614f8c6020850182614fcb565b506040820151614f9f6040850182614a5a565b506060820151614fb26060850182614fcb565b506080820151614fc56080850182614fe9565b50505050565b614fd4816153cd565b82525050565b614fe3816153cd565b82525050565b614ff2816153d7565b82525050565b600060208201905061500d6000830184614a2d565b92915050565b60006020820190506150286000830184614a4b565b92915050565b60006020820190506150436000830184614a69565b92915050565b600060208201905081810360008301526150638184614ac0565b905092915050565b6000602082019050818103600083015261508481614af9565b9050919050565b600060208201905081810360008301526150a481614b39565b9050919050565b600060208201905081810360008301526150c481614b79565b9050919050565b600060208201905081810360008301526150e481614bb9565b9050919050565b6000602082019050818103600083015261510481614bf9565b9050919050565b6000602082019050818103600083015261512481614c39565b9050919050565b6000602082019050818103600083015261514481614c79565b9050919050565b6000602082019050818103600083015261516481614cb9565b9050919050565b6000602082019050818103600083015261518481614cf9565b9050919050565b600060208201905081810360008301526151a481614d39565b9050919050565b600060208201905081810360008301526151c481614d79565b9050919050565b600060208201905081810360008301526151e481614db9565b9050919050565b6000602082019050818103600083015261520481614df9565b9050919050565b600060208201905081810360008301526152258184614e5f565b905092915050565b600060a0820190506152426000830184614f63565b92915050565b600060208201905061525d6000830184614fda565b92915050565b6000604051905081810181811067ffffffffffffffff8211171561528a5761528961544a565b5b8060405250919050565b600067ffffffffffffffff8211156152af576152ae61544a565b5b601f19601f8301169050602081019050919050565b600067ffffffffffffffff8211156152df576152de61544a565b5b601f19601f8301169050602081019050919050565b600081519050919050565b600082825260208201905092915050565b600082825260208201905092915050565b600061532c826153ad565b9050919050565b60008115159050919050565b60007fffffffff0000000000000000000000000000000000000000000000000000000082169050919050565b60008190506153798261545d565b919050565b600081905061538c82615471565b919050565b60006fffffffffffffffffffffffffffffffff82169050919050565b600073ffffffffffffffffffffffffffffffffffffffff82169050919050565b6000819050919050565b600060ff82169050919050565b60006153ef8261536b565b9050919050565b60006154018261537e565b9050919050565b82818337600083830152505050565b60005b8381101561543557808201518184015260208101905061541a565b83811115615444576000848401525b50505050565bfe5b6000601f19601f8301169050919050565b6004811061546e5761546d61544a565b5b50565b600381106154825761548161544a565b5b50565b61548e81615321565b811461549957600080fd5b50565b6154a581615333565b81146154b057600080fd5b50565b6154bc8161533f565b81146154c757600080fd5b50565b6154d381615391565b81146154de57600080fd5b50565b6154ea816153cd565b81146154f557600080fd5b50565b615501816153d7565b811461550c57600080fd5b5056fe456e756d657261626c655365743a20696e646578206f7574206f6620626f756e64734552433732313a207472616e7366657220746f206e6f6e20455243373231526563656976657220696d706c656d656e7465724552433732313a207472616e7366657220746f20746865207a65726f20616464726573734552433732313a206f70657261746f7220717565727920666f72206e6f6e6578697374656e7420746f6b656e4552433732313a20617070726f76652063616c6c6572206973206e6f74206f776e6572206e6f7220617070726f76656420666f7220616c6c4552433732313a2062616c616e636520717565727920666f7220746865207a65726f20616464726573734552433732313a206f776e657220717565727920666f72206e6f6e6578697374656e7420746f6b656e456e756d657261626c654d61703a20696e646578206f7574206f6620626f756e64734552433732313a20617070726f76656420717565727920666f72206e6f6e6578697374656e7420746f6b656e4552433732313a207472616e73666572206f6620746f6b656e2074686174206973206e6f74206f776e4552433732314d657461646174613a2055524920717565727920666f72206e6f6e6578697374656e7420746f6b656e4552433732313a20617070726f76616c20746f2063757272656e74206f776e65724552433732313a207472616e736665722063616c6c6572206973206e6f74206f776e6572206e6f7220617070726f766564a2646970667358221220ecdf397ab5d76685bc364e232274777972538dfe5a8595ce8267c17a993dfa9b64736f6c63430007060033",
  "immutableReferences": {},
  "source": "pragma solidity ^0.7.0;\npragma experimental ABIEncoderV2;\n\nimport \"@chainlink/contracts/src/v0.7/ChainlinkClient.sol\";\nimport \"@openzeppelin/contracts/token/ERC721/ERC721.sol\";\nimport \"@openzeppelin/contracts/utils/Counters.sol\";\n// import \"@openzeppelin/contracts/math/SafeMath.sol\";\n\n// import \"https://github.com/OpenZeppelin/openzeppelin-contracts/blob/18c7efe800df6fc19554ece3b1f238e9e028a1db/contracts/token/ERC721/ERC721.sol\";\n// import \"https://github.com/OpenZeppelin/openzeppelin-contracts/blob/18c7efe800df6fc19554ece3b1f238e9e028a1db/contracts/utils/Counters.sol\";\n\n\n/*\n * @notice SmartBet core smart contract. Handles matches, bets and farming\n */\ncontract SmartBet is ERC721, ChainlinkClient {\n\n    using Counters for Counters.Counter;\n    // using SafeMath for uint256;\n\n    ////////////////////////////////////////\n    //                                    //\n    //         STATE VARIABLES            //\n    //                                    //      \n    ////////////////////////////////////////\n    // contract owner adress\n    address private owner;\n\n    // incremented for match id generation\n    Counters.Counter private matchIds;\n\n    // incremented id for NFT minting\n    Counters.Counter private tokenIds;\n\n    // flag to determine if contracts core functionalities can be performed\n    bool circuitBreaker = false;\n\n    enum MatchResult {NOT_DETERMINED, DRAW, TEAM_A_WON, TEAM_B_WON}\n    enum MatchState {NOT_STARTED, STARTED, FINISHED}\n\n    uint8 private constant TEAM_A = 1;\n    uint8 private constant TEAM_B = 2;\n\n    struct Match {\n        address creator;\n        uint8 oddsTeamA;\n        uint8 oddsTeamB;\n        uint8 oddsDraw;\n        string matchResultLink;\n        uint256 totalPayoutTeamA;\n        uint256 totalPayoutTeamB;\n        uint256 totalPayoutDraw;\n        uint256 totalCollected;\n        MatchResult result;\n        MatchState state;\n        bool exists;\n    }\n\n    // NFT issued to winner\n    struct SmartAsset {\n        address owner;\n        uint256 matchId;\n        MatchResult matchResult;\n        uint256 initialValue;\n        uint8 accruedInterest;\n    }\n\n    // holds all NFTs issued to winners\n    mapping(uint256 => SmartAsset) smartAssets;\n\n    // holds all created matches (key: idCounter)\n    mapping(uint256 => Match) matches;\n    \n    // holds all apiMatchId -> onChainMatchId to prevent duplicate entries\n    mapping(uint256 => uint256) apiMatches;\n\n    // holds all bets on a match\n    // mapping(matchId => mapping(gameResult => smartAssetId[])) matchBets;\n    mapping(uint256 => mapping(MatchResult => uint256[])) matchBets;\n\n    mapping(bytes32 => uint256) matchResultRequestIds;\n\n\n    ////////////////////////////////////////\n    //                                    //\n    //           CONSTRUCTOR              //\n    //                                    //      \n    ////////////////////////////////////////\n\n    constructor() ERC721(\"SmartBet\", \"SMBT\") {\n        owner = msg.sender;\n    }\n\n    ////////////////////////////////////////\n    //                                    //\n    //              EVENTS                //\n    //                                    //      \n    ////////////////////////////////////////\n\n    //Can be used by the clients to get all matches in a particular time\n    event MatchAddedEvent(address indexed creator, uint256 matchId, uint256 indexed startAt);\n    //Can be used by the clients to get all bets placed by a better in a particular time\n    event BetPlacedEvent(address indexed bettor, uint256 indexed matchId, uint256 amount, uint256 indexed betAt);\n    event MatchClosedEvent(address indexed by, uint256 indexed matchId);\n    event MatchResultSetEvent(uint256 indexed matchId, MatchResult result);\n    event AssetLiquidatedEvent(address indexed by, uint256 indexed matchId, uint256 amount);\n\n\n    ////////////////////////////////////////\n    //                                    //\n    //              MODIFIERS             //\n    //                                    //      \n    ////////////////////////////////////////\n\n    /*\n    *  @notice  Restrict caller only owner\n    */\n    modifier onlyOwner() {\n        require(msg.sender == owner, \"caller is not owner\");\n        _;\n    }\n\n    /*\n    *  @notice  Ensure match does not previously exist\n    */\n    modifier isNewMatch(uint256 _matchId) {\n        require(!matches[_matchId].exists, \"on chain match exists\");\n        _;\n    }\n\n    /*\n    *  @notice  Ensure api match does not previously exist\n    */\n    modifier isNewAPIMatch(uint256 _api_matchId) {\n        require(apiMatches[_api_matchId] == 0, \"api match exists\");\n        _;\n    }\n\n    /*\n    *  @notice  Ensure match exists\n    */\n    modifier matchExists(uint256 _matchId){\n        require(matches[_matchId].exists, \"on chain match does not exist\");\n        _;\n    }\n\n    /*\n    *  @notice  Ensure match has not started\n    */\n    modifier matchNotStarted(uint256 _matchId){\n        require(matches[_matchId].state == MatchState.NOT_STARTED, \"match started\");\n        _;\n    }\n\n    /*\n    *  @notice  Ensure match has started\n    */\n    modifier matchStarted(uint256 _matchId){\n        require(matches[_matchId].state == MatchState.STARTED, \"match not started\");\n        _;\n    }\n\n    /*\n    *  @notice  Ensure match has ended\n    */\n    modifier matchFinished(uint256 _matchId){\n        require(matches[_matchId].state == MatchState.FINISHED, \"match not finished\");\n        _;\n    }\n\n    /*\n    *  @notice Checks if core functionalities can be performed\n    *  @dev Checks if the circuitBreaker state variable is false\n    */\n    modifier isCircuitBreakOff() {\n        require(!circuitBreaker, \"Circuit breaker is on\");\n        _;\n    }\n\n    /*\n    *  @notice Checks if the NFT is valid\n    *  @dev Validates NFT\n    */\n    modifier validateToken(uint256 _tokenId) {\n        require(_exists(_tokenId), \"Invalid token\");\n        _;\n    }\n    \n    /*\n    *  @notice  Ensure token belongs to the caller\n    */\n    modifier isTokenOwner(uint256 _tokenId) {\n        require(ownerOf(_tokenId) == msg.sender , \"caller is not token owner\");\n        _;\n    }\n\n    /*\n    *  @notice  Ensures bets are allowed on the match\n    *  @dev     The totalCollected on the match must be greater than the total payout on the team the bettor wants to bet on. The incoming bet is inclusive in the calculation\n    */\n    modifier isBetAllowed(uint256 _matchId) {\n        require(true, \"Bet is not allowed\");\n        _;\n    }\n    \n    modifier validateMatchResult(uint8 _matchResult) {\n        require(MatchResult(_matchResult) == MatchResult.TEAM_A_WON || MatchResult(_matchResult) == MatchResult.TEAM_B_WON || MatchResult(_matchResult) == MatchResult.DRAW, \"Invalid match result\");\n        _;\n    }\n\n    ////////////////////////////////////////\n    //                                    //\n    //              FUNCTIONS             //\n    //                                    //      \n    ////////////////////////////////////////\n\n    /*\n    *  @notice  New match creation\n    *  @dev     \n    *  @param   \n    *  @return  match Id\n    */\n    function createMatch(uint256 _apiMatchId, string memory _matchResultLink, uint8 _oddsTeamA, uint8 _oddsTeamB, uint8 _oddsDraw, uint256 _startAt)\n        public \n        isNewAPIMatch(_apiMatchId)\n        onlyOwner\n        returns(uint)\n    {\n        matchIds.increment();\n        uint256 matchId = matchIds.current();\n        matches[matchId] = Match(msg.sender, _oddsTeamA, _oddsTeamB, _oddsDraw, _matchResultLink, 0, 0, 0, 0, MatchResult.NOT_DETERMINED, MatchState.NOT_STARTED, true); \n        apiMatches[_apiMatchId] = matchId;\n        emit MatchAddedEvent(msg.sender, matchId, _startAt);\n\n        return matchId;\n    }\n\n\n    /*\n    *  @notice  New bet creation. Mint NFT to bettor\n    *  @dev   \n    *  @param  \n    *  @return  token id\n    */\n    function placeBet(uint128 _matchId, uint8 _resultBetOn)\n        public \n        payable\n        isCircuitBreakOff\n        matchExists(_matchId) \n        matchNotStarted(_matchId) \n        isBetAllowed(_matchId)\n        validateMatchResult(_resultBetOn)\n        returns(uint256)\n    {\n        require(msg.value != 0, \"Invalid amount bet\");\n\n        address bettor = msg.sender;\n        uint256 amountBet = msg.value;\n        uint256 assetValue = 0;\n        MatchResult matchResultBetOn = MatchResult(_resultBetOn);\n        \n        //update team's total payout\n        if (matchResultBetOn == MatchResult.TEAM_A_WON) {\n            assetValue = amountBet * matches[_matchId].oddsTeamA;\n            matches[_matchId].totalPayoutTeamA += assetValue;\n        } else if(matchResultBetOn == MatchResult.TEAM_B_WON) {\n            assetValue = amountBet * matches[_matchId].oddsTeamB;\n            matches[_matchId].totalPayoutTeamB += assetValue;\n        } else {\n            assetValue = amountBet * matches[_matchId].oddsDraw;\n            matches[_matchId].totalPayoutDraw += assetValue;\n        }\n\n        //increase totalCollected on the match\n        matches[_matchId].totalCollected += amountBet;\n\n        uint256 smartAssetId = awardSmartAsset(bettor, assetValue, _matchId, matchResultBetOn);\n        \n        //Save bettor's bet\n        matchBets[_matchId][matchResultBetOn].push(smartAssetId);\n        \n        emit BetPlacedEvent(bettor, _matchId, amountBet, block.timestamp);\n\n        return smartAssetId;\n    }\n\n\n    function awardSmartAsset(address bettor, uint256 assetValue, uint256 _matchId, MatchResult _matchResultBetOn) \n        internal returns (uint256) \n    {\n        tokenIds.increment();\n\n        uint256 smartAssetId = tokenIds.current();\n        _mint(bettor, smartAssetId);\n        \n        smartAssets[smartAssetId] = SmartAsset(msg.sender, _matchId, _matchResultBetOn, assetValue, 0);\n\n        return smartAssetId;\n    }\n    \n    function startMatch(uint128 _matchId) \n        public\n        onlyOwner\n        matchExists(_matchId) \n        matchNotStarted(_matchId)\n    {\n        matches[_matchId].state = MatchState.STARTED;\n    }\n\n\n    /*\n    *  @notice  Match manual close by admin. Trigger \"getResult()\" \n    *  @dev     [Real] ChainlinkClient API Request oracles gets match result of winning team. Then, match is closed.\n    *           [Temporary] (Implemented because there's no BSC testnet oracle node)\n    *                       Frontend gets result via result link and posts winning team. Then, match is closed.\n    *  @param  \n    *  @return  success success status\n    */\n    function closeMatch(uint128 _matchId, uint8 _matchResult)\n        public \n        onlyOwner\n        matchExists(_matchId) \n        matchStarted(_matchId)\n        validateMatchResult(_matchResult)\n    {\n        matches[_matchId].state = MatchState.FINISHED;\n        \n        // getMatchResult(_matchId);\n        MatchResult matchResult = MatchResult(_matchResult);\n        setMatchResult(_matchId, matchResult);\n        \n        if (matchResult == MatchResult.TEAM_A_WON) {\n            invalidateAssets(matchBets[_matchId][MatchResult.TEAM_B_WON]);\n            invalidateAssets(matchBets[_matchId][MatchResult.DRAW]);\n        } else if (matchResult == MatchResult.TEAM_B_WON) {\n            invalidateAssets(matchBets[_matchId][MatchResult.TEAM_A_WON]);\n            invalidateAssets(matchBets[_matchId][MatchResult.DRAW]);\n        } else {\n            invalidateAssets(matchBets[_matchId][MatchResult.TEAM_A_WON]);\n            invalidateAssets(matchBets[_matchId][MatchResult.TEAM_B_WON]);\n        }\n        \n        \n        emit MatchClosedEvent(msg.sender, _matchId);\n    }\n    \n    function setMatchResult(uint256 _matchId, MatchResult _matchResult) internal {\n        matches[_matchId].result = _matchResult;\n        emit MatchResultSetEvent(_matchId, matches[_matchId].result);\n    }\n    \n    function invalidateAssets(uint256[] memory assets) internal {\n        for (uint i = 0; i < assets.length; i++) {\n            invalidateAsset(assets[i]);\n        }\n    }\n\n    function invalidateAsset(uint256 _smartAssetId) internal {\n        _burn(_smartAssetId);\n    }\n\n    /*\n    *  @notice  Liquidate smart asset's value\n    *  @dev     validated   NFT is burned and caller gets value funds in account\n    *  @param   _smartAssetId smart asset id\n    *  @return  success status\n    */\n    function liquidateAsset(uint128 _smartAssetId)\n        public \n        payable\n        isCircuitBreakOff\n        validateToken(_smartAssetId)\n        isTokenOwner(_smartAssetId)\n        returns(bool)\n    {\n        SmartAsset memory smartAsset = smartAssets[_smartAssetId];\n        \n        require(matches[smartAsset.matchId].state == MatchState.FINISHED, \"Cannot liquidate asset until match is finished\");\n        \n        require (address(this).balance >= smartAsset.initialValue, \"Contract has insufficient funds\");\n        \n        invalidateAsset(_smartAssetId);\n        msg.sender.transfer(smartAsset.initialValue);\n\n        emit AssetLiquidatedEvent(msg.sender, smartAsset.matchId, smartAsset.initialValue);\n        return true;\n    }\n\n    /*\n    *  @notice  Contract Circuit Breaker\n    *  @dev     Admin can [de]activate core functons in contract\n    *  @param   \n    *  @return  success success status\n    */\n    function toggleCircuitBreaker()\n        public \n        onlyOwner\n    {\n        circuitBreaker = !circuitBreaker;\n    }\n\n    /*\n    *  @notice  Fetch match details\n    *  @dev         \n    *  @oaram   _matchId\n    *  @return match match details\n    */\n    function getMatch(uint256 _matchId)\n        public \n        view\n        matchExists(_matchId)\n        returns(Match memory match_)\n    {\n        return matches[_matchId];\n    }\n\n    /*\n    *  @notice  Fetch single SmartAsset\n    *  @dev          \n    *  @param   _smartAssetId\n    *  @return  asset details\n    */\n    function getSmartAsset(uint256 _smartAssetId)\n        public \n        view\n        validateToken(_smartAssetId)\n        isTokenOwner(_smartAssetId)\n        returns(SmartAsset memory asset)\n    {\n        return smartAssets[_smartAssetId];\n    }\n    \n}\n",
  "sourcePath": "/Users/ajibigad/crytoproject/SmartBet/contracts/SmartBet.sol",
  "compiler": {
    "name": "solc",
    "version": "0.7.6+commit.7338295f.Emscripten.clang"
  },
  "schemaVersion": "3.3.4",
  "updatedAt": "2021-04-10T14:50:48.996Z",
  "networkType": "ethereum",
  "devdoc": {
    "kind": "dev",
    "methods": {
      "approve(address,uint256)": {
        "details": "See {IERC721-approve}."
      },
      "balanceOf(address)": {
        "details": "See {IERC721-balanceOf}."
      },
      "baseURI()": {
        "details": "Returns the base URI set via {_setBaseURI}. This will be automatically added as a prefix in {tokenURI} to each token's URI, or to the token ID if no specific URI is set for that token ID."
      },
      "getApproved(uint256)": {
        "details": "See {IERC721-getApproved}."
      },
      "isApprovedForAll(address,address)": {
        "details": "See {IERC721-isApprovedForAll}."
      },
      "name()": {
        "details": "See {IERC721Metadata-name}."
      },
      "ownerOf(uint256)": {
        "details": "See {IERC721-ownerOf}."
      },
      "safeTransferFrom(address,address,uint256)": {
        "details": "See {IERC721-safeTransferFrom}."
      },
      "safeTransferFrom(address,address,uint256,bytes)": {
        "details": "See {IERC721-safeTransferFrom}."
      },
      "setApprovalForAll(address,bool)": {
        "details": "See {IERC721-setApprovalForAll}."
      },
      "supportsInterface(bytes4)": {
        "details": "See {IERC165-supportsInterface}. Time complexity O(1), guaranteed to always use less than 30 000 gas."
      },
      "symbol()": {
        "details": "See {IERC721Metadata-symbol}."
      },
      "tokenByIndex(uint256)": {
        "details": "See {IERC721Enumerable-tokenByIndex}."
      },
      "tokenOfOwnerByIndex(address,uint256)": {
        "details": "See {IERC721Enumerable-tokenOfOwnerByIndex}."
      },
      "tokenURI(uint256)": {
        "details": "See {IERC721Metadata-tokenURI}."
      },
      "totalSupply()": {
        "details": "See {IERC721Enumerable-totalSupply}."
      },
      "transferFrom(address,address,uint256)": {
        "details": "See {IERC721-transferFrom}."
      }
    },
    "version": 1
  },
  "userdoc": {
    "kind": "user",
    "methods": {},
    "version": 1
  }
}