{
  "contractName": "SmartInvestV1",
  "abi": [
    {
      "inputs": [],
      "name": "BASE_BEP20",
      "outputs": [
        {
          "internalType": "address",
          "name": "",
          "type": "address"
        }
      ],
      "stateMutability": "view",
      "type": "function",
      "constant": true
    },
    {
      "inputs": [],
      "name": "totalTreasury",
      "outputs": [
        {
          "internalType": "uint256",
          "name": "",
          "type": "uint256"
        }
      ],
      "stateMutability": "view",
      "type": "function",
      "constant": true
    },
    {
      "inputs": [],
      "name": "vTOKEN_ADDRESS",
      "outputs": [
        {
          "internalType": "address",
          "name": "",
          "type": "address"
        }
      ],
      "stateMutability": "view",
      "type": "function",
      "constant": true
    },
    {
      "inputs": [
        {
          "internalType": "uint256",
          "name": "amount",
          "type": "uint256"
        }
      ],
      "name": "invest",
      "outputs": [],
      "stateMutability": "nonpayable",
      "type": "function"
    },
    {
      "inputs": [
        {
          "internalType": "uint256",
          "name": "amount",
          "type": "uint256"
        }
      ],
      "name": "redeem",
      "outputs": [],
      "stateMutability": "nonpayable",
      "type": "function"
    },
    {
      "inputs": [],
      "name": "getBalance",
      "outputs": [],
      "stateMutability": "nonpayable",
      "type": "function"
    }
  ],
  "bytecode": "0x608060405234801561001057600080fd5b506106dc806100206000396000f3fe608060405234801561001057600080fd5b50600436106100625760003560e01c806312065fe0146100675780631876ed4f146100715780632afcf4801461008f578063897534a9146100ab5780639b3c25a5146100c9578063db006a75146100e7575b600080fd5b61006f610103565b005b6100796101af565b604051610086919061054f565b60405180910390f35b6100a960048036038101906100a49190610490565b6101c7565b005b6100b3610320565b6040516100c091906105ce565b60405180910390f35b6100d1610326565b6040516100de919061054f565b60405180910390f35b61010160048036038101906100fc9190610490565b61033e565b005b60007308e0a5575de71037ae36abfafb516595fe68e5e4905060008173ffffffffffffffffffffffffffffffffffffffff16633af9e669336040518263ffffffff1660e01b8152600401610157919061056a565b602060405180830381600087803b15801561017157600080fd5b505af1158015610185573d6000803e3d6000fd5b505050506040513d601f19601f820116820180604052508101906101a991906104b9565b90505050565b7308e0a5575de71037ae36abfafb516595fe68e5e481565b6000738301f2213c0eed49a7e28ae4c3e91722919b8b47905060007308e0a5575de71037ae36abfafb516595fe68e5e490508173ffffffffffffffffffffffffffffffffffffffff1663095ea7b382856040518363ffffffff1660e01b8152600401610234929190610585565b602060405180830381600087803b15801561024e57600080fd5b505af1158015610262573d6000803e3d6000fd5b505050506040513d601f19601f820116820180604052508101906102869190610467565b5060008173ffffffffffffffffffffffffffffffffffffffff1663a0712d68856040518263ffffffff1660e01b81526004016102c291906105ce565b602060405180830381600087803b1580156102dc57600080fd5b505af11580156102f0573d6000803e3d6000fd5b505050506040513d601f19601f8201168201806040525081019061031491906104b9565b1461031b57fe5b505050565b60005481565b738301f2213c0eed49a7e28ae4c3e91722919b8b4781565b60007308e0a5575de71037ae36abfafb516595fe68e5e4905060008173ffffffffffffffffffffffffffffffffffffffff1663852a12e3846040518263ffffffff1660e01b815260040161039291906105ce565b602060405180830381600087803b1580156103ac57600080fd5b505af11580156103c0573d6000803e3d6000fd5b505050506040513d601f19601f820116820180604052508101906103e491906104b9565b14610424576040517f08c379a000000000000000000000000000000000000000000000000000000000815260040161041b906105ae565b60405180910390fd5b5050565b60008151905061043781610678565b92915050565b60008135905061044c8161068f565b92915050565b6000815190506104618161068f565b92915050565b60006020828403121561047957600080fd5b600061048784828501610428565b91505092915050565b6000602082840312156104a257600080fd5b60006104b08482850161043d565b91505092915050565b6000602082840312156104cb57600080fd5b60006104d984828501610452565b91505092915050565b6104eb81610642565b82525050565b6104fa816105fa565b82525050565b600061050d6014836105e9565b91507f736f6d657468696e672077656e742077726f6e670000000000000000000000006000830152602082019050919050565b61054981610638565b82525050565b600060208201905061056460008301846104f1565b92915050565b600060208201905061057f60008301846104e2565b92915050565b600060408201905061059a60008301856104f1565b6105a76020830184610540565b9392505050565b600060208201905081810360008301526105c781610500565b9050919050565b60006020820190506105e36000830184610540565b92915050565b600082825260208201905092915050565b600061060582610618565b9050919050565b60008115159050919050565b600073ffffffffffffffffffffffffffffffffffffffff82169050919050565b6000819050919050565b600061064d82610654565b9050919050565b600061065f82610666565b9050919050565b600061067182610618565b9050919050565b6106818161060c565b811461068c57600080fd5b50565b61069881610638565b81146106a357600080fd5b5056fea2646970667358221220cf92c88dd810d5a4a7b7869e76a0a0f26af9bed7fa869d3a824235615ef929d964736f6c63430007060033",
  "immutableReferences": {},
  "source": "pragma solidity ^0.7.0;\r\npragma experimental ABIEncoderV2;\r\n\r\n\r\n//TODO: move to VToken.sol\r\ncontract VToken {\r\n    // No implementation, just the function signature. This is just so Solidity can work out how to call it.\r\n    \r\n    /*\r\n    * @notice   The mint function transfers an asset into the protocol, which begins accumulating interest\r\n    * based on the current Supply Rate for The user receives a quantity of vTokens equal to the\r\n    * underlying tokens tokens supplied, divided by the current Exchange Rate.\r\n    * msg.sender: The account which shall supply the asset, and own the minted vTokens.\r\n    * @param    mintAmount The amount of the asset to be supplied, in units of the underlying asset.\r\n    * @return   status 0 on success, otherwise an Error code\r\n    */\r\n    function mint(uint mintAmount) public returns (uint) {}\r\n    \r\n    /*\r\n    * @notice   The redeem underlying function converts vTokens into a specified quantity of the underlying asset, \r\n    * and returns them to the user. The amount of vTokens redeemed is equal to the quantity of underlying tokens received, \r\n    * divided by the current Exchange Rate. The amount redeemed must be less than the user's Account Liquidity \r\n    * and the market's available liquidity.\r\n    * msg.sender: The account to which redeemed funds shall be transferred.\r\n    * @param    redeemAmount The amount of underlying to be redeemed.\r\n    * @return   status 0 on success, otherwise an Error code\r\n    */\r\n    function redeemUnderlying(uint redeemAmount) public returns (uint) {}\r\n    \r\n    /*\r\n    * @notice   The user's underlying balance, representing their assets in the protocol,\r\n    * is equal to the user's vToken balance multiplied by the Exchange Rate.\r\n    * @param    account The account to get the underlying balance of.\r\n    * @return   The amount of underlying currently owned by the account.\r\n    */\r\n    function balanceOfUnderlying(address account) public returns (uint) {}\r\n    \r\n    \r\n    // function exchangeRateCurrent() returns (uint) {}\r\n    //exchangeRate = (getCash() + totalBorrows() - totalReserves()) / totalSupply()\r\n}\r\n\r\n//TODO: move to Bep20.sol\r\ncontract Bep20 {\r\n    /**\r\n   * @dev Sets `amount` as the allowance of `spender` over the caller's tokens.\r\n   *\r\n   * Returns a boolean value indicating whether the operation succeeded.\r\n   *\r\n   * IMPORTANT: Beware that changing an allowance with this method brings the risk\r\n   * that someone may use both the old and the new allowance by unfortunate\r\n   * transaction ordering. One possible solution to mitigate this race\r\n   * condition is to first reduce the spender's allowance to 0 and set the\r\n   * desired value afterwards:\r\n   * https://github.com/ethereum/EIPs/issues/20#issuecomment-263524729\r\n   *\r\n   * Emits an {Approval} event.\r\n   */\r\n  function approve(address spender, uint256 amount) public returns (bool) {}\r\n}\r\n\r\n/*\r\n* @notice Integrates with Venus lending protocol\r\n*/\r\ncontract SmartInvestV1 {\r\n    \r\n    uint256 public totalTreasury;\r\n    address public constant vTOKEN_ADDRESS = 0x08e0A5575De71037aE36AbfAfb516595fE68e5e4; // BSC testnet Venus vTokens (vBUSD)\r\n    address public constant BASE_BEP20 = 0x8301F2213c0eeD49a7E28Ae4c3e91722919B8B47; //underlying asset: BUSD\r\n    \r\n    function invest(uint256 amount) public {\r\n        \r\n        Bep20 underlying = Bep20(BASE_BEP20);     // get a handle for the underlying asset\r\n        VToken vToken = VToken(vTOKEN_ADDRESS);   // get a handle for the corresponding vToken Contract\r\n        underlying.approve(address(vToken), amount); // approve the transfer\r\n        assert(vToken.mint(amount) == 0);            // mint the vTokens and assert there is no error\r\n    }\r\n    \r\n    function redeem(uint256 amount) public {\r\n        VToken vToken = VToken(vTOKEN_ADDRESS);\r\n        require(vToken.redeemUnderlying(amount) == 0, \"something went wrong\");\r\n    }\r\n    \r\n    function getBalance() public {\r\n        VToken vToken = VToken(vTOKEN_ADDRESS);\r\n        uint tokens = vToken.balanceOfUnderlying(msg.sender);\r\n    }\r\n    \r\n    // function exchangeRateCurrent() public {\r\n    //     VBep20 vToken = VToken(vTOKEN_ADDRESS);\r\n    //     uint exchangeRateMantissa = vToken.exchangeRateCurrent();\r\n    // }\r\n    \r\n}\r\n\r\n\r\n// const vTokenDecimals = 8; // all vTokens have 8 decimal places\r\n// const underlying = new web3.eth.Contract(bep20Abi, busdAddress);\r\n// const vToken = new web3.eth.Contract(vTokenAbi, vBusdAddress);\r\n// const underlyingDecimals = await underlying.methods.decimals().call();\r\n// const exchangeRateCurrent = await vToken.methods.exchangeRateCurrent().call();\r\n// const mantissa = 18 + parseInt(underlyingDecimals) - vTokenDecimals;\r\n// const onevTokenInUnderlying = exchangeRateCurrent / Math.pow(10, mantissa);\r\n// console.log('1 vBUSD can be redeemed for', oneVTokenInUnderlying, 'BUSD');",
  "sourcePath": "C:/Users/USER/Desktop/BLOCKCHAIN/SmartBet/contracts/SmartInvestV1.sol",
  "compiler": {
    "name": "solc",
    "version": "0.7.6+commit.7338295f.Emscripten.clang"
  },
  "schemaVersion": "3.3.4",
  "updatedAt": "2021-04-10T01:17:49.359Z",
  "networkType": "ethereum",
  "devdoc": {
    "kind": "dev",
    "methods": {},
    "version": 1
  },
  "userdoc": {
    "kind": "user",
    "methods": {},
    "version": 1
  }
}