{
  "contractName": "SmartBet",
  "abi": [
    {
      "inputs": [],
      "stateMutability": "nonpayable",
      "type": "constructor"
    },
    {
      "anonymous": false,
      "inputs": [
        {
          "indexed": true,
          "internalType": "address",
          "name": "owner",
          "type": "address"
        },
        {
          "indexed": true,
          "internalType": "address",
          "name": "approved",
          "type": "address"
        },
        {
          "indexed": true,
          "internalType": "uint256",
          "name": "tokenId",
          "type": "uint256"
        }
      ],
      "name": "Approval",
      "type": "event"
    },
    {
      "anonymous": false,
      "inputs": [
        {
          "indexed": true,
          "internalType": "address",
          "name": "owner",
          "type": "address"
        },
        {
          "indexed": true,
          "internalType": "address",
          "name": "operator",
          "type": "address"
        },
        {
          "indexed": false,
          "internalType": "bool",
          "name": "approved",
          "type": "bool"
        }
      ],
      "name": "ApprovalForAll",
      "type": "event"
    },
    {
      "anonymous": false,
      "inputs": [
        {
          "indexed": true,
          "internalType": "address",
          "name": "by",
          "type": "address"
        },
        {
          "indexed": true,
          "internalType": "uint256",
          "name": "matchId",
          "type": "uint256"
        },
        {
          "indexed": false,
          "internalType": "uint256",
          "name": "amount",
          "type": "uint256"
        }
      ],
      "name": "AssetLiquidatedEvent",
      "type": "event"
    },
    {
      "anonymous": false,
      "inputs": [
        {
          "indexed": true,
          "internalType": "address",
          "name": "bettor",
          "type": "address"
        },
        {
          "indexed": true,
          "internalType": "uint256",
          "name": "matchId",
          "type": "uint256"
        },
        {
          "indexed": false,
          "internalType": "uint256",
          "name": "amount",
          "type": "uint256"
        },
        {
          "indexed": true,
          "internalType": "uint256",
          "name": "betAt",
          "type": "uint256"
        }
      ],
      "name": "BetPlacedEvent",
      "type": "event"
    },
    {
      "anonymous": false,
      "inputs": [
        {
          "indexed": true,
          "internalType": "bytes32",
          "name": "id",
          "type": "bytes32"
        }
      ],
      "name": "ChainlinkCancelled",
      "type": "event"
    },
    {
      "anonymous": false,
      "inputs": [
        {
          "indexed": true,
          "internalType": "bytes32",
          "name": "id",
          "type": "bytes32"
        }
      ],
      "name": "ChainlinkFulfilled",
      "type": "event"
    },
    {
      "anonymous": false,
      "inputs": [
        {
          "indexed": true,
          "internalType": "bytes32",
          "name": "id",
          "type": "bytes32"
        }
      ],
      "name": "ChainlinkRequested",
      "type": "event"
    },
    {
      "anonymous": false,
      "inputs": [
        {
          "indexed": true,
          "internalType": "address",
          "name": "by",
          "type": "address"
        },
        {
          "indexed": true,
          "internalType": "uint256",
          "name": "matchId",
          "type": "uint256"
        }
      ],
      "name": "MatchClosedEvent",
      "type": "event"
    },
    {
      "anonymous": false,
      "inputs": [
        {
          "indexed": true,
          "internalType": "address",
          "name": "creator",
          "type": "address"
        },
        {
          "indexed": false,
          "internalType": "uint256",
          "name": "matchId",
          "type": "uint256"
        },
        {
          "indexed": true,
          "internalType": "uint256",
          "name": "startAt",
          "type": "uint256"
        }
      ],
      "name": "MatchCreatedEvent",
      "type": "event"
    },
    {
      "anonymous": false,
      "inputs": [
        {
          "indexed": true,
          "internalType": "uint256",
          "name": "matchId",
          "type": "uint256"
        },
        {
          "indexed": false,
          "internalType": "enum SmartBet.MatchResult",
          "name": "result",
          "type": "uint8"
        }
      ],
      "name": "MatchResultSetEvent",
      "type": "event"
    },
    {
      "anonymous": false,
      "inputs": [
        {
          "indexed": true,
          "internalType": "address",
          "name": "from",
          "type": "address"
        },
        {
          "indexed": true,
          "internalType": "address",
          "name": "to",
          "type": "address"
        },
        {
          "indexed": true,
          "internalType": "uint256",
          "name": "tokenId",
          "type": "uint256"
        }
      ],
      "name": "Transfer",
      "type": "event"
    },
    {
      "inputs": [
        {
          "internalType": "address",
          "name": "to",
          "type": "address"
        },
        {
          "internalType": "uint256",
          "name": "tokenId",
          "type": "uint256"
        }
      ],
      "name": "approve",
      "outputs": [],
      "stateMutability": "nonpayable",
      "type": "function"
    },
    {
      "inputs": [
        {
          "internalType": "address",
          "name": "owner",
          "type": "address"
        }
      ],
      "name": "balanceOf",
      "outputs": [
        {
          "internalType": "uint256",
          "name": "",
          "type": "uint256"
        }
      ],
      "stateMutability": "view",
      "type": "function",
      "constant": true
    },
    {
      "inputs": [],
      "name": "baseURI",
      "outputs": [
        {
          "internalType": "string",
          "name": "",
          "type": "string"
        }
      ],
      "stateMutability": "view",
      "type": "function",
      "constant": true
    },
    {
      "inputs": [
        {
          "internalType": "uint256",
          "name": "tokenId",
          "type": "uint256"
        }
      ],
      "name": "getApproved",
      "outputs": [
        {
          "internalType": "address",
          "name": "",
          "type": "address"
        }
      ],
      "stateMutability": "view",
      "type": "function",
      "constant": true
    },
    {
      "inputs": [
        {
          "internalType": "address",
          "name": "owner",
          "type": "address"
        },
        {
          "internalType": "address",
          "name": "operator",
          "type": "address"
        }
      ],
      "name": "isApprovedForAll",
      "outputs": [
        {
          "internalType": "bool",
          "name": "",
          "type": "bool"
        }
      ],
      "stateMutability": "view",
      "type": "function",
      "constant": true
    },
    {
      "inputs": [],
      "name": "name",
      "outputs": [
        {
          "internalType": "string",
          "name": "",
          "type": "string"
        }
      ],
      "stateMutability": "view",
      "type": "function",
      "constant": true
    },
    {
      "inputs": [
        {
          "internalType": "uint256",
          "name": "tokenId",
          "type": "uint256"
        }
      ],
      "name": "ownerOf",
      "outputs": [
        {
          "internalType": "address",
          "name": "",
          "type": "address"
        }
      ],
      "stateMutability": "view",
      "type": "function",
      "constant": true
    },
    {
      "inputs": [
        {
          "internalType": "address",
          "name": "from",
          "type": "address"
        },
        {
          "internalType": "address",
          "name": "to",
          "type": "address"
        },
        {
          "internalType": "uint256",
          "name": "tokenId",
          "type": "uint256"
        }
      ],
      "name": "safeTransferFrom",
      "outputs": [],
      "stateMutability": "nonpayable",
      "type": "function"
    },
    {
      "inputs": [
        {
          "internalType": "address",
          "name": "from",
          "type": "address"
        },
        {
          "internalType": "address",
          "name": "to",
          "type": "address"
        },
        {
          "internalType": "uint256",
          "name": "tokenId",
          "type": "uint256"
        },
        {
          "internalType": "bytes",
          "name": "_data",
          "type": "bytes"
        }
      ],
      "name": "safeTransferFrom",
      "outputs": [],
      "stateMutability": "nonpayable",
      "type": "function"
    },
    {
      "inputs": [
        {
          "internalType": "address",
          "name": "operator",
          "type": "address"
        },
        {
          "internalType": "bool",
          "name": "approved",
          "type": "bool"
        }
      ],
      "name": "setApprovalForAll",
      "outputs": [],
      "stateMutability": "nonpayable",
      "type": "function"
    },
    {
      "inputs": [
        {
          "internalType": "bytes4",
          "name": "interfaceId",
          "type": "bytes4"
        }
      ],
      "name": "supportsInterface",
      "outputs": [
        {
          "internalType": "bool",
          "name": "",
          "type": "bool"
        }
      ],
      "stateMutability": "view",
      "type": "function",
      "constant": true
    },
    {
      "inputs": [],
      "name": "symbol",
      "outputs": [
        {
          "internalType": "string",
          "name": "",
          "type": "string"
        }
      ],
      "stateMutability": "view",
      "type": "function",
      "constant": true
    },
    {
      "inputs": [
        {
          "internalType": "uint256",
          "name": "index",
          "type": "uint256"
        }
      ],
      "name": "tokenByIndex",
      "outputs": [
        {
          "internalType": "uint256",
          "name": "",
          "type": "uint256"
        }
      ],
      "stateMutability": "view",
      "type": "function",
      "constant": true
    },
    {
      "inputs": [
        {
          "internalType": "address",
          "name": "owner",
          "type": "address"
        },
        {
          "internalType": "uint256",
          "name": "index",
          "type": "uint256"
        }
      ],
      "name": "tokenOfOwnerByIndex",
      "outputs": [
        {
          "internalType": "uint256",
          "name": "",
          "type": "uint256"
        }
      ],
      "stateMutability": "view",
      "type": "function",
      "constant": true
    },
    {
      "inputs": [
        {
          "internalType": "uint256",
          "name": "tokenId",
          "type": "uint256"
        }
      ],
      "name": "tokenURI",
      "outputs": [
        {
          "internalType": "string",
          "name": "",
          "type": "string"
        }
      ],
      "stateMutability": "view",
      "type": "function",
      "constant": true
    },
    {
      "inputs": [],
      "name": "totalSupply",
      "outputs": [
        {
          "internalType": "uint256",
          "name": "",
          "type": "uint256"
        }
      ],
      "stateMutability": "view",
      "type": "function",
      "constant": true
    },
    {
      "inputs": [
        {
          "internalType": "address",
          "name": "from",
          "type": "address"
        },
        {
          "internalType": "address",
          "name": "to",
          "type": "address"
        },
        {
          "internalType": "uint256",
          "name": "tokenId",
          "type": "uint256"
        }
      ],
      "name": "transferFrom",
      "outputs": [],
      "stateMutability": "nonpayable",
      "type": "function"
    },
    {
      "inputs": [
        {
          "internalType": "uint256",
          "name": "_apiMatchId",
          "type": "uint256"
        },
        {
          "internalType": "string",
          "name": "_matchResultLink",
          "type": "string"
        },
        {
          "internalType": "uint8",
          "name": "_oddsTeamA",
          "type": "uint8"
        },
        {
          "internalType": "uint8",
          "name": "_oddsTeamB",
          "type": "uint8"
        },
        {
          "internalType": "uint8",
          "name": "_oddsDraw",
          "type": "uint8"
        },
        {
          "internalType": "uint256",
          "name": "_startAt",
          "type": "uint256"
        }
      ],
      "name": "createMatch",
      "outputs": [
        {
          "internalType": "uint256",
          "name": "",
          "type": "uint256"
        }
      ],
      "stateMutability": "nonpayable",
      "type": "function"
    },
    {
      "inputs": [
        {
          "internalType": "uint128",
          "name": "_matchId",
          "type": "uint128"
        },
        {
          "internalType": "uint8",
          "name": "_resultBetOn",
          "type": "uint8"
        }
      ],
      "name": "placeBet",
      "outputs": [
        {
          "internalType": "uint256",
          "name": "",
          "type": "uint256"
        }
      ],
      "stateMutability": "payable",
      "type": "function",
      "payable": true
    },
    {
      "inputs": [
        {
          "internalType": "uint128",
          "name": "_matchId",
          "type": "uint128"
        }
      ],
      "name": "startMatch",
      "outputs": [],
      "stateMutability": "nonpayable",
      "type": "function"
    },
    {
      "inputs": [
        {
          "internalType": "uint128",
          "name": "_matchId",
          "type": "uint128"
        },
        {
          "internalType": "uint8",
          "name": "_matchResult",
          "type": "uint8"
        }
      ],
      "name": "closeMatch",
      "outputs": [],
      "stateMutability": "nonpayable",
      "type": "function"
    },
    {
      "inputs": [
        {
          "internalType": "uint128",
          "name": "_smartAssetId",
          "type": "uint128"
        }
      ],
      "name": "liquidateAsset",
      "outputs": [
        {
          "internalType": "bool",
          "name": "",
          "type": "bool"
        }
      ],
      "stateMutability": "payable",
      "type": "function",
      "payable": true
    },
    {
      "inputs": [],
      "name": "toggleCircuitBreaker",
      "outputs": [],
      "stateMutability": "nonpayable",
      "type": "function"
    },
    {
      "inputs": [
        {
          "internalType": "uint256",
          "name": "_matchId",
          "type": "uint256"
        }
      ],
      "name": "getMatch",
      "outputs": [
        {
          "components": [
            {
              "internalType": "address",
              "name": "creator",
              "type": "address"
            },
            {
              "internalType": "uint8",
              "name": "oddsTeamA",
              "type": "uint8"
            },
            {
              "internalType": "uint8",
              "name": "oddsTeamB",
              "type": "uint8"
            },
            {
              "internalType": "uint8",
              "name": "oddsDraw",
              "type": "uint8"
            },
            {
              "internalType": "string",
              "name": "matchResultLink",
              "type": "string"
            },
            {
              "internalType": "uint256",
              "name": "totalPayoutTeamA",
              "type": "uint256"
            },
            {
              "internalType": "uint256",
              "name": "totalPayoutTeamB",
              "type": "uint256"
            },
            {
              "internalType": "uint256",
              "name": "totalPayoutDraw",
              "type": "uint256"
            },
            {
              "internalType": "uint256",
              "name": "totalCollected",
              "type": "uint256"
            },
            {
              "internalType": "enum SmartBet.MatchResult",
              "name": "result",
              "type": "uint8"
            },
            {
              "internalType": "enum SmartBet.MatchState",
              "name": "state",
              "type": "uint8"
            },
            {
              "internalType": "bool",
              "name": "exists",
              "type": "bool"
            }
          ],
          "internalType": "struct SmartBet.Match",
          "name": "match_",
          "type": "tuple"
        }
      ],
      "stateMutability": "view",
      "type": "function",
      "constant": true
    },
    {
      "inputs": [
        {
          "internalType": "uint256",
          "name": "_smartAssetId",
          "type": "uint256"
        }
      ],
      "name": "getSmartAsset",
      "outputs": [
        {
          "components": [
            {
              "internalType": "address",
              "name": "owner",
              "type": "address"
            },
            {
              "internalType": "uint256",
              "name": "matchId",
              "type": "uint256"
            },
            {
              "internalType": "enum SmartBet.MatchResult",
              "name": "matchResult",
              "type": "uint8"
            },
            {
              "internalType": "uint256",
              "name": "initialValue",
              "type": "uint256"
            },
            {
              "internalType": "uint8",
              "name": "accruedInterest",
              "type": "uint8"
            }
          ],
          "internalType": "struct SmartBet.SmartAsset",
          "name": "asset",
          "type": "tuple"
        }
      ],
      "stateMutability": "view",
      "type": "function",
      "constant": true
    }
  ],
  "bytecode": "0x60806040526001600e556000601360006101000a81548160ff0219169083151502179055503480156200003157600080fd5b506040518060400160405280600881526020017f536d6172744265740000000000000000000000000000000000000000000000008152506040518060400160405280600481526020017f534d425400000000000000000000000000000000000000000000000000000000815250620000b66301ffc9a760e01b6200017960201b60201c565b8160069080519060200190620000ce92919062000282565b508060079080519060200190620000e792919062000282565b50620001006380ac58cd60e01b6200017960201b60201c565b62000118635b5e139f60e01b6200017960201b60201c565b6200013063780e9d6360e01b6200017960201b60201c565b505033601060006101000a81548173ffffffffffffffffffffffffffffffffffffffff021916908373ffffffffffffffffffffffffffffffffffffffff16021790555062000338565b63ffffffff60e01b817bffffffffffffffffffffffffffffffffffffffffffffffffffffffff1916141562000216576040517f08c379a000000000000000000000000000000000000000000000000000000000815260040180806020018281038252601c8152602001807f4552433136353a20696e76616c696420696e746572666163652069640000000081525060200191505060405180910390fd5b6001600080837bffffffffffffffffffffffffffffffffffffffffffffffffffffffff19167bffffffffffffffffffffffffffffffffffffffffffffffffffffffff1916815260200190815260200160002060006101000a81548160ff02191690831515021790555050565b828054600181600116156101000203166002900490600052602060002090601f016020900481019282620002ba576000855562000306565b82601f10620002d557805160ff191683800117855562000306565b8280016001018555821562000306579182015b8281111562000305578251825591602001919060010190620002e8565b5b50905062000315919062000319565b5090565b5b80821115620003345760008160009055506001016200031a565b5090565b61576980620003486000396000f3fe6080604052600436106101665760003560e01c806358d33e6d116100d1578063a22cb4651161008a578063cec85ad711610064578063cec85ad714610592578063d2c2cc84146105bb578063d5eb63cc146105f8578063e985e9c51461060f57610166565b8063a22cb46514610503578063b88d4fde1461052c578063c87b56dd1461055557610166565b806358d33e6d146103d35780636352211e146104035780636c0360eb1461044057806370a082311461046b57806395d89b41146104a8578063a09506b5146104d357610166565b806323b872dd1161012357806323b872dd1461028d5780632f745c59146102b65780633d092b3d146102f357806342842e0e146103305780634f6ccce71461035957806352d21e231461039657610166565b806301ffc9a71461016b57806306fdde03146101a8578063081812fc146101d3578063095ea7b3146102105780630e5cc1a51461023957806318160ddd14610262575b600080fd5b34801561017757600080fd5b50610192600480360381019061018d91906148ed565b61064c565b60405161019f9190615040565b60405180910390f35b3480156101b457600080fd5b506101bd6106b3565b6040516101ca9190615076565b60405180910390f35b3480156101df57600080fd5b506101fa60048036038101906101f5919061497b565b610755565b6040516102079190615025565b60405180910390f35b34801561021c57600080fd5b50610237600480360381019061023291906148b1565b6107f0565b005b34801561024557600080fd5b50610260600480360381019061025b9190614916565b610934565b005b34801561026e57600080fd5b50610277610b18565b6040516102849190615275565b60405180910390f35b34801561029957600080fd5b506102b460048036038101906102af91906147ab565b610b29565b005b3480156102c257600080fd5b506102dd60048036038101906102d891906148b1565b610b9f565b6040516102ea9190615275565b60405180910390f35b3480156102ff57600080fd5b5061031a6004803603810190610315919061497b565b610bfa565b6040516103279190615238565b60405180910390f35b34801561033c57600080fd5b50610357600480360381019061035291906147ab565b610e79565b005b34801561036557600080fd5b50610380600480360381019061037b919061497b565b610e99565b60405161038d9190615275565b60405180910390f35b3480156103a257600080fd5b506103bd60048036038101906103b891906149a4565b610ebc565b6040516103ca9190615275565b60405180910390f35b6103ed60048036038101906103e8919061493f565b611283565b6040516103fa9190615275565b60405180910390f35b34801561040f57600080fd5b5061042a6004803603810190610425919061497b565b611836565b6040516104379190615025565b60405180910390f35b34801561044c57600080fd5b5061045561186d565b6040516104629190615076565b60405180910390f35b34801561047757600080fd5b50610492600480360381019061048d9190614746565b61190f565b60405161049f9190615275565b60405180910390f35b3480156104b457600080fd5b506104bd6119e4565b6040516104ca9190615076565b60405180910390f35b6104ed60048036038101906104e89190614916565b611a86565b6040516104fa9190615040565b60405180910390f35b34801561050f57600080fd5b5061052a60048036038101906105259190614875565b611e33565b005b34801561053857600080fd5b50610553600480360381019061054e91906147fa565b611fe9565b005b34801561056157600080fd5b5061057c6004803603810190610577919061497b565b612061565b6040516105899190615076565b60405180910390f35b34801561059e57600080fd5b506105b960048036038101906105b4919061493f565b61234a565b005b3480156105c757600080fd5b506105e260048036038101906105dd919061497b565b612a9a565b6040516105ef919061525a565b60405180910390f35b34801561060457600080fd5b5061060d612c3d565b005b34801561061b57600080fd5b506106366004803603810190610631919061476f565b612cf9565b6040516106439190615040565b60405180910390f35b6000806000837bffffffffffffffffffffffffffffffffffffffffffffffffffffffff19167bffffffffffffffffffffffffffffffffffffffffffffffffffffffff1916815260200190815260200160002060009054906101000a900460ff169050919050565b606060068054600181600116156101000203166002900480601f01602080910402602001604051908101604052809291908181526020018280546001816001161561010002031660029004801561074b5780601f106107205761010080835404028352916020019161074b565b820191906000526020600020905b81548152906001019060200180831161072e57829003601f168201915b5050505050905090565b600061076082612d8d565b6107b5576040517f08c379a000000000000000000000000000000000000000000000000000000000815260040180806020018281038252602c81526020018061565e602c913960400191505060405180910390fd5b6004600083815260200190815260200160002060009054906101000a900473ffffffffffffffffffffffffffffffffffffffff169050919050565b60006107fb82611836565b90508073ffffffffffffffffffffffffffffffffffffffff168373ffffffffffffffffffffffffffffffffffffffff161415610882576040517f08c379a00000000000000000000000000000000000000000000000000000000081526004018080602001828103825260218152602001806156e26021913960400191505060405180910390fd5b8073ffffffffffffffffffffffffffffffffffffffff166108a1612daa565b73ffffffffffffffffffffffffffffffffffffffff1614806108d057506108cf816108ca612daa565b612cf9565b5b610925576040517f08c379a00000000000000000000000000000000000000000000000000000000081526004018080602001828103825260388152602001806155b16038913960400191505060405180910390fd5b61092f8383612db2565b505050565b601060009054906101000a900473ffffffffffffffffffffffffffffffffffffffff1673ffffffffffffffffffffffffffffffffffffffff163373ffffffffffffffffffffffffffffffffffffffff16146109c4576040517f08c379a00000000000000000000000000000000000000000000000000000000081526004016109bb90615138565b60405180910390fd5b806fffffffffffffffffffffffffffffffff166015600082815260200190815260200160002060060160029054906101000a900460ff16610a3a576040517f08c379a0000000000000000000000000000000000000000000000000000000008152600401610a3190615198565b60405180910390fd5b816fffffffffffffffffffffffffffffffff1660006002811115610a5a57fe5b6015600083815260200190815260200160002060060160019054906101000a900460ff166002811115610a8957fe5b14610ac9576040517f08c379a0000000000000000000000000000000000000000000000000000000008152600401610ac090615118565b60405180910390fd5b600160156000856fffffffffffffffffffffffffffffffff16815260200190815260200160002060060160016101000a81548160ff02191690836002811115610b0e57fe5b0217905550505050565b6000610b246002612e6b565b905090565b610b3a610b34612daa565b82612e80565b610b8f576040517f08c379a00000000000000000000000000000000000000000000000000000000081526004018080602001828103825260318152602001806157036031913960400191505060405180910390fd5b610b9a838383612f74565b505050565b6000610bf282600160008673ffffffffffffffffffffffffffffffffffffffff1673ffffffffffffffffffffffffffffffffffffffff1681526020019081526020016000206131b790919063ffffffff16565b905092915050565b610c02614438565b816015600082815260200190815260200160002060060160029054906101000a900460ff16610c66576040517f08c379a0000000000000000000000000000000000000000000000000000000008152600401610c5d90615198565b60405180910390fd5b60156000848152602001908152602001600020604051806101800160405290816000820160009054906101000a900473ffffffffffffffffffffffffffffffffffffffff1673ffffffffffffffffffffffffffffffffffffffff1673ffffffffffffffffffffffffffffffffffffffff1681526020016000820160149054906101000a900460ff1660ff1660ff1681526020016000820160159054906101000a900460ff1660ff1660ff1681526020016000820160169054906101000a900460ff1660ff1660ff168152602001600182018054600181600116156101000203166002900480601f016020809104026020016040519081016040528092919081815260200182805460018160011615610100020316600290048015610dcb5780601f10610da057610100808354040283529160200191610dcb565b820191906000526020600020905b815481529060010190602001808311610dae57829003601f168201915b50505050508152602001600282015481526020016003820154815260200160048201548152602001600582015481526020016006820160009054906101000a900460ff166003811115610e1a57fe5b6003811115610e2557fe5b81526020016006820160019054906101000a900460ff166002811115610e4757fe5b6002811115610e5257fe5b81526020016006820160029054906101000a900460ff161515151581525050915050919050565b610e9483838360405180602001604052806000815250611fe9565b505050565b600080610eb08360026131d190919063ffffffff16565b50905080915050919050565b6000876000601660008381526020019081526020016000205414610f15576040517f08c379a0000000000000000000000000000000000000000000000000000000008152600401610f0c90615158565b60405180910390fd5b601060009054906101000a900473ffffffffffffffffffffffffffffffffffffffff1673ffffffffffffffffffffffffffffffffffffffff163373ffffffffffffffffffffffffffffffffffffffff1614610fa5576040517f08c379a0000000000000000000000000000000000000000000000000000000008152600401610f9c90615138565b60405180910390fd5b610faf60116131fd565b6000610fbb6011613213565b90506040518061018001604052803373ffffffffffffffffffffffffffffffffffffffff1681526020018860ff1681526020018760ff1681526020018660ff1681526020018a8a8080601f016020809104026020016040519081016040528093929190818152602001838380828437600081840152601f19601f820116905080830192505050505050508152602001600081526020016000815260200160008152602001600081526020016000600381111561107357fe5b81526020016000600281111561108557fe5b8152602001600115158152506015600083815260200190815260200160002060008201518160000160006101000a81548173ffffffffffffffffffffffffffffffffffffffff021916908373ffffffffffffffffffffffffffffffffffffffff16021790555060208201518160000160146101000a81548160ff021916908360ff16021790555060408201518160000160156101000a81548160ff021916908360ff16021790555060608201518160000160166101000a81548160ff021916908360ff160217905550608082015181600101908051906020019061116a9291906144d0565b5060a0820151816002015560c0820151816003015560e0820151816004015561010082015181600501556101208201518160060160006101000a81548160ff021916908360038111156111b957fe5b02179055506101408201518160060160016101000a81548160ff021916908360028111156111e357fe5b02179055506101608201518160060160026101000a81548160ff02191690831515021790555090505080601660008c815260200190815260200160002081905550833373ffffffffffffffffffffffffffffffffffffffff167f9c41d0472bb62aee75a85dca16a8f3b2b269f20ba7c366f9f1c01a418f96c4908360405161126b9190615275565b60405180910390a38092505050979650505050505050565b6000601360009054906101000a900460ff16156112d5576040517f08c379a00000000000000000000000000000000000000000000000000000000081526004016112cc90615178565b60405180910390fd5b826fffffffffffffffffffffffffffffffff166015600082815260200190815260200160002060060160029054906101000a900460ff1661134b576040517f08c379a000000000000000000000000000000000000000000000000000000000815260040161134290615198565b60405180910390fd5b836fffffffffffffffffffffffffffffffff166000600281111561136b57fe5b6015600083815260200190815260200160002060060160019054906101000a900460ff16600281111561139a57fe5b146113da576040517f08c379a00000000000000000000000000000000000000000000000000000000081526004016113d190615118565b60405180910390fd5b846fffffffffffffffffffffffffffffffff16600161142e576040517f08c379a0000000000000000000000000000000000000000000000000000000008152600401611425906151b8565b60405180910390fd5b846002600381111561143c57fe5b8160ff16600381111561144b57fe5b600381111561145657fe5b1480611485575060038081111561146957fe5b8160ff16600381111561147857fe5b600381111561148357fe5b145b806114b457506001600381111561149857fe5b8160ff1660038111156114a757fe5b60038111156114b257fe5b145b6114f3576040517f08c379a00000000000000000000000000000000000000000000000000000000081526004016114ea906150d8565b60405180910390fd5b6000341415611537576040517f08c379a000000000000000000000000000000000000000000000000000000000815260040161152e906151d8565b60405180910390fd5b600033905060003490506000808960ff16600381111561155357fe5b90506002600381111561156257fe5b81600381111561156e57fe5b14156115ec57601560008c6fffffffffffffffffffffffffffffffff16815260200190815260200160002060000160149054906101000a900460ff1660ff168302915081601560008d6fffffffffffffffffffffffffffffffff168152602001908152602001600020600201600082825401925050819055506116f7565b6003808111156115f857fe5b81600381111561160457fe5b141561168257601560008c6fffffffffffffffffffffffffffffffff16815260200190815260200160002060000160159054906101000a900460ff1660ff168302915081601560008d6fffffffffffffffffffffffffffffffff168152602001908152602001600020600301600082825401925050819055506116f6565b601560008c6fffffffffffffffffffffffffffffffff16815260200190815260200160002060000160169054906101000a900460ff1660ff168302915081601560008d6fffffffffffffffffffffffffffffffff168152602001908152602001600020600401600082825401925050819055505b5b82601560008d6fffffffffffffffffffffffffffffffff16815260200190815260200160002060050160008282540192505081905550600061174d85848e6fffffffffffffffffffffffffffffffff1685613221565b9050601760008d6fffffffffffffffffffffffffffffffff168152602001908152602001600020600083600381111561178257fe5b600381111561178d57fe5b8152602001908152602001600020819080600181540180825580915050600190039060005260206000200160009091909190915055428c6fffffffffffffffffffffffffffffffff168673ffffffffffffffffffffffffffffffffffffffff167fb1283c9c8bacdf8cd70a313323578124c5fe2beedea39d5b268157d1638236aa8760405161181c9190615275565b60405180910390a480995050505050505050505092915050565b6000611866826040518060600160405280602981526020016156136029913960026133589092919063ffffffff16565b9050919050565b606060098054600181600116156101000203166002900480601f0160208091040260200160405190810160405280929190818152602001828054600181600116156101000203166002900480156119055780601f106118da57610100808354040283529160200191611905565b820191906000526020600020905b8154815290600101906020018083116118e857829003601f168201915b5050505050905090565b60008073ffffffffffffffffffffffffffffffffffffffff168273ffffffffffffffffffffffffffffffffffffffff161415611996576040517f08c379a000000000000000000000000000000000000000000000000000000000815260040180806020018281038252602a8152602001806155e9602a913960400191505060405180910390fd5b6119dd600160008473ffffffffffffffffffffffffffffffffffffffff1673ffffffffffffffffffffffffffffffffffffffff168152602001908152602001600020613377565b9050919050565b606060078054600181600116156101000203166002900480601f016020809104026020016040519081016040528092919081815260200182805460018160011615610100020316600290048015611a7c5780601f10611a5157610100808354040283529160200191611a7c565b820191906000526020600020905b815481529060010190602001808311611a5f57829003601f168201915b5050505050905090565b6000601360009054906101000a900460ff1615611ad8576040517f08c379a0000000000000000000000000000000000000000000000000000000008152600401611acf90615178565b60405180910390fd5b816fffffffffffffffffffffffffffffffff16611af481612d8d565b611b33576040517f08c379a0000000000000000000000000000000000000000000000000000000008152600401611b2a906150b8565b60405180910390fd5b826fffffffffffffffffffffffffffffffff163373ffffffffffffffffffffffffffffffffffffffff16611b6682611836565b73ffffffffffffffffffffffffffffffffffffffff1614611bbc576040517f08c379a0000000000000000000000000000000000000000000000000000000008152600401611bb3906150f8565b60405180910390fd5b600060146000866fffffffffffffffffffffffffffffffff1681526020019081526020016000206040518060a00160405290816000820160009054906101000a900473ffffffffffffffffffffffffffffffffffffffff1673ffffffffffffffffffffffffffffffffffffffff1673ffffffffffffffffffffffffffffffffffffffff168152602001600182015481526020016002820160009054906101000a900460ff166003811115611c6c57fe5b6003811115611c7757fe5b8152602001600382015481526020016004820160009054906101000a900460ff1660ff1660ff16815250509050600280811115611cb057fe5b601560008360200151815260200190815260200160002060060160019054906101000a900460ff166002811115611ce357fe5b14611d23576040517f08c379a0000000000000000000000000000000000000000000000000000000008152600401611d1a90615218565b60405180910390fd5b8060600151471015611d6a576040517f08c379a0000000000000000000000000000000000000000000000000000000008152600401611d6190615098565b60405180910390fd5b611d85856fffffffffffffffffffffffffffffffff1661338c565b3373ffffffffffffffffffffffffffffffffffffffff166108fc82606001519081150290604051600060405180830381858888f19350505050158015611dcf573d6000803e3d6000fd5b5080602001513373ffffffffffffffffffffffffffffffffffffffff167f8b14c07a5f5edcab63b0a66e390f4caaa6b0c716759849f59ec813e4b1e5b13e8360600151604051611e1f9190615275565b60405180910390a360019350505050919050565b611e3b612daa565b73ffffffffffffffffffffffffffffffffffffffff168273ffffffffffffffffffffffffffffffffffffffff161415611edc576040517f08c379a00000000000000000000000000000000000000000000000000000000081526004018080602001828103825260198152602001807f4552433732313a20617070726f766520746f2063616c6c65720000000000000081525060200191505060405180910390fd5b8060056000611ee9612daa565b73ffffffffffffffffffffffffffffffffffffffff1673ffffffffffffffffffffffffffffffffffffffff16815260200190815260200160002060008473ffffffffffffffffffffffffffffffffffffffff1673ffffffffffffffffffffffffffffffffffffffff16815260200190815260200160002060006101000a81548160ff0219169083151502179055508173ffffffffffffffffffffffffffffffffffffffff16611f96612daa565b73ffffffffffffffffffffffffffffffffffffffff167f17307eab39ab6107e8899845ad3d59bd9653f200f220920489ca2b5937696c318360405180821515815260200191505060405180910390a35050565b611ffa611ff4612daa565b83612e80565b61204f576040517f08c379a00000000000000000000000000000000000000000000000000000000081526004018080602001828103825260318152602001806157036031913960400191505060405180910390fd5b61205b84848484613398565b50505050565b606061206c82612d8d565b6120c1576040517f08c379a000000000000000000000000000000000000000000000000000000000815260040180806020018281038252602f8152602001806156b3602f913960400191505060405180910390fd5b6000600860008481526020019081526020016000208054600181600116156101000203166002900480601f01602080910402602001604051908101604052809291908181526020018280546001816001161561010002031660029004801561216a5780601f1061213f5761010080835404028352916020019161216a565b820191906000526020600020905b81548152906001019060200180831161214d57829003601f168201915b505050505090506000600980546001816001161561010002031660029004905014156121995780915050612345565b6000815111156122725760098160405160200180838054600181600116156101000203166002900480156122045780601f106121e2576101008083540402835291820191612204565b820191906000526020600020905b8154815290600101906020018083116121f0575b505082805190602001908083835b602083106122355780518252602082019150602081019050602083039250612212565b6001836020036101000a03801982511681845116808217855250505050505090500192505050604051602081830303815290604052915050612345565b600961227d8461340a565b60405160200180838054600181600116156101000203166002900480156122db5780601f106122b95761010080835404028352918201916122db565b820191906000526020600020905b8154815290600101906020018083116122c7575b505082805190602001908083835b6020831061230c57805182526020820191506020810190506020830392506122e9565b6001836020036101000a038019825116818451168082178552505050505050905001925050506040516020818303038152906040529150505b919050565b601060009054906101000a900473ffffffffffffffffffffffffffffffffffffffff1673ffffffffffffffffffffffffffffffffffffffff163373ffffffffffffffffffffffffffffffffffffffff16146123da576040517f08c379a00000000000000000000000000000000000000000000000000000000081526004016123d190615138565b60405180910390fd5b816fffffffffffffffffffffffffffffffff166015600082815260200190815260200160002060060160029054906101000a900460ff16612450576040517f08c379a000000000000000000000000000000000000000000000000000000000815260040161244790615198565b60405180910390fd5b826fffffffffffffffffffffffffffffffff166001600281111561247057fe5b6015600083815260200190815260200160002060060160019054906101000a900460ff16600281111561249f57fe5b146124df576040517f08c379a00000000000000000000000000000000000000000000000000000000081526004016124d6906151f8565b60405180910390fd5b82600260038111156124ed57fe5b8160ff1660038111156124fc57fe5b600381111561250757fe5b1480612536575060038081111561251a57fe5b8160ff16600381111561252957fe5b600381111561253457fe5b145b8061256557506001600381111561254957fe5b8160ff16600381111561255857fe5b600381111561256357fe5b145b6125a4576040517f08c379a000000000000000000000000000000000000000000000000000000000815260040161259b906150d8565b60405180910390fd5b600260156000876fffffffffffffffffffffffffffffffff16815260200190815260200160002060060160016101000a81548160ff021916908360028111156125e957fe5b021790555060008460ff1660038111156125ff57fe5b905061261d866fffffffffffffffffffffffffffffffff1682613551565b6002600381111561262a57fe5b81600381111561263657fe5b1415612788576126df60176000886fffffffffffffffffffffffffffffffff168152602001908152602001600020600060038081111561267257fe5b600381111561267d57fe5b81526020019081526020016000208054806020026020016040519081016040528092919081815260200182805480156126d557602002820191906000526020600020905b8154815260200190600101908083116126c1575b50505050506135e7565b61278360176000886fffffffffffffffffffffffffffffffff16815260200190815260200160002060006001600381111561271657fe5b600381111561272157fe5b815260200190815260200160002080548060200260200160405190810160405280929190818152602001828054801561277957602002820191906000526020600020905b815481526020019060010190808311612765575b50505050506135e7565b612a3c565b60038081111561279457fe5b8160038111156127a057fe5b14156128f35761284a60176000886fffffffffffffffffffffffffffffffff1681526020019081526020016000206000600260038111156127dd57fe5b60038111156127e857fe5b815260200190815260200160002080548060200260200160405190810160405280929190818152602001828054801561284057602002820191906000526020600020905b81548152602001906001019080831161282c575b50505050506135e7565b6128ee60176000886fffffffffffffffffffffffffffffffff16815260200190815260200160002060006001600381111561288157fe5b600381111561288c57fe5b81526020019081526020016000208054806020026020016040519081016040528092919081815260200182805480156128e457602002820191906000526020600020905b8154815260200190600101908083116128d0575b50505050506135e7565b612a3b565b61299760176000886fffffffffffffffffffffffffffffffff16815260200190815260200160002060006002600381111561292a57fe5b600381111561293557fe5b815260200190815260200160002080548060200260200160405190810160405280929190818152602001828054801561298d57602002820191906000526020600020905b815481526020019060010190808311612979575b50505050506135e7565b612a3a60176000886fffffffffffffffffffffffffffffffff16815260200190815260200160002060006003808111156129cd57fe5b60038111156129d857fe5b8152602001908152602001600020805480602002602001604051908101604052809291908181526020018280548015612a3057602002820191906000526020600020905b815481526020019060010190808311612a1c575b50505050506135e7565b5b5b856fffffffffffffffffffffffffffffffff163373ffffffffffffffffffffffffffffffffffffffff167f82a1f841f29c1b44e5b770fc8814b767703346d61db831ba1c862bfa9cc6ac5960405160405180910390a3505050505050565b612aa261455e565b81612aac81612d8d565b612aeb576040517f08c379a0000000000000000000000000000000000000000000000000000000008152600401612ae2906150b8565b60405180910390fd5b823373ffffffffffffffffffffffffffffffffffffffff16612b0c82611836565b73ffffffffffffffffffffffffffffffffffffffff1614612b62576040517f08c379a0000000000000000000000000000000000000000000000000000000008152600401612b59906150f8565b60405180910390fd5b601460008581526020019081526020016000206040518060a00160405290816000820160009054906101000a900473ffffffffffffffffffffffffffffffffffffffff1673ffffffffffffffffffffffffffffffffffffffff1673ffffffffffffffffffffffffffffffffffffffff168152602001600182015481526020016002820160009054906101000a900460ff166003811115612bfe57fe5b6003811115612c0957fe5b8152602001600382015481526020016004820160009054906101000a900460ff1660ff1660ff168152505092505050919050565b601060009054906101000a900473ffffffffffffffffffffffffffffffffffffffff1673ffffffffffffffffffffffffffffffffffffffff163373ffffffffffffffffffffffffffffffffffffffff1614612ccd576040517f08c379a0000000000000000000000000000000000000000000000000000000008152600401612cc490615138565b60405180910390fd5b601360009054906101000a900460ff1615601360006101000a81548160ff021916908315150217905550565b6000600560008473ffffffffffffffffffffffffffffffffffffffff1673ffffffffffffffffffffffffffffffffffffffff16815260200190815260200160002060008373ffffffffffffffffffffffffffffffffffffffff1673ffffffffffffffffffffffffffffffffffffffff16815260200190815260200160002060009054906101000a900460ff16905092915050565b6000612da382600261362090919063ffffffff16565b9050919050565b600033905090565b816004600083815260200190815260200160002060006101000a81548173ffffffffffffffffffffffffffffffffffffffff021916908373ffffffffffffffffffffffffffffffffffffffff160217905550808273ffffffffffffffffffffffffffffffffffffffff16612e2583611836565b73ffffffffffffffffffffffffffffffffffffffff167f8c5be1e5ebec7d5bd14f71427d1e84f3dd0314c0f7b2291e5b200ac8c7c3b92560405160405180910390a45050565b6000612e798260000161363a565b9050919050565b6000612e8b82612d8d565b612ee0576040517f08c379a000000000000000000000000000000000000000000000000000000000815260040180806020018281038252602c815260200180615585602c913960400191505060405180910390fd5b6000612eeb83611836565b90508073ffffffffffffffffffffffffffffffffffffffff168473ffffffffffffffffffffffffffffffffffffffff161480612f5a57508373ffffffffffffffffffffffffffffffffffffffff16612f4284610755565b73ffffffffffffffffffffffffffffffffffffffff16145b80612f6b5750612f6a8185612cf9565b5b91505092915050565b8273ffffffffffffffffffffffffffffffffffffffff16612f9482611836565b73ffffffffffffffffffffffffffffffffffffffff1614613000576040517f08c379a000000000000000000000000000000000000000000000000000000000815260040180806020018281038252602981526020018061568a6029913960400191505060405180910390fd5b600073ffffffffffffffffffffffffffffffffffffffff168273ffffffffffffffffffffffffffffffffffffffff161415613086576040517f08c379a00000000000000000000000000000000000000000000000000000000081526004018080602001828103825260248152602001806155616024913960400191505060405180910390fd5b61309183838361364b565b61309c600082612db2565b6130ed81600160008673ffffffffffffffffffffffffffffffffffffffff1673ffffffffffffffffffffffffffffffffffffffff16815260200190815260200160002061365090919063ffffffff16565b5061313f81600160008573ffffffffffffffffffffffffffffffffffffffff1673ffffffffffffffffffffffffffffffffffffffff16815260200190815260200160002061366a90919063ffffffff16565b50613156818360026136849092919063ffffffff16565b50808273ffffffffffffffffffffffffffffffffffffffff168473ffffffffffffffffffffffffffffffffffffffff167fddf252ad1be2c89b69c2b068fc378daa952ba7f163c4a11628f55a4df523b3ef60405160405180910390a4505050565b60006131c683600001836136b9565b60001c905092915050565b6000806000806131e4866000018661373c565b915091508160001c8160001c9350935050509250929050565b6001816000016000828254019250508190555050565b600081600001549050919050565b600061322d60126131fd565b60006132396012613213565b905061324586826137d5565b6040518060a001604052803373ffffffffffffffffffffffffffffffffffffffff16815260200185815260200184600381111561327e57fe5b8152602001868152602001600060ff168152506014600083815260200190815260200160002060008201518160000160006101000a81548173ffffffffffffffffffffffffffffffffffffffff021916908373ffffffffffffffffffffffffffffffffffffffff1602179055506020820151816001015560408201518160020160006101000a81548160ff0219169083600381111561331957fe5b02179055506060820151816003015560808201518160040160006101000a81548160ff021916908360ff16021790555090505080915050949350505050565b600061336b846000018460001b846139c9565b60001c90509392505050565b600061338582600001613abf565b9050919050565b61339581613ad0565b50565b6133a3848484612f74565b6133af84848484613c0a565b613404576040517f08c379a000000000000000000000000000000000000000000000000000000000815260040180806020018281038252603281526020018061552f6032913960400191505060405180910390fd5b50505050565b60606000821415613452576040518060400160405280600181526020017f3000000000000000000000000000000000000000000000000000000000000000815250905061354c565b600082905060005b6000821461347c578080600101915050600a828161347457fe5b04915061345a565b60008167ffffffffffffffff8111801561349557600080fd5b506040519080825280601f01601f1916602001820160405280156134c85781602001600182028036833780820191505090505b50905060006001830390508593505b6000841461354457600a84816134e957fe5b0660300160f81b8282806001900393508151811061350357fe5b60200101907effffffffffffffffffffffffffffffffffffffffffffffffffffffffffffff1916908160001a905350600a848161353c57fe5b0493506134d7565b819450505050505b919050565b806015600084815260200190815260200160002060060160006101000a81548160ff0219169083600381111561358357fe5b0217905550817f25b940ec92bb2718a0a1889133d16092ddc2dba848990f230247a6ba0a927f506015600085815260200190815260200160002060060160009054906101000a900460ff166040516135db919061505b565b60405180910390a25050565b60005b815181101561361c5761360f82828151811061360257fe5b602002602001015161338c565b80806001019150506135ea565b5050565b6000613632836000018360001b613e23565b905092915050565b600081600001805490509050919050565b505050565b6000613662836000018360001b613e46565b905092915050565b600061367c836000018360001b613f2e565b905092915050565b60006136b0846000018460001b8473ffffffffffffffffffffffffffffffffffffffff1660001b613f9e565b90509392505050565b60008183600001805490501161371a576040517f08c379a000000000000000000000000000000000000000000000000000000000815260040180806020018281038252602281526020018061550d6022913960400191505060405180910390fd5b82600001828154811061372957fe5b9060005260206000200154905092915050565b6000808284600001805490501161379e576040517f08c379a000000000000000000000000000000000000000000000000000000000815260040180806020018281038252602281526020018061563c6022913960400191505060405180910390fd5b60008460000184815481106137af57fe5b906000526020600020906002020190508060000154816001015492509250509250929050565b600073ffffffffffffffffffffffffffffffffffffffff168273ffffffffffffffffffffffffffffffffffffffff161415613878576040517f08c379a00000000000000000000000000000000000000000000000000000000081526004018080602001828103825260208152602001807f4552433732313a206d696e7420746f20746865207a65726f206164647265737381525060200191505060405180910390fd5b61388181612d8d565b156138f4576040517f08c379a000000000000000000000000000000000000000000000000000000000815260040180806020018281038252601c8152602001807f4552433732313a20746f6b656e20616c7265616479206d696e7465640000000081525060200191505060405180910390fd5b6139006000838361364b565b61395181600160008573ffffffffffffffffffffffffffffffffffffffff1673ffffffffffffffffffffffffffffffffffffffff16815260200190815260200160002061366a90919063ffffffff16565b50613968818360026136849092919063ffffffff16565b50808273ffffffffffffffffffffffffffffffffffffffff16600073ffffffffffffffffffffffffffffffffffffffff167fddf252ad1be2c89b69c2b068fc378daa952ba7f163c4a11628f55a4df523b3ef60405160405180910390a45050565b60008084600101600085815260200190815260200160002054905060008114158390613a90576040517f08c379a00000000000000000000000000000000000000000000000000000000081526004018080602001828103825283818151815260200191508051906020019080838360005b83811015613a55578082015181840152602081019050613a3a565b50505050905090810190601f168015613a825780820380516001836020036101000a031916815260200191505b509250505060405180910390fd5b50846000016001820381548110613aa357fe5b9060005260206000209060020201600101549150509392505050565b600081600001805490509050919050565b6000613adb82611836565b9050613ae98160008461364b565b613af4600083612db2565b60006008600084815260200190815260200160002080546001816001161561010002031660029004905014613b4357600860008381526020019081526020016000206000613b4291906145b1565b5b613b9482600160008473ffffffffffffffffffffffffffffffffffffffff1673ffffffffffffffffffffffffffffffffffffffff16815260200190815260200160002061365090919063ffffffff16565b50613ba982600261407a90919063ffffffff16565b5081600073ffffffffffffffffffffffffffffffffffffffff168273ffffffffffffffffffffffffffffffffffffffff167fddf252ad1be2c89b69c2b068fc378daa952ba7f163c4a11628f55a4df523b3ef60405160405180910390a45050565b6000613c2b8473ffffffffffffffffffffffffffffffffffffffff16614094565b613c385760019050613e1b565b6000613da263150b7a0260e01b613c4d612daa565b888787604051602401808573ffffffffffffffffffffffffffffffffffffffff1681526020018473ffffffffffffffffffffffffffffffffffffffff16815260200183815260200180602001828103825283818151815260200191508051906020019080838360005b83811015613cd1578082015181840152602081019050613cb6565b50505050905090810190601f168015613cfe5780820380516001836020036101000a031916815260200191505b5095505050505050604051602081830303815290604052907bffffffffffffffffffffffffffffffffffffffffffffffffffffffff19166020820180517bffffffffffffffffffffffffffffffffffffffffffffffffffffffff838183161783525050505060405180606001604052806032815260200161552f603291398773ffffffffffffffffffffffffffffffffffffffff166140df9092919063ffffffff16565b90506000818060200190516020811015613dbb57600080fd5b8101908080519060200190929190505050905063150b7a0260e01b7bffffffffffffffffffffffffffffffffffffffffffffffffffffffff1916817bffffffffffffffffffffffffffffffffffffffffffffffffffffffff191614925050505b949350505050565b600080836001016000848152602001908152602001600020541415905092915050565b60008083600101600084815260200190815260200160002054905060008114613f225760006001820390506000600186600001805490500390506000866000018281548110613e9157fe5b9060005260206000200154905080876000018481548110613eae57fe5b9060005260206000200181905550600183018760010160008381526020019081526020016000208190555086600001805480613ee657fe5b60019003818190600052602060002001600090559055866001016000878152602001908152602001600020600090556001945050505050613f28565b60009150505b92915050565b6000613f3a83836140f7565b613f93578260000182908060018154018082558091505060019003906000526020600020016000909190919091505582600001805490508360010160008481526020019081526020016000208190555060019050613f98565b600090505b92915050565b600080846001016000858152602001908152602001600020549050600081141561404557846000016040518060400160405280868152602001858152509080600181540180825580915050600190039060005260206000209060020201600090919091909150600082015181600001556020820151816001015550508460000180549050856001016000868152602001908152602001600020819055506001915050614073565b8285600001600183038154811061405857fe5b90600052602060002090600202016001018190555060009150505b9392505050565b600061408c836000018360001b61411a565b905092915050565b60008060007fc5d2460186f7233c927e7db2dcc703c0e500b653ca82273b7bfad8045d85a47060001b9050833f91508082141580156140d657506000801b8214155b92505050919050565b60606140ee8484600085614233565b90509392505050565b600080836001016000848152602001908152602001600020541415905092915050565b60008083600101600084815260200190815260200160002054905060008114614227576000600182039050600060018660000180549050039050600086600001828154811061416557fe5b906000526020600020906002020190508087600001848154811061418557fe5b90600052602060002090600202016000820154816000015560018201548160010155905050600183018760010160008360000154815260200190815260200160002081905550866000018054806141d857fe5b600190038181906000526020600020906002020160008082016000905560018201600090555050905586600101600087815260200190815260200160002060009055600194505050505061422d565b60009150505b92915050565b606061423e85614094565b6142b0576040517f08c379a000000000000000000000000000000000000000000000000000000000815260040180806020018281038252601d8152602001807f416464726573733a2063616c6c20746f206e6f6e2d636f6e747261637400000081525060200191505060405180910390fd5b6000808673ffffffffffffffffffffffffffffffffffffffff1685876040518082805190602001908083835b602083106142ff57805182526020820191506020810190506020830392506142dc565b6001836020036101000a03801982511681845116808217855250505050505090500191505060006040518083038185875af1925050503d8060008114614361576040519150601f19603f3d011682016040523d82523d6000602084013e614366565b606091505b5091509150811561437b578092505050614430565b60008151111561438e5780518082602001fd5b836040517f08c379a00000000000000000000000000000000000000000000000000000000081526004018080602001828103825283818151815260200191508051906020019080838360005b838110156143f55780820151818401526020810190506143da565b50505050905090810190601f1680156144225780820380516001836020036101000a031916815260200191505b509250505060405180910390fd5b949350505050565b604051806101800160405280600073ffffffffffffffffffffffffffffffffffffffff168152602001600060ff168152602001600060ff168152602001600060ff1681526020016060815260200160008152602001600081526020016000815260200160008152602001600060038111156144af57fe5b8152602001600060028111156144c157fe5b81526020016000151581525090565b828054600181600116156101000203166002900490600052602060002090601f016020900481019282614506576000855561454d565b82601f1061451f57805160ff191683800117855561454d565b8280016001018555821561454d579182015b8281111561454c578251825591602001919060010190614531565b5b50905061455a91906145f9565b5090565b6040518060a00160405280600073ffffffffffffffffffffffffffffffffffffffff168152602001600081526020016000600381111561459a57fe5b815260200160008152602001600060ff1681525090565b50805460018160011615610100020316600290046000825580601f106145d757506145f6565b601f0160209004906000526020600020908101906145f591906145f9565b5b50565b5b808211156146125760008160009055506001016145fa565b5090565b6000614629614624846152c1565b615290565b90508281526020810184848401111561464157600080fd5b61464c848285615405565b509392505050565b60008135905061466381615482565b92915050565b60008135905061467881615499565b92915050565b60008135905061468d816154b0565b92915050565b600082601f8301126146a457600080fd5b81356146b4848260208601614616565b91505092915050565b60008083601f8401126146cf57600080fd5b8235905067ffffffffffffffff8111156146e857600080fd5b60208301915083600182028301111561470057600080fd5b9250929050565b600081359050614716816154c7565b92915050565b60008135905061472b816154de565b92915050565b600081359050614740816154f5565b92915050565b60006020828403121561475857600080fd5b600061476684828501614654565b91505092915050565b6000806040838503121561478257600080fd5b600061479085828601614654565b92505060206147a185828601614654565b9150509250929050565b6000806000606084860312156147c057600080fd5b60006147ce86828701614654565b93505060206147df86828701614654565b92505060406147f08682870161471c565b9150509250925092565b6000806000806080858703121561481057600080fd5b600061481e87828801614654565b945050602061482f87828801614654565b93505060406148408782880161471c565b925050606085013567ffffffffffffffff81111561485d57600080fd5b61486987828801614693565b91505092959194509250565b6000806040838503121561488857600080fd5b600061489685828601614654565b92505060206148a785828601614669565b9150509250929050565b600080604083850312156148c457600080fd5b60006148d285828601614654565b92505060206148e38582860161471c565b9150509250929050565b6000602082840312156148ff57600080fd5b600061490d8482850161467e565b91505092915050565b60006020828403121561492857600080fd5b600061493684828501614707565b91505092915050565b6000806040838503121561495257600080fd5b600061496085828601614707565b925050602061497185828601614731565b9150509250929050565b60006020828403121561498d57600080fd5b600061499b8482850161471c565b91505092915050565b600080600080600080600060c0888a0312156149bf57600080fd5b60006149cd8a828b0161471c565b975050602088013567ffffffffffffffff8111156149ea57600080fd5b6149f68a828b016146bd565b96509650506040614a098a828b01614731565b9450506060614a1a8a828b01614731565b9350506080614a2b8a828b01614731565b92505060a0614a3c8a828b0161471c565b91505092959891949750929550565b614a548161531e565b82525050565b614a638161531e565b82525050565b614a7281615330565b82525050565b614a8181615330565b82525050565b614a90816153e1565b82525050565b614a9f816153e1565b82525050565b614aae816153f3565b82525050565b6000614abf826152f1565b614ac981856152fc565b9350614ad9818560208601615414565b614ae281615449565b840191505092915050565b6000614af8826152f1565b614b02818561530d565b9350614b12818560208601615414565b614b1b81615449565b840191505092915050565b6000614b33601f8361530d565b91507f436f6e74726163742068617320696e73756666696369656e742066756e6473006000830152602082019050919050565b6000614b73600d8361530d565b91507f496e76616c696420746f6b656e000000000000000000000000000000000000006000830152602082019050919050565b6000614bb360148361530d565b91507f496e76616c6964206d6174636820726573756c740000000000000000000000006000830152602082019050919050565b6000614bf360198361530d565b91507f63616c6c6572206973206e6f7420746f6b656e206f776e6572000000000000006000830152602082019050919050565b6000614c33600d8361530d565b91507f6d617463682073746172746564000000000000000000000000000000000000006000830152602082019050919050565b6000614c7360138361530d565b91507f63616c6c6572206973206e6f74206f776e6572000000000000000000000000006000830152602082019050919050565b6000614cb360138361530d565b91507f617069206d6174636820494420657869737473000000000000000000000000006000830152602082019050919050565b6000614cf360158361530d565b91507f4369726375697420627265616b6572206973206f6e00000000000000000000006000830152602082019050919050565b6000614d33601d8361530d565b91507f6f6e20636861696e206d6174636820646f6573206e6f742065786973740000006000830152602082019050919050565b6000614d7360128361530d565b91507f426574206973206e6f7420616c6c6f77656400000000000000000000000000006000830152602082019050919050565b6000614db360128361530d565b91507f496e76616c696420616d6f756e742062657400000000000000000000000000006000830152602082019050919050565b6000614df360118361530d565b91507f6d61746368206e6f7420737461727465640000000000000000000000000000006000830152602082019050919050565b6000614e33602e8361530d565b91507f43616e6e6f74206c697175696461746520617373657420756e74696c206d617460008301527f63682069732066696e69736865640000000000000000000000000000000000006020830152604082019050919050565b600061018083016000830151614ea56000860182614a4b565b506020830151614eb86020860182615016565b506040830151614ecb6040860182615016565b506060830151614ede6060860182615016565b5060808301518482036080860152614ef68282614ab4565b91505060a0830151614f0b60a0860182614ff8565b5060c0830151614f1e60c0860182614ff8565b5060e0830151614f3160e0860182614ff8565b50610100830151614f46610100860182614ff8565b50610120830151614f5b610120860182614a87565b50610140830151614f70610140860182614aa5565b50610160830151614f85610160860182614a69565b508091505092915050565b60a082016000820151614fa66000850182614a4b565b506020820151614fb96020850182614ff8565b506040820151614fcc6040850182614a87565b506060820151614fdf6060850182614ff8565b506080820151614ff26080850182615016565b50505050565b615001816153ca565b82525050565b615010816153ca565b82525050565b61501f816153d4565b82525050565b600060208201905061503a6000830184614a5a565b92915050565b60006020820190506150556000830184614a78565b92915050565b60006020820190506150706000830184614a96565b92915050565b600060208201905081810360008301526150908184614aed565b905092915050565b600060208201905081810360008301526150b181614b26565b9050919050565b600060208201905081810360008301526150d181614b66565b9050919050565b600060208201905081810360008301526150f181614ba6565b9050919050565b6000602082019050818103600083015261511181614be6565b9050919050565b6000602082019050818103600083015261513181614c26565b9050919050565b6000602082019050818103600083015261515181614c66565b9050919050565b6000602082019050818103600083015261517181614ca6565b9050919050565b6000602082019050818103600083015261519181614ce6565b9050919050565b600060208201905081810360008301526151b181614d26565b9050919050565b600060208201905081810360008301526151d181614d66565b9050919050565b600060208201905081810360008301526151f181614da6565b9050919050565b6000602082019050818103600083015261521181614de6565b9050919050565b6000602082019050818103600083015261523181614e26565b9050919050565b600060208201905081810360008301526152528184614e8c565b905092915050565b600060a08201905061526f6000830184614f90565b92915050565b600060208201905061528a6000830184615007565b92915050565b6000604051905081810181811067ffffffffffffffff821117156152b7576152b6615447565b5b8060405250919050565b600067ffffffffffffffff8211156152dc576152db615447565b5b601f19601f8301169050602081019050919050565b600081519050919050565b600082825260208201905092915050565b600082825260208201905092915050565b6000615329826153aa565b9050919050565b60008115159050919050565b60007fffffffff0000000000000000000000000000000000000000000000000000000082169050919050565b60008190506153768261545a565b919050565b60008190506153898261546e565b919050565b60006fffffffffffffffffffffffffffffffff82169050919050565b600073ffffffffffffffffffffffffffffffffffffffff82169050919050565b6000819050919050565b600060ff82169050919050565b60006153ec82615368565b9050919050565b60006153fe8261537b565b9050919050565b82818337600083830152505050565b60005b83811015615432578082015181840152602081019050615417565b83811115615441576000848401525b50505050565bfe5b6000601f19601f8301169050919050565b6004811061546b5761546a615447565b5b50565b6003811061547f5761547e615447565b5b50565b61548b8161531e565b811461549657600080fd5b50565b6154a281615330565b81146154ad57600080fd5b50565b6154b98161533c565b81146154c457600080fd5b50565b6154d08161538e565b81146154db57600080fd5b50565b6154e7816153ca565b81146154f257600080fd5b50565b6154fe816153d4565b811461550957600080fd5b5056fe456e756d657261626c655365743a20696e646578206f7574206f6620626f756e64734552433732313a207472616e7366657220746f206e6f6e20455243373231526563656976657220696d706c656d656e7465724552433732313a207472616e7366657220746f20746865207a65726f20616464726573734552433732313a206f70657261746f7220717565727920666f72206e6f6e6578697374656e7420746f6b656e4552433732313a20617070726f76652063616c6c6572206973206e6f74206f776e6572206e6f7220617070726f76656420666f7220616c6c4552433732313a2062616c616e636520717565727920666f7220746865207a65726f20616464726573734552433732313a206f776e657220717565727920666f72206e6f6e6578697374656e7420746f6b656e456e756d657261626c654d61703a20696e646578206f7574206f6620626f756e64734552433732313a20617070726f76656420717565727920666f72206e6f6e6578697374656e7420746f6b656e4552433732313a207472616e73666572206f6620746f6b656e2074686174206973206e6f74206f776e4552433732314d657461646174613a2055524920717565727920666f72206e6f6e6578697374656e7420746f6b656e4552433732313a20617070726f76616c20746f2063757272656e74206f776e65724552433732313a207472616e736665722063616c6c6572206973206e6f74206f776e6572206e6f7220617070726f766564a2646970667358221220b7425ec868eac0ff3b997371d680e3617da44ca5268877f087c5c163f212d36264736f6c63430007060033",
  "immutableReferences": {},
  "source": "pragma solidity ^0.7.0;\npragma experimental ABIEncoderV2;\n\nimport \"@chainlink/contracts/src/v0.7/ChainlinkClient.sol\";\nimport \"@openzeppelin/contracts/token/ERC721/ERC721.sol\";\nimport \"@openzeppelin/contracts/utils/Counters.sol\";\n// import \"@openzeppelin/contracts/math/SafeMath.sol\";\n\n// import \"https://github.com/OpenZeppelin/openzeppelin-contracts/blob/18c7efe800df6fc19554ece3b1f238e9e028a1db/contracts/token/ERC721/ERC721.sol\";\n// import \"https://github.com/OpenZeppelin/openzeppelin-contracts/blob/18c7efe800df6fc19554ece3b1f238e9e028a1db/contracts/utils/Counters.sol\";\n\n\n/*\n * @notice SmartBet core smart contract. Handles matches, bets and farming\n */\ncontract SmartBet is ERC721, ChainlinkClient {\n\n    using Counters for Counters.Counter;\n    // using SafeMath for uint256;\n\n    ////////////////////////////////////////\n    //                                    //\n    //         STATE VARIABLES            //\n    //                                    //      \n    ////////////////////////////////////////\n    // contract owner adress\n    address private owner;\n\n    // incremented for match id generation\n    Counters.Counter private matchIds;\n\n    // incremented id for NFT minting\n    Counters.Counter private tokenIds;\n\n    // flag to determine if contracts core functionalities can be performed\n    bool circuitBreaker = false;\n\n    enum MatchResult {NOT_DETERMINED, DRAW, TEAM_A_WON, TEAM_B_WON}\n    enum MatchState {NOT_STARTED, STARTED, FINISHED}\n\n    uint8 private constant TEAM_A = 1;\n    uint8 private constant TEAM_B = 2;\n\n    struct Match {\n        address creator;\n        uint8 oddsTeamA;\n        uint8 oddsTeamB;\n        uint8 oddsDraw;\n        string matchResultLink;\n        uint256 totalPayoutTeamA;\n        uint256 totalPayoutTeamB;\n        uint256 totalPayoutDraw;\n        uint256 totalCollected;\n        MatchResult result;\n        MatchState state;\n        bool exists;\n    }\n\n    // NFT issued to winner\n    struct SmartAsset {\n        address owner;\n        uint256 matchId;\n        MatchResult matchResult;\n        uint256 initialValue;\n        uint8 accruedInterest;\n    }\n\n    // holds all NFTs issued to winners\n    mapping(uint256 => SmartAsset) smartAssets;\n\n    // holds all created matches (key: idCounter)\n    mapping(uint256 => Match) matches;\n    \n    // holds all apiMatchId -> onChainMatchId to prevent duplicate entries\n    mapping(uint256 => uint256) apiMatches;\n\n    // holds all bets on a match\n    // mapping(matchId => mapping(gameResult => smartAssetId[])) matchBets;\n    mapping(uint256 => mapping(MatchResult => uint256[])) matchBets;\n\n    mapping(bytes32 => uint256) matchResultRequestIds;\n\n\n    ////////////////////////////////////////\n    //                                    //\n    //           CONSTRUCTOR              //\n    //                                    //      \n    ////////////////////////////////////////\n\n    constructor() ERC721(\"SmartBet\", \"SMBT\") {\n        owner = msg.sender;\n    }\n\n    ////////////////////////////////////////\n    //                                    //\n    //              EVENTS                //\n    //                                    //      \n    ////////////////////////////////////////\n\n    //Can be used by the clients to get all matches in a particular time\n    event MatchCreatedEvent(address indexed creator, uint256 matchId, uint256 indexed startAt);\n    //Can be used by the clients to get all bets placed by a better in a particular time\n    event BetPlacedEvent(address indexed bettor, uint256 indexed matchId, uint256 amount, uint256 indexed betAt);\n    event MatchClosedEvent(address indexed by, uint256 indexed matchId);\n    event MatchResultSetEvent(uint256 indexed matchId, MatchResult result);\n    event AssetLiquidatedEvent(address indexed by, uint256 indexed matchId, uint256 amount);\n\n\n    ////////////////////////////////////////\n    //                                    //\n    //              MODIFIERS             //\n    //                                    //      \n    ////////////////////////////////////////\n\n    /*\n    *  @notice  Restrict caller only owner\n    */\n    modifier onlyOwner() {\n        require(msg.sender == owner, \"caller is not owner\");\n        _;\n    }\n\n    /*\n    *  @notice  Ensure match does not previously exist\n    */\n    modifier isNewMatch(uint256 _matchId) {\n        require(!matches[_matchId].exists, \"on chain match exists\");\n        _;\n    }\n\n    /*\n    *  @notice  Ensure api match does not previously exist\n    */\n    modifier isNewAPIMatch(uint256 _api_matchId) {\n        require(apiMatches[_api_matchId] == 0, \"api match ID exists\");\n        _;\n    }\n\n    /*\n    *  @notice  Ensure match exists\n    */\n    modifier matchExists(uint256 _matchId){\n        require(matches[_matchId].exists, \"on chain match does not exist\");\n        _;\n    }\n\n    /*\n    *  @notice  Ensure match has not started\n    */\n    modifier matchNotStarted(uint256 _matchId){\n        require(matches[_matchId].state == MatchState.NOT_STARTED, \"match started\");\n        _;\n    }\n\n    /*\n    *  @notice  Ensure match has started\n    */\n    modifier matchStarted(uint256 _matchId){\n        require(matches[_matchId].state == MatchState.STARTED, \"match not started\");\n        _;\n    }\n\n    /*\n    *  @notice  Ensure match has ended\n    */\n    modifier matchFinished(uint256 _matchId){\n        require(matches[_matchId].state == MatchState.FINISHED, \"match not finished\");\n        _;\n    }\n\n    /*\n    *  @notice Checks if core functionalities can be performed\n    *  @dev Checks if the circuitBreaker state variable is false\n    */\n    modifier isCircuitBreakOff() {\n        require(!circuitBreaker, \"Circuit breaker is on\");\n        _;\n    }\n\n    /*\n    *  @notice Checks if the NFT is valid\n    *  @dev Validates NFT\n    */\n    modifier validateToken(uint256 _tokenId) {\n        require(_exists(_tokenId), \"Invalid token\");\n        _;\n    }\n    \n    /*\n    *  @notice  Ensure token belongs to the caller\n    */\n    modifier isTokenOwner(uint256 _tokenId) {\n        require(ownerOf(_tokenId) == msg.sender , \"caller is not token owner\");\n        _;\n    }\n\n    /*\n    *  @notice  Ensures bets are allowed on the match\n    *  @dev     The totalCollected on the match must be greater than the total payout on the team the bettor wants to bet on. The incoming bet is inclusive in the calculation\n    */\n    modifier isBetAllowed(uint256 _matchId) {\n        require(true, \"Bet is not allowed\");\n        _;\n    }\n    \n    modifier validateMatchResult(uint8 _matchResult) {\n        require(MatchResult(_matchResult) == MatchResult.TEAM_A_WON || MatchResult(_matchResult) == MatchResult.TEAM_B_WON || MatchResult(_matchResult) == MatchResult.DRAW, \"Invalid match result\");\n        _;\n    }\n\n    ////////////////////////////////////////\n    //                                    //\n    //              FUNCTIONS             //\n    //                                    //      \n    ////////////////////////////////////////\n\n    /*\n    *  @notice  New match creation\n    *  @dev     \n    *  @param   \n    *  @return  match Id\n    */\n    function createMatch(uint256 _apiMatchId, string calldata _matchResultLink, uint8 _oddsTeamA, uint8 _oddsTeamB, uint8 _oddsDraw, uint256 _startAt)\n        public \n        isNewAPIMatch(_apiMatchId)\n        onlyOwner\n        returns(uint)\n    {\n        matchIds.increment();\n        uint256 matchId = matchIds.current();\n        matches[matchId] = Match(msg.sender, _oddsTeamA, _oddsTeamB, _oddsDraw, _matchResultLink, 0, 0, 0, 0, MatchResult.NOT_DETERMINED, MatchState.NOT_STARTED, true); \n        apiMatches[_apiMatchId] = matchId;\n        emit MatchCreatedEvent(msg.sender, matchId, _startAt);\n\n        return matchId;\n    }\n\n\n    /*\n    *  @notice  New bet creation. Mint NFT to bettor\n    *  @dev   \n    *  @param  \n    *  @return  token id\n    */\n    function placeBet(uint128 _matchId, uint8 _resultBetOn)\n        public \n        payable\n        isCircuitBreakOff\n        matchExists(_matchId) \n        matchNotStarted(_matchId) \n        isBetAllowed(_matchId)\n        validateMatchResult(_resultBetOn)\n        returns(uint256)\n    {\n        require(msg.value != 0, \"Invalid amount bet\");\n\n        address bettor = msg.sender;\n        uint256 amountBet = msg.value;\n        uint256 assetValue = 0;\n        MatchResult matchResultBetOn = MatchResult(_resultBetOn);\n        \n        //update team's total payout\n        if (matchResultBetOn == MatchResult.TEAM_A_WON) {\n            assetValue = amountBet * matches[_matchId].oddsTeamA;\n            matches[_matchId].totalPayoutTeamA += assetValue;\n        } else if(matchResultBetOn == MatchResult.TEAM_B_WON) {\n            assetValue = amountBet * matches[_matchId].oddsTeamB;\n            matches[_matchId].totalPayoutTeamB += assetValue;\n        } else {\n            assetValue = amountBet * matches[_matchId].oddsDraw;\n            matches[_matchId].totalPayoutDraw += assetValue;\n        }\n\n        //increase totalCollected on the match\n        matches[_matchId].totalCollected += amountBet;\n\n        uint256 smartAssetId = awardSmartAsset(bettor, assetValue, _matchId, matchResultBetOn);\n        \n        //Save bettor's bet\n        matchBets[_matchId][matchResultBetOn].push(smartAssetId);\n        \n        emit BetPlacedEvent(bettor, _matchId, amountBet, block.timestamp);\n\n        return smartAssetId;\n    }\n\n\n    function awardSmartAsset(address bettor, uint256 assetValue, uint256 _matchId, MatchResult _matchResultBetOn) \n        internal returns (uint256) \n    {\n        tokenIds.increment();\n\n        uint256 smartAssetId = tokenIds.current();\n        _mint(bettor, smartAssetId);\n        \n        smartAssets[smartAssetId] = SmartAsset(msg.sender, _matchId, _matchResultBetOn, assetValue, 0);\n\n        return smartAssetId;\n    }\n    \n    function startMatch(uint128 _matchId) \n        public\n        onlyOwner\n        matchExists(_matchId) \n        matchNotStarted(_matchId)\n    {\n        matches[_matchId].state = MatchState.STARTED;\n    }\n\n\n    /*\n    *  @notice  Match manual close by admin. Trigger \"getResult()\" \n    *  @dev     [Real] ChainlinkClient API Request oracles gets match result of winning team. Then, match is closed.\n    *           [Temporary] (Implemented because there's no BSC testnet oracle node)\n    *                       Frontend gets result via result link and posts winning team. Then, match is closed.\n    *  @param  \n    *  @return  success success status\n    */\n    function closeMatch(uint128 _matchId, uint8 _matchResult)\n        public \n        onlyOwner\n        matchExists(_matchId) \n        matchStarted(_matchId)\n        validateMatchResult(_matchResult)\n    {\n        matches[_matchId].state = MatchState.FINISHED;\n        \n        // getMatchResult(_matchId);\n        MatchResult matchResult = MatchResult(_matchResult);\n        setMatchResult(_matchId, matchResult);\n        \n        if (matchResult == MatchResult.TEAM_A_WON) {\n            invalidateAssets(matchBets[_matchId][MatchResult.TEAM_B_WON]);\n            invalidateAssets(matchBets[_matchId][MatchResult.DRAW]);\n        } else if (matchResult == MatchResult.TEAM_B_WON) {\n            invalidateAssets(matchBets[_matchId][MatchResult.TEAM_A_WON]);\n            invalidateAssets(matchBets[_matchId][MatchResult.DRAW]);\n        } else {\n            invalidateAssets(matchBets[_matchId][MatchResult.TEAM_A_WON]);\n            invalidateAssets(matchBets[_matchId][MatchResult.TEAM_B_WON]);\n        }\n        \n        \n        emit MatchClosedEvent(msg.sender, _matchId);\n    }\n    \n    function setMatchResult(uint256 _matchId, MatchResult _matchResult) internal {\n        matches[_matchId].result = _matchResult;\n        emit MatchResultSetEvent(_matchId, matches[_matchId].result);\n    }\n    \n    function invalidateAssets(uint256[] memory assets) internal {\n        for (uint i = 0; i < assets.length; i++) {\n            invalidateAsset(assets[i]);\n        }\n    }\n\n    function invalidateAsset(uint256 _smartAssetId) internal {\n        _burn(_smartAssetId);\n    }\n\n    /*\n    *  @notice  Liquidate smart asset's value\n    *  @dev     validated   NFT is burned and caller gets value funds in account\n    *  @param   _smartAssetId smart asset id\n    *  @return  success status\n    */\n    function liquidateAsset(uint128 _smartAssetId)\n        public \n        payable\n        isCircuitBreakOff\n        validateToken(_smartAssetId)\n        isTokenOwner(_smartAssetId)\n        returns(bool)\n    {\n        SmartAsset memory smartAsset = smartAssets[_smartAssetId];\n        \n        require(matches[smartAsset.matchId].state == MatchState.FINISHED, \"Cannot liquidate asset until match is finished\");\n        \n        require (address(this).balance >= smartAsset.initialValue, \"Contract has insufficient funds\");\n        \n        invalidateAsset(_smartAssetId);\n        msg.sender.transfer(smartAsset.initialValue);\n\n        emit AssetLiquidatedEvent(msg.sender, smartAsset.matchId, smartAsset.initialValue);\n        return true;\n    }\n\n    /*\n    *  @notice  Contract Circuit Breaker\n    *  @dev     Admin can [de]activate core functons in contract\n    *  @param   \n    *  @return  success success status\n    */\n    function toggleCircuitBreaker()\n        public \n        onlyOwner\n    {\n        circuitBreaker = !circuitBreaker;\n    }\n\n    /*\n    *  @notice  Fetch match details\n    *  @dev         \n    *  @oaram   _matchId\n    *  @return match match details\n    */\n    function getMatch(uint256 _matchId)\n        public \n        view\n        matchExists(_matchId)\n        returns(Match memory match_)\n    {\n        return matches[_matchId];\n    }\n\n    /*\n    *  @notice  Fetch single SmartAsset\n    *  @dev          \n    *  @param   _smartAssetId\n    *  @return  asset details\n    */\n    function getSmartAsset(uint256 _smartAssetId)\n        public \n        view\n        validateToken(_smartAssetId)\n        isTokenOwner(_smartAssetId)\n        returns(SmartAsset memory asset)\n    {\n        return smartAssets[_smartAssetId];\n    }\n    \n}\n",
  "sourcePath": "/Users/ajibigad/crytoproject/SmartBet/contracts/SmartBet.sol",
  "compiler": {
    "name": "solc",
    "version": "0.7.6+commit.7338295f.Emscripten.clang"
  },
  "schemaVersion": "3.3.4",
  "updatedAt": "2021-04-11T05:11:57.644Z",
  "networkType": "ethereum",
  "devdoc": {
    "kind": "dev",
    "methods": {
      "approve(address,uint256)": {
        "details": "See {IERC721-approve}."
      },
      "balanceOf(address)": {
        "details": "See {IERC721-balanceOf}."
      },
      "baseURI()": {
        "details": "Returns the base URI set via {_setBaseURI}. This will be automatically added as a prefix in {tokenURI} to each token's URI, or to the token ID if no specific URI is set for that token ID."
      },
      "getApproved(uint256)": {
        "details": "See {IERC721-getApproved}."
      },
      "isApprovedForAll(address,address)": {
        "details": "See {IERC721-isApprovedForAll}."
      },
      "name()": {
        "details": "See {IERC721Metadata-name}."
      },
      "ownerOf(uint256)": {
        "details": "See {IERC721-ownerOf}."
      },
      "safeTransferFrom(address,address,uint256)": {
        "details": "See {IERC721-safeTransferFrom}."
      },
      "safeTransferFrom(address,address,uint256,bytes)": {
        "details": "See {IERC721-safeTransferFrom}."
      },
      "setApprovalForAll(address,bool)": {
        "details": "See {IERC721-setApprovalForAll}."
      },
      "supportsInterface(bytes4)": {
        "details": "See {IERC165-supportsInterface}. Time complexity O(1), guaranteed to always use less than 30 000 gas."
      },
      "symbol()": {
        "details": "See {IERC721Metadata-symbol}."
      },
      "tokenByIndex(uint256)": {
        "details": "See {IERC721Enumerable-tokenByIndex}."
      },
      "tokenOfOwnerByIndex(address,uint256)": {
        "details": "See {IERC721Enumerable-tokenOfOwnerByIndex}."
      },
      "tokenURI(uint256)": {
        "details": "See {IERC721Metadata-tokenURI}."
      },
      "totalSupply()": {
        "details": "See {IERC721Enumerable-totalSupply}."
      },
      "transferFrom(address,address,uint256)": {
        "details": "See {IERC721-transferFrom}."
      }
    },
    "version": 1
  },
  "userdoc": {
    "kind": "user",
    "methods": {},
    "version": 1
  }
}