{
  "contractName": "SmartExchange",
  "abi": [
    {
      "inputs": [],
      "name": "BUSD",
      "outputs": [
        {
          "internalType": "address",
          "name": "",
          "type": "address"
        }
      ],
      "stateMutability": "view",
      "type": "function"
    },
    {
      "inputs": [],
      "name": "pROUTER",
      "outputs": [
        {
          "internalType": "address",
          "name": "",
          "type": "address"
        }
      ],
      "stateMutability": "view",
      "type": "function"
    },
    {
      "inputs": [],
      "name": "wBNB",
      "outputs": [
        {
          "internalType": "address",
          "name": "",
          "type": "address"
        }
      ],
      "stateMutability": "view",
      "type": "function"
    },
    {
      "inputs": [
        {
          "internalType": "uint256",
          "name": "amount",
          "type": "uint256"
        },
        {
          "internalType": "address",
          "name": "to",
          "type": "address"
        }
      ],
      "name": "swap",
      "outputs": [
        {
          "internalType": "uint256[]",
          "name": "",
          "type": "uint256[]"
        }
      ],
      "stateMutability": "nonpayable",
      "type": "function"
    }
  ],
  "bytecode": "0x608060405234801561001057600080fd5b506109e2806100206000396000f3fe608060405234801561001057600080fd5b506004361061004c5760003560e01c8063484f4ea914610051578063d02eb3f41461006f578063d3986f081461008d578063e71efd95146100bd575b600080fd5b6100596100db565b6040516100669190610753565b60405180910390f35b6100776100f3565b6040516100849190610753565b60405180910390f35b6100a760048036038101906100a291906105e0565b61010b565b6040516100b491906107c0565b60405180910390f35b6100c5610474565b6040516100d29190610753565b60405180910390f35b738301f2213c0eed49a7e28ae4c3e91722919b8b4781565b73ae13d989dac2f0debff460ac112a837c89baa7cd81565b6060600073d99d1c33f9fc3444f8101754abc46c52416550d190506000738301f2213c0eed49a7e28ae4c3e91722919b8b479050600073ae13d989dac2f0debff460ac112a837c89baa7cd90508073ffffffffffffffffffffffffffffffffffffffff1663d0e30db0876040518263ffffffff1660e01b81526004016000604051808303818588803b1580156101a057600080fd5b505af11580156101b4573d6000803e3d6000fd5b50505050508073ffffffffffffffffffffffffffffffffffffffff1663095ea7b38460006040518363ffffffff1660e01b81526004016101f592919061076e565b602060405180830381600087803b15801561020f57600080fd5b505af1158015610223573d6000803e3d6000fd5b505050506040513d601f19601f8201168201806040525081019061024791906105b7565b508073ffffffffffffffffffffffffffffffffffffffff1663095ea7b384886040518363ffffffff1660e01b8152600401610283929190610797565b602060405180830381600087803b15801561029d57600080fd5b505af11580156102b1573d6000803e3d6000fd5b505050506040513d601f19601f820116820180604052508101906102d591906105b7565b506000869050600080600267ffffffffffffffff811180156102f657600080fd5b506040519080825280602002602001820160405280156103255781602001602082028036833780820191505090505b509050838160008151811061033657fe5b602002602001019073ffffffffffffffffffffffffffffffffffffffff16908173ffffffffffffffffffffffffffffffffffffffff1681525050848160018151811061037e57fe5b602002602001019073ffffffffffffffffffffffffffffffffffffffff16908173ffffffffffffffffffffffffffffffffffffffff1681525050600088905060006102584201905060008873ffffffffffffffffffffffffffffffffffffffff166338ed173987878787876040518663ffffffff1660e01b81526004016104099594939291906107e2565b600060405180830381600087803b15801561042357600080fd5b505af1158015610437573d6000803e3d6000fd5b505050506040513d6000823e3d601f19601f820116820180604052508101906104609190610576565b905080995050505050505050505092915050565b73d99d1c33f9fc3444f8101754abc46c52416550d181565b600061049f61049a8461086d565b61083c565b905080838252602082019050828560208602820111156104be57600080fd5b60005b858110156104ee57816104d48882610561565b8452602084019350602083019250506001810190506104c1565b5050509392505050565b60008135905061050781610967565b92915050565b600082601f83011261051e57600080fd5b815161052e84826020860161048c565b91505092915050565b6000815190506105468161097e565b92915050565b60008135905061055b81610995565b92915050565b60008151905061057081610995565b92915050565b60006020828403121561058857600080fd5b600082015167ffffffffffffffff8111156105a257600080fd5b6105ae8482850161050d565b91505092915050565b6000602082840312156105c957600080fd5b60006105d784828501610537565b91505092915050565b600080604083850312156105f357600080fd5b60006106018582860161054c565b9250506020610612858286016104f8565b9150509250929050565b6000610628838361064c565b60208301905092915050565b60006106408383610735565b60208301905092915050565b6106558161090b565b82525050565b6106648161090b565b82525050565b6000610675826108b9565b61067f81856108e9565b935061068a83610899565b8060005b838110156106bb5781516106a2888261061c565b97506106ad836108cf565b92505060018101905061068e565b5085935050505092915050565b60006106d3826108c4565b6106dd81856108fa565b93506106e8836108a9565b8060005b838110156107195781516107008882610634565b975061070b836108dc565b9250506001810190506106ec565b5085935050505092915050565b61072f81610953565b82525050565b61073e81610949565b82525050565b61074d81610949565b82525050565b6000602082019050610768600083018461065b565b92915050565b6000604082019050610783600083018561065b565b6107906020830184610726565b9392505050565b60006040820190506107ac600083018561065b565b6107b96020830184610744565b9392505050565b600060208201905081810360008301526107da81846106c8565b905092915050565b600060a0820190506107f76000830188610744565b6108046020830187610744565b8181036040830152610816818661066a565b9050610825606083018561065b565b6108326080830184610744565b9695505050505050565b6000604051905081810181811067ffffffffffffffff8211171561086357610862610965565b5b8060405250919050565b600067ffffffffffffffff82111561088857610887610965565b5b602082029050602081019050919050565b6000819050602082019050919050565b6000819050602082019050919050565b600081519050919050565b600081519050919050565b6000602082019050919050565b6000602082019050919050565b600082825260208201905092915050565b600082825260208201905092915050565b600061091682610929565b9050919050565b60008115159050919050565b600073ffffffffffffffffffffffffffffffffffffffff82169050919050565b6000819050919050565b600061095e82610949565b9050919050565bfe5b6109708161090b565b811461097b57600080fd5b50565b6109878161091d565b811461099257600080fd5b50565b61099e81610949565b81146109a957600080fd5b5056fea26469706673582212209cf7d53d457e2c39cca0def75485bd1215d22f049f2b6301c53b80478a078e4b64736f6c63430007060033",
  "immutableReferences": {},
  "source": "pragma solidity ^0.7.0;\r\npragma experimental ABIEncoderV2;\r\n\r\nimport \"./Bep20.sol\";\r\n\r\n//TODO: move to HelperPancakeSwap_ROUTER.sol\r\ncontract HelperPancakeSwap_ROUTER {\r\n    // No implementation, just the function signature. This is just so Solidity can work out how to call it.\r\n    \r\n    /*\r\n    * @notice   Swaps an exact amount of input tokens for as many output tokens as possible, \r\n    *           along the route determined by the path. The first element of path is the input token, \r\n    *           the last is the output token, and any intermediate elements represent intermediate pairs\r\n    *           to trade through (if, for example, a direct pair does not exist).\r\n    *           ``msg.sender`` should have already given the router an allowance of at least amountIn on the input token.\r\n    * @param    amountIn    The amount of input tokens to send.\r\n    * @param    amountOutMin    The minimum amount of output tokens that must be received for the transaction not to revert.\r\n    * @param    path    An array of token addresses. ``path.length`` must be >= 2. Pools for each consecutive pair of addresses must exist and have liquidity.\r\n    * @param    to      Recipient of the output tokens.\r\n    * @param    deadline    \tUnix timestamp after which the transaction will revert.\r\n    * @return    amounts    \tThe input token amount and all subsequent output token amounts.\r\n    */\r\n    function swapExactTokensForTokens(\r\n        uint amountIn,\r\n        uint amountOutMin,\r\n        address[] calldata path,\r\n        address to,\r\n        uint deadline\r\n    ) external returns (uint[] memory amounts) {}\r\n    \r\n\r\n    /*\r\n    * @notice   Same as \r\n    *           Succeeds for tokens that take a fee on transfer.* and the market's available liquidity.\r\n    *           ``msg.sender`` should have already given the router an allowance of at least amountIn on the input token.\r\n    * @param    redeemAmount The amount of underlying to be redeemed.\r\n    * @return   status 0 on success, otherwise an Error code\r\n    */\r\n    function swapExactTokensForTokensSupportingFeeOnTransferTokens(\r\n        uint amountIn,\r\n        uint amountOutMin,\r\n        address[] calldata path,\r\n        address to,\r\n        uint deadline\r\n    ) external {}\r\n    \r\n}\r\n\r\n\r\n/*\r\n* @notice Integrates with Pancakeswap DEX\r\n*/\r\ncontract SmartExchange {\r\n    \r\n    address public constant wBNB = 0xae13d989daC2f0dEbFf460aC112a837C89BAa7cd; //underlying asset: BUSD\r\n    address public constant BUSD = 0x8301F2213c0eeD49a7E28Ae4c3e91722919B8B47; //underlying asset: BUSD\r\n    address public constant pROUTER = 0xD99D1c33F9fC3444f8101754aBC46c52416550D1; // Pancakeswap Router (BSC Testnet)\r\n    //address public constant pFACTORY = 0x6725F303b657a9451d8BA641348b6761A6CC7a17; // Pancakeswap factory (BSC Testnet)\r\n    \r\n   function swap(uint256 amount, address to) public returns (uint[] memory) {\r\n        \r\n        HelperPancakeSwap_ROUTER router = HelperPancakeSwap_ROUTER(pROUTER);     // get a handle for the exchange router\r\n        Bep20 busdContract = Bep20(BUSD);     // get a handle for the BUSD asset\r\n        Bep20 wbnbContract = Bep20(wBNB);     // get a handle for the wBNB asset\r\n        \r\n        wbnbContract.deposit{value: amount}(); // deposit native BNB\r\n        \r\n        wbnbContract.approve(address(router), 0); // security: reset allowance\r\n        wbnbContract.approve(address(router), amount); // allow pancakeswap router to access wBNB\r\n\r\n        uint256 amountIn = amount;\r\n        uint256 amountOutMin = 0;\r\n        address[] memory path = new address[](2);\r\n        path[0] = address(wbnbContract);\r\n        path[1] = address(busdContract);\r\n        address to = to;\r\n        uint deadline = block.timestamp + 10 minutes; // addition 10 mins\r\n\r\n        uint[] memory amountOut = router.swapExactTokensForTokens(amountIn, amountOutMin, path, to, deadline);\r\n        \r\n        // assert(amountOut > 0, \"swapping failed with returning 0\");\r\n\r\n        return amountOut;\r\n    }      \r\n}",
  "sourcePath": "C:/Users/USER/Desktop/BLOCKCHAIN/SmartBet/contracts/SmartExchange.sol",
  "compiler": {
    "name": "solc",
    "version": "0.7.6+commit.7338295f.Emscripten.clang"
  },
  "schemaVersion": "3.3.4",
  "updatedAt": "2021-04-11T19:32:08.565Z",
  "devdoc": {
    "kind": "dev",
    "methods": {},
    "version": 1
  },
  "userdoc": {
    "kind": "user",
    "methods": {},
    "version": 1
  }
}