{
  "contractName": "SmartBet",
  "abi": [
    {
      "inputs": [],
      "stateMutability": "nonpayable",
      "type": "constructor"
    },
    {
      "anonymous": false,
      "inputs": [
        {
          "indexed": true,
          "internalType": "address",
          "name": "owner",
          "type": "address"
        },
        {
          "indexed": true,
          "internalType": "address",
          "name": "approved",
          "type": "address"
        },
        {
          "indexed": true,
          "internalType": "uint256",
          "name": "tokenId",
          "type": "uint256"
        }
      ],
      "name": "Approval",
      "type": "event"
    },
    {
      "anonymous": false,
      "inputs": [
        {
          "indexed": true,
          "internalType": "address",
          "name": "owner",
          "type": "address"
        },
        {
          "indexed": true,
          "internalType": "address",
          "name": "operator",
          "type": "address"
        },
        {
          "indexed": false,
          "internalType": "bool",
          "name": "approved",
          "type": "bool"
        }
      ],
      "name": "ApprovalForAll",
      "type": "event"
    },
    {
      "anonymous": false,
      "inputs": [
        {
          "indexed": true,
          "internalType": "bytes32",
          "name": "id",
          "type": "bytes32"
        }
      ],
      "name": "ChainlinkCancelled",
      "type": "event"
    },
    {
      "anonymous": false,
      "inputs": [
        {
          "indexed": true,
          "internalType": "bytes32",
          "name": "id",
          "type": "bytes32"
        }
      ],
      "name": "ChainlinkFulfilled",
      "type": "event"
    },
    {
      "anonymous": false,
      "inputs": [
        {
          "indexed": true,
          "internalType": "bytes32",
          "name": "id",
          "type": "bytes32"
        }
      ],
      "name": "ChainlinkRequested",
      "type": "event"
    },
    {
      "anonymous": false,
      "inputs": [
        {
          "indexed": true,
          "internalType": "address",
          "name": "bettor",
          "type": "address"
        },
        {
          "indexed": true,
          "internalType": "uint256",
          "name": "matchId",
          "type": "uint256"
        },
        {
          "indexed": false,
          "internalType": "uint256",
          "name": "amount",
          "type": "uint256"
        },
        {
          "indexed": true,
          "internalType": "uint256",
          "name": "betAt",
          "type": "uint256"
        }
      ],
      "name": "LogBetAdded",
      "type": "event"
    },
    {
      "anonymous": false,
      "inputs": [
        {
          "indexed": true,
          "internalType": "address",
          "name": "by",
          "type": "address"
        },
        {
          "indexed": true,
          "internalType": "uint256",
          "name": "matchId",
          "type": "uint256"
        }
      ],
      "name": "LogCloseMatch",
      "type": "event"
    },
    {
      "anonymous": false,
      "inputs": [
        {
          "indexed": true,
          "internalType": "address",
          "name": "creator",
          "type": "address"
        },
        {
          "indexed": false,
          "internalType": "uint256",
          "name": "matchId",
          "type": "uint256"
        },
        {
          "indexed": true,
          "internalType": "uint256",
          "name": "startAt",
          "type": "uint256"
        }
      ],
      "name": "LogMatchAdded",
      "type": "event"
    },
    {
      "anonymous": false,
      "inputs": [
        {
          "indexed": true,
          "internalType": "uint256",
          "name": "matchId",
          "type": "uint256"
        },
        {
          "indexed": false,
          "internalType": "enum SmartBet.MatchResult",
          "name": "result",
          "type": "uint8"
        }
      ],
      "name": "LogSetResult",
      "type": "event"
    },
    {
      "anonymous": false,
      "inputs": [
        {
          "indexed": true,
          "internalType": "address",
          "name": "by",
          "type": "address"
        },
        {
          "indexed": true,
          "internalType": "uint256",
          "name": "matchId",
          "type": "uint256"
        },
        {
          "indexed": false,
          "internalType": "uint256",
          "name": "amount",
          "type": "uint256"
        }
      ],
      "name": "LogWithdrawal",
      "type": "event"
    },
    {
      "anonymous": false,
      "inputs": [
        {
          "indexed": true,
          "internalType": "address",
          "name": "from",
          "type": "address"
        },
        {
          "indexed": true,
          "internalType": "address",
          "name": "to",
          "type": "address"
        },
        {
          "indexed": true,
          "internalType": "uint256",
          "name": "tokenId",
          "type": "uint256"
        }
      ],
      "name": "Transfer",
      "type": "event"
    },
    {
      "inputs": [
        {
          "internalType": "address",
          "name": "to",
          "type": "address"
        },
        {
          "internalType": "uint256",
          "name": "tokenId",
          "type": "uint256"
        }
      ],
      "name": "approve",
      "outputs": [],
      "stateMutability": "nonpayable",
      "type": "function"
    },
    {
      "inputs": [
        {
          "internalType": "address",
          "name": "owner",
          "type": "address"
        }
      ],
      "name": "balanceOf",
      "outputs": [
        {
          "internalType": "uint256",
          "name": "",
          "type": "uint256"
        }
      ],
      "stateMutability": "view",
      "type": "function",
      "constant": true
    },
    {
      "inputs": [],
      "name": "baseURI",
      "outputs": [
        {
          "internalType": "string",
          "name": "",
          "type": "string"
        }
      ],
      "stateMutability": "view",
      "type": "function",
      "constant": true
    },
    {
      "inputs": [
        {
          "internalType": "uint256",
          "name": "tokenId",
          "type": "uint256"
        }
      ],
      "name": "getApproved",
      "outputs": [
        {
          "internalType": "address",
          "name": "",
          "type": "address"
        }
      ],
      "stateMutability": "view",
      "type": "function",
      "constant": true
    },
    {
      "inputs": [
        {
          "internalType": "address",
          "name": "owner",
          "type": "address"
        },
        {
          "internalType": "address",
          "name": "operator",
          "type": "address"
        }
      ],
      "name": "isApprovedForAll",
      "outputs": [
        {
          "internalType": "bool",
          "name": "",
          "type": "bool"
        }
      ],
      "stateMutability": "view",
      "type": "function",
      "constant": true
    },
    {
      "inputs": [],
      "name": "name",
      "outputs": [
        {
          "internalType": "string",
          "name": "",
          "type": "string"
        }
      ],
      "stateMutability": "view",
      "type": "function",
      "constant": true
    },
    {
      "inputs": [
        {
          "internalType": "uint256",
          "name": "tokenId",
          "type": "uint256"
        }
      ],
      "name": "ownerOf",
      "outputs": [
        {
          "internalType": "address",
          "name": "",
          "type": "address"
        }
      ],
      "stateMutability": "view",
      "type": "function",
      "constant": true
    },
    {
      "inputs": [
        {
          "internalType": "address",
          "name": "from",
          "type": "address"
        },
        {
          "internalType": "address",
          "name": "to",
          "type": "address"
        },
        {
          "internalType": "uint256",
          "name": "tokenId",
          "type": "uint256"
        }
      ],
      "name": "safeTransferFrom",
      "outputs": [],
      "stateMutability": "nonpayable",
      "type": "function"
    },
    {
      "inputs": [
        {
          "internalType": "address",
          "name": "from",
          "type": "address"
        },
        {
          "internalType": "address",
          "name": "to",
          "type": "address"
        },
        {
          "internalType": "uint256",
          "name": "tokenId",
          "type": "uint256"
        },
        {
          "internalType": "bytes",
          "name": "_data",
          "type": "bytes"
        }
      ],
      "name": "safeTransferFrom",
      "outputs": [],
      "stateMutability": "nonpayable",
      "type": "function"
    },
    {
      "inputs": [
        {
          "internalType": "address",
          "name": "operator",
          "type": "address"
        },
        {
          "internalType": "bool",
          "name": "approved",
          "type": "bool"
        }
      ],
      "name": "setApprovalForAll",
      "outputs": [],
      "stateMutability": "nonpayable",
      "type": "function"
    },
    {
      "inputs": [
        {
          "internalType": "bytes4",
          "name": "interfaceId",
          "type": "bytes4"
        }
      ],
      "name": "supportsInterface",
      "outputs": [
        {
          "internalType": "bool",
          "name": "",
          "type": "bool"
        }
      ],
      "stateMutability": "view",
      "type": "function",
      "constant": true
    },
    {
      "inputs": [],
      "name": "symbol",
      "outputs": [
        {
          "internalType": "string",
          "name": "",
          "type": "string"
        }
      ],
      "stateMutability": "view",
      "type": "function",
      "constant": true
    },
    {
      "inputs": [
        {
          "internalType": "uint256",
          "name": "index",
          "type": "uint256"
        }
      ],
      "name": "tokenByIndex",
      "outputs": [
        {
          "internalType": "uint256",
          "name": "",
          "type": "uint256"
        }
      ],
      "stateMutability": "view",
      "type": "function",
      "constant": true
    },
    {
      "inputs": [
        {
          "internalType": "address",
          "name": "owner",
          "type": "address"
        },
        {
          "internalType": "uint256",
          "name": "index",
          "type": "uint256"
        }
      ],
      "name": "tokenOfOwnerByIndex",
      "outputs": [
        {
          "internalType": "uint256",
          "name": "",
          "type": "uint256"
        }
      ],
      "stateMutability": "view",
      "type": "function",
      "constant": true
    },
    {
      "inputs": [
        {
          "internalType": "uint256",
          "name": "tokenId",
          "type": "uint256"
        }
      ],
      "name": "tokenURI",
      "outputs": [
        {
          "internalType": "string",
          "name": "",
          "type": "string"
        }
      ],
      "stateMutability": "view",
      "type": "function",
      "constant": true
    },
    {
      "inputs": [],
      "name": "totalSupply",
      "outputs": [
        {
          "internalType": "uint256",
          "name": "",
          "type": "uint256"
        }
      ],
      "stateMutability": "view",
      "type": "function",
      "constant": true
    },
    {
      "inputs": [],
      "name": "totalTreasury",
      "outputs": [
        {
          "internalType": "uint256",
          "name": "",
          "type": "uint256"
        }
      ],
      "stateMutability": "view",
      "type": "function",
      "constant": true
    },
    {
      "inputs": [
        {
          "internalType": "address",
          "name": "from",
          "type": "address"
        },
        {
          "internalType": "address",
          "name": "to",
          "type": "address"
        },
        {
          "internalType": "uint256",
          "name": "tokenId",
          "type": "uint256"
        }
      ],
      "name": "transferFrom",
      "outputs": [],
      "stateMutability": "nonpayable",
      "type": "function"
    },
    {
      "inputs": [],
      "name": "toggleCircuitBreaker",
      "outputs": [],
      "stateMutability": "nonpayable",
      "type": "function"
    },
    {
      "inputs": [
        {
          "internalType": "uint256",
          "name": "_api_matchId",
          "type": "uint256"
        },
        {
          "internalType": "string",
          "name": "_matchResultLink",
          "type": "string"
        },
        {
          "internalType": "uint8",
          "name": "_oddsTeamA",
          "type": "uint8"
        },
        {
          "internalType": "uint8",
          "name": "_oddsTeamB",
          "type": "uint8"
        },
        {
          "internalType": "uint256",
          "name": "_startAt",
          "type": "uint256"
        }
      ],
      "name": "createMatch",
      "outputs": [
        {
          "internalType": "uint256",
          "name": "",
          "type": "uint256"
        }
      ],
      "stateMutability": "nonpayable",
      "type": "function"
    },
    {
      "inputs": [
        {
          "internalType": "uint128",
          "name": "_matchId",
          "type": "uint128"
        },
        {
          "internalType": "uint8",
          "name": "_teamBetOn",
          "type": "uint8"
        }
      ],
      "name": "placeBet",
      "outputs": [
        {
          "internalType": "uint256",
          "name": "",
          "type": "uint256"
        }
      ],
      "stateMutability": "payable",
      "type": "function",
      "payable": true
    },
    {
      "inputs": [
        {
          "internalType": "uint128",
          "name": "_matchId",
          "type": "uint128"
        },
        {
          "internalType": "uint256",
          "name": "winner",
          "type": "uint256"
        }
      ],
      "name": "closeMatch",
      "outputs": [],
      "stateMutability": "nonpayable",
      "type": "function"
    },
    {
      "inputs": [
        {
          "internalType": "uint128",
          "name": "_tokenId",
          "type": "uint128"
        }
      ],
      "name": "withdraw",
      "outputs": [
        {
          "internalType": "bool",
          "name": "success",
          "type": "bool"
        }
      ],
      "stateMutability": "payable",
      "type": "function",
      "payable": true
    },
    {
      "inputs": [
        {
          "internalType": "uint256",
          "name": "_matchId",
          "type": "uint256"
        }
      ],
      "name": "getMatch",
      "outputs": [
        {
          "components": [
            {
              "internalType": "address",
              "name": "creator",
              "type": "address"
            },
            {
              "internalType": "uint8",
              "name": "oddsTeamA",
              "type": "uint8"
            },
            {
              "internalType": "uint8",
              "name": "oddsTeamB",
              "type": "uint8"
            },
            {
              "internalType": "string",
              "name": "matchResultLink",
              "type": "string"
            },
            {
              "internalType": "uint256",
              "name": "totalPayoutTeamA",
              "type": "uint256"
            },
            {
              "internalType": "uint256",
              "name": "totalPayoutTeamB",
              "type": "uint256"
            },
            {
              "internalType": "uint256",
              "name": "totalCollected",
              "type": "uint256"
            },
            {
              "internalType": "enum SmartBet.MatchResult",
              "name": "result",
              "type": "uint8"
            },
            {
              "internalType": "enum SmartBet.MatchState",
              "name": "state",
              "type": "uint8"
            },
            {
              "internalType": "bool",
              "name": "exists",
              "type": "bool"
            }
          ],
          "internalType": "struct SmartBet.Match",
          "name": "match_",
          "type": "tuple"
        }
      ],
      "stateMutability": "view",
      "type": "function",
      "constant": true
    },
    {
      "inputs": [
        {
          "internalType": "bytes32",
          "name": "_requestId",
          "type": "bytes32"
        },
        {
          "internalType": "uint8",
          "name": "_matchResult",
          "type": "uint8"
        }
      ],
      "name": "setMatchResult",
      "outputs": [],
      "stateMutability": "nonpayable",
      "type": "function"
    }
  ],
  "bytecode": "0x60806040526001600e556000601460006101000a81548160ff0219169083151502179055503480156200003157600080fd5b506040518060400160405280600881526020017f536d6172744265740000000000000000000000000000000000000000000000008152506040518060400160405280600481526020017f534d425400000000000000000000000000000000000000000000000000000000815250620000b66301ffc9a760e01b6200020460201b60201c565b8160069080519060200190620000ce9291906200030d565b508060079080519060200190620000e79291906200030d565b50620001006380ac58cd60e01b6200020460201b60201c565b62000118635b5e139f60e01b6200020460201b60201c565b6200013063780e9d6360e01b6200020460201b60201c565b505033601060006101000a81548173ffffffffffffffffffffffffffffffffffffffff021916908373ffffffffffffffffffffffffffffffffffffffff160217905550732f90a6d021db21e1b2a077c5a37b3c7e75d15b7e601460016101000a81548173ffffffffffffffffffffffffffffffffffffffff021916908373ffffffffffffffffffffffffffffffffffffffff1602179055507f323966613961613133626631343638373838623763633461353030613435623860158190555067016345785d8a0000601681905550620003c3565b63ffffffff60e01b817bffffffffffffffffffffffffffffffffffffffffffffffffffffffff19161415620002a1576040517f08c379a000000000000000000000000000000000000000000000000000000000815260040180806020018281038252601c8152602001807f4552433136353a20696e76616c696420696e746572666163652069640000000081525060200191505060405180910390fd5b6001600080837bffffffffffffffffffffffffffffffffffffffffffffffffffffffff19167bffffffffffffffffffffffffffffffffffffffffffffffffffffffff1916815260200190815260200160002060006101000a81548160ff02191690831515021790555050565b828054600181600116156101000203166002900490600052602060002090601f01602090048101928262000345576000855562000391565b82601f106200036057805160ff191683800117855562000391565b8280016001018555821562000391579182015b828111156200039057825182559160200191906001019062000373565b5b509050620003a09190620003a4565b5090565b5b80821115620003bf576000816000905550600101620003a5565b5090565b6144a380620003d36000396000f3fe6080604052600436106101665760003560e01c806358d33e6d116100d157806395d89b411161008a578063c4f874c211610064578063c4f874c21461056c578063c87b56dd146105a9578063d5eb63cc146105e6578063e985e9c5146105fd57610166565b806395d89b41146104ef578063a22cb4651461051a578063b88d4fde1461054357610166565b806358d33e6d146103c65780636352211e146103f65780636c0360eb1461043357806370a082311461045e5780637c39471e1461049b578063897534a9146104c457610166565b806318160ddd1161012357806318160ddd1461029257806323b872dd146102bd5780632f745c59146102e65780633d092b3d1461032357806342842e0e146103605780634f6ccce71461038957610166565b806301ffc9a71461016b57806302387a7b146101a857806306fdde03146101d8578063081812fc14610203578063095ea7b3146102405780630e8769da14610269575b600080fd5b34801561017757600080fd5b50610192600480360381019061018d91906137df565b61063a565b60405161019f9190613dc4565b60405180910390f35b6101c260048036038101906101bd9190613808565b6106a1565b6040516101cf9190613dc4565b60405180910390f35b3480156101e457600080fd5b506101ed6106d2565b6040516101fa9190613dfa565b60405180910390f35b34801561020f57600080fd5b5061022a600480360381019061022591906138a9565b610774565b6040516102379190613da9565b60405180910390f35b34801561024c57600080fd5b5061026760048036038101906102629190613767565b61080f565b005b34801561027557600080fd5b50610290600480360381019061028b91906137a3565b610953565b005b34801561029e57600080fd5b506102a7610b18565b6040516102b49190613f5e565b60405180910390f35b3480156102c957600080fd5b506102e460048036038101906102df9190613661565b610b29565b005b3480156102f257600080fd5b5061030d60048036038101906103089190613767565b610b9f565b60405161031a9190613f5e565b60405180910390f35b34801561032f57600080fd5b5061034a600480360381019061034591906138a9565b610bfa565b6040516103579190613f3c565b60405180910390f35b34801561036c57600080fd5b5061038760048036038101906103829190613661565b610e52565b005b34801561039557600080fd5b506103b060048036038101906103ab91906138a9565b610e72565b6040516103bd9190613f5e565b60405180910390f35b6103e060048036038101906103db919061386d565b610e95565b6040516103ed9190613f5e565b60405180910390f35b34801561040257600080fd5b5061041d600480360381019061041891906138a9565b6112d2565b60405161042a9190613da9565b60405180910390f35b34801561043f57600080fd5b50610448611309565b6040516104559190613dfa565b60405180910390f35b34801561046a57600080fd5b50610485600480360381019061048091906135fc565b6113ab565b6040516104929190613f5e565b60405180910390f35b3480156104a757600080fd5b506104c260048036038101906104bd9190613831565b611480565b005b3480156104d057600080fd5b506104d96116bb565b6040516104e69190613f5e565b60405180910390f35b3480156104fb57600080fd5b506105046116c1565b6040516105119190613dfa565b60405180910390f35b34801561052657600080fd5b50610541600480360381019061053c919061372b565b611763565b005b34801561054f57600080fd5b5061056a600480360381019061056591906136b0565b611919565b005b34801561057857600080fd5b50610593600480360381019061058e91906138d2565b611991565b6040516105a09190613f5e565b60405180910390f35b3480156105b557600080fd5b506105d060048036038101906105cb91906138a9565b611cd5565b6040516105dd9190613dfa565b60405180910390f35b3480156105f257600080fd5b506105fb611fbe565b005b34801561060957600080fd5b50610624600480360381019061061f9190613625565b61207a565b6040516106319190613dc4565b60405180910390f35b6000806000837bffffffffffffffffffffffffffffffffffffffffffffffffffffffff19167bffffffffffffffffffffffffffffffffffffffffffffffffffffffff1916815260200190815260200160002060009054906101000a900460ff169050919050565b6000816fffffffffffffffffffffffffffffffff166106bf8161210e565b6106c857600080fd5b6001915050919050565b606060068054600181600116156101000203166002900480601f01602080910402602001604051908101604052809291908181526020018280546001816001161561010002031660029004801561076a5780601f1061073f5761010080835404028352916020019161076a565b820191906000526020600020905b81548152906001019060200180831161074d57829003601f168201915b5050505050905090565b600061077f8261210e565b6107d4576040517f08c379a000000000000000000000000000000000000000000000000000000000815260040180806020018281038252602c815260200180614398602c913960400191505060405180910390fd5b6004600083815260200190815260200160002060009054906101000a900473ffffffffffffffffffffffffffffffffffffffff169050919050565b600061081a826112d2565b90508073ffffffffffffffffffffffffffffffffffffffff168373ffffffffffffffffffffffffffffffffffffffff1614156108a1576040517f08c379a000000000000000000000000000000000000000000000000000000000815260040180806020018281038252602181526020018061441c6021913960400191505060405180910390fd5b8073ffffffffffffffffffffffffffffffffffffffff166108c061212b565b73ffffffffffffffffffffffffffffffffffffffff1614806108ef57506108ee816108e961212b565b61207a565b5b610944576040517f08c379a00000000000000000000000000000000000000000000000000000000081526004018080602001828103825260388152602001806142eb6038913960400191505060405180910390fd5b61094e8383612133565b505050565b601b6000838152602001908152602001600020546018600082815260200190815260200160002060050160029054906101000a900460ff166109ca576040517f08c379a00000000000000000000000000000000000000000000000000000000081526004016109c190613ebc565b60405180910390fd5b601b6000848152602001908152602001600020546002808111156109ea57fe5b6018600083815260200190815260200160002060050160019054906101000a900460ff166002811115610a1957fe5b14610a59576040517f08c379a0000000000000000000000000000000000000000000000000000000008152600401610a5090613e9c565b60405180910390fd5b6000601b60008681526020019081526020016000205490508360ff166003811115610a8057fe5b6018600083815260200190815260200160002060050160006101000a81548160ff02191690836003811115610ab157fe5b0217905550807f77ad4add1031e6038509c317deecf8504b6adb01f180c0da0db7d715e194f54d6018600084815260200190815260200160002060050160009054906101000a900460ff16604051610b099190613ddf565b60405180910390a25050505050565b6000610b2460026121ec565b905090565b610b3a610b3461212b565b82612201565b610b8f576040517f08c379a000000000000000000000000000000000000000000000000000000000815260040180806020018281038252603181526020018061443d6031913960400191505060405180910390fd5b610b9a8383836122f5565b505050565b6000610bf282600160008673ffffffffffffffffffffffffffffffffffffffff1673ffffffffffffffffffffffffffffffffffffffff16815260200190815260200160002061253890919063ffffffff16565b905092915050565b610c02613367565b816018600082815260200190815260200160002060050160029054906101000a900460ff16610c66576040517f08c379a0000000000000000000000000000000000000000000000000000000008152600401610c5d90613ebc565b60405180910390fd5b60186000848152602001908152602001600020604051806101400160405290816000820160009054906101000a900473ffffffffffffffffffffffffffffffffffffffff1673ffffffffffffffffffffffffffffffffffffffff1673ffffffffffffffffffffffffffffffffffffffff1681526020016000820160149054906101000a900460ff1660ff1660ff1681526020016000820160159054906101000a900460ff1660ff1660ff168152602001600182018054600181600116156101000203166002900480601f016020809104026020016040519081016040528092919081815260200182805460018160011615610100020316600290048015610dae5780601f10610d8357610100808354040283529160200191610dae565b820191906000526020600020905b815481529060010190602001808311610d9157829003601f168201915b505050505081526020016002820154815260200160038201548152602001600482015481526020016005820160009054906101000a900460ff166003811115610df357fe5b6003811115610dfe57fe5b81526020016005820160019054906101000a900460ff166002811115610e2057fe5b6002811115610e2b57fe5b81526020016005820160029054906101000a900460ff161515151581525050915050919050565b610e6d83838360405180602001604052806000815250611919565b505050565b600080610e8983600261255290919063ffffffff16565b50905080915050919050565b6000826fffffffffffffffffffffffffffffffff166018600082815260200190815260200160002060050160029054906101000a900460ff16610f0d576040517f08c379a0000000000000000000000000000000000000000000000000000000008152600401610f0490613ebc565b60405180910390fd5b836fffffffffffffffffffffffffffffffff1660006002811115610f2d57fe5b6018600083815260200190815260200160002060050160019054906101000a900460ff166002811115610f5c57fe5b14610f9c576040517f08c379a0000000000000000000000000000000000000000000000000000000008152600401610f9390613e5c565b60405180910390fd5b846fffffffffffffffffffffffffffffffff166001610fba57600080fd5b600160ff168560ff161480610fd55750600260ff168560ff16145b611014576040517f08c379a000000000000000000000000000000000000000000000000000000000815260040161100b90613e3c565b60405180910390fd5b6000341415611058576040517f08c379a000000000000000000000000000000000000000000000000000000000815260040161104f90613edc565b60405180910390fd5b6000601a6000886fffffffffffffffffffffffffffffffff16815260200190815260200160002060008760ff1660ff16815260200190815260200160002060003373ffffffffffffffffffffffffffffffffffffffff1673ffffffffffffffffffffffffffffffffffffffff168152602001908152602001600020541415611115576040517f08c379a000000000000000000000000000000000000000000000000000000000815260040161110c90613f1c565b60405180910390fd5b6000339050600034905080601a60008a6fffffffffffffffffffffffffffffffff16815260200190815260200160002060008960ff1660ff16815260200190815260200160002060008473ffffffffffffffffffffffffffffffffffffffff1673ffffffffffffffffffffffffffffffffffffffff16815260200190815260200160002081905550600160ff168760ff1614156111e75780601860008a6fffffffffffffffffffffffffffffffff1681526020019081526020016000206002016000828254019250508190555061121e565b80601860008a6fffffffffffffffffffffffffffffffff168152602001908152602001600020600301600082825401925050819055505b80601860008a6fffffffffffffffffffffffffffffffff16815260200190815260200160002060040160008282540192505081905550600061125f8361257e565b905042896fffffffffffffffffffffffffffffffff168473ffffffffffffffffffffffffffffffffffffffff167f36dea6e2ca98fcfbacb3e3d3c49cd2258a9f7cb343d367ea6bc4ec581ac4b79f856040516112bb9190613f5e565b60405180910390a480965050505050505092915050565b60006113028260405180606001604052806029815260200161434d6029913960026125ab9092919063ffffffff16565b9050919050565b606060098054600181600116156101000203166002900480601f0160208091040260200160405190810160405280929190818152602001828054600181600116156101000203166002900480156113a15780601f10611376576101008083540402835291602001916113a1565b820191906000526020600020905b81548152906001019060200180831161138457829003601f168201915b5050505050905090565b60008073ffffffffffffffffffffffffffffffffffffffff168273ffffffffffffffffffffffffffffffffffffffff161415611432576040517f08c379a000000000000000000000000000000000000000000000000000000000815260040180806020018281038252602a815260200180614323602a913960400191505060405180910390fd5b611479600160008473ffffffffffffffffffffffffffffffffffffffff1673ffffffffffffffffffffffffffffffffffffffff1681526020019081526020016000206125ca565b9050919050565b601060009054906101000a900473ffffffffffffffffffffffffffffffffffffffff1673ffffffffffffffffffffffffffffffffffffffff163373ffffffffffffffffffffffffffffffffffffffff1614611510576040517f08c379a000000000000000000000000000000000000000000000000000000000815260040161150790613e7c565b60405180910390fd5b816fffffffffffffffffffffffffffffffff166018600082815260200190815260200160002060050160029054906101000a900460ff16611586576040517f08c379a000000000000000000000000000000000000000000000000000000000815260040161157d90613ebc565b60405180910390fd5b826fffffffffffffffffffffffffffffffff16600160028111156115a657fe5b6018600083815260200190815260200160002060050160019054906101000a900460ff1660028111156115d557fe5b14611615576040517f08c379a000000000000000000000000000000000000000000000000000000000815260040161160c90613efc565b60405180910390fd5b600260186000866fffffffffffffffffffffffffffffffff16815260200190815260200160002060050160016101000a81548160ff0219169083600281111561165a57fe5b0217905550836fffffffffffffffffffffffffffffffff163373ffffffffffffffffffffffffffffffffffffffff167f0e7b747a0c50c86498e7e1ba36262e6509dcfa11242e207dfbd88cd7dcb748ae60405160405180910390a350505050565b60135481565b606060078054600181600116156101000203166002900480601f0160208091040260200160405190810160405280929190818152602001828054600181600116156101000203166002900480156117595780601f1061172e57610100808354040283529160200191611759565b820191906000526020600020905b81548152906001019060200180831161173c57829003601f168201915b5050505050905090565b61176b61212b565b73ffffffffffffffffffffffffffffffffffffffff168273ffffffffffffffffffffffffffffffffffffffff16141561180c576040517f08c379a00000000000000000000000000000000000000000000000000000000081526004018080602001828103825260198152602001807f4552433732313a20617070726f766520746f2063616c6c65720000000000000081525060200191505060405180910390fd5b806005600061181961212b565b73ffffffffffffffffffffffffffffffffffffffff1673ffffffffffffffffffffffffffffffffffffffff16815260200190815260200160002060008473ffffffffffffffffffffffffffffffffffffffff1673ffffffffffffffffffffffffffffffffffffffff16815260200190815260200160002060006101000a81548160ff0219169083151502179055508173ffffffffffffffffffffffffffffffffffffffff166118c661212b565b73ffffffffffffffffffffffffffffffffffffffff167f17307eab39ab6107e8899845ad3d59bd9653f200f220920489ca2b5937696c318360405180821515815260200191505060405180910390a35050565b61192a61192461212b565b83612201565b61197f576040517f08c379a000000000000000000000000000000000000000000000000000000000815260040180806020018281038252603181526020018061443d6031913960400191505060405180910390fd5b61198b848484846125df565b50505050565b60008560006019600083815260200190815260200160002054146119ea576040517f08c379a00000000000000000000000000000000000000000000000000000000081526004016119e190613e1c565b60405180910390fd5b601060009054906101000a900473ffffffffffffffffffffffffffffffffffffffff1673ffffffffffffffffffffffffffffffffffffffff163373ffffffffffffffffffffffffffffffffffffffff1614611a7a576040517f08c379a0000000000000000000000000000000000000000000000000000000008152600401611a7190613e7c565b60405180910390fd5b611a846011612651565b6000611a906011612667565b90506040518061014001604052803373ffffffffffffffffffffffffffffffffffffffff1681526020018760ff1681526020018660ff16815260200188815260200160008152602001600081526020016000815260200160006003811115611af457fe5b815260200160006002811115611b0657fe5b8152602001600115158152506018600083815260200190815260200160002060008201518160000160006101000a81548173ffffffffffffffffffffffffffffffffffffffff021916908373ffffffffffffffffffffffffffffffffffffffff16021790555060208201518160000160146101000a81548160ff021916908360ff16021790555060408201518160000160156101000a81548160ff021916908360ff1602179055506060820151816001019080519060200190611bca9291906133ee565b506080820151816002015560a0820151816003015560c0820151816004015560e08201518160050160006101000a81548160ff02191690836003811115611c0d57fe5b02179055506101008201518160050160016101000a81548160ff02191690836002811115611c3757fe5b02179055506101208201518160050160026101000a81548160ff02191690831515021790555090505080601960008a815260200190815260200160002081905550833373ffffffffffffffffffffffffffffffffffffffff167f7b1b45419551e8400cc629d43c383cd9d37413948985181b85d253d65537932d83604051611cbf9190613f5e565b60405180910390a3809250505095945050505050565b6060611ce08261210e565b611d35576040517f08c379a000000000000000000000000000000000000000000000000000000000815260040180806020018281038252602f8152602001806143ed602f913960400191505060405180910390fd5b6000600860008481526020019081526020016000208054600181600116156101000203166002900480601f016020809104026020016040519081016040528092919081815260200182805460018160011615610100020316600290048015611dde5780601f10611db357610100808354040283529160200191611dde565b820191906000526020600020905b815481529060010190602001808311611dc157829003601f168201915b50505050509050600060098054600181600116156101000203166002900490501415611e0d5780915050611fb9565b600081511115611ee6576009816040516020018083805460018160011615610100020316600290048015611e785780601f10611e56576101008083540402835291820191611e78565b820191906000526020600020905b815481529060010190602001808311611e64575b505082805190602001908083835b60208310611ea95780518252602082019150602081019050602083039250611e86565b6001836020036101000a03801982511681845116808217855250505050505090500192505050604051602081830303815290604052915050611fb9565b6009611ef184612675565b6040516020018083805460018160011615610100020316600290048015611f4f5780601f10611f2d576101008083540402835291820191611f4f565b820191906000526020600020905b815481529060010190602001808311611f3b575b505082805190602001908083835b60208310611f805780518252602082019150602081019050602083039250611f5d565b6001836020036101000a038019825116818451168082178552505050505050905001925050506040516020818303038152906040529150505b919050565b601060009054906101000a900473ffffffffffffffffffffffffffffffffffffffff1673ffffffffffffffffffffffffffffffffffffffff163373ffffffffffffffffffffffffffffffffffffffff161461204e576040517f08c379a000000000000000000000000000000000000000000000000000000000815260040161204590613e7c565b60405180910390fd5b601460009054906101000a900460ff1615601460006101000a81548160ff021916908315150217905550565b6000600560008473ffffffffffffffffffffffffffffffffffffffff1673ffffffffffffffffffffffffffffffffffffffff16815260200190815260200160002060008373ffffffffffffffffffffffffffffffffffffffff1673ffffffffffffffffffffffffffffffffffffffff16815260200190815260200160002060009054906101000a900460ff16905092915050565b60006121248260026127bc90919063ffffffff16565b9050919050565b600033905090565b816004600083815260200190815260200160002060006101000a81548173ffffffffffffffffffffffffffffffffffffffff021916908373ffffffffffffffffffffffffffffffffffffffff160217905550808273ffffffffffffffffffffffffffffffffffffffff166121a6836112d2565b73ffffffffffffffffffffffffffffffffffffffff167f8c5be1e5ebec7d5bd14f71427d1e84f3dd0314c0f7b2291e5b200ac8c7c3b92560405160405180910390a45050565b60006121fa826000016127d6565b9050919050565b600061220c8261210e565b612261576040517f08c379a000000000000000000000000000000000000000000000000000000000815260040180806020018281038252602c8152602001806142bf602c913960400191505060405180910390fd5b600061226c836112d2565b90508073ffffffffffffffffffffffffffffffffffffffff168473ffffffffffffffffffffffffffffffffffffffff1614806122db57508373ffffffffffffffffffffffffffffffffffffffff166122c384610774565b73ffffffffffffffffffffffffffffffffffffffff16145b806122ec57506122eb818561207a565b5b91505092915050565b8273ffffffffffffffffffffffffffffffffffffffff16612315826112d2565b73ffffffffffffffffffffffffffffffffffffffff1614612381576040517f08c379a00000000000000000000000000000000000000000000000000000000081526004018080602001828103825260298152602001806143c46029913960400191505060405180910390fd5b600073ffffffffffffffffffffffffffffffffffffffff168273ffffffffffffffffffffffffffffffffffffffff161415612407576040517f08c379a000000000000000000000000000000000000000000000000000000000815260040180806020018281038252602481526020018061429b6024913960400191505060405180910390fd5b6124128383836127e7565b61241d600082612133565b61246e81600160008673ffffffffffffffffffffffffffffffffffffffff1673ffffffffffffffffffffffffffffffffffffffff1681526020019081526020016000206127ec90919063ffffffff16565b506124c081600160008573ffffffffffffffffffffffffffffffffffffffff1673ffffffffffffffffffffffffffffffffffffffff16815260200190815260200160002061280690919063ffffffff16565b506124d7818360026128209092919063ffffffff16565b50808273ffffffffffffffffffffffffffffffffffffffff168473ffffffffffffffffffffffffffffffffffffffff167fddf252ad1be2c89b69c2b068fc378daa952ba7f163c4a11628f55a4df523b3ef60405160405180910390a4505050565b60006125478360000183612855565b60001c905092915050565b60008060008061256586600001866128d8565b915091508160001c8160001c9350935050509250929050565b600061258a6012612651565b60006125966012612667565b90506125a28382612971565b80915050919050565b60006125be846000018460001b84612b65565b60001c90509392505050565b60006125d882600001612c5b565b9050919050565b6125ea8484846122f5565b6125f684848484612c6c565b61264b576040517f08c379a00000000000000000000000000000000000000000000000000000000081526004018080602001828103825260328152602001806142696032913960400191505060405180910390fd5b50505050565b6001816000016000828254019250508190555050565b600081600001549050919050565b606060008214156126bd576040518060400160405280600181526020017f300000000000000000000000000000000000000000000000000000000000000081525090506127b7565b600082905060005b600082146126e7578080600101915050600a82816126df57fe5b0491506126c5565b60008167ffffffffffffffff8111801561270057600080fd5b506040519080825280601f01601f1916602001820160405280156127335781602001600182028036833780820191505090505b50905060006001830390508593505b600084146127af57600a848161275457fe5b0660300160f81b8282806001900393508151811061276e57fe5b60200101907effffffffffffffffffffffffffffffffffffffffffffffffffffffffffffff1916908160001a905350600a84816127a757fe5b049350612742565b819450505050505b919050565b60006127ce836000018360001b612e85565b905092915050565b600081600001805490509050919050565b505050565b60006127fe836000018360001b612ea8565b905092915050565b6000612818836000018360001b612f90565b905092915050565b600061284c846000018460001b8473ffffffffffffffffffffffffffffffffffffffff1660001b613000565b90509392505050565b6000818360000180549050116128b6576040517f08c379a00000000000000000000000000000000000000000000000000000000081526004018080602001828103825260228152602001806142476022913960400191505060405180910390fd5b8260000182815481106128c557fe5b9060005260206000200154905092915050565b6000808284600001805490501161293a576040517f08c379a00000000000000000000000000000000000000000000000000000000081526004018080602001828103825260228152602001806143766022913960400191505060405180910390fd5b600084600001848154811061294b57fe5b906000526020600020906002020190508060000154816001015492509250509250929050565b600073ffffffffffffffffffffffffffffffffffffffff168273ffffffffffffffffffffffffffffffffffffffff161415612a14576040517f08c379a00000000000000000000000000000000000000000000000000000000081526004018080602001828103825260208152602001807f4552433732313a206d696e7420746f20746865207a65726f206164647265737381525060200191505060405180910390fd5b612a1d8161210e565b15612a90576040517f08c379a000000000000000000000000000000000000000000000000000000000815260040180806020018281038252601c8152602001807f4552433732313a20746f6b656e20616c7265616479206d696e7465640000000081525060200191505060405180910390fd5b612a9c600083836127e7565b612aed81600160008573ffffffffffffffffffffffffffffffffffffffff1673ffffffffffffffffffffffffffffffffffffffff16815260200190815260200160002061280690919063ffffffff16565b50612b04818360026128209092919063ffffffff16565b50808273ffffffffffffffffffffffffffffffffffffffff16600073ffffffffffffffffffffffffffffffffffffffff167fddf252ad1be2c89b69c2b068fc378daa952ba7f163c4a11628f55a4df523b3ef60405160405180910390a45050565b60008084600101600085815260200190815260200160002054905060008114158390612c2c576040517f08c379a00000000000000000000000000000000000000000000000000000000081526004018080602001828103825283818151815260200191508051906020019080838360005b83811015612bf1578082015181840152602081019050612bd6565b50505050905090810190601f168015612c1e5780820380516001836020036101000a031916815260200191505b509250505060405180910390fd5b50846000016001820381548110612c3f57fe5b9060005260206000209060020201600101549150509392505050565b600081600001805490509050919050565b6000612c8d8473ffffffffffffffffffffffffffffffffffffffff166130dc565b612c9a5760019050612e7d565b6000612e0463150b7a0260e01b612caf61212b565b888787604051602401808573ffffffffffffffffffffffffffffffffffffffff1681526020018473ffffffffffffffffffffffffffffffffffffffff16815260200183815260200180602001828103825283818151815260200191508051906020019080838360005b83811015612d33578082015181840152602081019050612d18565b50505050905090810190601f168015612d605780820380516001836020036101000a031916815260200191505b5095505050505050604051602081830303815290604052907bffffffffffffffffffffffffffffffffffffffffffffffffffffffff19166020820180517bffffffffffffffffffffffffffffffffffffffffffffffffffffffff8381831617835250505050604051806060016040528060328152602001614269603291398773ffffffffffffffffffffffffffffffffffffffff166131279092919063ffffffff16565b90506000818060200190516020811015612e1d57600080fd5b8101908080519060200190929190505050905063150b7a0260e01b7bffffffffffffffffffffffffffffffffffffffffffffffffffffffff1916817bffffffffffffffffffffffffffffffffffffffffffffffffffffffff191614925050505b949350505050565b600080836001016000848152602001908152602001600020541415905092915050565b60008083600101600084815260200190815260200160002054905060008114612f845760006001820390506000600186600001805490500390506000866000018281548110612ef357fe5b9060005260206000200154905080876000018481548110612f1057fe5b9060005260206000200181905550600183018760010160008381526020019081526020016000208190555086600001805480612f4857fe5b60019003818190600052602060002001600090559055866001016000878152602001908152602001600020600090556001945050505050612f8a565b60009150505b92915050565b6000612f9c838361313f565b612ff5578260000182908060018154018082558091505060019003906000526020600020016000909190919091505582600001805490508360010160008481526020019081526020016000208190555060019050612ffa565b600090505b92915050565b60008084600101600085815260200190815260200160002054905060008114156130a7578460000160405180604001604052808681526020018581525090806001815401808255809150506001900390600052602060002090600202016000909190919091506000820151816000015560208201518160010155505084600001805490508560010160008681526020019081526020016000208190555060019150506130d5565b828560000160018303815481106130ba57fe5b90600052602060002090600202016001018190555060009150505b9392505050565b60008060007fc5d2460186f7233c927e7db2dcc703c0e500b653ca82273b7bfad8045d85a47060001b9050833f915080821415801561311e57506000801b8214155b92505050919050565b60606131368484600085613162565b90509392505050565b600080836001016000848152602001908152602001600020541415905092915050565b606061316d856130dc565b6131df576040517f08c379a000000000000000000000000000000000000000000000000000000000815260040180806020018281038252601d8152602001807f416464726573733a2063616c6c20746f206e6f6e2d636f6e747261637400000081525060200191505060405180910390fd5b6000808673ffffffffffffffffffffffffffffffffffffffff1685876040518082805190602001908083835b6020831061322e578051825260208201915060208101905060208303925061320b565b6001836020036101000a03801982511681845116808217855250505050505090500191505060006040518083038185875af1925050503d8060008114613290576040519150601f19603f3d011682016040523d82523d6000602084013e613295565b606091505b509150915081156132aa57809250505061335f565b6000815111156132bd5780518082602001fd5b836040517f08c379a00000000000000000000000000000000000000000000000000000000081526004018080602001828103825283818151815260200191508051906020019080838360005b83811015613324578082015181840152602081019050613309565b50505050905090810190601f1680156133515780820380516001836020036101000a031916815260200191505b509250505060405180910390fd5b949350505050565b604051806101400160405280600073ffffffffffffffffffffffffffffffffffffffff168152602001600060ff168152602001600060ff16815260200160608152602001600081526020016000815260200160008152602001600060038111156133cd57fe5b8152602001600060028111156133df57fe5b81526020016000151581525090565b828054600181600116156101000203166002900490600052602060002090601f016020900481019282613424576000855561346b565b82601f1061343d57805160ff191683800117855561346b565b8280016001018555821561346b579182015b8281111561346a57825182559160200191906001019061344f565b5b509050613478919061347c565b5090565b5b8082111561349557600081600090555060010161347d565b5090565b60006134ac6134a784613faa565b613f79565b9050828152602081018484840111156134c457600080fd5b6134cf848285614128565b509392505050565b60006134ea6134e584613fda565b613f79565b90508281526020810184848401111561350257600080fd5b61350d848285614128565b509392505050565b600081359050613524816141a5565b92915050565b600081359050613539816141bc565b92915050565b60008135905061354e816141d3565b92915050565b600081359050613563816141ea565b92915050565b600082601f83011261357a57600080fd5b813561358a848260208601613499565b91505092915050565b600082601f8301126135a457600080fd5b81356135b48482602086016134d7565b91505092915050565b6000813590506135cc81614201565b92915050565b6000813590506135e181614218565b92915050565b6000813590506135f68161422f565b92915050565b60006020828403121561360e57600080fd5b600061361c84828501613515565b91505092915050565b6000806040838503121561363857600080fd5b600061364685828601613515565b925050602061365785828601613515565b9150509250929050565b60008060006060848603121561367657600080fd5b600061368486828701613515565b935050602061369586828701613515565b92505060406136a6868287016135d2565b9150509250925092565b600080600080608085870312156136c657600080fd5b60006136d487828801613515565b94505060206136e587828801613515565b93505060406136f6878288016135d2565b925050606085013567ffffffffffffffff81111561371357600080fd5b61371f87828801613569565b91505092959194509250565b6000806040838503121561373e57600080fd5b600061374c85828601613515565b925050602061375d8582860161352a565b9150509250929050565b6000806040838503121561377a57600080fd5b600061378885828601613515565b9250506020613799858286016135d2565b9150509250929050565b600080604083850312156137b657600080fd5b60006137c48582860161353f565b92505060206137d5858286016135e7565b9150509250929050565b6000602082840312156137f157600080fd5b60006137ff84828501613554565b91505092915050565b60006020828403121561381a57600080fd5b6000613828848285016135bd565b91505092915050565b6000806040838503121561384457600080fd5b6000613852858286016135bd565b9250506020613863858286016135d2565b9150509250929050565b6000806040838503121561388057600080fd5b600061388e858286016135bd565b925050602061389f858286016135e7565b9150509250929050565b6000602082840312156138bb57600080fd5b60006138c9848285016135d2565b91505092915050565b600080600080600060a086880312156138ea57600080fd5b60006138f8888289016135d2565b955050602086013567ffffffffffffffff81111561391557600080fd5b61392188828901613593565b9450506040613932888289016135e7565b9350506060613943888289016135e7565b9250506080613954888289016135d2565b9150509295509295909350565b61396a81614037565b82525050565b61397981614037565b82525050565b61398881614049565b82525050565b61399781614049565b82525050565b6139a681614104565b82525050565b6139b581614104565b82525050565b6139c481614116565b82525050565b60006139d58261400a565b6139df8185614015565b93506139ef818560208601614137565b6139f88161416c565b840191505092915050565b6000613a0e8261400a565b613a188185614026565b9350613a28818560208601614137565b613a318161416c565b840191505092915050565b6000613a49601083614026565b91507f617069206d6174636820657869737473000000000000000000000000000000006000830152602082019050919050565b6000613a89601383614026565b91507f496e76616c6964207465616d20626574206f6e000000000000000000000000006000830152602082019050919050565b6000613ac9600d83614026565b91507f6d617463682073746172746564000000000000000000000000000000000000006000830152602082019050919050565b6000613b09601383614026565b91507f63616c6c6572206973206e6f74206f776e6572000000000000000000000000006000830152602082019050919050565b6000613b49601283614026565b91507f6d61746368206e6f742066696e697368656400000000000000000000000000006000830152602082019050919050565b6000613b89601d83614026565b91507f6f6e20636861696e206d6174636820646f6573206e6f742065786973740000006000830152602082019050919050565b6000613bc9601283614026565b91507f496e76616c696420616d6f756e742062657400000000000000000000000000006000830152602082019050919050565b6000613c09601183614026565b91507f6d61746368206e6f7420737461727465640000000000000000000000000000006000830152602082019050919050565b6000613c49602f83614026565b91507f4e6f7420616c6c6f77656420746f20626574206f6e2073616d65206d6174636860008301527f206d6f7265207468616e206f6e636500000000000000000000000000000000006020830152604082019050919050565b600061014083016000830151613cbb6000860182613961565b506020830151613cce6020860182613d9a565b506040830151613ce16040860182613d9a565b5060608301518482036060860152613cf982826139ca565b9150506080830151613d0e6080860182613d7c565b5060a0830151613d2160a0860182613d7c565b5060c0830151613d3460c0860182613d7c565b5060e0830151613d4760e086018261399d565b50610100830151613d5c6101008601826139bb565b50610120830151613d7161012086018261397f565b508091505092915050565b613d85816140ed565b82525050565b613d94816140ed565b82525050565b613da3816140f7565b82525050565b6000602082019050613dbe6000830184613970565b92915050565b6000602082019050613dd9600083018461398e565b92915050565b6000602082019050613df460008301846139ac565b92915050565b60006020820190508181036000830152613e148184613a03565b905092915050565b60006020820190508181036000830152613e3581613a3c565b9050919050565b60006020820190508181036000830152613e5581613a7c565b9050919050565b60006020820190508181036000830152613e7581613abc565b9050919050565b60006020820190508181036000830152613e9581613afc565b9050919050565b60006020820190508181036000830152613eb581613b3c565b9050919050565b60006020820190508181036000830152613ed581613b7c565b9050919050565b60006020820190508181036000830152613ef581613bbc565b9050919050565b60006020820190508181036000830152613f1581613bfc565b9050919050565b60006020820190508181036000830152613f3581613c3c565b9050919050565b60006020820190508181036000830152613f568184613ca2565b905092915050565b6000602082019050613f736000830184613d8b565b92915050565b6000604051905081810181811067ffffffffffffffff82111715613fa057613f9f61416a565b5b8060405250919050565b600067ffffffffffffffff821115613fc557613fc461416a565b5b601f19601f8301169050602081019050919050565b600067ffffffffffffffff821115613ff557613ff461416a565b5b601f19601f8301169050602081019050919050565b600081519050919050565b600082825260208201905092915050565b600082825260208201905092915050565b6000614042826140cd565b9050919050565b60008115159050919050565b6000819050919050565b60007fffffffff0000000000000000000000000000000000000000000000000000000082169050919050565b60008190506140998261417d565b919050565b60008190506140ac82614191565b919050565b60006fffffffffffffffffffffffffffffffff82169050919050565b600073ffffffffffffffffffffffffffffffffffffffff82169050919050565b6000819050919050565b600060ff82169050919050565b600061410f8261408b565b9050919050565b60006141218261409e565b9050919050565b82818337600083830152505050565b60005b8381101561415557808201518184015260208101905061413a565b83811115614164576000848401525b50505050565bfe5b6000601f19601f8301169050919050565b6004811061418e5761418d61416a565b5b50565b600381106141a2576141a161416a565b5b50565b6141ae81614037565b81146141b957600080fd5b50565b6141c581614049565b81146141d057600080fd5b50565b6141dc81614055565b81146141e757600080fd5b50565b6141f38161405f565b81146141fe57600080fd5b50565b61420a816140b1565b811461421557600080fd5b50565b614221816140ed565b811461422c57600080fd5b50565b614238816140f7565b811461424357600080fd5b5056fe456e756d657261626c655365743a20696e646578206f7574206f6620626f756e64734552433732313a207472616e7366657220746f206e6f6e20455243373231526563656976657220696d706c656d656e7465724552433732313a207472616e7366657220746f20746865207a65726f20616464726573734552433732313a206f70657261746f7220717565727920666f72206e6f6e6578697374656e7420746f6b656e4552433732313a20617070726f76652063616c6c6572206973206e6f74206f776e6572206e6f7220617070726f76656420666f7220616c6c4552433732313a2062616c616e636520717565727920666f7220746865207a65726f20616464726573734552433732313a206f776e657220717565727920666f72206e6f6e6578697374656e7420746f6b656e456e756d657261626c654d61703a20696e646578206f7574206f6620626f756e64734552433732313a20617070726f76656420717565727920666f72206e6f6e6578697374656e7420746f6b656e4552433732313a207472616e73666572206f6620746f6b656e2074686174206973206e6f74206f776e4552433732314d657461646174613a2055524920717565727920666f72206e6f6e6578697374656e7420746f6b656e4552433732313a20617070726f76616c20746f2063757272656e74206f776e65724552433732313a207472616e736665722063616c6c6572206973206e6f74206f776e6572206e6f7220617070726f766564a2646970667358221220194f28c4aa7c510d9169d5ae1d64310b0767ad578e7202b93f5426570ae8ad0564736f6c63430007060033",
  "immutableReferences": {},
  "source": "pragma solidity ^0.7.0;\r\npragma experimental ABIEncoderV2;\r\n\r\nimport \"@chainlink/contracts/src/v0.7/ChainlinkClient.sol\";\r\nimport \"@openzeppelin/contracts/token/ERC721/ERC721.sol\";\r\n// import \"@openzeppelin/contracts/math/SafeMath.sol\";\r\nimport \"@openzeppelin/contracts/utils/Counters.sol\";\r\n\r\n// import \"https://github.com/OpenZeppelin/openzeppelin-contracts/blob/18c7efe800df6fc19554ece3b1f238e9e028a1db/contracts/token/ERC721/ERC721.sol\";\r\n// import \"https://github.com/OpenZeppelin/openzeppelin-contracts/blob/18c7efe800df6fc19554ece3b1f238e9e028a1db/contracts/utils/Counters.sol\";\r\n\r\n\r\n/*\r\n * @notice SmartBet core smart contract. Handles matches, bets and farming\r\n */\r\ncontract SmartBet is ERC721, ChainlinkClient {\r\n\r\n    using Counters for Counters.Counter;\r\n    // using SafeMath for uint256;\r\n\r\n    ////////////////////////////////////////\r\n    //                                    //\r\n    //         STATE VARIABLES            //\r\n    //                                    //      \r\n    ////////////////////////////////////////\r\n    // contract owner adress\r\n    address private owner;\r\n\r\n    // incremented for match id generation\r\n    Counters.Counter private matchIds;\r\n\r\n    // incremented id for NFT minting\r\n    Counters.Counter private tokenIds;\r\n\r\n    // total funds available\r\n    uint256 public totalTreasury;\r\n\r\n    // flag to determine if contracts core functionalities can be performed\r\n    bool circuitBreaker = false;\r\n\r\n    address private oracle;\r\n    bytes32 private jobId;\r\n    uint256 private fee;\r\n\r\n    enum MatchResult {NOT_DETERMINED, DRAW, TEAM_A_WON, TEAM_B_WON}\r\n    enum MatchState {NOT_STARTED, STARTED, FINISHED}\r\n\r\n    uint8 private constant TEAM_A = 1;\r\n    uint8 private constant TEAM_B = 2;\r\n\r\n    struct Match {\r\n        address creator;\r\n        uint8 oddsTeamA;\r\n        uint8 oddsTeamB;\r\n        string matchResultLink;\r\n        uint256 totalPayoutTeamA;\r\n        uint256 totalPayoutTeamB;\r\n        uint256 totalCollected;\r\n        MatchResult result;\r\n        MatchState state;\r\n        bool exists;\r\n    }\r\n\r\n    // NFT issued to winner\r\n    struct SmartAsset {\r\n        uint256 tokenId;\r\n        address owner;\r\n        uint256 initialValue;\r\n        uint8 accruedInterest;\r\n    }\r\n\r\n    // holds all NFTs issued to winners\r\n    mapping(address => SmartAsset[]) assets;\r\n\r\n    // holds all created matches (key: idCounter)\r\n    mapping(uint256 => Match) matches;\r\n    \r\n    // holds all apiMatchId -> onChainMatchId to prevent duplicate entries\r\n    mapping(uint256 => uint256) api_matches;\r\n\r\n    // holds all bets on a match\r\n    // mapping(matchId => mapping(team => mapping(address => amount[]))) matchBets;\r\n    mapping(uint256 => mapping(uint8 => mapping(address => uint256))) matchBets;\r\n\r\n    mapping(bytes32 => uint256) matchResultRequestIds;\r\n\r\n\r\n    ////////////////////////////////////////\r\n    //                                    //\r\n    //           CONSTRUCTOR              //\r\n    //                                    //      \r\n    ////////////////////////////////////////\r\n\r\n    constructor() ERC721(\"SmartBet\", \"SMBT\") {\r\n        owner = msg.sender;\r\n        // setPublicChainlinkToken();\r\n        oracle = 0x2f90A6D021db21e1B2A077c5a37B3C7E75D15b7e;\r\n        jobId = \"29fa9aa13bf1468788b7cc4a500a45b8\";\r\n        fee = 0.1 * 10 ** 18; // 0.1 LINK\r\n    }\r\n\r\n    ////////////////////////////////////////\r\n    //                                    //\r\n    //              EVENTS                //\r\n    //                                    //      \r\n    ////////////////////////////////////////\r\n\r\n    //Can be used by the clients to get all matches in a particular time\r\n    event LogMatchAdded(address indexed creator, uint256 matchId, uint256 indexed startAt);\r\n    //Can be used by the clients to get all bets placed by a better in a particular time\r\n    event LogBetAdded(address indexed bettor, uint256 indexed matchId, uint256 amount, uint256 indexed betAt);\r\n    event LogCloseMatch(address indexed by, uint256 indexed matchId);\r\n    event LogSetResult(uint256 indexed matchId, MatchResult result);\r\n    event LogWithdrawal(address indexed by, uint256 indexed matchId, uint256 amount);\r\n\r\n\r\n    ////////////////////////////////////////\r\n    //                                    //\r\n    //              MODIFIERS             //\r\n    //                                    //      \r\n    ////////////////////////////////////////\r\n\r\n    /*\r\n    *  @notice  Restrict caller only owner\r\n    */\r\n    modifier onlyOwner() {\r\n        require(msg.sender == owner, \"caller is not owner\");\r\n        _;\r\n    }\r\n\r\n    /*\r\n    *  @notice  Ensure match does not previously exist\r\n    */\r\n    modifier isNewMatch(uint256 _matchId) {\r\n        require(!matches[_matchId].exists, \"on chain match exists\");\r\n        _;\r\n    }\r\n\r\n    /*\r\n    *  @notice  Ensure api match does not previously exist\r\n    */\r\n    modifier isNewAPIMatch(uint256 _api_matchId) {\r\n        require(api_matches[_api_matchId] == 0, \"api match exists\");\r\n        _;\r\n    }\r\n\r\n    /*\r\n    *  @notice  Ensure match exists\r\n    */\r\n    modifier matchExists(uint256 _matchId){\r\n        require(matches[_matchId].exists, \"on chain match does not exist\");\r\n        _;\r\n    }\r\n\r\n    /*\r\n    *  @notice  Ensure match has not started\r\n    */\r\n    modifier matchNotStarted(uint256 _matchId){\r\n        require(matches[_matchId].state == MatchState.NOT_STARTED, \"match started\");\r\n        _;\r\n    }\r\n\r\n    /*\r\n    *  @notice  Ensure match has started\r\n    */\r\n    modifier matchStarted(uint256 _matchId){\r\n        require(matches[_matchId].state == MatchState.STARTED, \"match not started\");\r\n        _;\r\n    }\r\n\r\n    /*\r\n    *  @notice  Ensure match has ended\r\n    */\r\n    modifier matchFinished(uint256 _matchId){\r\n        require(matches[_matchId].state == MatchState.FINISHED, \"match not finished\");\r\n        _;\r\n    }\r\n\r\n    /*\r\n    *  @notice Checks if core functionalities can be performed\r\n    *  @dev Checks if the circuitBreaker state variable is false\r\n    */\r\n    modifier isCircuitBreakOff() {\r\n        require(!circuitBreaker);\r\n        _;\r\n    }\r\n\r\n    /*\r\n    *  @notice Checks if the NFT is valid\r\n    *  @dev Validates NFT\r\n    */\r\n    modifier validateToken(uint256 _tokenId) {\r\n        require(_exists(_tokenId));\r\n        _;\r\n    }\r\n    \r\n    /*\r\n    *  @notice  Ensure token belongs to the caller\r\n    */\r\n    modifier isTokenOwner(uint256 _tokenId) {\r\n        require(ownerOf(_tokenId) == msg.sender);\r\n        _;\r\n    }\r\n\r\n    /*\r\n    *  @notice  Ensures bets are allowed on the match\r\n    *  @dev     The totalCollected on the match must be greater than the total payout on the team the bettor wants to bet on. The incoming bet is inclusive in the calculation\r\n    */\r\n    modifier isBetAllowed(uint256 _matchId) {\r\n        require(true);\r\n        _;\r\n    }\r\n\r\n\r\n\r\n    ////////////////////////////////////////\r\n    //                                    //\r\n    //              FUNCTIONS             //\r\n    //                                    //      \r\n    ////////////////////////////////////////\r\n\r\n    /*\r\n    *  @notice  Contract Circuit Breaker\r\n    *  @dev     Admin can [de]activate core functons in contract\r\n    *  @param   \r\n    *  @return  success success status\r\n    */\r\n    function toggleCircuitBreaker()\r\n        public \r\n        onlyOwner\r\n    {\r\n        //code\r\n        circuitBreaker = !circuitBreaker;\r\n    }\r\n    \r\n    \r\n    /*\r\n    *  @notice  New match creation\r\n    *  @dev     \r\n    *  @param   \r\n    *  @return  match Id\r\n    */\r\n    function createMatch(uint256 _api_matchId, string memory _matchResultLink, uint8 _oddsTeamA, uint8 _oddsTeamB, uint256 _startAt)\r\n        public \r\n        isNewAPIMatch(_api_matchId)\r\n        onlyOwner\r\n        returns(uint)\r\n    {\r\n        matchIds.increment();\r\n        uint256 matchId = matchIds.current();\r\n        matches[matchId] = Match(msg.sender, _oddsTeamA, _oddsTeamB, _matchResultLink, 0, 0, 0, MatchResult.NOT_DETERMINED, MatchState.NOT_STARTED, true); \r\n        api_matches[_api_matchId] = matchId;\r\n        emit LogMatchAdded(msg.sender, matchId, _startAt);\r\n\r\n        return matchId;\r\n    }\r\n\r\n\r\n    /*\r\n    *  @notice  New bet creation. Mint NFT to bettor\r\n    *  @dev   \r\n    *  @param  \r\n    *  @return  success success status\r\n    */\r\n    function placeBet(uint128 _matchId, uint8 _teamBetOn)\r\n        public \r\n        payable\r\n        matchExists(_matchId) \r\n        matchNotStarted(_matchId) \r\n        isBetAllowed(_matchId)\r\n        returns(uint256)\r\n    {\r\n        require(_teamBetOn == TEAM_A || _teamBetOn == TEAM_B, \"Invalid team bet on\");\r\n        require(msg.value != 0, \"Invalid amount bet\");\r\n        //TODO confirm if we want to allow users bet multiple times on the same bet\r\n        require(matchBets[_matchId][_teamBetOn][msg.sender] != 0, \"Not allowed to bet on same match more than once\");\r\n\r\n        address bettor = msg.sender;\r\n        uint256 amountBet = msg.value;\r\n        \r\n        //Save bettor's bet\r\n        matchBets[_matchId][_teamBetOn][bettor] = amountBet;\r\n        \r\n        //update team's total payout\r\n        if (_teamBetOn == TEAM_A) {\r\n            matches[_matchId].totalPayoutTeamA += amountBet;\r\n        } else {\r\n            matches[_matchId].totalPayoutTeamB += amountBet;\r\n        }\r\n\r\n        //increase totalCollected on the match\r\n        matches[_matchId].totalCollected += amountBet;\r\n\r\n        uint256 smartAssetId = awardSmartAsset(bettor);\r\n        \r\n        emit LogBetAdded(bettor, _matchId, amountBet, block.timestamp);\r\n\r\n        return smartAssetId;\r\n    }\r\n\r\n\r\n    function awardSmartAsset(address bettor) internal returns (uint256) {\r\n        tokenIds.increment();\r\n\r\n        uint256 smartAssetId = tokenIds.current();\r\n        _mint(bettor, smartAssetId);\r\n\r\n        return smartAssetId;\r\n    }\r\n\r\n\r\n    /*\r\n    *  @notice  Match manual close by admin. Trigger \"getResult()\" \r\n    *  @dev     [Real] ChainlinkClient API Request oracles gets match result of winning team. Then, match is closed.\r\n    *           [Temporary] (Implemented because there's no BSC testnet oracle node)\r\n    *                       Frontend gets result via result link and posts winning team. Then, match is closed.\r\n    *  @param  \r\n    *  @return  success success status\r\n    */\r\n    function closeMatch(uint128 _matchId, uint winner)\r\n        public \r\n        onlyOwner\r\n        matchExists(_matchId) \r\n        matchStarted(_matchId)\r\n    {\r\n        matches[_matchId].state = MatchState.FINISHED;\r\n        \r\n        // getMatchResult(_matchId);\r\n        \r\n        emit LogCloseMatch(msg.sender, _matchId);\r\n    }\r\n\r\n\r\n    /*\r\n    *  @notice  Funds withdrawal by winner\r\n    *  @dev     validated   NFT is burned and caller gets value funds in account\r\n    *  @param   _tokenId    NFT token id\r\n    *  @return  success success status\r\n    */\r\n    function withdraw(uint128 _tokenId)\r\n        public \r\n        payable\r\n        validateToken(_tokenId)\r\n        returns(bool success)\r\n    {\r\n        //code\r\n\r\n        //emit LogWithdrawal(by, matchId, amount);\r\n        return true;\r\n    }\r\n\r\n    /*\r\n    *  @notice  Fetch match details\r\n    *  @dev         \r\n    *  @oaram   _matchId\r\n    *  @return match match details\r\n    */\r\n    function getMatch(uint256 _matchId)\r\n        public \r\n        view\r\n        matchExists(_matchId)\r\n        returns(Match memory match_)\r\n    {       \r\n    //         struct Match {\r\n    //     address creator;\r\n    //     uint8 oddsTeamA;\r\n    //     uint8 oddsTeamB;\r\n    //     bytes32 matchResultLink;\r\n    //     uint256 totalPayoutTeamA;\r\n    //     uint256 totalPayoutTeamB;\r\n    //     uint256 totalCollected;\r\n    //     MatchResult result;\r\n    //     MatchState state;\r\n    //     bool exists;\r\n    // }\r\n    // uint8, uint8, bytes32, uint256, uint256, uint256, MatchResult, MatchState, bool\r\n        // return (matches[_matchId].oddsTeamA, matches[_matchId].oddsTeamB, matches[_matchId].matchResultLink, matches[_matchId].totalPayoutTeamA, \r\n        // matches[_matchId].totalPayoutTeamB, matches[_matchId].totalCollected, matches[_matchId].result, matches[_matchId].state, matches[_matchId].exists);\r\n        return matches[_matchId];\r\n    }\r\n\r\n\r\n    /*\r\n    *  @notice  Fetch match result with a call through ChainlinkClient.\r\n    *  @dev     ChainlinkClient Oracle. Callback function \"setMatchResult()\"\r\n    *  @oaram   _matchId\r\n    *  @return request ID\r\n    */\r\n    function getMatchResult(uint256 _matchId)\r\n        internal \r\n        view\r\n        matchFinished(_matchId)\r\n    {\r\n        // Chainlink.Request memory request = buildChainlinkRequest(jobId, address(this), this.setMatchResult.selector);\r\n        \r\n        // // Set the URL to perform the GET request on\r\n        // request.add(\"get\", matches[_matchId].matchResultLink);\r\n        \r\n        // // Set the path to find the desired data in the API response, where the response format is:\r\n        // request.add(\"path\", \"api.results.fixtures[0].goalsHomeTeam\");\r\n        \r\n        // // Sends the request\r\n        // bytes32 requestId = sendChainlinkRequestTo(oracle, request, fee);\r\n        // matchResultRequestIds[requestId] = _matchId;\r\n    }\r\n\r\n     /*\r\n    *  @notice  Set Match results\r\n    *  @dev   \r\n    *  @param  \r\n    *  @return  success success status\r\n    */\r\n    function setMatchResult(bytes32 _requestId, uint8 _matchResult)\r\n        public \r\n        matchExists(matchResultRequestIds[_requestId]) \r\n        matchFinished(matchResultRequestIds[_requestId])\r\n    {\r\n        uint256 matchId = matchResultRequestIds[_requestId];\r\n        matches[matchId].result = MatchResult(_matchResult);\r\n        emit LogSetResult(matchId, matches[matchId].result);\r\n    }\r\n    \r\n    /*\r\n    *  @notice  Fetch all NFTs (SmartAssets)\r\n    *  @dev             \r\n    *  @return  assets Array of all NFTs\r\n    */\r\n    // function allSmartAssets()\r\n    //     public \r\n    //     view\r\n    //     returns(SmartAsset[] memory _assets)\r\n    // {\r\n    //     //code        \r\n    // }\r\n\r\n\r\n    /*\r\n    *  @notice  Fetch single NFT (SmartAsset)\r\n    *  @dev          \r\n    *  @param   _tokenId\r\n    *  @return  asset NFT details\r\n    */\r\n    // function getSmartAsset(uint256 _tokenId)\r\n    //     public \r\n    //     view\r\n    //     isAssetOwner(_tokenId)\r\n    //     returns(SmartAsset asset)\r\n    // {\r\n    //     //code        \r\n        \r\n    // }\r\n    \r\n}\r\n",
  "sourcePath": "C:/Users/USER/Desktop/BLOCKCHAIN/SmartBet/contracts/SmartBet.sol",
  "compiler": {
    "name": "solc",
    "version": "0.7.6+commit.7338295f.Emscripten.clang"
  },
  "schemaVersion": "3.3.4",
  "updatedAt": "2021-04-09T17:27:55.480Z",
  "networkType": "ethereum",
  "devdoc": {
    "kind": "dev",
    "methods": {
      "approve(address,uint256)": {
        "details": "See {IERC721-approve}."
      },
      "balanceOf(address)": {
        "details": "See {IERC721-balanceOf}."
      },
      "baseURI()": {
        "details": "Returns the base URI set via {_setBaseURI}. This will be automatically added as a prefix in {tokenURI} to each token's URI, or to the token ID if no specific URI is set for that token ID."
      },
      "getApproved(uint256)": {
        "details": "See {IERC721-getApproved}."
      },
      "isApprovedForAll(address,address)": {
        "details": "See {IERC721-isApprovedForAll}."
      },
      "name()": {
        "details": "See {IERC721Metadata-name}."
      },
      "ownerOf(uint256)": {
        "details": "See {IERC721-ownerOf}."
      },
      "safeTransferFrom(address,address,uint256)": {
        "details": "See {IERC721-safeTransferFrom}."
      },
      "safeTransferFrom(address,address,uint256,bytes)": {
        "details": "See {IERC721-safeTransferFrom}."
      },
      "setApprovalForAll(address,bool)": {
        "details": "See {IERC721-setApprovalForAll}."
      },
      "supportsInterface(bytes4)": {
        "details": "See {IERC165-supportsInterface}. Time complexity O(1), guaranteed to always use less than 30 000 gas."
      },
      "symbol()": {
        "details": "See {IERC721Metadata-symbol}."
      },
      "tokenByIndex(uint256)": {
        "details": "See {IERC721Enumerable-tokenByIndex}."
      },
      "tokenOfOwnerByIndex(address,uint256)": {
        "details": "See {IERC721Enumerable-tokenOfOwnerByIndex}."
      },
      "tokenURI(uint256)": {
        "details": "See {IERC721Metadata-tokenURI}."
      },
      "totalSupply()": {
        "details": "See {IERC721Enumerable-totalSupply}."
      },
      "transferFrom(address,address,uint256)": {
        "details": "See {IERC721-transferFrom}."
      }
    },
    "version": 1
  },
  "userdoc": {
    "kind": "user",
    "methods": {},
    "version": 1
  }
}