{
  "contractName": "VToken",
  "abi": [
    {
      "inputs": [
        {
          "internalType": "uint256",
          "name": "mintAmount",
          "type": "uint256"
        }
      ],
      "name": "mint",
      "outputs": [
        {
          "internalType": "uint256",
          "name": "",
          "type": "uint256"
        }
      ],
      "stateMutability": "nonpayable",
      "type": "function"
    },
    {
      "inputs": [
        {
          "internalType": "uint256",
          "name": "redeemAmount",
          "type": "uint256"
        }
      ],
      "name": "redeemUnderlying",
      "outputs": [
        {
          "internalType": "uint256",
          "name": "",
          "type": "uint256"
        }
      ],
      "stateMutability": "nonpayable",
      "type": "function"
    },
    {
      "inputs": [
        {
          "internalType": "address",
          "name": "account",
          "type": "address"
        }
      ],
      "name": "balanceOfUnderlying",
      "outputs": [
        {
          "internalType": "uint256",
          "name": "",
          "type": "uint256"
        }
      ],
      "stateMutability": "nonpayable",
      "type": "function"
    }
  ],
  "bytecode": "0x608060405234801561001057600080fd5b50610231806100206000396000f3fe608060405234801561001057600080fd5b50600436106100415760003560e01c80633af9e66914610046578063852a12e314610076578063a0712d68146100a6575b600080fd5b610060600480360381019061005b9190610115565b6100d6565b60405161006d9190610176565b60405180910390f35b610090600480360381019061008b919061013e565b6100dd565b60405161009d9190610176565b60405180910390f35b6100c060048036038101906100bb919061013e565b6100e4565b6040516100cd9190610176565b60405180910390f35b6000919050565b6000919050565b6000919050565b6000813590506100fa816101cd565b92915050565b60008135905061010f816101e4565b92915050565b60006020828403121561012757600080fd5b6000610135848285016100eb565b91505092915050565b60006020828403121561015057600080fd5b600061015e84828501610100565b91505092915050565b610170816101c3565b82525050565b600060208201905061018b6000830184610167565b92915050565b600061019c826101a3565b9050919050565b600073ffffffffffffffffffffffffffffffffffffffff82169050919050565b6000819050919050565b6101d681610191565b81146101e157600080fd5b50565b6101ed816101c3565b81146101f857600080fd5b5056fea264697066735822122004305ba7513a290248e4262155d60a1b990e63baea6555ff123190199ba1e4bd64736f6c63430007060033",
  "immutableReferences": {},
  "source": "pragma solidity ^0.7.0;\r\npragma experimental ABIEncoderV2;\r\n\r\n\r\n//TODO: move to VToken.sol\r\ncontract VToken {\r\n    // No implementation, just the function signature. This is just so Solidity can work out how to call it.\r\n    \r\n    /*\r\n    * @notice   The mint function transfers an asset into the protocol, which begins accumulating interest\r\n    * based on the current Supply Rate for The user receives a quantity of vTokens equal to the\r\n    * underlying tokens tokens supplied, divided by the current Exchange Rate.\r\n    * msg.sender: The account which shall supply the asset, and own the minted vTokens.\r\n    * @param    mintAmount The amount of the asset to be supplied, in units of the underlying asset.\r\n    * @return   status 0 on success, otherwise an Error code\r\n    */\r\n    function mint(uint mintAmount) public returns (uint) {}\r\n    \r\n    /*\r\n    * @notice   The redeem underlying function converts vTokens into a specified quantity of the underlying asset, \r\n    * and returns them to the user. The amount of vTokens redeemed is equal to the quantity of underlying tokens received, \r\n    * divided by the current Exchange Rate. The amount redeemed must be less than the user's Account Liquidity \r\n    * and the market's available liquidity.\r\n    * msg.sender: The account to which redeemed funds shall be transferred.\r\n    * @param    redeemAmount The amount of underlying to be redeemed.\r\n    * @return   status 0 on success, otherwise an Error code\r\n    */\r\n    function redeemUnderlying(uint redeemAmount) public returns (uint) {}\r\n    \r\n    /*\r\n    * @notice   The user's underlying balance, representing their assets in the protocol,\r\n    * is equal to the user's vToken balance multiplied by the Exchange Rate.\r\n    * @param    account The account to get the underlying balance of.\r\n    * @return   The amount of underlying currently owned by the account.\r\n    */\r\n    function balanceOfUnderlying(address account) public returns (uint) {}\r\n    \r\n    \r\n    // function exchangeRateCurrent() returns (uint) {}\r\n    //exchangeRate = (getCash() + totalBorrows() - totalReserves()) / totalSupply()\r\n}\r\n\r\n//TODO: move to Bep20.sol\r\ncontract Bep20 {\r\n    /**\r\n   * @dev Sets `amount` as the allowance of `spender` over the caller's tokens.\r\n   *\r\n   * Returns a boolean value indicating whether the operation succeeded.\r\n   *\r\n   * IMPORTANT: Beware that changing an allowance with this method brings the risk\r\n   * that someone may use both the old and the new allowance by unfortunate\r\n   * transaction ordering. One possible solution to mitigate this race\r\n   * condition is to first reduce the spender's allowance to 0 and set the\r\n   * desired value afterwards:\r\n   * https://github.com/ethereum/EIPs/issues/20#issuecomment-263524729\r\n   *\r\n   * Emits an {Approval} event.\r\n   */\r\n  function approve(address spender, uint256 amount) public returns (bool) {}\r\n}\r\n\r\n/*\r\n* @notice Integrates with Venus lending protocol\r\n*/\r\ncontract SmartInvestV1 {\r\n    \r\n    uint256 public totalTreasury;\r\n    address public constant vTOKEN_ADDRESS = 0x08e0A5575De71037aE36AbfAfb516595fE68e5e4; // BSC testnet Venus vTokens (vBUSD)\r\n    address public constant BASE_BEP20 = 0x8301F2213c0eeD49a7E28Ae4c3e91722919B8B47; //underlying asset: BUSD\r\n    \r\n    function invest(uint256 amount) public {\r\n        \r\n        Bep20 underlying = Bep20(BASE_BEP20);     // get a handle for the underlying asset\r\n        VToken vToken = VToken(vTOKEN_ADDRESS);   // get a handle for the corresponding vToken Contract\r\n        underlying.approve(address(vToken), amount); // approve the transfer\r\n        assert(vToken.mint(amount) == 0);            // mint the vTokens and assert there is no error\r\n    }\r\n    \r\n    function redeem(uint256 amount) public {\r\n        VToken vToken = VToken(vTOKEN_ADDRESS);\r\n        require(vToken.redeemUnderlying(amount) == 0, \"something went wrong\");\r\n    }\r\n    \r\n    function getBalance() public {\r\n        VToken vToken = VToken(vTOKEN_ADDRESS);\r\n        uint tokens = vToken.balanceOfUnderlying(msg.sender);\r\n    }\r\n    \r\n    // function exchangeRateCurrent() public {\r\n    //     VBep20 vToken = VToken(vTOKEN_ADDRESS);\r\n    //     uint exchangeRateMantissa = vToken.exchangeRateCurrent();\r\n    // }\r\n    \r\n}\r\n\r\n\r\n// const vTokenDecimals = 8; // all vTokens have 8 decimal places\r\n// const underlying = new web3.eth.Contract(bep20Abi, busdAddress);\r\n// const vToken = new web3.eth.Contract(vTokenAbi, vBusdAddress);\r\n// const underlyingDecimals = await underlying.methods.decimals().call();\r\n// const exchangeRateCurrent = await vToken.methods.exchangeRateCurrent().call();\r\n// const mantissa = 18 + parseInt(underlyingDecimals) - vTokenDecimals;\r\n// const onevTokenInUnderlying = exchangeRateCurrent / Math.pow(10, mantissa);\r\n// console.log('1 vBUSD can be redeemed for', oneVTokenInUnderlying, 'BUSD');",
  "sourcePath": "C:/Users/USER/Desktop/BLOCKCHAIN/SmartBet/contracts/SmartInvestV1.sol",
  "compiler": {
    "name": "solc",
    "version": "0.7.6+commit.7338295f.Emscripten.clang"
  },
  "schemaVersion": "3.3.4",
  "updatedAt": "2021-04-09T16:41:29.498Z",
  "devdoc": {
    "kind": "dev",
    "methods": {},
    "version": 1
  },
  "userdoc": {
    "kind": "user",
    "methods": {},
    "version": 1
  }
}