{
  "contractName": "VToken",
  "abi": [
    {
      "inputs": [
        {
          "internalType": "uint256",
          "name": "mintAmount",
          "type": "uint256"
        }
      ],
      "name": "mint",
      "outputs": [
        {
          "internalType": "uint256",
          "name": "",
          "type": "uint256"
        }
      ],
      "stateMutability": "nonpayable",
      "type": "function"
    },
    {
      "inputs": [
        {
          "internalType": "uint256",
          "name": "redeemAmount",
          "type": "uint256"
        }
      ],
      "name": "redeemUnderlying",
      "outputs": [
        {
          "internalType": "uint256",
          "name": "",
          "type": "uint256"
        }
      ],
      "stateMutability": "nonpayable",
      "type": "function"
    },
    {
      "inputs": [
        {
          "internalType": "address",
          "name": "account",
          "type": "address"
        }
      ],
      "name": "balanceOfUnderlying",
      "outputs": [
        {
          "internalType": "uint256",
          "name": "",
          "type": "uint256"
        }
      ],
      "stateMutability": "nonpayable",
      "type": "function"
    }
  ],
  "bytecode": "0x608060405234801561001057600080fd5b50610231806100206000396000f3fe608060405234801561001057600080fd5b50600436106100415760003560e01c80633af9e66914610046578063852a12e314610076578063a0712d68146100a6575b600080fd5b610060600480360381019061005b9190610115565b6100d6565b60405161006d9190610176565b60405180910390f35b610090600480360381019061008b919061013e565b6100dd565b60405161009d9190610176565b60405180910390f35b6100c060048036038101906100bb919061013e565b6100e4565b6040516100cd9190610176565b60405180910390f35b6000919050565b6000919050565b6000919050565b6000813590506100fa816101cd565b92915050565b60008135905061010f816101e4565b92915050565b60006020828403121561012757600080fd5b6000610135848285016100eb565b91505092915050565b60006020828403121561015057600080fd5b600061015e84828501610100565b91505092915050565b610170816101c3565b82525050565b600060208201905061018b6000830184610167565b92915050565b600061019c826101a3565b9050919050565b600073ffffffffffffffffffffffffffffffffffffffff82169050919050565b6000819050919050565b6101d681610191565b81146101e157600080fd5b50565b6101ed816101c3565b81146101f857600080fd5b5056fea26469706673582212205a35484173968681168a803f21663b692798627084530fe1c28743487ec14d3864736f6c63430007060033",
  "immutableReferences": {},
  "source": "pragma solidity ^0.7.0;\npragma experimental ABIEncoderV2;\n\n\n//TODO: move to VToken.sol\ncontract VToken {\n    // No implementation, just the function signature. This is just so Solidity can work out how to call it.\n    \n    /*\n    * @notice   The mint function transfers an asset into the protocol, which begins accumulating interest\n    * based on the current Supply Rate for The user receives a quantity of vTokens equal to the\n    * underlying tokens tokens supplied, divided by the current Exchange Rate.\n    * msg.sender: The account which shall supply the asset, and own the minted vTokens.\n    * @param    mintAmount The amount of the asset to be supplied, in units of the underlying asset.\n    * @return   status 0 on success, otherwise an Error code\n    */\n    function mint(uint mintAmount) public returns (uint) {}\n    \n    /*\n    * @notice   The redeem underlying function converts vTokens into a specified quantity of the underlying asset, \n    * and returns them to the user. The amount of vTokens redeemed is equal to the quantity of underlying tokens received, \n    * divided by the current Exchange Rate. The amount redeemed must be less than the user's Account Liquidity \n    * and the market's available liquidity.\n    * msg.sender: The account to which redeemed funds shall be transferred.\n    * @param    redeemAmount The amount of underlying to be redeemed.\n    * @return   status 0 on success, otherwise an Error code\n    */\n    function redeemUnderlying(uint redeemAmount) public returns (uint) {}\n    \n    /*\n    * @notice   The user's underlying balance, representing their assets in the protocol,\n    * is equal to the user's vToken balance multiplied by the Exchange Rate.\n    * @param    account The account to get the underlying balance of.\n    * @return   The amount of underlying currently owned by the account.\n    */\n    function balanceOfUnderlying(address account) public returns (uint) {}\n    \n    \n    // function exchangeRateCurrent() returns (uint) {}\n    //exchangeRate = (getCash() + totalBorrows() - totalReserves()) / totalSupply()\n}\n\n//TODO: move to Bep20.sol\ncontract Bep20 {\n    /**\n   * @dev Sets `amount` as the allowance of `spender` over the caller's tokens.\n   *\n   * Returns a boolean value indicating whether the operation succeeded.\n   *\n   * IMPORTANT: Beware that changing an allowance with this method brings the risk\n   * that someone may use both the old and the new allowance by unfortunate\n   * transaction ordering. One possible solution to mitigate this race\n   * condition is to first reduce the spender's allowance to 0 and set the\n   * desired value afterwards:\n   * https://github.com/ethereum/EIPs/issues/20#issuecomment-263524729\n   *\n   * Emits an {Approval} event.\n   */\n  function approve(address spender, uint256 amount) public returns (bool) {}\n}\n\n/*\n* @notice Integrates with Venus lending protocol\n*/\ncontract SmartInvestV1 {\n    \n    uint256 public totalTreasury;\n    address public constant vTOKEN_ADDRESS = 0x08e0A5575De71037aE36AbfAfb516595fE68e5e4; // BSC testnet Venus vTokens (vBUSD)\n    address public constant BASE_BEP20 = 0x8301F2213c0eeD49a7E28Ae4c3e91722919B8B47; //underlying asset: BUSD\n    \n    function invest(uint256 amount) public {\n        \n        Bep20 underlying = Bep20(BASE_BEP20);     // get a handle for the underlying asset\n        VToken vToken = VToken(vTOKEN_ADDRESS);   // get a handle for the corresponding vToken Contract\n        underlying.approve(address(vToken), amount); // approve the transfer\n        assert(vToken.mint(amount) == 0);            // mint the vTokens and assert there is no error\n    }\n    \n    function redeem(uint256 amount) public {\n        VToken vToken = VToken(vTOKEN_ADDRESS);\n        require(vToken.redeemUnderlying(amount) == 0, \"something went wrong\");\n    }\n    \n    function getBalance() public {\n        VToken vToken = VToken(vTOKEN_ADDRESS);\n        uint tokens = vToken.balanceOfUnderlying(msg.sender);\n    }\n    \n    // function exchangeRateCurrent() public {\n    //     VBep20 vToken = VToken(vTOKEN_ADDRESS);\n    //     uint exchangeRateMantissa = vToken.exchangeRateCurrent();\n    // }\n    \n}\n\n\n// const vTokenDecimals = 8; // all vTokens have 8 decimal places\n// const underlying = new web3.eth.Contract(bep20Abi, busdAddress);\n// const vToken = new web3.eth.Contract(vTokenAbi, vBusdAddress);\n// const underlyingDecimals = await underlying.methods.decimals().call();\n// const exchangeRateCurrent = await vToken.methods.exchangeRateCurrent().call();\n// const mantissa = 18 + parseInt(underlyingDecimals) - vTokenDecimals;\n// const onevTokenInUnderlying = exchangeRateCurrent / Math.pow(10, mantissa);\n// console.log('1 vBUSD can be redeemed for', oneVTokenInUnderlying, 'BUSD');",
  "sourcePath": "/Users/ajibigad/crytoproject/SmartBet/contracts/SmartInvestV1.sol",
  "compiler": {
    "name": "solc",
    "version": "0.7.6+commit.7338295f.Emscripten.clang"
  },
  "schemaVersion": "3.3.4",
  "updatedAt": "2021-04-10T14:35:58.134Z",
  "devdoc": {
    "kind": "dev",
    "methods": {},
    "version": 1
  },
  "userdoc": {
    "kind": "user",
    "methods": {},
    "version": 1
  }
}