{
  "contractName": "SmartBet",
  "abi": [
    {
      "inputs": [],
      "stateMutability": "nonpayable",
      "type": "constructor"
    },
    {
      "anonymous": false,
      "inputs": [
        {
          "indexed": true,
          "internalType": "address",
          "name": "owner",
          "type": "address"
        },
        {
          "indexed": true,
          "internalType": "address",
          "name": "approved",
          "type": "address"
        },
        {
          "indexed": true,
          "internalType": "uint256",
          "name": "tokenId",
          "type": "uint256"
        }
      ],
      "name": "Approval",
      "type": "event"
    },
    {
      "anonymous": false,
      "inputs": [
        {
          "indexed": true,
          "internalType": "address",
          "name": "owner",
          "type": "address"
        },
        {
          "indexed": true,
          "internalType": "address",
          "name": "operator",
          "type": "address"
        },
        {
          "indexed": false,
          "internalType": "bool",
          "name": "approved",
          "type": "bool"
        }
      ],
      "name": "ApprovalForAll",
      "type": "event"
    },
    {
      "anonymous": false,
      "inputs": [
        {
          "indexed": true,
          "internalType": "bytes32",
          "name": "id",
          "type": "bytes32"
        }
      ],
      "name": "ChainlinkCancelled",
      "type": "event"
    },
    {
      "anonymous": false,
      "inputs": [
        {
          "indexed": true,
          "internalType": "bytes32",
          "name": "id",
          "type": "bytes32"
        }
      ],
      "name": "ChainlinkFulfilled",
      "type": "event"
    },
    {
      "anonymous": false,
      "inputs": [
        {
          "indexed": true,
          "internalType": "bytes32",
          "name": "id",
          "type": "bytes32"
        }
      ],
      "name": "ChainlinkRequested",
      "type": "event"
    },
    {
      "anonymous": false,
      "inputs": [
        {
          "indexed": true,
          "internalType": "address",
          "name": "bettor",
          "type": "address"
        },
        {
          "indexed": true,
          "internalType": "uint256",
          "name": "matchId",
          "type": "uint256"
        },
        {
          "indexed": false,
          "internalType": "uint256",
          "name": "amount",
          "type": "uint256"
        },
        {
          "indexed": true,
          "internalType": "uint256",
          "name": "betAt",
          "type": "uint256"
        }
      ],
      "name": "LogBetAdded",
      "type": "event"
    },
    {
      "anonymous": false,
      "inputs": [
        {
          "indexed": true,
          "internalType": "address",
          "name": "by",
          "type": "address"
        },
        {
          "indexed": true,
          "internalType": "uint256",
          "name": "matchId",
          "type": "uint256"
        }
      ],
      "name": "LogCloseMatch",
      "type": "event"
    },
    {
      "anonymous": false,
      "inputs": [
        {
          "indexed": true,
          "internalType": "address",
          "name": "creator",
          "type": "address"
        },
        {
          "indexed": false,
          "internalType": "uint256",
          "name": "matchId",
          "type": "uint256"
        },
        {
          "indexed": true,
          "internalType": "uint256",
          "name": "startAt",
          "type": "uint256"
        }
      ],
      "name": "LogMatchAdded",
      "type": "event"
    },
    {
      "anonymous": false,
      "inputs": [
        {
          "indexed": true,
          "internalType": "uint256",
          "name": "matchId",
          "type": "uint256"
        },
        {
          "indexed": false,
          "internalType": "enum SmartBet.MatchResult",
          "name": "result",
          "type": "uint8"
        }
      ],
      "name": "LogSetResult",
      "type": "event"
    },
    {
      "anonymous": false,
      "inputs": [
        {
          "indexed": true,
          "internalType": "address",
          "name": "by",
          "type": "address"
        },
        {
          "indexed": true,
          "internalType": "uint256",
          "name": "matchId",
          "type": "uint256"
        },
        {
          "indexed": false,
          "internalType": "uint256",
          "name": "amount",
          "type": "uint256"
        }
      ],
      "name": "LogWithdrawal",
      "type": "event"
    },
    {
      "anonymous": false,
      "inputs": [
        {
          "indexed": true,
          "internalType": "address",
          "name": "from",
          "type": "address"
        },
        {
          "indexed": true,
          "internalType": "address",
          "name": "to",
          "type": "address"
        },
        {
          "indexed": true,
          "internalType": "uint256",
          "name": "tokenId",
          "type": "uint256"
        }
      ],
      "name": "Transfer",
      "type": "event"
    },
    {
      "inputs": [
        {
          "internalType": "address",
          "name": "to",
          "type": "address"
        },
        {
          "internalType": "uint256",
          "name": "tokenId",
          "type": "uint256"
        }
      ],
      "name": "approve",
      "outputs": [],
      "stateMutability": "nonpayable",
      "type": "function"
    },
    {
      "inputs": [
        {
          "internalType": "address",
          "name": "owner",
          "type": "address"
        }
      ],
      "name": "balanceOf",
      "outputs": [
        {
          "internalType": "uint256",
          "name": "",
          "type": "uint256"
        }
      ],
      "stateMutability": "view",
      "type": "function"
    },
    {
      "inputs": [],
      "name": "baseURI",
      "outputs": [
        {
          "internalType": "string",
          "name": "",
          "type": "string"
        }
      ],
      "stateMutability": "view",
      "type": "function"
    },
    {
      "inputs": [
        {
          "internalType": "uint256",
          "name": "tokenId",
          "type": "uint256"
        }
      ],
      "name": "getApproved",
      "outputs": [
        {
          "internalType": "address",
          "name": "",
          "type": "address"
        }
      ],
      "stateMutability": "view",
      "type": "function"
    },
    {
      "inputs": [
        {
          "internalType": "address",
          "name": "owner",
          "type": "address"
        },
        {
          "internalType": "address",
          "name": "operator",
          "type": "address"
        }
      ],
      "name": "isApprovedForAll",
      "outputs": [
        {
          "internalType": "bool",
          "name": "",
          "type": "bool"
        }
      ],
      "stateMutability": "view",
      "type": "function"
    },
    {
      "inputs": [],
      "name": "name",
      "outputs": [
        {
          "internalType": "string",
          "name": "",
          "type": "string"
        }
      ],
      "stateMutability": "view",
      "type": "function"
    },
    {
      "inputs": [
        {
          "internalType": "uint256",
          "name": "tokenId",
          "type": "uint256"
        }
      ],
      "name": "ownerOf",
      "outputs": [
        {
          "internalType": "address",
          "name": "",
          "type": "address"
        }
      ],
      "stateMutability": "view",
      "type": "function"
    },
    {
      "inputs": [
        {
          "internalType": "address",
          "name": "from",
          "type": "address"
        },
        {
          "internalType": "address",
          "name": "to",
          "type": "address"
        },
        {
          "internalType": "uint256",
          "name": "tokenId",
          "type": "uint256"
        }
      ],
      "name": "safeTransferFrom",
      "outputs": [],
      "stateMutability": "nonpayable",
      "type": "function"
    },
    {
      "inputs": [
        {
          "internalType": "address",
          "name": "from",
          "type": "address"
        },
        {
          "internalType": "address",
          "name": "to",
          "type": "address"
        },
        {
          "internalType": "uint256",
          "name": "tokenId",
          "type": "uint256"
        },
        {
          "internalType": "bytes",
          "name": "_data",
          "type": "bytes"
        }
      ],
      "name": "safeTransferFrom",
      "outputs": [],
      "stateMutability": "nonpayable",
      "type": "function"
    },
    {
      "inputs": [
        {
          "internalType": "address",
          "name": "operator",
          "type": "address"
        },
        {
          "internalType": "bool",
          "name": "approved",
          "type": "bool"
        }
      ],
      "name": "setApprovalForAll",
      "outputs": [],
      "stateMutability": "nonpayable",
      "type": "function"
    },
    {
      "inputs": [
        {
          "internalType": "bytes4",
          "name": "interfaceId",
          "type": "bytes4"
        }
      ],
      "name": "supportsInterface",
      "outputs": [
        {
          "internalType": "bool",
          "name": "",
          "type": "bool"
        }
      ],
      "stateMutability": "view",
      "type": "function"
    },
    {
      "inputs": [],
      "name": "symbol",
      "outputs": [
        {
          "internalType": "string",
          "name": "",
          "type": "string"
        }
      ],
      "stateMutability": "view",
      "type": "function"
    },
    {
      "inputs": [
        {
          "internalType": "uint256",
          "name": "index",
          "type": "uint256"
        }
      ],
      "name": "tokenByIndex",
      "outputs": [
        {
          "internalType": "uint256",
          "name": "",
          "type": "uint256"
        }
      ],
      "stateMutability": "view",
      "type": "function"
    },
    {
      "inputs": [
        {
          "internalType": "address",
          "name": "owner",
          "type": "address"
        },
        {
          "internalType": "uint256",
          "name": "index",
          "type": "uint256"
        }
      ],
      "name": "tokenOfOwnerByIndex",
      "outputs": [
        {
          "internalType": "uint256",
          "name": "",
          "type": "uint256"
        }
      ],
      "stateMutability": "view",
      "type": "function"
    },
    {
      "inputs": [
        {
          "internalType": "uint256",
          "name": "tokenId",
          "type": "uint256"
        }
      ],
      "name": "tokenURI",
      "outputs": [
        {
          "internalType": "string",
          "name": "",
          "type": "string"
        }
      ],
      "stateMutability": "view",
      "type": "function"
    },
    {
      "inputs": [],
      "name": "totalSupply",
      "outputs": [
        {
          "internalType": "uint256",
          "name": "",
          "type": "uint256"
        }
      ],
      "stateMutability": "view",
      "type": "function"
    },
    {
      "inputs": [],
      "name": "totalTreasury",
      "outputs": [
        {
          "internalType": "uint256",
          "name": "",
          "type": "uint256"
        }
      ],
      "stateMutability": "view",
      "type": "function"
    },
    {
      "inputs": [
        {
          "internalType": "address",
          "name": "from",
          "type": "address"
        },
        {
          "internalType": "address",
          "name": "to",
          "type": "address"
        },
        {
          "internalType": "uint256",
          "name": "tokenId",
          "type": "uint256"
        }
      ],
      "name": "transferFrom",
      "outputs": [],
      "stateMutability": "nonpayable",
      "type": "function"
    },
    {
      "inputs": [],
      "name": "toggleCircuitBreaker",
      "outputs": [],
      "stateMutability": "nonpayable",
      "type": "function"
    },
    {
      "inputs": [
        {
          "internalType": "uint256",
          "name": "_apiMatchId",
          "type": "uint256"
        },
        {
          "internalType": "string",
          "name": "_matchResultLink",
          "type": "string"
        },
        {
          "internalType": "uint8",
          "name": "_oddsTeamA",
          "type": "uint8"
        },
        {
          "internalType": "uint8",
          "name": "_oddsTeamB",
          "type": "uint8"
        },
        {
          "internalType": "uint8",
          "name": "_oddsDraw",
          "type": "uint8"
        },
        {
          "internalType": "uint256",
          "name": "_startAt",
          "type": "uint256"
        }
      ],
      "name": "createMatch",
      "outputs": [
        {
          "internalType": "uint256",
          "name": "",
          "type": "uint256"
        }
      ],
      "stateMutability": "nonpayable",
      "type": "function"
    },
    {
      "inputs": [
        {
          "internalType": "uint128",
          "name": "_matchId",
          "type": "uint128"
        },
        {
          "internalType": "uint8",
          "name": "_resultBetOn",
          "type": "uint8"
        }
      ],
      "name": "placeBet",
      "outputs": [
        {
          "internalType": "uint256",
          "name": "",
          "type": "uint256"
        }
      ],
      "stateMutability": "payable",
      "type": "function"
    },
    {
      "inputs": [
        {
          "internalType": "uint128",
          "name": "_matchId",
          "type": "uint128"
        }
      ],
      "name": "startMatch",
      "outputs": [],
      "stateMutability": "nonpayable",
      "type": "function"
    },
    {
      "inputs": [
        {
          "internalType": "uint128",
          "name": "_matchId",
          "type": "uint128"
        },
        {
          "internalType": "uint8",
          "name": "_matchResult",
          "type": "uint8"
        }
      ],
      "name": "closeMatch",
      "outputs": [],
      "stateMutability": "nonpayable",
      "type": "function"
    },
    {
      "inputs": [
        {
          "internalType": "uint128",
          "name": "_tokenId",
          "type": "uint128"
        }
      ],
      "name": "withdraw",
      "outputs": [
        {
          "internalType": "bool",
          "name": "",
          "type": "bool"
        }
      ],
      "stateMutability": "payable",
      "type": "function"
    },
    {
      "inputs": [
        {
          "internalType": "uint256",
          "name": "_matchId",
          "type": "uint256"
        }
      ],
      "name": "getMatch",
      "outputs": [
        {
          "components": [
            {
              "internalType": "address",
              "name": "creator",
              "type": "address"
            },
            {
              "internalType": "uint8",
              "name": "oddsTeamA",
              "type": "uint8"
            },
            {
              "internalType": "uint8",
              "name": "oddsTeamB",
              "type": "uint8"
            },
            {
              "internalType": "uint8",
              "name": "oddsDraw",
              "type": "uint8"
            },
            {
              "internalType": "string",
              "name": "matchResultLink",
              "type": "string"
            },
            {
              "internalType": "uint256",
              "name": "totalPayoutTeamA",
              "type": "uint256"
            },
            {
              "internalType": "uint256",
              "name": "totalPayoutTeamB",
              "type": "uint256"
            },
            {
              "internalType": "uint256",
              "name": "totalPayoutDraw",
              "type": "uint256"
            },
            {
              "internalType": "uint256",
              "name": "totalCollected",
              "type": "uint256"
            },
            {
              "internalType": "enum SmartBet.MatchResult",
              "name": "result",
              "type": "uint8"
            },
            {
              "internalType": "enum SmartBet.MatchState",
              "name": "state",
              "type": "uint8"
            },
            {
              "internalType": "bool",
              "name": "exists",
              "type": "bool"
            }
          ],
          "internalType": "struct SmartBet.Match",
          "name": "match_",
          "type": "tuple"
        }
      ],
      "stateMutability": "view",
      "type": "function"
    },
    {
      "inputs": [
        {
          "internalType": "uint256",
          "name": "_tokenId",
          "type": "uint256"
        }
      ],
      "name": "getSmartAsset",
      "outputs": [
        {
          "components": [
            {
              "internalType": "address",
              "name": "owner",
              "type": "address"
            },
            {
              "internalType": "uint256",
              "name": "matchId",
              "type": "uint256"
            },
            {
              "internalType": "enum SmartBet.MatchResult",
              "name": "matchResult",
              "type": "uint8"
            },
            {
              "internalType": "uint256",
              "name": "initialValue",
              "type": "uint256"
            },
            {
              "internalType": "uint8",
              "name": "accruedInterest",
              "type": "uint8"
            }
          ],
          "internalType": "struct SmartBet.SmartAsset",
          "name": "asset",
          "type": "tuple"
        }
      ],
      "stateMutability": "view",
      "type": "function"
    }
  ],
  "bytecode": "0x60806040526001600e556000601460006101000a81548160ff0219169083151502179055503480156200003157600080fd5b506040518060400160405280600881526020017f536d6172744265740000000000000000000000000000000000000000000000008152506040518060400160405280600481526020017f534d425400000000000000000000000000000000000000000000000000000000815250620000b66301ffc9a760e01b6200020460201b60201c565b8160069080519060200190620000ce9291906200030d565b508060079080519060200190620000e79291906200030d565b50620001006380ac58cd60e01b6200020460201b60201c565b62000118635b5e139f60e01b6200020460201b60201c565b6200013063780e9d6360e01b6200020460201b60201c565b505033601060006101000a81548173ffffffffffffffffffffffffffffffffffffffff021916908373ffffffffffffffffffffffffffffffffffffffff160217905550732f90a6d021db21e1b2a077c5a37b3c7e75d15b7e601460016101000a81548173ffffffffffffffffffffffffffffffffffffffff021916908373ffffffffffffffffffffffffffffffffffffffff1602179055507f323966613961613133626631343638373838623763633461353030613435623860158190555067016345785d8a0000601681905550620003c3565b63ffffffff60e01b817bffffffffffffffffffffffffffffffffffffffffffffffffffffffff19161415620002a1576040517f08c379a000000000000000000000000000000000000000000000000000000000815260040180806020018281038252601c8152602001807f4552433136353a20696e76616c696420696e746572666163652069640000000081525060200191505060405180910390fd5b6001600080837bffffffffffffffffffffffffffffffffffffffffffffffffffffffff19167bffffffffffffffffffffffffffffffffffffffffffffffffffffffff1916815260200190815260200160002060006101000a81548160ff02191690831515021790555050565b828054600181600116156101000203166002900490600052602060002090601f01602090048101928262000345576000855562000391565b82601f106200036057805160ff191683800117855562000391565b8280016001018555821562000391579182015b828111156200039057825182559160200191906001019062000373565b5b509050620003a09190620003a4565b5090565b5b80821115620003bf576000816000905550600101620003a5565b5090565b61569180620003d36000396000f3fe6080604052600436106101815760003560e01c806358d33e6d116100d1578063a22cb4651161008a578063cec85ad711610064578063cec85ad7146105d8578063d2c2cc8414610601578063d5eb63cc1461063e578063e985e9c51461065557610181565b8063a22cb46514610549578063b88d4fde14610572578063c87b56dd1461059b57610181565b806358d33e6d1461041e5780636352211e1461044e5780636c0360eb1461048b57806370a08231146104b6578063897534a9146104f357806395d89b411461051e57610181565b806318160ddd1161013e5780633d092b3d116101185780633d092b3d1461033e57806342842e0e1461037b5780634f6ccce7146103a457806352d21e23146103e157610181565b806318160ddd146102ad57806323b872dd146102d85780632f745c591461030157610181565b806301ffc9a71461018657806302387a7b146101c357806306fdde03146101f3578063081812fc1461021e578063095ea7b31461025b5780630e5cc1a514610284575b600080fd5b34801561019257600080fd5b506101ad60048036038101906101a8919061484b565b610692565b6040516101ba9190614f58565b60405180910390f35b6101dd60048036038101906101d89190614874565b6106f9565b6040516101ea9190614f58565b60405180910390f35b3480156101ff57600080fd5b50610208610a3b565b6040516102159190614f8e565b60405180910390f35b34801561022a57600080fd5b50610245600480360381019061024091906148d9565b610add565b6040516102529190614f3d565b60405180910390f35b34801561026757600080fd5b50610282600480360381019061027d919061480f565b610b78565b005b34801561029057600080fd5b506102ab60048036038101906102a69190614874565b610cbc565b005b3480156102b957600080fd5b506102c2610ea0565b6040516102cf919061516d565b60405180910390f35b3480156102e457600080fd5b506102ff60048036038101906102fa9190614709565b610eb1565b005b34801561030d57600080fd5b506103286004803603810190610323919061480f565b610f27565b604051610335919061516d565b60405180910390f35b34801561034a57600080fd5b50610365600480360381019061036091906148d9565b610f82565b6040516103729190615130565b60405180910390f35b34801561038757600080fd5b506103a2600480360381019061039d9190614709565b611201565b005b3480156103b057600080fd5b506103cb60048036038101906103c691906148d9565b611221565b6040516103d8919061516d565b60405180910390f35b3480156103ed57600080fd5b5061040860048036038101906104039190614902565b611244565b604051610415919061516d565b60405180910390f35b6104386004803603810190610433919061489d565b6115c6565b604051610445919061516d565b60405180910390f35b34801561045a57600080fd5b50610475600480360381019061047091906148d9565b611b29565b6040516104829190614f3d565b60405180910390f35b34801561049757600080fd5b506104a0611b60565b6040516104ad9190614f8e565b60405180910390f35b3480156104c257600080fd5b506104dd60048036038101906104d891906146a4565b611c02565b6040516104ea919061516d565b60405180910390f35b3480156104ff57600080fd5b50610508611cd7565b604051610515919061516d565b60405180910390f35b34801561052a57600080fd5b50610533611cdd565b6040516105409190614f8e565b60405180910390f35b34801561055557600080fd5b50610570600480360381019061056b91906147d3565b611d7f565b005b34801561057e57600080fd5b5061059960048036038101906105949190614758565b611f35565b005b3480156105a757600080fd5b506105c260048036038101906105bd91906148d9565b611fad565b6040516105cf9190614f8e565b60405180910390f35b3480156105e457600080fd5b506105ff60048036038101906105fa919061489d565b612296565b005b34801561060d57600080fd5b50610628600480360381019061062391906148d9565b6129e6565b6040516106359190615152565b60405180910390f35b34801561064a57600080fd5b50610653612b89565b005b34801561066157600080fd5b5061067c600480360381019061067791906146cd565b612c45565b6040516106899190614f58565b60405180910390f35b6000806000837bffffffffffffffffffffffffffffffffffffffffffffffffffffffff19167bffffffffffffffffffffffffffffffffffffffffffffffffffffffff1916815260200190815260200160002060009054906101000a900460ff169050919050565b6000816fffffffffffffffffffffffffffffffff1661071781612cd9565b610756576040517f08c379a000000000000000000000000000000000000000000000000000000000815260040161074d90614ff0565b60405180910390fd5b826fffffffffffffffffffffffffffffffff163373ffffffffffffffffffffffffffffffffffffffff1661078982611b29565b73ffffffffffffffffffffffffffffffffffffffff16146107df576040517f08c379a00000000000000000000000000000000000000000000000000000000081526004016107d690615030565b60405180910390fd5b600060176000866fffffffffffffffffffffffffffffffff1681526020019081526020016000206040518060a00160405290816000820160009054906101000a900473ffffffffffffffffffffffffffffffffffffffff1673ffffffffffffffffffffffffffffffffffffffff1673ffffffffffffffffffffffffffffffffffffffff168152602001600182015481526020016002820160009054906101000a900460ff16600381111561088f57fe5b600381111561089a57fe5b8152602001600382015481526020016004820160009054906101000a900460ff1660ff1660ff168152505090506002808111156108d357fe5b601860008360200151815260200190815260200160002060060160019054906101000a900460ff16600281111561090657fe5b14610946576040517f08c379a000000000000000000000000000000000000000000000000000000000815260040161093d906150d0565b60405180910390fd5b806060015147101561098d576040517f08c379a000000000000000000000000000000000000000000000000000000000815260040161098490614fb0565b60405180910390fd5b3373ffffffffffffffffffffffffffffffffffffffff166108fc82606001519081150290604051600060405180830381858888f193505050501580156109d7573d6000803e3d6000fd5b5080602001513373ffffffffffffffffffffffffffffffffffffffff167ff9226daf630542048a23086c6af599511aac100ec8f532793cc9697d061bed7e8360600151604051610a27919061516d565b60405180910390a360019350505050919050565b606060068054600181600116156101000203166002900480601f016020809104026020016040519081016040528092919081815260200182805460018160011615610100020316600290048015610ad35780601f10610aa857610100808354040283529160200191610ad3565b820191906000526020600020905b815481529060010190602001808311610ab657829003601f168201915b5050505050905090565b6000610ae882612cd9565b610b3d576040517f08c379a000000000000000000000000000000000000000000000000000000000815260040180806020018281038252602c815260200180615586602c913960400191505060405180910390fd5b6004600083815260200190815260200160002060009054906101000a900473ffffffffffffffffffffffffffffffffffffffff169050919050565b6000610b8382611b29565b90508073ffffffffffffffffffffffffffffffffffffffff168373ffffffffffffffffffffffffffffffffffffffff161415610c0a576040517f08c379a000000000000000000000000000000000000000000000000000000000815260040180806020018281038252602181526020018061560a6021913960400191505060405180910390fd5b8073ffffffffffffffffffffffffffffffffffffffff16610c29612cf6565b73ffffffffffffffffffffffffffffffffffffffff161480610c585750610c5781610c52612cf6565b612c45565b5b610cad576040517f08c379a00000000000000000000000000000000000000000000000000000000081526004018080602001828103825260388152602001806154d96038913960400191505060405180910390fd5b610cb78383612cfe565b505050565b601060009054906101000a900473ffffffffffffffffffffffffffffffffffffffff1673ffffffffffffffffffffffffffffffffffffffff163373ffffffffffffffffffffffffffffffffffffffff1614610d4c576040517f08c379a0000000000000000000000000000000000000000000000000000000008152600401610d4390615070565b60405180910390fd5b806fffffffffffffffffffffffffffffffff166018600082815260200190815260200160002060060160029054906101000a900460ff16610dc2576040517f08c379a0000000000000000000000000000000000000000000000000000000008152600401610db990615090565b60405180910390fd5b816fffffffffffffffffffffffffffffffff1660006002811115610de257fe5b6018600083815260200190815260200160002060060160019054906101000a900460ff166002811115610e1157fe5b14610e51576040517f08c379a0000000000000000000000000000000000000000000000000000000008152600401610e4890615050565b60405180910390fd5b600160186000856fffffffffffffffffffffffffffffffff16815260200190815260200160002060060160016101000a81548160ff02191690836002811115610e9657fe5b0217905550505050565b6000610eac6002612db7565b905090565b610ec2610ebc612cf6565b82612dcc565b610f17576040517f08c379a000000000000000000000000000000000000000000000000000000000815260040180806020018281038252603181526020018061562b6031913960400191505060405180910390fd5b610f22838383612ec0565b505050565b6000610f7a82600160008673ffffffffffffffffffffffffffffffffffffffff1673ffffffffffffffffffffffffffffffffffffffff16815260200190815260200160002061310390919063ffffffff16565b905092915050565b610f8a614378565b816018600082815260200190815260200160002060060160029054906101000a900460ff16610fee576040517f08c379a0000000000000000000000000000000000000000000000000000000008152600401610fe590615090565b60405180910390fd5b60186000848152602001908152602001600020604051806101800160405290816000820160009054906101000a900473ffffffffffffffffffffffffffffffffffffffff1673ffffffffffffffffffffffffffffffffffffffff1673ffffffffffffffffffffffffffffffffffffffff1681526020016000820160149054906101000a900460ff1660ff1660ff1681526020016000820160159054906101000a900460ff1660ff1660ff1681526020016000820160169054906101000a900460ff1660ff1660ff168152602001600182018054600181600116156101000203166002900480601f0160208091040260200160405190810160405280929190818152602001828054600181600116156101000203166002900480156111535780601f1061112857610100808354040283529160200191611153565b820191906000526020600020905b81548152906001019060200180831161113657829003601f168201915b50505050508152602001600282015481526020016003820154815260200160048201548152602001600582015481526020016006820160009054906101000a900460ff1660038111156111a257fe5b60038111156111ad57fe5b81526020016006820160019054906101000a900460ff1660028111156111cf57fe5b60028111156111da57fe5b81526020016006820160029054906101000a900460ff161515151581525050915050919050565b61121c83838360405180602001604052806000815250611f35565b505050565b60008061123883600261311d90919063ffffffff16565b50905080915050919050565b600086600060196000838152602001908152602001600020541461129d576040517f08c379a000000000000000000000000000000000000000000000000000000000815260040161129490614fd0565b60405180910390fd5b601060009054906101000a900473ffffffffffffffffffffffffffffffffffffffff1673ffffffffffffffffffffffffffffffffffffffff163373ffffffffffffffffffffffffffffffffffffffff161461132d576040517f08c379a000000000000000000000000000000000000000000000000000000000815260040161132490615070565b60405180910390fd5b6113376011613149565b6000611343601161315f565b90506040518061018001604052803373ffffffffffffffffffffffffffffffffffffffff1681526020018860ff1681526020018760ff1681526020018660ff16815260200189815260200160008152602001600081526020016000815260200160008152602001600060038111156113b757fe5b8152602001600060028111156113c957fe5b8152602001600115158152506018600083815260200190815260200160002060008201518160000160006101000a81548173ffffffffffffffffffffffffffffffffffffffff021916908373ffffffffffffffffffffffffffffffffffffffff16021790555060208201518160000160146101000a81548160ff021916908360ff16021790555060408201518160000160156101000a81548160ff021916908360ff16021790555060608201518160000160166101000a81548160ff021916908360ff16021790555060808201518160010190805190602001906114ae929190614410565b5060a0820151816002015560c0820151816003015560e0820151816004015561010082015181600501556101208201518160060160006101000a81548160ff021916908360038111156114fd57fe5b02179055506101408201518160060160016101000a81548160ff0219169083600281111561152757fe5b02179055506101608201518160060160026101000a81548160ff02191690831515021790555090505080601960008b815260200190815260200160002081905550833373ffffffffffffffffffffffffffffffffffffffff167f7b1b45419551e8400cc629d43c383cd9d37413948985181b85d253d65537932d836040516115af919061516d565b60405180910390a380925050509695505050505050565b6000826fffffffffffffffffffffffffffffffff166018600082815260200190815260200160002060060160029054906101000a900460ff1661163e576040517f08c379a000000000000000000000000000000000000000000000000000000000815260040161163590615090565b60405180910390fd5b836fffffffffffffffffffffffffffffffff166000600281111561165e57fe5b6018600083815260200190815260200160002060060160019054906101000a900460ff16600281111561168d57fe5b146116cd576040517f08c379a00000000000000000000000000000000000000000000000000000000081526004016116c490615050565b60405180910390fd5b846fffffffffffffffffffffffffffffffff166001611721576040517f08c379a0000000000000000000000000000000000000000000000000000000008152600401611718906150b0565b60405180910390fd5b846002600381111561172f57fe5b8160ff16600381111561173e57fe5b600381111561174957fe5b1480611778575060038081111561175c57fe5b8160ff16600381111561176b57fe5b600381111561177657fe5b145b806117a757506001600381111561178b57fe5b8160ff16600381111561179a57fe5b60038111156117a557fe5b145b6117e6576040517f08c379a00000000000000000000000000000000000000000000000000000000081526004016117dd90615010565b60405180910390fd5b600034141561182a576040517f08c379a0000000000000000000000000000000000000000000000000000000008152600401611821906150f0565b60405180910390fd5b600033905060003490506000808960ff16600381111561184657fe5b90506002600381111561185557fe5b81600381111561186157fe5b14156118df57601860008c6fffffffffffffffffffffffffffffffff16815260200190815260200160002060000160149054906101000a900460ff1660ff168302915081601860008d6fffffffffffffffffffffffffffffffff168152602001908152602001600020600201600082825401925050819055506119ea565b6003808111156118eb57fe5b8160038111156118f757fe5b141561197557601860008c6fffffffffffffffffffffffffffffffff16815260200190815260200160002060000160159054906101000a900460ff1660ff168302915081601860008d6fffffffffffffffffffffffffffffffff168152602001908152602001600020600301600082825401925050819055506119e9565b601860008c6fffffffffffffffffffffffffffffffff16815260200190815260200160002060000160169054906101000a900460ff1660ff168302915081601860008d6fffffffffffffffffffffffffffffffff168152602001908152602001600020600401600082825401925050819055505b5b82601860008d6fffffffffffffffffffffffffffffffff168152602001908152602001600020600501600082825401925050819055506000611a4085848e6fffffffffffffffffffffffffffffffff168561316d565b9050601a60008d6fffffffffffffffffffffffffffffffff1681526020019081526020016000206000836003811115611a7557fe5b6003811115611a8057fe5b8152602001908152602001600020819080600181540180825580915050600190039060005260206000200160009091909190915055428c6fffffffffffffffffffffffffffffffff168673ffffffffffffffffffffffffffffffffffffffff167f36dea6e2ca98fcfbacb3e3d3c49cd2258a9f7cb343d367ea6bc4ec581ac4b79f87604051611b0f919061516d565b60405180910390a480995050505050505050505092915050565b6000611b598260405180606001604052806029815260200161553b6029913960026132a49092919063ffffffff16565b9050919050565b606060098054600181600116156101000203166002900480601f016020809104026020016040519081016040528092919081815260200182805460018160011615610100020316600290048015611bf85780601f10611bcd57610100808354040283529160200191611bf8565b820191906000526020600020905b815481529060010190602001808311611bdb57829003601f168201915b5050505050905090565b60008073ffffffffffffffffffffffffffffffffffffffff168273ffffffffffffffffffffffffffffffffffffffff161415611c89576040517f08c379a000000000000000000000000000000000000000000000000000000000815260040180806020018281038252602a815260200180615511602a913960400191505060405180910390fd5b611cd0600160008473ffffffffffffffffffffffffffffffffffffffff1673ffffffffffffffffffffffffffffffffffffffff1681526020019081526020016000206132c3565b9050919050565b60135481565b606060078054600181600116156101000203166002900480601f016020809104026020016040519081016040528092919081815260200182805460018160011615610100020316600290048015611d755780601f10611d4a57610100808354040283529160200191611d75565b820191906000526020600020905b815481529060010190602001808311611d5857829003601f168201915b5050505050905090565b611d87612cf6565b73ffffffffffffffffffffffffffffffffffffffff168273ffffffffffffffffffffffffffffffffffffffff161415611e28576040517f08c379a00000000000000000000000000000000000000000000000000000000081526004018080602001828103825260198152602001807f4552433732313a20617070726f766520746f2063616c6c65720000000000000081525060200191505060405180910390fd5b8060056000611e35612cf6565b73ffffffffffffffffffffffffffffffffffffffff1673ffffffffffffffffffffffffffffffffffffffff16815260200190815260200160002060008473ffffffffffffffffffffffffffffffffffffffff1673ffffffffffffffffffffffffffffffffffffffff16815260200190815260200160002060006101000a81548160ff0219169083151502179055508173ffffffffffffffffffffffffffffffffffffffff16611ee2612cf6565b73ffffffffffffffffffffffffffffffffffffffff167f17307eab39ab6107e8899845ad3d59bd9653f200f220920489ca2b5937696c318360405180821515815260200191505060405180910390a35050565b611f46611f40612cf6565b83612dcc565b611f9b576040517f08c379a000000000000000000000000000000000000000000000000000000000815260040180806020018281038252603181526020018061562b6031913960400191505060405180910390fd5b611fa7848484846132d8565b50505050565b6060611fb882612cd9565b61200d576040517f08c379a000000000000000000000000000000000000000000000000000000000815260040180806020018281038252602f8152602001806155db602f913960400191505060405180910390fd5b6000600860008481526020019081526020016000208054600181600116156101000203166002900480601f0160208091040260200160405190810160405280929190818152602001828054600181600116156101000203166002900480156120b65780601f1061208b576101008083540402835291602001916120b6565b820191906000526020600020905b81548152906001019060200180831161209957829003601f168201915b505050505090506000600980546001816001161561010002031660029004905014156120e55780915050612291565b6000815111156121be5760098160405160200180838054600181600116156101000203166002900480156121505780601f1061212e576101008083540402835291820191612150565b820191906000526020600020905b81548152906001019060200180831161213c575b505082805190602001908083835b60208310612181578051825260208201915060208101905060208303925061215e565b6001836020036101000a03801982511681845116808217855250505050505090500192505050604051602081830303815290604052915050612291565b60096121c98461334a565b60405160200180838054600181600116156101000203166002900480156122275780601f10612205576101008083540402835291820191612227565b820191906000526020600020905b815481529060010190602001808311612213575b505082805190602001908083835b602083106122585780518252602082019150602081019050602083039250612235565b6001836020036101000a038019825116818451168082178552505050505050905001925050506040516020818303038152906040529150505b919050565b601060009054906101000a900473ffffffffffffffffffffffffffffffffffffffff1673ffffffffffffffffffffffffffffffffffffffff163373ffffffffffffffffffffffffffffffffffffffff1614612326576040517f08c379a000000000000000000000000000000000000000000000000000000000815260040161231d90615070565b60405180910390fd5b816fffffffffffffffffffffffffffffffff166018600082815260200190815260200160002060060160029054906101000a900460ff1661239c576040517f08c379a000000000000000000000000000000000000000000000000000000000815260040161239390615090565b60405180910390fd5b826fffffffffffffffffffffffffffffffff16600160028111156123bc57fe5b6018600083815260200190815260200160002060060160019054906101000a900460ff1660028111156123eb57fe5b1461242b576040517f08c379a000000000000000000000000000000000000000000000000000000000815260040161242290615110565b60405180910390fd5b826002600381111561243957fe5b8160ff16600381111561244857fe5b600381111561245357fe5b1480612482575060038081111561246657fe5b8160ff16600381111561247557fe5b600381111561248057fe5b145b806124b157506001600381111561249557fe5b8160ff1660038111156124a457fe5b60038111156124af57fe5b145b6124f0576040517f08c379a00000000000000000000000000000000000000000000000000000000081526004016124e790615010565b60405180910390fd5b600260186000876fffffffffffffffffffffffffffffffff16815260200190815260200160002060060160016101000a81548160ff0219169083600281111561253557fe5b021790555060008460ff16600381111561254b57fe5b9050612569866fffffffffffffffffffffffffffffffff1682613491565b6002600381111561257657fe5b81600381111561258257fe5b14156126d45761262b601a6000886fffffffffffffffffffffffffffffffff16815260200190815260200160002060006003808111156125be57fe5b60038111156125c957fe5b815260200190815260200160002080548060200260200160405190810160405280929190818152602001828054801561262157602002820191906000526020600020905b81548152602001906001019080831161260d575b5050505050613527565b6126cf601a6000886fffffffffffffffffffffffffffffffff16815260200190815260200160002060006001600381111561266257fe5b600381111561266d57fe5b81526020019081526020016000208054806020026020016040519081016040528092919081815260200182805480156126c557602002820191906000526020600020905b8154815260200190600101908083116126b1575b5050505050613527565b612988565b6003808111156126e057fe5b8160038111156126ec57fe5b141561283f57612796601a6000886fffffffffffffffffffffffffffffffff16815260200190815260200160002060006002600381111561272957fe5b600381111561273457fe5b815260200190815260200160002080548060200260200160405190810160405280929190818152602001828054801561278c57602002820191906000526020600020905b815481526020019060010190808311612778575b5050505050613527565b61283a601a6000886fffffffffffffffffffffffffffffffff1681526020019081526020016000206000600160038111156127cd57fe5b60038111156127d857fe5b815260200190815260200160002080548060200260200160405190810160405280929190818152602001828054801561283057602002820191906000526020600020905b81548152602001906001019080831161281c575b5050505050613527565b612987565b6128e3601a6000886fffffffffffffffffffffffffffffffff16815260200190815260200160002060006002600381111561287657fe5b600381111561288157fe5b81526020019081526020016000208054806020026020016040519081016040528092919081815260200182805480156128d957602002820191906000526020600020905b8154815260200190600101908083116128c5575b5050505050613527565b612986601a6000886fffffffffffffffffffffffffffffffff168152602001908152602001600020600060038081111561291957fe5b600381111561292457fe5b815260200190815260200160002080548060200260200160405190810160405280929190818152602001828054801561297c57602002820191906000526020600020905b815481526020019060010190808311612968575b5050505050613527565b5b5b856fffffffffffffffffffffffffffffffff163373ffffffffffffffffffffffffffffffffffffffff167f0e7b747a0c50c86498e7e1ba36262e6509dcfa11242e207dfbd88cd7dcb748ae60405160405180910390a3505050505050565b6129ee61449e565b816129f881612cd9565b612a37576040517f08c379a0000000000000000000000000000000000000000000000000000000008152600401612a2e90614ff0565b60405180910390fd5b823373ffffffffffffffffffffffffffffffffffffffff16612a5882611b29565b73ffffffffffffffffffffffffffffffffffffffff1614612aae576040517f08c379a0000000000000000000000000000000000000000000000000000000008152600401612aa590615030565b60405180910390fd5b601760008581526020019081526020016000206040518060a00160405290816000820160009054906101000a900473ffffffffffffffffffffffffffffffffffffffff1673ffffffffffffffffffffffffffffffffffffffff1673ffffffffffffffffffffffffffffffffffffffff168152602001600182015481526020016002820160009054906101000a900460ff166003811115612b4a57fe5b6003811115612b5557fe5b8152602001600382015481526020016004820160009054906101000a900460ff1660ff1660ff168152505092505050919050565b601060009054906101000a900473ffffffffffffffffffffffffffffffffffffffff1673ffffffffffffffffffffffffffffffffffffffff163373ffffffffffffffffffffffffffffffffffffffff1614612c19576040517f08c379a0000000000000000000000000000000000000000000000000000000008152600401612c1090615070565b60405180910390fd5b601460009054906101000a900460ff1615601460006101000a81548160ff021916908315150217905550565b6000600560008473ffffffffffffffffffffffffffffffffffffffff1673ffffffffffffffffffffffffffffffffffffffff16815260200190815260200160002060008373ffffffffffffffffffffffffffffffffffffffff1673ffffffffffffffffffffffffffffffffffffffff16815260200190815260200160002060009054906101000a900460ff16905092915050565b6000612cef82600261356090919063ffffffff16565b9050919050565b600033905090565b816004600083815260200190815260200160002060006101000a81548173ffffffffffffffffffffffffffffffffffffffff021916908373ffffffffffffffffffffffffffffffffffffffff160217905550808273ffffffffffffffffffffffffffffffffffffffff16612d7183611b29565b73ffffffffffffffffffffffffffffffffffffffff167f8c5be1e5ebec7d5bd14f71427d1e84f3dd0314c0f7b2291e5b200ac8c7c3b92560405160405180910390a45050565b6000612dc58260000161357a565b9050919050565b6000612dd782612cd9565b612e2c576040517f08c379a000000000000000000000000000000000000000000000000000000000815260040180806020018281038252602c8152602001806154ad602c913960400191505060405180910390fd5b6000612e3783611b29565b90508073ffffffffffffffffffffffffffffffffffffffff168473ffffffffffffffffffffffffffffffffffffffff161480612ea657508373ffffffffffffffffffffffffffffffffffffffff16612e8e84610add565b73ffffffffffffffffffffffffffffffffffffffff16145b80612eb75750612eb68185612c45565b5b91505092915050565b8273ffffffffffffffffffffffffffffffffffffffff16612ee082611b29565b73ffffffffffffffffffffffffffffffffffffffff1614612f4c576040517f08c379a00000000000000000000000000000000000000000000000000000000081526004018080602001828103825260298152602001806155b26029913960400191505060405180910390fd5b600073ffffffffffffffffffffffffffffffffffffffff168273ffffffffffffffffffffffffffffffffffffffff161415612fd2576040517f08c379a00000000000000000000000000000000000000000000000000000000081526004018080602001828103825260248152602001806154896024913960400191505060405180910390fd5b612fdd83838361358b565b612fe8600082612cfe565b61303981600160008673ffffffffffffffffffffffffffffffffffffffff1673ffffffffffffffffffffffffffffffffffffffff16815260200190815260200160002061359090919063ffffffff16565b5061308b81600160008573ffffffffffffffffffffffffffffffffffffffff1673ffffffffffffffffffffffffffffffffffffffff1681526020019081526020016000206135aa90919063ffffffff16565b506130a2818360026135c49092919063ffffffff16565b50808273ffffffffffffffffffffffffffffffffffffffff168473ffffffffffffffffffffffffffffffffffffffff167fddf252ad1be2c89b69c2b068fc378daa952ba7f163c4a11628f55a4df523b3ef60405160405180910390a4505050565b600061311283600001836135f9565b60001c905092915050565b600080600080613130866000018661367c565b915091508160001c8160001c9350935050509250929050565b6001816000016000828254019250508190555050565b600081600001549050919050565b60006131796012613149565b6000613185601261315f565b90506131918682613715565b6040518060a001604052803373ffffffffffffffffffffffffffffffffffffffff1681526020018581526020018460038111156131ca57fe5b8152602001868152602001600060ff168152506017600083815260200190815260200160002060008201518160000160006101000a81548173ffffffffffffffffffffffffffffffffffffffff021916908373ffffffffffffffffffffffffffffffffffffffff1602179055506020820151816001015560408201518160020160006101000a81548160ff0219169083600381111561326557fe5b02179055506060820151816003015560808201518160040160006101000a81548160ff021916908360ff16021790555090505080915050949350505050565b60006132b7846000018460001b84613909565b60001c90509392505050565b60006132d1826000016139ff565b9050919050565b6132e3848484612ec0565b6132ef84848484613a10565b613344576040517f08c379a00000000000000000000000000000000000000000000000000000000081526004018080602001828103825260328152602001806154576032913960400191505060405180910390fd5b50505050565b60606000821415613392576040518060400160405280600181526020017f3000000000000000000000000000000000000000000000000000000000000000815250905061348c565b600082905060005b600082146133bc578080600101915050600a82816133b457fe5b04915061339a565b60008167ffffffffffffffff811180156133d557600080fd5b506040519080825280601f01601f1916602001820160405280156134085781602001600182028036833780820191505090505b50905060006001830390508593505b6000841461348457600a848161342957fe5b0660300160f81b8282806001900393508151811061344357fe5b60200101907effffffffffffffffffffffffffffffffffffffffffffffffffffffffffffff1916908160001a905350600a848161347c57fe5b049350613417565b819450505050505b919050565b806018600084815260200190815260200160002060060160006101000a81548160ff021916908360038111156134c357fe5b0217905550817f77ad4add1031e6038509c317deecf8504b6adb01f180c0da0db7d715e194f54d6018600085815260200190815260200160002060060160009054906101000a900460ff1660405161351b9190614f73565b60405180910390a25050565b60005b815181101561355c5761354f82828151811061354257fe5b6020026020010151613c29565b808060010191505061352a565b5050565b6000613572836000018360001b613d63565b905092915050565b600081600001805490509050919050565b505050565b60006135a2836000018360001b613d86565b905092915050565b60006135bc836000018360001b613e6e565b905092915050565b60006135f0846000018460001b8473ffffffffffffffffffffffffffffffffffffffff1660001b613ede565b90509392505050565b60008183600001805490501161365a576040517f08c379a00000000000000000000000000000000000000000000000000000000081526004018080602001828103825260228152602001806154356022913960400191505060405180910390fd5b82600001828154811061366957fe5b9060005260206000200154905092915050565b600080828460000180549050116136de576040517f08c379a00000000000000000000000000000000000000000000000000000000081526004018080602001828103825260228152602001806155646022913960400191505060405180910390fd5b60008460000184815481106136ef57fe5b906000526020600020906002020190508060000154816001015492509250509250929050565b600073ffffffffffffffffffffffffffffffffffffffff168273ffffffffffffffffffffffffffffffffffffffff1614156137b8576040517f08c379a00000000000000000000000000000000000000000000000000000000081526004018080602001828103825260208152602001807f4552433732313a206d696e7420746f20746865207a65726f206164647265737381525060200191505060405180910390fd5b6137c181612cd9565b15613834576040517f08c379a000000000000000000000000000000000000000000000000000000000815260040180806020018281038252601c8152602001807f4552433732313a20746f6b656e20616c7265616479206d696e7465640000000081525060200191505060405180910390fd5b6138406000838361358b565b61389181600160008573ffffffffffffffffffffffffffffffffffffffff1673ffffffffffffffffffffffffffffffffffffffff1681526020019081526020016000206135aa90919063ffffffff16565b506138a8818360026135c49092919063ffffffff16565b50808273ffffffffffffffffffffffffffffffffffffffff16600073ffffffffffffffffffffffffffffffffffffffff167fddf252ad1be2c89b69c2b068fc378daa952ba7f163c4a11628f55a4df523b3ef60405160405180910390a45050565b600080846001016000858152602001908152602001600020549050600081141583906139d0576040517f08c379a00000000000000000000000000000000000000000000000000000000081526004018080602001828103825283818151815260200191508051906020019080838360005b8381101561399557808201518184015260208101905061397a565b50505050905090810190601f1680156139c25780820380516001836020036101000a031916815260200191505b509250505060405180910390fd5b508460000160018203815481106139e357fe5b9060005260206000209060020201600101549150509392505050565b600081600001805490509050919050565b6000613a318473ffffffffffffffffffffffffffffffffffffffff16613fba565b613a3e5760019050613c21565b6000613ba863150b7a0260e01b613a53612cf6565b888787604051602401808573ffffffffffffffffffffffffffffffffffffffff1681526020018473ffffffffffffffffffffffffffffffffffffffff16815260200183815260200180602001828103825283818151815260200191508051906020019080838360005b83811015613ad7578082015181840152602081019050613abc565b50505050905090810190601f168015613b045780820380516001836020036101000a031916815260200191505b5095505050505050604051602081830303815290604052907bffffffffffffffffffffffffffffffffffffffffffffffffffffffff19166020820180517bffffffffffffffffffffffffffffffffffffffffffffffffffffffff8381831617835250505050604051806060016040528060328152602001615457603291398773ffffffffffffffffffffffffffffffffffffffff166140059092919063ffffffff16565b90506000818060200190516020811015613bc157600080fd5b8101908080519060200190929190505050905063150b7a0260e01b7bffffffffffffffffffffffffffffffffffffffffffffffffffffffff1916817bffffffffffffffffffffffffffffffffffffffffffffffffffffffff191614925050505b949350505050565b6000613c3482611b29565b9050613c428160008461358b565b613c4d600083612cfe565b60006008600084815260200190815260200160002080546001816001161561010002031660029004905014613c9c57600860008381526020019081526020016000206000613c9b91906144f1565b5b613ced82600160008473ffffffffffffffffffffffffffffffffffffffff1673ffffffffffffffffffffffffffffffffffffffff16815260200190815260200160002061359090919063ffffffff16565b50613d0282600261401d90919063ffffffff16565b5081600073ffffffffffffffffffffffffffffffffffffffff168273ffffffffffffffffffffffffffffffffffffffff167fddf252ad1be2c89b69c2b068fc378daa952ba7f163c4a11628f55a4df523b3ef60405160405180910390a45050565b600080836001016000848152602001908152602001600020541415905092915050565b60008083600101600084815260200190815260200160002054905060008114613e625760006001820390506000600186600001805490500390506000866000018281548110613dd157fe5b9060005260206000200154905080876000018481548110613dee57fe5b9060005260206000200181905550600183018760010160008381526020019081526020016000208190555086600001805480613e2657fe5b60019003818190600052602060002001600090559055866001016000878152602001908152602001600020600090556001945050505050613e68565b60009150505b92915050565b6000613e7a8383614037565b613ed3578260000182908060018154018082558091505060019003906000526020600020016000909190919091505582600001805490508360010160008481526020019081526020016000208190555060019050613ed8565b600090505b92915050565b6000808460010160008581526020019081526020016000205490506000811415613f8557846000016040518060400160405280868152602001858152509080600181540180825580915050600190039060005260206000209060020201600090919091909150600082015181600001556020820151816001015550508460000180549050856001016000868152602001908152602001600020819055506001915050613fb3565b82856000016001830381548110613f9857fe5b90600052602060002090600202016001018190555060009150505b9392505050565b60008060007fc5d2460186f7233c927e7db2dcc703c0e500b653ca82273b7bfad8045d85a47060001b9050833f9150808214158015613ffc57506000801b8214155b92505050919050565b6060614014848460008561405a565b90509392505050565b600061402f836000018360001b61425f565b905092915050565b600080836001016000848152602001908152602001600020541415905092915050565b606061406585613fba565b6140d7576040517f08c379a000000000000000000000000000000000000000000000000000000000815260040180806020018281038252601d8152602001807f416464726573733a2063616c6c20746f206e6f6e2d636f6e747261637400000081525060200191505060405180910390fd5b6000808673ffffffffffffffffffffffffffffffffffffffff1685876040518082805190602001908083835b602083106141265780518252602082019150602081019050602083039250614103565b6001836020036101000a03801982511681845116808217855250505050505090500191505060006040518083038185875af1925050503d8060008114614188576040519150601f19603f3d011682016040523d82523d6000602084013e61418d565b606091505b509150915081156141a2578092505050614257565b6000815111156141b55780518082602001fd5b836040517f08c379a00000000000000000000000000000000000000000000000000000000081526004018080602001828103825283818151815260200191508051906020019080838360005b8381101561421c578082015181840152602081019050614201565b50505050905090810190601f1680156142495780820380516001836020036101000a031916815260200191505b509250505060405180910390fd5b949350505050565b6000808360010160008481526020019081526020016000205490506000811461436c57600060018203905060006001866000018054905003905060008660000182815481106142aa57fe5b90600052602060002090600202019050808760000184815481106142ca57fe5b906000526020600020906002020160008201548160000155600182015481600101559050506001830187600101600083600001548152602001908152602001600020819055508660000180548061431d57fe5b6001900381819060005260206000209060020201600080820160009055600182016000905550509055866001016000878152602001908152602001600020600090556001945050505050614372565b60009150505b92915050565b604051806101800160405280600073ffffffffffffffffffffffffffffffffffffffff168152602001600060ff168152602001600060ff168152602001600060ff1681526020016060815260200160008152602001600081526020016000815260200160008152602001600060038111156143ef57fe5b81526020016000600281111561440157fe5b81526020016000151581525090565b828054600181600116156101000203166002900490600052602060002090601f016020900481019282614446576000855561448d565b82601f1061445f57805160ff191683800117855561448d565b8280016001018555821561448d579182015b8281111561448c578251825591602001919060010190614471565b5b50905061449a9190614539565b5090565b6040518060a00160405280600073ffffffffffffffffffffffffffffffffffffffff16815260200160008152602001600060038111156144da57fe5b815260200160008152602001600060ff1681525090565b50805460018160011615610100020316600290046000825580601f106145175750614536565b601f0160209004906000526020600020908101906145359190614539565b5b50565b5b8082111561455257600081600090555060010161453a565b5090565b6000614569614564846151b9565b615188565b90508281526020810184848401111561458157600080fd5b61458c84828561532d565b509392505050565b60006145a76145a2846151e9565b615188565b9050828152602081018484840111156145bf57600080fd5b6145ca84828561532d565b509392505050565b6000813590506145e1816153aa565b92915050565b6000813590506145f6816153c1565b92915050565b60008135905061460b816153d8565b92915050565b600082601f83011261462257600080fd5b8135614632848260208601614556565b91505092915050565b600082601f83011261464c57600080fd5b813561465c848260208601614594565b91505092915050565b600081359050614674816153ef565b92915050565b60008135905061468981615406565b92915050565b60008135905061469e8161541d565b92915050565b6000602082840312156146b657600080fd5b60006146c4848285016145d2565b91505092915050565b600080604083850312156146e057600080fd5b60006146ee858286016145d2565b92505060206146ff858286016145d2565b9150509250929050565b60008060006060848603121561471e57600080fd5b600061472c868287016145d2565b935050602061473d868287016145d2565b925050604061474e8682870161467a565b9150509250925092565b6000806000806080858703121561476e57600080fd5b600061477c878288016145d2565b945050602061478d878288016145d2565b935050604061479e8782880161467a565b925050606085013567ffffffffffffffff8111156147bb57600080fd5b6147c787828801614611565b91505092959194509250565b600080604083850312156147e657600080fd5b60006147f4858286016145d2565b9250506020614805858286016145e7565b9150509250929050565b6000806040838503121561482257600080fd5b6000614830858286016145d2565b92505060206148418582860161467a565b9150509250929050565b60006020828403121561485d57600080fd5b600061486b848285016145fc565b91505092915050565b60006020828403121561488657600080fd5b600061489484828501614665565b91505092915050565b600080604083850312156148b057600080fd5b60006148be85828601614665565b92505060206148cf8582860161468f565b9150509250929050565b6000602082840312156148eb57600080fd5b60006148f98482850161467a565b91505092915050565b60008060008060008060c0878903121561491b57600080fd5b600061492989828a0161467a565b965050602087013567ffffffffffffffff81111561494657600080fd5b61495289828a0161463b565b955050604061496389828a0161468f565b945050606061497489828a0161468f565b935050608061498589828a0161468f565b92505060a061499689828a0161467a565b9150509295509295509295565b6149ac81615246565b82525050565b6149bb81615246565b82525050565b6149ca81615258565b82525050565b6149d981615258565b82525050565b6149e881615309565b82525050565b6149f781615309565b82525050565b614a068161531b565b82525050565b6000614a1782615219565b614a218185615224565b9350614a3181856020860161533c565b614a3a81615371565b840191505092915050565b6000614a5082615219565b614a5a8185615235565b9350614a6a81856020860161533c565b614a7381615371565b840191505092915050565b6000614a8b601f83615235565b91507f436f6e74726163742068617320696e73756666696369656e742066756e6473006000830152602082019050919050565b6000614acb601083615235565b91507f617069206d6174636820657869737473000000000000000000000000000000006000830152602082019050919050565b6000614b0b600d83615235565b91507f496e76616c696420746f6b656e000000000000000000000000000000000000006000830152602082019050919050565b6000614b4b601483615235565b91507f496e76616c6964206d6174636820726573756c740000000000000000000000006000830152602082019050919050565b6000614b8b601983615235565b91507f63616c6c6572206973206e6f7420746f6b656e206f776e6572000000000000006000830152602082019050919050565b6000614bcb600d83615235565b91507f6d617463682073746172746564000000000000000000000000000000000000006000830152602082019050919050565b6000614c0b601383615235565b91507f63616c6c6572206973206e6f74206f776e6572000000000000000000000000006000830152602082019050919050565b6000614c4b601d83615235565b91507f6f6e20636861696e206d6174636820646f6573206e6f742065786973740000006000830152602082019050919050565b6000614c8b601283615235565b91507f426574206973206e6f7420616c6c6f77656400000000000000000000000000006000830152602082019050919050565b6000614ccb602783615235565b91507f43616e6e6f7420776974686472617720756e74696c206d61746368206973206660008301527f696e6973686564000000000000000000000000000000000000000000000000006020830152604082019050919050565b6000614d31601283615235565b91507f496e76616c696420616d6f756e742062657400000000000000000000000000006000830152602082019050919050565b6000614d71601183615235565b91507f6d61746368206e6f7420737461727465640000000000000000000000000000006000830152602082019050919050565b600061018083016000830151614dbd60008601826149a3565b506020830151614dd06020860182614f2e565b506040830151614de36040860182614f2e565b506060830151614df66060860182614f2e565b5060808301518482036080860152614e0e8282614a0c565b91505060a0830151614e2360a0860182614f10565b5060c0830151614e3660c0860182614f10565b5060e0830151614e4960e0860182614f10565b50610100830151614e5e610100860182614f10565b50610120830151614e736101208601826149df565b50610140830151614e886101408601826149fd565b50610160830151614e9d6101608601826149c1565b508091505092915050565b60a082016000820151614ebe60008501826149a3565b506020820151614ed16020850182614f10565b506040820151614ee460408501826149df565b506060820151614ef76060850182614f10565b506080820151614f0a6080850182614f2e565b50505050565b614f19816152f2565b82525050565b614f28816152f2565b82525050565b614f37816152fc565b82525050565b6000602082019050614f5260008301846149b2565b92915050565b6000602082019050614f6d60008301846149d0565b92915050565b6000602082019050614f8860008301846149ee565b92915050565b60006020820190508181036000830152614fa88184614a45565b905092915050565b60006020820190508181036000830152614fc981614a7e565b9050919050565b60006020820190508181036000830152614fe981614abe565b9050919050565b6000602082019050818103600083015261500981614afe565b9050919050565b6000602082019050818103600083015261502981614b3e565b9050919050565b6000602082019050818103600083015261504981614b7e565b9050919050565b6000602082019050818103600083015261506981614bbe565b9050919050565b6000602082019050818103600083015261508981614bfe565b9050919050565b600060208201905081810360008301526150a981614c3e565b9050919050565b600060208201905081810360008301526150c981614c7e565b9050919050565b600060208201905081810360008301526150e981614cbe565b9050919050565b6000602082019050818103600083015261510981614d24565b9050919050565b6000602082019050818103600083015261512981614d64565b9050919050565b6000602082019050818103600083015261514a8184614da4565b905092915050565b600060a0820190506151676000830184614ea8565b92915050565b60006020820190506151826000830184614f1f565b92915050565b6000604051905081810181811067ffffffffffffffff821117156151af576151ae61536f565b5b8060405250919050565b600067ffffffffffffffff8211156151d4576151d361536f565b5b601f19601f8301169050602081019050919050565b600067ffffffffffffffff8211156152045761520361536f565b5b601f19601f8301169050602081019050919050565b600081519050919050565b600082825260208201905092915050565b600082825260208201905092915050565b6000615251826152d2565b9050919050565b60008115159050919050565b60007fffffffff0000000000000000000000000000000000000000000000000000000082169050919050565b600081905061529e82615382565b919050565b60008190506152b182615396565b919050565b60006fffffffffffffffffffffffffffffffff82169050919050565b600073ffffffffffffffffffffffffffffffffffffffff82169050919050565b6000819050919050565b600060ff82169050919050565b600061531482615290565b9050919050565b6000615326826152a3565b9050919050565b82818337600083830152505050565b60005b8381101561535a57808201518184015260208101905061533f565b83811115615369576000848401525b50505050565bfe5b6000601f19601f8301169050919050565b600481106153935761539261536f565b5b50565b600381106153a7576153a661536f565b5b50565b6153b381615246565b81146153be57600080fd5b50565b6153ca81615258565b81146153d557600080fd5b50565b6153e181615264565b81146153ec57600080fd5b50565b6153f8816152b6565b811461540357600080fd5b50565b61540f816152f2565b811461541a57600080fd5b50565b615426816152fc565b811461543157600080fd5b5056fe456e756d657261626c655365743a20696e646578206f7574206f6620626f756e64734552433732313a207472616e7366657220746f206e6f6e20455243373231526563656976657220696d706c656d656e7465724552433732313a207472616e7366657220746f20746865207a65726f20616464726573734552433732313a206f70657261746f7220717565727920666f72206e6f6e6578697374656e7420746f6b656e4552433732313a20617070726f76652063616c6c6572206973206e6f74206f776e6572206e6f7220617070726f76656420666f7220616c6c4552433732313a2062616c616e636520717565727920666f7220746865207a65726f20616464726573734552433732313a206f776e657220717565727920666f72206e6f6e6578697374656e7420746f6b656e456e756d657261626c654d61703a20696e646578206f7574206f6620626f756e64734552433732313a20617070726f76656420717565727920666f72206e6f6e6578697374656e7420746f6b656e4552433732313a207472616e73666572206f6620746f6b656e2074686174206973206e6f74206f776e4552433732314d657461646174613a2055524920717565727920666f72206e6f6e6578697374656e7420746f6b656e4552433732313a20617070726f76616c20746f2063757272656e74206f776e65724552433732313a207472616e736665722063616c6c6572206973206e6f74206f776e6572206e6f7220617070726f766564a26469706673582212208cca00dd4230454761490e11edbebc2215bd2a0edb05a292061f06780548f2b664736f6c63430007060033",
  "immutableReferences": {},
  "source": "pragma solidity ^0.7.0;\npragma experimental ABIEncoderV2;\n\nimport \"@chainlink/contracts/src/v0.7/ChainlinkClient.sol\";\nimport \"@openzeppelin/contracts/token/ERC721/ERC721.sol\";\nimport \"@openzeppelin/contracts/utils/Counters.sol\";\n// import \"@openzeppelin/contracts/math/SafeMath.sol\";\n\n// import \"https://github.com/OpenZeppelin/openzeppelin-contracts/blob/18c7efe800df6fc19554ece3b1f238e9e028a1db/contracts/token/ERC721/ERC721.sol\";\n// import \"https://github.com/OpenZeppelin/openzeppelin-contracts/blob/18c7efe800df6fc19554ece3b1f238e9e028a1db/contracts/utils/Counters.sol\";\n\n\n/*\n * @notice SmartBet core smart contract. Handles matches, bets and farming\n */\ncontract SmartBet is ERC721, ChainlinkClient {\n\n    using Counters for Counters.Counter;\n    // using SafeMath for uint256;\n\n    ////////////////////////////////////////\n    //                                    //\n    //         STATE VARIABLES            //\n    //                                    //      \n    ////////////////////////////////////////\n    // contract owner adress\n    address private owner;\n\n    // incremented for match id generation\n    Counters.Counter private matchIds;\n\n    // incremented id for NFT minting\n    Counters.Counter private tokenIds;\n\n    // total funds available\n    uint256 public totalTreasury;\n\n    // flag to determine if contracts core functionalities can be performed\n    bool circuitBreaker = false;\n\n    address private oracle;\n    bytes32 private jobId;\n    uint256 private fee;\n\n    enum MatchResult {NOT_DETERMINED, DRAW, TEAM_A_WON, TEAM_B_WON}\n    enum MatchState {NOT_STARTED, STARTED, FINISHED}\n\n    uint8 private constant TEAM_A = 1;\n    uint8 private constant TEAM_B = 2;\n\n    struct Match {\n        address creator;\n        uint8 oddsTeamA;\n        uint8 oddsTeamB;\n        uint8 oddsDraw;\n        string matchResultLink;\n        uint256 totalPayoutTeamA;\n        uint256 totalPayoutTeamB;\n        uint256 totalPayoutDraw;\n        uint256 totalCollected;\n        MatchResult result;\n        MatchState state;\n        bool exists;\n    }\n\n    // NFT issued to winner\n    struct SmartAsset {\n        address owner;\n        uint256 matchId;\n        MatchResult matchResult;\n        uint256 initialValue;\n        uint8 accruedInterest;\n    }\n\n    // holds all NFTs issued to winners\n    mapping(uint256 => SmartAsset) smartAssets;\n\n    // holds all created matches (key: idCounter)\n    mapping(uint256 => Match) matches;\n    \n    // holds all apiMatchId -> onChainMatchId to prevent duplicate entries\n    mapping(uint256 => uint256) apiMatches;\n\n    // holds all bets on a match\n    // mapping(matchId => mapping(gameResult => tokenIds[])) matchBets;\n    mapping(uint256 => mapping(MatchResult => uint256[])) matchBets;\n\n    mapping(bytes32 => uint256) matchResultRequestIds;\n\n\n    ////////////////////////////////////////\n    //                                    //\n    //           CONSTRUCTOR              //\n    //                                    //      \n    ////////////////////////////////////////\n\n    constructor() ERC721(\"SmartBet\", \"SMBT\") {\n        owner = msg.sender;\n        // setPublicChainlinkToken();\n        oracle = 0x2f90A6D021db21e1B2A077c5a37B3C7E75D15b7e;\n        jobId = \"29fa9aa13bf1468788b7cc4a500a45b8\";\n        fee = 0.1 * 10 ** 18; // 0.1 LINK\n    }\n\n    ////////////////////////////////////////\n    //                                    //\n    //              EVENTS                //\n    //                                    //      \n    ////////////////////////////////////////\n\n    //Can be used by the clients to get all matches in a particular time\n    event LogMatchAdded(address indexed creator, uint256 matchId, uint256 indexed startAt);\n    //Can be used by the clients to get all bets placed by a better in a particular time\n    event LogBetAdded(address indexed bettor, uint256 indexed matchId, uint256 amount, uint256 indexed betAt);\n    event LogCloseMatch(address indexed by, uint256 indexed matchId);\n    event LogSetResult(uint256 indexed matchId, MatchResult result);\n    event LogWithdrawal(address indexed by, uint256 indexed matchId, uint256 amount);\n\n\n    ////////////////////////////////////////\n    //                                    //\n    //              MODIFIERS             //\n    //                                    //      \n    ////////////////////////////////////////\n\n    /*\n    *  @notice  Restrict caller only owner\n    */\n    modifier onlyOwner() {\n        require(msg.sender == owner, \"caller is not owner\");\n        _;\n    }\n\n    /*\n    *  @notice  Ensure match does not previously exist\n    */\n    modifier isNewMatch(uint256 _matchId) {\n        require(!matches[_matchId].exists, \"on chain match exists\");\n        _;\n    }\n\n    /*\n    *  @notice  Ensure api match does not previously exist\n    */\n    modifier isNewAPIMatch(uint256 _api_matchId) {\n        require(apiMatches[_api_matchId] == 0, \"api match exists\");\n        _;\n    }\n\n    /*\n    *  @notice  Ensure match exists\n    */\n    modifier matchExists(uint256 _matchId){\n        require(matches[_matchId].exists, \"on chain match does not exist\");\n        _;\n    }\n\n    /*\n    *  @notice  Ensure match has not started\n    */\n    modifier matchNotStarted(uint256 _matchId){\n        require(matches[_matchId].state == MatchState.NOT_STARTED, \"match started\");\n        _;\n    }\n\n    /*\n    *  @notice  Ensure match has started\n    */\n    modifier matchStarted(uint256 _matchId){\n        require(matches[_matchId].state == MatchState.STARTED, \"match not started\");\n        _;\n    }\n\n    /*\n    *  @notice  Ensure match has ended\n    */\n    modifier matchFinished(uint256 _matchId){\n        require(matches[_matchId].state == MatchState.FINISHED, \"match not finished\");\n        _;\n    }\n\n    /*\n    *  @notice Checks if core functionalities can be performed\n    *  @dev Checks if the circuitBreaker state variable is false\n    */\n    modifier isCircuitBreakOff() {\n        require(!circuitBreaker, \"Circuit breaker is on\");\n        _;\n    }\n\n    /*\n    *  @notice Checks if the NFT is valid\n    *  @dev Validates NFT\n    */\n    modifier validateToken(uint256 _tokenId) {\n        require(_exists(_tokenId), \"Invalid token\");\n        _;\n    }\n    \n    /*\n    *  @notice  Ensure token belongs to the caller\n    */\n    modifier isTokenOwner(uint256 _tokenId) {\n        require(ownerOf(_tokenId) == msg.sender , \"caller is not token owner\");\n        _;\n    }\n\n    /*\n    *  @notice  Ensures bets are allowed on the match\n    *  @dev     The totalCollected on the match must be greater than the total payout on the team the bettor wants to bet on. The incoming bet is inclusive in the calculation\n    */\n    modifier isBetAllowed(uint256 _matchId) {\n        require(true, \"Bet is not allowed\");\n        _;\n    }\n    \n    modifier validateMatchResult(uint8 _matchResult) {\n        require(MatchResult(_matchResult) == MatchResult.TEAM_A_WON || MatchResult(_matchResult) == MatchResult.TEAM_B_WON || MatchResult(_matchResult) == MatchResult.DRAW, \"Invalid match result\");\n        _;\n    }\n\n\n\n    ////////////////////////////////////////\n    //                                    //\n    //              FUNCTIONS             //\n    //                                    //      \n    ////////////////////////////////////////\n\n    /*\n    *  @notice  Contract Circuit Breaker\n    *  @dev     Admin can [de]activate core functons in contract\n    *  @param   \n    *  @return  success success status\n    */\n    function toggleCircuitBreaker()\n        public \n        onlyOwner\n    {\n        //code\n        circuitBreaker = !circuitBreaker;\n    }\n    \n    \n    /*\n    *  @notice  New match creation\n    *  @dev     \n    *  @param   \n    *  @return  match Id\n    */\n    function createMatch(uint256 _apiMatchId, string memory _matchResultLink, uint8 _oddsTeamA, uint8 _oddsTeamB, uint8 _oddsDraw, uint256 _startAt)\n        public \n        isNewAPIMatch(_apiMatchId)\n        onlyOwner\n        returns(uint)\n    {\n        matchIds.increment();\n        uint256 matchId = matchIds.current();\n        matches[matchId] = Match(msg.sender, _oddsTeamA, _oddsTeamB, _oddsDraw, _matchResultLink, 0, 0, 0, 0, MatchResult.NOT_DETERMINED, MatchState.NOT_STARTED, true); \n        apiMatches[_apiMatchId] = matchId;\n        emit LogMatchAdded(msg.sender, matchId, _startAt);\n\n        return matchId;\n    }\n\n\n    /*\n    *  @notice  New bet creation. Mint NFT to bettor\n    *  @dev   \n    *  @param  \n    *  @return  token id\n    */\n    function placeBet(uint128 _matchId, uint8 _resultBetOn)\n        public \n        payable\n        matchExists(_matchId) \n        matchNotStarted(_matchId) \n        isBetAllowed(_matchId)\n        validateMatchResult(_resultBetOn)\n        returns(uint256)\n    {\n        require(msg.value != 0, \"Invalid amount bet\");\n\n        address bettor = msg.sender;\n        uint256 amountBet = msg.value;\n        uint256 assetValue = 0;\n        MatchResult matchResultBetOn = MatchResult(_resultBetOn);\n        \n        //update team's total payout\n        if (matchResultBetOn == MatchResult.TEAM_A_WON) {\n            assetValue = amountBet * matches[_matchId].oddsTeamA;\n            matches[_matchId].totalPayoutTeamA += assetValue;\n        } else if(matchResultBetOn == MatchResult.TEAM_B_WON) {\n            assetValue = amountBet * matches[_matchId].oddsTeamB;\n            matches[_matchId].totalPayoutTeamB += assetValue;\n        } else {\n            assetValue = amountBet * matches[_matchId].oddsDraw;\n            matches[_matchId].totalPayoutDraw += assetValue;\n        }\n\n        //increase totalCollected on the match\n        matches[_matchId].totalCollected += amountBet;\n\n        uint256 tokenId = awardSmartAsset(bettor, assetValue, _matchId, matchResultBetOn);\n        \n        //Save bettor's bet\n        matchBets[_matchId][matchResultBetOn].push(tokenId);\n        \n        emit LogBetAdded(bettor, _matchId, amountBet, block.timestamp);\n\n        return tokenId;\n    }\n\n\n    function awardSmartAsset(address bettor, uint256 assetValue, uint256 _matchId, MatchResult _matchResultBetOn) internal returns (uint256) {\n        tokenIds.increment();\n\n        uint256 smartAssetId = tokenIds.current();\n        _mint(bettor, smartAssetId);\n        \n        smartAssets[smartAssetId] = SmartAsset(msg.sender, _matchId, _matchResultBetOn, assetValue, 0);\n\n        return smartAssetId;\n    }\n    \n    function startMatch(uint128 _matchId) \n        public\n        onlyOwner\n        matchExists(_matchId) \n        matchNotStarted(_matchId)\n    {\n        matches[_matchId].state = MatchState.STARTED;\n    }\n\n\n    /*\n    *  @notice  Match manual close by admin. Trigger \"getResult()\" \n    *  @dev     [Real] ChainlinkClient API Request oracles gets match result of winning team. Then, match is closed.\n    *           [Temporary] (Implemented because there's no BSC testnet oracle node)\n    *                       Frontend gets result via result link and posts winning team. Then, match is closed.\n    *  @param  \n    *  @return  success success status\n    */\n    function closeMatch(uint128 _matchId, uint8 _matchResult)\n        public \n        onlyOwner\n        matchExists(_matchId) \n        matchStarted(_matchId)\n        validateMatchResult(_matchResult)\n    {\n        matches[_matchId].state = MatchState.FINISHED;\n        \n        // getMatchResult(_matchId);\n        MatchResult matchResult = MatchResult(_matchResult);\n        setMatchResult(_matchId, matchResult);\n        \n        if (matchResult == MatchResult.TEAM_A_WON) {\n            invalidateAssets(matchBets[_matchId][MatchResult.TEAM_B_WON]);\n            invalidateAssets(matchBets[_matchId][MatchResult.DRAW]);\n        } else if (matchResult == MatchResult.TEAM_B_WON) {\n            invalidateAssets(matchBets[_matchId][MatchResult.TEAM_A_WON]);\n            invalidateAssets(matchBets[_matchId][MatchResult.DRAW]);\n        } else {\n            invalidateAssets(matchBets[_matchId][MatchResult.TEAM_A_WON]);\n            invalidateAssets(matchBets[_matchId][MatchResult.TEAM_B_WON]);\n        }\n        \n        \n        emit LogCloseMatch(msg.sender, _matchId);\n    }\n    \n    function setMatchResult(uint256 _matchId, MatchResult _matchResult) internal {\n        matches[_matchId].result = _matchResult;\n        emit LogSetResult(_matchId, matches[_matchId].result);\n    }\n    \n    function invalidateAssets(uint256[] memory assets) internal {\n        for (uint i = 0; i < assets.length; i++) {\n            _burn(assets[i]);\n        }\n    }\n\n\n    /*\n    *  @notice  Funds withdrawal by winner\n    *  @dev     validated   NFT is burned and caller gets value funds in account\n    *  @param   _tokenId    NFT token id\n    *  @return  success success status\n    */\n    function withdraw(uint128 _tokenId)\n        public \n        payable\n        validateToken(_tokenId)\n        isTokenOwner(_tokenId)\n        returns(bool)\n    {\n        SmartAsset memory smartAsset = smartAssets[_tokenId];\n        \n        require(matches[smartAsset.matchId].state == MatchState.FINISHED, \"Cannot withdraw until match is finished\");\n        \n        require (address(this).balance >= smartAsset.initialValue, \"Contract has insufficient funds\");\n        \n        msg.sender.transfer(smartAsset.initialValue);\n\n        emit LogWithdrawal(msg.sender, smartAsset.matchId, smartAsset.initialValue);\n        return true;\n    }\n\n    /*\n    *  @notice  Fetch match details\n    *  @dev         \n    *  @oaram   _matchId\n    *  @return match match details\n    */\n    function getMatch(uint256 _matchId)\n        public \n        view\n        matchExists(_matchId)\n        returns(Match memory match_)\n    {\n        return matches[_matchId];\n    }\n\n\n    /*\n    *  @notice  Fetch match result with a call through ChainlinkClient.\n    *  @dev     ChainlinkClient Oracle. Callback function \"setMatchResult()\"\n    *  @oaram   _matchId\n    *  @return request ID\n    */\n    function getMatchResult(uint256 _matchId)\n        internal \n        view\n        matchFinished(_matchId)\n    {\n        // Chainlink.Request memory request = buildChainlinkRequest(jobId, address(this), this.setMatchResult.selector);\n        \n        // // Set the URL to perform the GET request on\n        // request.add(\"get\", matches[_matchId].matchResultLink);\n        \n        // // Set the path to find the desired data in the API response, where the response format is:\n        // request.add(\"path\", \"api.results.fixtures[0].goalsHomeTeam\");\n        \n        // // Sends the request\n        // bytes32 requestId = sendChainlinkRequestTo(oracle, request, fee);\n        // matchResultRequestIds[requestId] = _matchId;\n    }\n\n     /*\n    *  @notice  Set Match results\n    *  @dev   \n    *  @param  \n    *  @return  success success status\n    */\n    // function setMatchResult(bytes32 _requestId, uint8 _matchResult)\n    //     public \n    //     matchExists(matchResultRequestIds[_requestId]) \n    //     matchFinished(matchResultRequestIds[_requestId])\n    // {\n    //     uint256 matchId = matchResultRequestIds[_requestId];\n    //     matches[matchId].result = MatchResult(_matchResult);\n    //     emit LogSetResult(matchId, matches[matchId].result);\n    // }\n    \n    /*\n    *  @notice  Fetch all NFTs (SmartAssets)\n    *  @dev             \n    *  @return  assets Array of all NFTs\n    */\n    // function allSmartAssets()\n    //     public \n    //     view\n    //     returns(SmartAsset[] memory _assets)\n    // {\n    //     //code        \n    // }\n\n\n    /*\n    *  @notice  Fetch single NFT (SmartAsset)\n    *  @dev          \n    *  @param   _tokenId\n    *  @return  asset NFT details\n    */\n    function getSmartAsset(uint256 _tokenId)\n        public \n        view\n        validateToken(_tokenId)\n        isTokenOwner(_tokenId)\n        returns(SmartAsset memory asset)\n    {\n        return smartAssets[_tokenId];\n    }\n    \n}\n",
  "sourcePath": "/Users/ajibigad/crytoproject/SmartBet/contracts/SmartBet.sol",
  "compiler": {
    "name": "solc",
    "version": "0.7.6+commit.7338295f.Emscripten.clang"
  },
  "schemaVersion": "3.3.4",
  "updatedAt": "2021-04-06T07:03:55.965Z",
  "devdoc": {
    "kind": "dev",
    "methods": {
      "approve(address,uint256)": {
        "details": "See {IERC721-approve}."
      },
      "balanceOf(address)": {
        "details": "See {IERC721-balanceOf}."
      },
      "baseURI()": {
        "details": "Returns the base URI set via {_setBaseURI}. This will be automatically added as a prefix in {tokenURI} to each token's URI, or to the token ID if no specific URI is set for that token ID."
      },
      "getApproved(uint256)": {
        "details": "See {IERC721-getApproved}."
      },
      "isApprovedForAll(address,address)": {
        "details": "See {IERC721-isApprovedForAll}."
      },
      "name()": {
        "details": "See {IERC721Metadata-name}."
      },
      "ownerOf(uint256)": {
        "details": "See {IERC721-ownerOf}."
      },
      "safeTransferFrom(address,address,uint256)": {
        "details": "See {IERC721-safeTransferFrom}."
      },
      "safeTransferFrom(address,address,uint256,bytes)": {
        "details": "See {IERC721-safeTransferFrom}."
      },
      "setApprovalForAll(address,bool)": {
        "details": "See {IERC721-setApprovalForAll}."
      },
      "supportsInterface(bytes4)": {
        "details": "See {IERC165-supportsInterface}. Time complexity O(1), guaranteed to always use less than 30 000 gas."
      },
      "symbol()": {
        "details": "See {IERC721Metadata-symbol}."
      },
      "tokenByIndex(uint256)": {
        "details": "See {IERC721Enumerable-tokenByIndex}."
      },
      "tokenOfOwnerByIndex(address,uint256)": {
        "details": "See {IERC721Enumerable-tokenOfOwnerByIndex}."
      },
      "tokenURI(uint256)": {
        "details": "See {IERC721Metadata-tokenURI}."
      },
      "totalSupply()": {
        "details": "See {IERC721Enumerable-totalSupply}."
      },
      "transferFrom(address,address,uint256)": {
        "details": "See {IERC721-transferFrom}."
      }
    },
    "version": 1
  },
  "userdoc": {
    "kind": "user",
    "methods": {},
    "version": 1
  }
}