{
  "contractName": "SmartBet",
  "abi": [
    {
      "inputs": [],
      "stateMutability": "nonpayable",
      "type": "constructor"
    },
    {
      "anonymous": false,
      "inputs": [
        {
          "indexed": true,
          "internalType": "address",
          "name": "owner",
          "type": "address"
        },
        {
          "indexed": true,
          "internalType": "address",
          "name": "approved",
          "type": "address"
        },
        {
          "indexed": true,
          "internalType": "uint256",
          "name": "tokenId",
          "type": "uint256"
        }
      ],
      "name": "Approval",
      "type": "event"
    },
    {
      "anonymous": false,
      "inputs": [
        {
          "indexed": true,
          "internalType": "address",
          "name": "owner",
          "type": "address"
        },
        {
          "indexed": true,
          "internalType": "address",
          "name": "operator",
          "type": "address"
        },
        {
          "indexed": false,
          "internalType": "bool",
          "name": "approved",
          "type": "bool"
        }
      ],
      "name": "ApprovalForAll",
      "type": "event"
    },
    {
      "anonymous": false,
      "inputs": [
        {
          "indexed": true,
          "internalType": "bytes32",
          "name": "id",
          "type": "bytes32"
        }
      ],
      "name": "ChainlinkCancelled",
      "type": "event"
    },
    {
      "anonymous": false,
      "inputs": [
        {
          "indexed": true,
          "internalType": "bytes32",
          "name": "id",
          "type": "bytes32"
        }
      ],
      "name": "ChainlinkFulfilled",
      "type": "event"
    },
    {
      "anonymous": false,
      "inputs": [
        {
          "indexed": true,
          "internalType": "bytes32",
          "name": "id",
          "type": "bytes32"
        }
      ],
      "name": "ChainlinkRequested",
      "type": "event"
    },
    {
      "anonymous": false,
      "inputs": [
        {
          "indexed": true,
          "internalType": "address",
          "name": "bettor",
          "type": "address"
        },
        {
          "indexed": true,
          "internalType": "uint256",
          "name": "matchId",
          "type": "uint256"
        },
        {
          "indexed": false,
          "internalType": "uint256",
          "name": "amount",
          "type": "uint256"
        },
        {
          "indexed": true,
          "internalType": "uint256",
          "name": "betAt",
          "type": "uint256"
        }
      ],
      "name": "LogBetAdded",
      "type": "event"
    },
    {
      "anonymous": false,
      "inputs": [
        {
          "indexed": true,
          "internalType": "address",
          "name": "by",
          "type": "address"
        },
        {
          "indexed": true,
          "internalType": "uint256",
          "name": "matchId",
          "type": "uint256"
        }
      ],
      "name": "LogCloseMatch",
      "type": "event"
    },
    {
      "anonymous": false,
      "inputs": [
        {
          "indexed": true,
          "internalType": "address",
          "name": "creator",
          "type": "address"
        },
        {
          "indexed": false,
          "internalType": "uint256",
          "name": "matchId",
          "type": "uint256"
        },
        {
          "indexed": true,
          "internalType": "uint256",
          "name": "startAt",
          "type": "uint256"
        }
      ],
      "name": "LogMatchAdded",
      "type": "event"
    },
    {
      "anonymous": false,
      "inputs": [
        {
          "indexed": true,
          "internalType": "uint256",
          "name": "matchId",
          "type": "uint256"
        },
        {
          "indexed": false,
          "internalType": "enum SmartBet.MatchResult",
          "name": "result",
          "type": "uint8"
        }
      ],
      "name": "LogSetResult",
      "type": "event"
    },
    {
      "anonymous": false,
      "inputs": [
        {
          "indexed": true,
          "internalType": "address",
          "name": "by",
          "type": "address"
        },
        {
          "indexed": true,
          "internalType": "uint256",
          "name": "matchId",
          "type": "uint256"
        },
        {
          "indexed": false,
          "internalType": "uint256",
          "name": "amount",
          "type": "uint256"
        }
      ],
      "name": "LogWithdrawal",
      "type": "event"
    },
    {
      "anonymous": false,
      "inputs": [
        {
          "indexed": true,
          "internalType": "address",
          "name": "from",
          "type": "address"
        },
        {
          "indexed": true,
          "internalType": "address",
          "name": "to",
          "type": "address"
        },
        {
          "indexed": true,
          "internalType": "uint256",
          "name": "tokenId",
          "type": "uint256"
        }
      ],
      "name": "Transfer",
      "type": "event"
    },
    {
      "inputs": [
        {
          "internalType": "address",
          "name": "to",
          "type": "address"
        },
        {
          "internalType": "uint256",
          "name": "tokenId",
          "type": "uint256"
        }
      ],
      "name": "approve",
      "outputs": [],
      "stateMutability": "nonpayable",
      "type": "function"
    },
    {
      "inputs": [
        {
          "internalType": "address",
          "name": "owner",
          "type": "address"
        }
      ],
      "name": "balanceOf",
      "outputs": [
        {
          "internalType": "uint256",
          "name": "",
          "type": "uint256"
        }
      ],
      "stateMutability": "view",
      "type": "function",
      "constant": true
    },
    {
      "inputs": [],
      "name": "baseURI",
      "outputs": [
        {
          "internalType": "string",
          "name": "",
          "type": "string"
        }
      ],
      "stateMutability": "view",
      "type": "function",
      "constant": true
    },
    {
      "inputs": [
        {
          "internalType": "uint256",
          "name": "tokenId",
          "type": "uint256"
        }
      ],
      "name": "getApproved",
      "outputs": [
        {
          "internalType": "address",
          "name": "",
          "type": "address"
        }
      ],
      "stateMutability": "view",
      "type": "function",
      "constant": true
    },
    {
      "inputs": [
        {
          "internalType": "address",
          "name": "owner",
          "type": "address"
        },
        {
          "internalType": "address",
          "name": "operator",
          "type": "address"
        }
      ],
      "name": "isApprovedForAll",
      "outputs": [
        {
          "internalType": "bool",
          "name": "",
          "type": "bool"
        }
      ],
      "stateMutability": "view",
      "type": "function",
      "constant": true
    },
    {
      "inputs": [],
      "name": "name",
      "outputs": [
        {
          "internalType": "string",
          "name": "",
          "type": "string"
        }
      ],
      "stateMutability": "view",
      "type": "function",
      "constant": true
    },
    {
      "inputs": [
        {
          "internalType": "uint256",
          "name": "tokenId",
          "type": "uint256"
        }
      ],
      "name": "ownerOf",
      "outputs": [
        {
          "internalType": "address",
          "name": "",
          "type": "address"
        }
      ],
      "stateMutability": "view",
      "type": "function",
      "constant": true
    },
    {
      "inputs": [
        {
          "internalType": "address",
          "name": "from",
          "type": "address"
        },
        {
          "internalType": "address",
          "name": "to",
          "type": "address"
        },
        {
          "internalType": "uint256",
          "name": "tokenId",
          "type": "uint256"
        }
      ],
      "name": "safeTransferFrom",
      "outputs": [],
      "stateMutability": "nonpayable",
      "type": "function"
    },
    {
      "inputs": [
        {
          "internalType": "address",
          "name": "from",
          "type": "address"
        },
        {
          "internalType": "address",
          "name": "to",
          "type": "address"
        },
        {
          "internalType": "uint256",
          "name": "tokenId",
          "type": "uint256"
        },
        {
          "internalType": "bytes",
          "name": "_data",
          "type": "bytes"
        }
      ],
      "name": "safeTransferFrom",
      "outputs": [],
      "stateMutability": "nonpayable",
      "type": "function"
    },
    {
      "inputs": [
        {
          "internalType": "address",
          "name": "operator",
          "type": "address"
        },
        {
          "internalType": "bool",
          "name": "approved",
          "type": "bool"
        }
      ],
      "name": "setApprovalForAll",
      "outputs": [],
      "stateMutability": "nonpayable",
      "type": "function"
    },
    {
      "inputs": [
        {
          "internalType": "bytes4",
          "name": "interfaceId",
          "type": "bytes4"
        }
      ],
      "name": "supportsInterface",
      "outputs": [
        {
          "internalType": "bool",
          "name": "",
          "type": "bool"
        }
      ],
      "stateMutability": "view",
      "type": "function",
      "constant": true
    },
    {
      "inputs": [],
      "name": "symbol",
      "outputs": [
        {
          "internalType": "string",
          "name": "",
          "type": "string"
        }
      ],
      "stateMutability": "view",
      "type": "function",
      "constant": true
    },
    {
      "inputs": [
        {
          "internalType": "uint256",
          "name": "index",
          "type": "uint256"
        }
      ],
      "name": "tokenByIndex",
      "outputs": [
        {
          "internalType": "uint256",
          "name": "",
          "type": "uint256"
        }
      ],
      "stateMutability": "view",
      "type": "function",
      "constant": true
    },
    {
      "inputs": [
        {
          "internalType": "address",
          "name": "owner",
          "type": "address"
        },
        {
          "internalType": "uint256",
          "name": "index",
          "type": "uint256"
        }
      ],
      "name": "tokenOfOwnerByIndex",
      "outputs": [
        {
          "internalType": "uint256",
          "name": "",
          "type": "uint256"
        }
      ],
      "stateMutability": "view",
      "type": "function",
      "constant": true
    },
    {
      "inputs": [
        {
          "internalType": "uint256",
          "name": "tokenId",
          "type": "uint256"
        }
      ],
      "name": "tokenURI",
      "outputs": [
        {
          "internalType": "string",
          "name": "",
          "type": "string"
        }
      ],
      "stateMutability": "view",
      "type": "function",
      "constant": true
    },
    {
      "inputs": [],
      "name": "totalSupply",
      "outputs": [
        {
          "internalType": "uint256",
          "name": "",
          "type": "uint256"
        }
      ],
      "stateMutability": "view",
      "type": "function",
      "constant": true
    },
    {
      "inputs": [],
      "name": "totalTreasury",
      "outputs": [
        {
          "internalType": "uint256",
          "name": "",
          "type": "uint256"
        }
      ],
      "stateMutability": "view",
      "type": "function",
      "constant": true
    },
    {
      "inputs": [
        {
          "internalType": "address",
          "name": "from",
          "type": "address"
        },
        {
          "internalType": "address",
          "name": "to",
          "type": "address"
        },
        {
          "internalType": "uint256",
          "name": "tokenId",
          "type": "uint256"
        }
      ],
      "name": "transferFrom",
      "outputs": [],
      "stateMutability": "nonpayable",
      "type": "function"
    },
    {
      "inputs": [],
      "name": "toggleCircuitBreaker",
      "outputs": [],
      "stateMutability": "nonpayable",
      "type": "function"
    },
    {
      "inputs": [
        {
          "internalType": "bytes32",
          "name": "_matchResultLink",
          "type": "bytes32"
        },
        {
          "internalType": "uint8",
          "name": "_oddsTeamA",
          "type": "uint8"
        },
        {
          "internalType": "uint8",
          "name": "_oddsTeamB",
          "type": "uint8"
        },
        {
          "internalType": "uint256",
          "name": "_startAt",
          "type": "uint256"
        }
      ],
      "name": "createMatch",
      "outputs": [
        {
          "internalType": "uint256",
          "name": "",
          "type": "uint256"
        }
      ],
      "stateMutability": "nonpayable",
      "type": "function"
    },
    {
      "inputs": [
        {
          "internalType": "uint128",
          "name": "_matchId",
          "type": "uint128"
        },
        {
          "internalType": "uint8",
          "name": "_teamBetOn",
          "type": "uint8"
        }
      ],
      "name": "placeBet",
      "outputs": [
        {
          "internalType": "uint256",
          "name": "",
          "type": "uint256"
        }
      ],
      "stateMutability": "payable",
      "type": "function",
      "payable": true
    },
    {
      "inputs": [
        {
          "internalType": "uint128",
          "name": "_matchId",
          "type": "uint128"
        }
      ],
      "name": "closeMatch",
      "outputs": [],
      "stateMutability": "nonpayable",
      "type": "function"
    },
    {
      "inputs": [
        {
          "internalType": "uint128",
          "name": "_tokenId",
          "type": "uint128"
        }
      ],
      "name": "withdraw",
      "outputs": [
        {
          "internalType": "bool",
          "name": "success",
          "type": "bool"
        }
      ],
      "stateMutability": "payable",
      "type": "function",
      "payable": true
    },
    {
      "inputs": [
        {
          "internalType": "uint256",
          "name": "_matchId",
          "type": "uint256"
        }
      ],
      "name": "getMatch",
      "outputs": [
        {
          "components": [
            {
              "internalType": "address",
              "name": "creator",
              "type": "address"
            },
            {
              "internalType": "uint8",
              "name": "oddsTeamA",
              "type": "uint8"
            },
            {
              "internalType": "uint8",
              "name": "oddsTeamB",
              "type": "uint8"
            },
            {
              "internalType": "bytes32",
              "name": "matchResultLink",
              "type": "bytes32"
            },
            {
              "internalType": "uint256",
              "name": "totalPayoutTeamA",
              "type": "uint256"
            },
            {
              "internalType": "uint256",
              "name": "totalPayoutTeamB",
              "type": "uint256"
            },
            {
              "internalType": "uint256",
              "name": "totalCollected",
              "type": "uint256"
            },
            {
              "internalType": "enum SmartBet.MatchResult",
              "name": "result",
              "type": "uint8"
            },
            {
              "internalType": "enum SmartBet.MatchState",
              "name": "state",
              "type": "uint8"
            },
            {
              "internalType": "bool",
              "name": "exists",
              "type": "bool"
            }
          ],
          "internalType": "struct SmartBet.Match",
          "name": "match_",
          "type": "tuple"
        }
      ],
      "stateMutability": "view",
      "type": "function",
      "constant": true
    },
    {
      "inputs": [
        {
          "internalType": "bytes32",
          "name": "_requestId",
          "type": "bytes32"
        },
        {
          "internalType": "uint8",
          "name": "_matchResult",
          "type": "uint8"
        }
      ],
      "name": "setMatchResult",
      "outputs": [],
      "stateMutability": "nonpayable",
      "type": "function"
    }
  ],
  "bytecode": "0x60806040526001600e556000601460006101000a81548160ff0219169083151502179055503480156200003157600080fd5b506040518060400160405280600881526020017f536d6172744265740000000000000000000000000000000000000000000000008152506040518060400160405280600481526020017f534d425400000000000000000000000000000000000000000000000000000000815250620000b66301ffc9a760e01b6200020460201b60201c565b8160069080519060200190620000ce9291906200030d565b508060079080519060200190620000e79291906200030d565b50620001006380ac58cd60e01b6200020460201b60201c565b62000118635b5e139f60e01b6200020460201b60201c565b6200013063780e9d6360e01b6200020460201b60201c565b505033601060006101000a81548173ffffffffffffffffffffffffffffffffffffffff021916908373ffffffffffffffffffffffffffffffffffffffff160217905550732f90a6d021db21e1b2a077c5a37b3c7e75d15b7e601460016101000a81548173ffffffffffffffffffffffffffffffffffffffff021916908373ffffffffffffffffffffffffffffffffffffffff1602179055507f323966613961613133626631343638373838623763633461353030613435623860158190555067016345785d8a0000601681905550620003c3565b63ffffffff60e01b817bffffffffffffffffffffffffffffffffffffffffffffffffffffffff19161415620002a1576040517f08c379a000000000000000000000000000000000000000000000000000000000815260040180806020018281038252601c8152602001807f4552433136353a20696e76616c696420696e746572666163652069640000000081525060200191505060405180910390fd5b6001600080837bffffffffffffffffffffffffffffffffffffffffffffffffffffffff19167bffffffffffffffffffffffffffffffffffffffffffffffffffffffff1916815260200190815260200160002060006101000a81548160ff02191690831515021790555050565b828054600181600116156101000203166002900490600052602060002090601f01602090048101928262000345576000855562000391565b82601f106200036057805160ff191683800117855562000391565b8280016001018555821562000391579182015b828111156200039057825182559160200191906001019062000373565b5b509050620003a09190620003a4565b5090565b5b80821115620003bf576000816000905550600101620003a5565b5090565b613d9880620003d36000396000f3fe6080604052600436106101665760003560e01c806358d33e6d116100d1578063897534a91161008a578063b88d4fde11610064578063b88d4fde14610580578063c87b56dd146105a9578063d5eb63cc146105e6578063e985e9c5146105fd57610166565b8063897534a91461050157806395d89b411461052c578063a22cb4651461055757610166565b806358d33e6d146103c65780636352211e146103f65780636623f61a146104335780636c0360eb1461047057806370a082311461049b57806380d235df146104d857610166565b806318160ddd1161012357806318160ddd1461029257806323b872dd146102bd5780632f745c59146102e65780633d092b3d1461032357806342842e0e146103605780634f6ccce71461038957610166565b806301ffc9a71461016b57806302387a7b146101a857806306fdde03146101d8578063081812fc14610203578063095ea7b3146102405780630e8769da14610269575b600080fd5b34801561017757600080fd5b50610192600480360381019061018d919061345e565b61063a565b60405161019f91906137c0565b60405180910390f35b6101c260048036038101906101bd9190613487565b6106a1565b6040516101cf91906137c0565b60405180910390f35b3480156101e457600080fd5b506101ed6106d2565b6040516101fa91906137f6565b60405180910390f35b34801561020f57600080fd5b5061022a600480360381019061022591906134ec565b610774565b60405161023791906137a5565b60405180910390f35b34801561024c57600080fd5b5061026760048036038101906102629190613383565b61080f565b005b34801561027557600080fd5b50610290600480360381019061028b91906133bf565b610953565b005b34801561029e57600080fd5b506102a7610aac565b6040516102b49190613894565b60405180910390f35b3480156102c957600080fd5b506102e460048036038101906102df919061327d565b610abd565b005b3480156102f257600080fd5b5061030d60048036038101906103089190613383565b610b33565b60405161031a9190613894565b60405180910390f35b34801561032f57600080fd5b5061034a600480360381019061034591906134ec565b610b8e565b6040516103579190613878565b60405180910390f35b34801561036c57600080fd5b506103876004803603810190610382919061327d565b610d18565b005b34801561039557600080fd5b506103b060048036038101906103ab91906134ec565b610d38565b6040516103bd9190613894565b60405180910390f35b6103e060048036038101906103db91906134b0565b610d5b565b6040516103ed9190613894565b60405180910390f35b34801561040257600080fd5b5061041d600480360381019061041891906134ec565b61112c565b60405161042a91906137a5565b60405180910390f35b34801561043f57600080fd5b5061045a600480360381019061045591906133fb565b611163565b6040516104679190613894565b60405180910390f35b34801561047c57600080fd5b506104856113ed565b60405161049291906137f6565b60405180910390f35b3480156104a757600080fd5b506104c260048036038101906104bd9190613218565b61148f565b6040516104cf9190613894565b60405180910390f35b3480156104e457600080fd5b506104ff60048036038101906104fa9190613487565b611564565b005b34801561050d57600080fd5b50610516611717565b6040516105239190613894565b60405180910390f35b34801561053857600080fd5b5061054161171d565b60405161054e91906137f6565b60405180910390f35b34801561056357600080fd5b5061057e60048036038101906105799190613347565b6117bf565b005b34801561058c57600080fd5b506105a760048036038101906105a291906132cc565b611975565b005b3480156105b557600080fd5b506105d060048036038101906105cb91906134ec565b6119ed565b6040516105dd91906137f6565b60405180910390f35b3480156105f257600080fd5b506105fb611cd6565b005b34801561060957600080fd5b50610624600480360381019061061f9190613241565b611d5c565b60405161063191906137c0565b60405180910390f35b6000806000837bffffffffffffffffffffffffffffffffffffffffffffffffffffffff19167bffffffffffffffffffffffffffffffffffffffffffffffffffffffff1916815260200190815260200160002060009054906101000a900460ff169050919050565b6000816fffffffffffffffffffffffffffffffff166106bf81611df0565b6106c857600080fd5b6001915050919050565b606060068054600181600116156101000203166002900480601f01602080910402602001604051908101604052809291908181526020018280546001816001161561010002031660029004801561076a5780601f1061073f5761010080835404028352916020019161076a565b820191906000526020600020905b81548152906001019060200180831161074d57829003601f168201915b5050505050905090565b600061077f82611df0565b6107d4576040517f08c379a000000000000000000000000000000000000000000000000000000000815260040180806020018281038252602c815260200180613c8d602c913960400191505060405180910390fd5b6004600083815260200190815260200160002060009054906101000a900473ffffffffffffffffffffffffffffffffffffffff169050919050565b600061081a8261112c565b90508073ffffffffffffffffffffffffffffffffffffffff168373ffffffffffffffffffffffffffffffffffffffff1614156108a1576040517f08c379a0000000000000000000000000000000000000000000000000000000008152600401808060200182810382526021815260200180613d116021913960400191505060405180910390fd5b8073ffffffffffffffffffffffffffffffffffffffff166108c0611e0d565b73ffffffffffffffffffffffffffffffffffffffff1614806108ef57506108ee816108e9611e0d565b611d5c565b5b610944576040517f08c379a0000000000000000000000000000000000000000000000000000000008152600401808060200182810382526038815260200180613be06038913960400191505060405180910390fd5b61094e8383611e15565b505050565b601a6000838152602001908152602001600020546018600082815260200190815260200160002060050160029054906101000a900460ff1661099457600080fd5b601a6000848152602001908152602001600020546002808111156109b457fe5b6018600083815260200190815260200160002060050160019054906101000a900460ff1660028111156109e357fe5b146109ed57600080fd5b6000601a60008681526020019081526020016000205490508360ff166003811115610a1457fe5b6018600083815260200190815260200160002060050160006101000a81548160ff02191690836003811115610a4557fe5b0217905550807f77ad4add1031e6038509c317deecf8504b6adb01f180c0da0db7d715e194f54d6018600084815260200190815260200160002060050160009054906101000a900460ff16604051610a9d91906137db565b60405180910390a25050505050565b6000610ab86002611ece565b905090565b610ace610ac8611e0d565b82611ee3565b610b23576040517f08c379a0000000000000000000000000000000000000000000000000000000008152600401808060200182810382526031815260200180613d326031913960400191505060405180910390fd5b610b2e838383611fd7565b505050565b6000610b8682600160008673ffffffffffffffffffffffffffffffffffffffff1673ffffffffffffffffffffffffffffffffffffffff16815260200190815260200160002061221a90919063ffffffff16565b905092915050565b610b96613093565b816018600082815260200190815260200160002060050160029054906101000a900460ff16610bc457600080fd5b60186000848152602001908152602001600020604051806101400160405290816000820160009054906101000a900473ffffffffffffffffffffffffffffffffffffffff1673ffffffffffffffffffffffffffffffffffffffff1673ffffffffffffffffffffffffffffffffffffffff1681526020016000820160149054906101000a900460ff1660ff1660ff1681526020016000820160159054906101000a900460ff1660ff1660ff168152602001600182015481526020016002820154815260200160038201548152602001600482015481526020016005820160009054906101000a900460ff166003811115610cb957fe5b6003811115610cc457fe5b81526020016005820160019054906101000a900460ff166002811115610ce657fe5b6002811115610cf157fe5b81526020016005820160029054906101000a900460ff161515151581525050915050919050565b610d3383838360405180602001604052806000815250611975565b505050565b600080610d4f83600261223490919063ffffffff16565b50905080915050919050565b6000826fffffffffffffffffffffffffffffffff166018600082815260200190815260200160002060050160029054906101000a900460ff16610d9d57600080fd5b836fffffffffffffffffffffffffffffffff1660006002811115610dbd57fe5b6018600083815260200190815260200160002060050160019054906101000a900460ff166002811115610dec57fe5b14610df657600080fd5b846fffffffffffffffffffffffffffffffff166001610e1457600080fd5b600160ff168560ff161480610e2f5750600260ff168560ff16145b610e6e576040517f08c379a0000000000000000000000000000000000000000000000000000000008152600401610e6590613818565b60405180910390fd5b6000341415610eb2576040517f08c379a0000000000000000000000000000000000000000000000000000000008152600401610ea990613838565b60405180910390fd5b600060196000886fffffffffffffffffffffffffffffffff16815260200190815260200160002060008760ff1660ff16815260200190815260200160002060003373ffffffffffffffffffffffffffffffffffffffff1673ffffffffffffffffffffffffffffffffffffffff168152602001908152602001600020541415610f6f576040517f08c379a0000000000000000000000000000000000000000000000000000000008152600401610f6690613858565b60405180910390fd5b6000339050600034905080601960008a6fffffffffffffffffffffffffffffffff16815260200190815260200160002060008960ff1660ff16815260200190815260200160002060008473ffffffffffffffffffffffffffffffffffffffff1673ffffffffffffffffffffffffffffffffffffffff16815260200190815260200160002081905550600160ff168760ff1614156110415780601860008a6fffffffffffffffffffffffffffffffff16815260200190815260200160002060020160008282540192505081905550611078565b80601860008a6fffffffffffffffffffffffffffffffff168152602001908152602001600020600301600082825401925050819055505b80601860008a6fffffffffffffffffffffffffffffffff1681526020019081526020016000206004016000828254019250508190555060006110b983612260565b905042896fffffffffffffffffffffffffffffffff168473ffffffffffffffffffffffffffffffffffffffff167f36dea6e2ca98fcfbacb3e3d3c49cd2258a9f7cb343d367ea6bc4ec581ac4b79f856040516111159190613894565b60405180910390a480965050505050505092915050565b600061115c82604051806060016040528060298152602001613c4260299139600261228d9092919063ffffffff16565b9050919050565b6000601060009054906101000a900473ffffffffffffffffffffffffffffffffffffffff1673ffffffffffffffffffffffffffffffffffffffff163373ffffffffffffffffffffffffffffffffffffffff16146111bf57600080fd5b6111c960116122ac565b60006111d560116122c2565b90506040518061014001604052803373ffffffffffffffffffffffffffffffffffffffff1681526020018660ff1681526020018560ff1681526020018781526020016000815260200160008152602001600081526020016000600381111561123957fe5b81526020016000600281111561124b57fe5b8152602001600115158152506018600083815260200190815260200160002060008201518160000160006101000a81548173ffffffffffffffffffffffffffffffffffffffff021916908373ffffffffffffffffffffffffffffffffffffffff16021790555060208201518160000160146101000a81548160ff021916908360ff16021790555060408201518160000160156101000a81548160ff021916908360ff160217905550606082015181600101556080820151816002015560a0820151816003015560c0820151816004015560e08201518160050160006101000a81548160ff0219169083600381111561133f57fe5b02179055506101008201518160050160016101000a81548160ff0219169083600281111561136957fe5b02179055506101208201518160050160026101000a81548160ff021916908315150217905550905050823373ffffffffffffffffffffffffffffffffffffffff167f7b1b45419551e8400cc629d43c383cd9d37413948985181b85d253d65537932d836040516113d99190613894565b60405180910390a380915050949350505050565b606060098054600181600116156101000203166002900480601f0160208091040260200160405190810160405280929190818152602001828054600181600116156101000203166002900480156114855780601f1061145a57610100808354040283529160200191611485565b820191906000526020600020905b81548152906001019060200180831161146857829003601f168201915b5050505050905090565b60008073ffffffffffffffffffffffffffffffffffffffff168273ffffffffffffffffffffffffffffffffffffffff161415611516576040517f08c379a000000000000000000000000000000000000000000000000000000000815260040180806020018281038252602a815260200180613c18602a913960400191505060405180910390fd5b61155d600160008473ffffffffffffffffffffffffffffffffffffffff1673ffffffffffffffffffffffffffffffffffffffff1681526020019081526020016000206122d0565b9050919050565b601060009054906101000a900473ffffffffffffffffffffffffffffffffffffffff1673ffffffffffffffffffffffffffffffffffffffff163373ffffffffffffffffffffffffffffffffffffffff16146115be57600080fd5b806fffffffffffffffffffffffffffffffff166018600082815260200190815260200160002060050160029054906101000a900460ff166115fe57600080fd5b816fffffffffffffffffffffffffffffffff166001600281111561161e57fe5b6018600083815260200190815260200160002060050160019054906101000a900460ff16600281111561164d57fe5b1461165757600080fd5b600260186000856fffffffffffffffffffffffffffffffff16815260200190815260200160002060050160016101000a81548160ff0219169083600281111561169c57fe5b02179055506116bc836fffffffffffffffffffffffffffffffff166122e5565b826fffffffffffffffffffffffffffffffff163373ffffffffffffffffffffffffffffffffffffffff167f0e7b747a0c50c86498e7e1ba36262e6509dcfa11242e207dfbd88cd7dcb748ae60405160405180910390a3505050565b60135481565b606060078054600181600116156101000203166002900480601f0160208091040260200160405190810160405280929190818152602001828054600181600116156101000203166002900480156117b55780601f1061178a576101008083540402835291602001916117b5565b820191906000526020600020905b81548152906001019060200180831161179857829003601f168201915b5050505050905090565b6117c7611e0d565b73ffffffffffffffffffffffffffffffffffffffff168273ffffffffffffffffffffffffffffffffffffffff161415611868576040517f08c379a00000000000000000000000000000000000000000000000000000000081526004018080602001828103825260198152602001807f4552433732313a20617070726f766520746f2063616c6c65720000000000000081525060200191505060405180910390fd5b8060056000611875611e0d565b73ffffffffffffffffffffffffffffffffffffffff1673ffffffffffffffffffffffffffffffffffffffff16815260200190815260200160002060008473ffffffffffffffffffffffffffffffffffffffff1673ffffffffffffffffffffffffffffffffffffffff16815260200190815260200160002060006101000a81548160ff0219169083151502179055508173ffffffffffffffffffffffffffffffffffffffff16611922611e0d565b73ffffffffffffffffffffffffffffffffffffffff167f17307eab39ab6107e8899845ad3d59bd9653f200f220920489ca2b5937696c318360405180821515815260200191505060405180910390a35050565b611986611980611e0d565b83611ee3565b6119db576040517f08c379a0000000000000000000000000000000000000000000000000000000008152600401808060200182810382526031815260200180613d326031913960400191505060405180910390fd5b6119e78484848461232f565b50505050565b60606119f882611df0565b611a4d576040517f08c379a000000000000000000000000000000000000000000000000000000000815260040180806020018281038252602f815260200180613ce2602f913960400191505060405180910390fd5b6000600860008481526020019081526020016000208054600181600116156101000203166002900480601f016020809104026020016040519081016040528092919081815260200182805460018160011615610100020316600290048015611af65780601f10611acb57610100808354040283529160200191611af6565b820191906000526020600020905b815481529060010190602001808311611ad957829003601f168201915b50505050509050600060098054600181600116156101000203166002900490501415611b255780915050611cd1565b600081511115611bfe576009816040516020018083805460018160011615610100020316600290048015611b905780601f10611b6e576101008083540402835291820191611b90565b820191906000526020600020905b815481529060010190602001808311611b7c575b505082805190602001908083835b60208310611bc15780518252602082019150602081019050602083039250611b9e565b6001836020036101000a03801982511681845116808217855250505050505090500192505050604051602081830303815290604052915050611cd1565b6009611c09846123a1565b6040516020018083805460018160011615610100020316600290048015611c675780601f10611c45576101008083540402835291820191611c67565b820191906000526020600020905b815481529060010190602001808311611c53575b505082805190602001908083835b60208310611c985780518252602082019150602081019050602083039250611c75565b6001836020036101000a038019825116818451168082178552505050505050905001925050506040516020818303038152906040529150505b919050565b601060009054906101000a900473ffffffffffffffffffffffffffffffffffffffff1673ffffffffffffffffffffffffffffffffffffffff163373ffffffffffffffffffffffffffffffffffffffff1614611d3057600080fd5b601460009054906101000a900460ff1615601460006101000a81548160ff021916908315150217905550565b6000600560008473ffffffffffffffffffffffffffffffffffffffff1673ffffffffffffffffffffffffffffffffffffffff16815260200190815260200160002060008373ffffffffffffffffffffffffffffffffffffffff1673ffffffffffffffffffffffffffffffffffffffff16815260200190815260200160002060009054906101000a900460ff16905092915050565b6000611e068260026124e890919063ffffffff16565b9050919050565b600033905090565b816004600083815260200190815260200160002060006101000a81548173ffffffffffffffffffffffffffffffffffffffff021916908373ffffffffffffffffffffffffffffffffffffffff160217905550808273ffffffffffffffffffffffffffffffffffffffff16611e888361112c565b73ffffffffffffffffffffffffffffffffffffffff167f8c5be1e5ebec7d5bd14f71427d1e84f3dd0314c0f7b2291e5b200ac8c7c3b92560405160405180910390a45050565b6000611edc82600001612502565b9050919050565b6000611eee82611df0565b611f43576040517f08c379a000000000000000000000000000000000000000000000000000000000815260040180806020018281038252602c815260200180613bb4602c913960400191505060405180910390fd5b6000611f4e8361112c565b90508073ffffffffffffffffffffffffffffffffffffffff168473ffffffffffffffffffffffffffffffffffffffff161480611fbd57508373ffffffffffffffffffffffffffffffffffffffff16611fa584610774565b73ffffffffffffffffffffffffffffffffffffffff16145b80611fce5750611fcd8185611d5c565b5b91505092915050565b8273ffffffffffffffffffffffffffffffffffffffff16611ff78261112c565b73ffffffffffffffffffffffffffffffffffffffff1614612063576040517f08c379a0000000000000000000000000000000000000000000000000000000008152600401808060200182810382526029815260200180613cb96029913960400191505060405180910390fd5b600073ffffffffffffffffffffffffffffffffffffffff168273ffffffffffffffffffffffffffffffffffffffff1614156120e9576040517f08c379a0000000000000000000000000000000000000000000000000000000008152600401808060200182810382526024815260200180613b906024913960400191505060405180910390fd5b6120f4838383612513565b6120ff600082611e15565b61215081600160008673ffffffffffffffffffffffffffffffffffffffff1673ffffffffffffffffffffffffffffffffffffffff16815260200190815260200160002061251890919063ffffffff16565b506121a281600160008573ffffffffffffffffffffffffffffffffffffffff1673ffffffffffffffffffffffffffffffffffffffff16815260200190815260200160002061253290919063ffffffff16565b506121b98183600261254c9092919063ffffffff16565b50808273ffffffffffffffffffffffffffffffffffffffff168473ffffffffffffffffffffffffffffffffffffffff167fddf252ad1be2c89b69c2b068fc378daa952ba7f163c4a11628f55a4df523b3ef60405160405180910390a4505050565b60006122298360000183612581565b60001c905092915050565b6000806000806122478660000186612604565b915091508160001c8160001c9350935050509250929050565b600061226c60126122ac565b600061227860126122c2565b9050612284838261269d565b80915050919050565b60006122a0846000018460001b84612891565b60001c90509392505050565b6001816000016000828254019250508190555050565b600081600001549050919050565b60006122de82600001612987565b9050919050565b806002808111156122f257fe5b6018600083815260200190815260200160002060050160019054906101000a900460ff16600281111561232157fe5b1461232b57600080fd5b5050565b61233a848484611fd7565b61234684848484612998565b61239b576040517f08c379a0000000000000000000000000000000000000000000000000000000008152600401808060200182810382526032815260200180613b5e6032913960400191505060405180910390fd5b50505050565b606060008214156123e9576040518060400160405280600181526020017f300000000000000000000000000000000000000000000000000000000000000081525090506124e3565b600082905060005b60008214612413578080600101915050600a828161240b57fe5b0491506123f1565b60008167ffffffffffffffff8111801561242c57600080fd5b506040519080825280601f01601f19166020018201604052801561245f5781602001600182028036833780820191505090505b50905060006001830390508593505b600084146124db57600a848161248057fe5b0660300160f81b8282806001900393508151811061249a57fe5b60200101907effffffffffffffffffffffffffffffffffffffffffffffffffffffffffffff1916908160001a905350600a84816124d357fe5b04935061246e565b819450505050505b919050565b60006124fa836000018360001b612bb1565b905092915050565b600081600001805490509050919050565b505050565b600061252a836000018360001b612bd4565b905092915050565b6000612544836000018360001b612cbc565b905092915050565b6000612578846000018460001b8473ffffffffffffffffffffffffffffffffffffffff1660001b612d2c565b90509392505050565b6000818360000180549050116125e2576040517f08c379a0000000000000000000000000000000000000000000000000000000008152600401808060200182810382526022815260200180613b3c6022913960400191505060405180910390fd5b8260000182815481106125f157fe5b9060005260206000200154905092915050565b60008082846000018054905011612666576040517f08c379a0000000000000000000000000000000000000000000000000000000008152600401808060200182810382526022815260200180613c6b6022913960400191505060405180910390fd5b600084600001848154811061267757fe5b906000526020600020906002020190508060000154816001015492509250509250929050565b600073ffffffffffffffffffffffffffffffffffffffff168273ffffffffffffffffffffffffffffffffffffffff161415612740576040517f08c379a00000000000000000000000000000000000000000000000000000000081526004018080602001828103825260208152602001807f4552433732313a206d696e7420746f20746865207a65726f206164647265737381525060200191505060405180910390fd5b61274981611df0565b156127bc576040517f08c379a000000000000000000000000000000000000000000000000000000000815260040180806020018281038252601c8152602001807f4552433732313a20746f6b656e20616c7265616479206d696e7465640000000081525060200191505060405180910390fd5b6127c860008383612513565b61281981600160008573ffffffffffffffffffffffffffffffffffffffff1673ffffffffffffffffffffffffffffffffffffffff16815260200190815260200160002061253290919063ffffffff16565b506128308183600261254c9092919063ffffffff16565b50808273ffffffffffffffffffffffffffffffffffffffff16600073ffffffffffffffffffffffffffffffffffffffff167fddf252ad1be2c89b69c2b068fc378daa952ba7f163c4a11628f55a4df523b3ef60405160405180910390a45050565b60008084600101600085815260200190815260200160002054905060008114158390612958576040517f08c379a00000000000000000000000000000000000000000000000000000000081526004018080602001828103825283818151815260200191508051906020019080838360005b8381101561291d578082015181840152602081019050612902565b50505050905090810190601f16801561294a5780820380516001836020036101000a031916815260200191505b509250505060405180910390fd5b5084600001600182038154811061296b57fe5b9060005260206000209060020201600101549150509392505050565b600081600001805490509050919050565b60006129b98473ffffffffffffffffffffffffffffffffffffffff16612e08565b6129c65760019050612ba9565b6000612b3063150b7a0260e01b6129db611e0d565b888787604051602401808573ffffffffffffffffffffffffffffffffffffffff1681526020018473ffffffffffffffffffffffffffffffffffffffff16815260200183815260200180602001828103825283818151815260200191508051906020019080838360005b83811015612a5f578082015181840152602081019050612a44565b50505050905090810190601f168015612a8c5780820380516001836020036101000a031916815260200191505b5095505050505050604051602081830303815290604052907bffffffffffffffffffffffffffffffffffffffffffffffffffffffff19166020820180517bffffffffffffffffffffffffffffffffffffffffffffffffffffffff8381831617835250505050604051806060016040528060328152602001613b5e603291398773ffffffffffffffffffffffffffffffffffffffff16612e539092919063ffffffff16565b90506000818060200190516020811015612b4957600080fd5b8101908080519060200190929190505050905063150b7a0260e01b7bffffffffffffffffffffffffffffffffffffffffffffffffffffffff1916817bffffffffffffffffffffffffffffffffffffffffffffffffffffffff191614925050505b949350505050565b600080836001016000848152602001908152602001600020541415905092915050565b60008083600101600084815260200190815260200160002054905060008114612cb05760006001820390506000600186600001805490500390506000866000018281548110612c1f57fe5b9060005260206000200154905080876000018481548110612c3c57fe5b9060005260206000200181905550600183018760010160008381526020019081526020016000208190555086600001805480612c7457fe5b60019003818190600052602060002001600090559055866001016000878152602001908152602001600020600090556001945050505050612cb6565b60009150505b92915050565b6000612cc88383612e6b565b612d21578260000182908060018154018082558091505060019003906000526020600020016000909190919091505582600001805490508360010160008481526020019081526020016000208190555060019050612d26565b600090505b92915050565b6000808460010160008581526020019081526020016000205490506000811415612dd357846000016040518060400160405280868152602001858152509080600181540180825580915050600190039060005260206000209060020201600090919091909150600082015181600001556020820151816001015550508460000180549050856001016000868152602001908152602001600020819055506001915050612e01565b82856000016001830381548110612de657fe5b90600052602060002090600202016001018190555060009150505b9392505050565b60008060007fc5d2460186f7233c927e7db2dcc703c0e500b653ca82273b7bfad8045d85a47060001b9050833f9150808214158015612e4a57506000801b8214155b92505050919050565b6060612e628484600085612e8e565b90509392505050565b600080836001016000848152602001908152602001600020541415905092915050565b6060612e9985612e08565b612f0b576040517f08c379a000000000000000000000000000000000000000000000000000000000815260040180806020018281038252601d8152602001807f416464726573733a2063616c6c20746f206e6f6e2d636f6e747261637400000081525060200191505060405180910390fd5b6000808673ffffffffffffffffffffffffffffffffffffffff1685876040518082805190602001908083835b60208310612f5a5780518252602082019150602081019050602083039250612f37565b6001836020036101000a03801982511681845116808217855250505050505090500191505060006040518083038185875af1925050503d8060008114612fbc576040519150601f19603f3d011682016040523d82523d6000602084013e612fc1565b606091505b50915091508115612fd657809250505061308b565b600081511115612fe95780518082602001fd5b836040517f08c379a00000000000000000000000000000000000000000000000000000000081526004018080602001828103825283818151815260200191508051906020019080838360005b83811015613050578082015181840152602081019050613035565b50505050905090810190601f16801561307d5780820380516001836020036101000a031916815260200191505b509250505060405180910390fd5b949350505050565b604051806101400160405280600073ffffffffffffffffffffffffffffffffffffffff168152602001600060ff168152602001600060ff16815260200160008019168152602001600081526020016000815260200160008152602001600060038111156130fc57fe5b81526020016000600281111561310e57fe5b81526020016000151581525090565b600061313061312b846138e0565b6138af565b90508281526020810184848401111561314857600080fd5b613153848285613a1d565b509392505050565b60008135905061316a81613a9a565b92915050565b60008135905061317f81613ab1565b92915050565b60008135905061319481613ac8565b92915050565b6000813590506131a981613adf565b92915050565b600082601f8301126131c057600080fd5b81356131d084826020860161311d565b91505092915050565b6000813590506131e881613af6565b92915050565b6000813590506131fd81613b0d565b92915050565b60008135905061321281613b24565b92915050565b60006020828403121561322a57600080fd5b60006132388482850161315b565b91505092915050565b6000806040838503121561325457600080fd5b60006132628582860161315b565b92505060206132738582860161315b565b9150509250929050565b60008060006060848603121561329257600080fd5b60006132a08682870161315b565b93505060206132b18682870161315b565b92505060406132c2868287016131ee565b9150509250925092565b600080600080608085870312156132e257600080fd5b60006132f08782880161315b565b94505060206133018782880161315b565b9350506040613312878288016131ee565b925050606085013567ffffffffffffffff81111561332f57600080fd5b61333b878288016131af565b91505092959194509250565b6000806040838503121561335a57600080fd5b60006133688582860161315b565b925050602061337985828601613170565b9150509250929050565b6000806040838503121561339657600080fd5b60006133a48582860161315b565b92505060206133b5858286016131ee565b9150509250929050565b600080604083850312156133d257600080fd5b60006133e085828601613185565b92505060206133f185828601613203565b9150509250929050565b6000806000806080858703121561341157600080fd5b600061341f87828801613185565b945050602061343087828801613203565b935050604061344187828801613203565b9250506060613452878288016131ee565b91505092959194509250565b60006020828403121561347057600080fd5b600061347e8482850161319a565b91505092915050565b60006020828403121561349957600080fd5b60006134a7848285016131d9565b91505092915050565b600080604083850312156134c357600080fd5b60006134d1858286016131d9565b92505060206134e285828601613203565b9150509250929050565b6000602082840312156134fe57600080fd5b600061350c848285016131ee565b91505092915050565b61351e8161392c565b82525050565b61352d8161392c565b82525050565b61353c8161393e565b82525050565b61354b8161393e565b82525050565b61355a8161394a565b82525050565b613569816139f9565b82525050565b613578816139f9565b82525050565b61358781613a0b565b82525050565b600061359882613910565b6135a2818561391b565b93506135b2818560208601613a2c565b6135bb81613a61565b840191505092915050565b60006135d360138361391b565b91507f496e76616c6964207465616d20626574206f6e000000000000000000000000006000830152602082019050919050565b600061361360128361391b565b91507f496e76616c696420616d6f756e742062657400000000000000000000000000006000830152602082019050919050565b6000613653602f8361391b565b91507f4e6f7420616c6c6f77656420746f20626574206f6e2073616d65206d6174636860008301527f206d6f7265207468616e206f6e636500000000000000000000000000000000006020830152604082019050919050565b610140820160008201516136c36000850182613515565b5060208201516136d66020850182613796565b5060408201516136e96040850182613796565b5060608201516136fc6060850182613551565b50608082015161370f6080850182613778565b5060a082015161372260a0850182613778565b5060c082015161373560c0850182613778565b5060e082015161374860e0850182613560565b5061010082015161375d61010085018261357e565b50610120820151613772610120850182613533565b50505050565b613781816139e2565b82525050565b613790816139e2565b82525050565b61379f816139ec565b82525050565b60006020820190506137ba6000830184613524565b92915050565b60006020820190506137d56000830184613542565b92915050565b60006020820190506137f0600083018461356f565b92915050565b60006020820190508181036000830152613810818461358d565b905092915050565b60006020820190508181036000830152613831816135c6565b9050919050565b6000602082019050818103600083015261385181613606565b9050919050565b6000602082019050818103600083015261387181613646565b9050919050565b60006101408201905061388e60008301846136ac565b92915050565b60006020820190506138a96000830184613787565b92915050565b6000604051905081810181811067ffffffffffffffff821117156138d6576138d5613a5f565b5b8060405250919050565b600067ffffffffffffffff8211156138fb576138fa613a5f565b5b601f19601f8301169050602081019050919050565b600081519050919050565b600082825260208201905092915050565b6000613937826139c2565b9050919050565b60008115159050919050565b6000819050919050565b60007fffffffff0000000000000000000000000000000000000000000000000000000082169050919050565b600081905061398e82613a72565b919050565b60008190506139a182613a86565b919050565b60006fffffffffffffffffffffffffffffffff82169050919050565b600073ffffffffffffffffffffffffffffffffffffffff82169050919050565b6000819050919050565b600060ff82169050919050565b6000613a0482613980565b9050919050565b6000613a1682613993565b9050919050565b82818337600083830152505050565b60005b83811015613a4a578082015181840152602081019050613a2f565b83811115613a59576000848401525b50505050565bfe5b6000601f19601f8301169050919050565b60048110613a8357613a82613a5f565b5b50565b60038110613a9757613a96613a5f565b5b50565b613aa38161392c565b8114613aae57600080fd5b50565b613aba8161393e565b8114613ac557600080fd5b50565b613ad18161394a565b8114613adc57600080fd5b50565b613ae881613954565b8114613af357600080fd5b50565b613aff816139a6565b8114613b0a57600080fd5b50565b613b16816139e2565b8114613b2157600080fd5b50565b613b2d816139ec565b8114613b3857600080fd5b5056fe456e756d657261626c655365743a20696e646578206f7574206f6620626f756e64734552433732313a207472616e7366657220746f206e6f6e20455243373231526563656976657220696d706c656d656e7465724552433732313a207472616e7366657220746f20746865207a65726f20616464726573734552433732313a206f70657261746f7220717565727920666f72206e6f6e6578697374656e7420746f6b656e4552433732313a20617070726f76652063616c6c6572206973206e6f74206f776e6572206e6f7220617070726f76656420666f7220616c6c4552433732313a2062616c616e636520717565727920666f7220746865207a65726f20616464726573734552433732313a206f776e657220717565727920666f72206e6f6e6578697374656e7420746f6b656e456e756d657261626c654d61703a20696e646578206f7574206f6620626f756e64734552433732313a20617070726f76656420717565727920666f72206e6f6e6578697374656e7420746f6b656e4552433732313a207472616e73666572206f6620746f6b656e2074686174206973206e6f74206f776e4552433732314d657461646174613a2055524920717565727920666f72206e6f6e6578697374656e7420746f6b656e4552433732313a20617070726f76616c20746f2063757272656e74206f776e65724552433732313a207472616e736665722063616c6c6572206973206e6f74206f776e6572206e6f7220617070726f766564a26469706673582212204ab343be3683a57092bd66c88ea82bd5614e5e7c5cfe92687895296d9b372c3e64736f6c63430007060033",
  "immutableReferences": {},
  "source": "pragma solidity ^0.7.0;\npragma abicoder v2;\n\nimport \"@chainlink/contracts/src/v0.7/ChainlinkClient.sol\";\nimport \"@openzeppelin/contracts/token/ERC721/ERC721.sol\";\n// import \"@openzeppelin/contracts/math/SafeMath.sol\";\nimport \"@openzeppelin/contracts/utils/Counters.sol\";\n\n/*\n * @notice SmartBet core smart contract. Handles matches, bets and farming\n */\ncontract SmartBet is ERC721, ChainlinkClient {\n\n    using Counters for Counters.Counter;\n    //using SafeMath for uint256;\n\n    ////////////////////////////////////////\n    //                                    //\n    //         STATE VARIABLES            //\n    //                                    //      \n    ////////////////////////////////////////\n    // contract owner adress\n    address private owner;\n\n    // incremented for match id generation\n    Counters.Counter private matchIds;\n\n    // incremented id for NFT minting\n    Counters.Counter private tokenIds;\n\n    // total funds available\n    uint256 public totalTreasury;\n\n    // flag to determine if contracts core functionalities can be performed\n    bool circuitBreaker = false;\n\n    address private oracle;\n    bytes32 private jobId;\n    uint256 private fee;\n\n    enum MatchResult {NOT_DETERMINED, DRAW, TEAM_A_WON, TEAM_B_WON}\n    enum MatchState {NOT_STARTED, STARTED, FINISHED}\n\n    uint8 private constant TEAM_A = 1;\n    uint8 private constant TEAM_B = 2;\n\n    struct Match {\n        address creator;\n        uint8 oddsTeamA;\n        uint8 oddsTeamB;\n        bytes32 matchResultLink;\n        uint256 totalPayoutTeamA;\n        uint256 totalPayoutTeamB;\n        uint256 totalCollected;\n        MatchResult result;\n        MatchState state;\n        bool exists;\n    }\n\n    // NFT issued to winner\n    struct SmartAsset {\n        uint256 tokenId;\n        address owner;\n        uint256 initialValue;\n        uint8 accruedInterest;\n    }\n\n    // holds all NFTs issued to winners\n    mapping(address => SmartAsset[]) assets;\n\n    // holds all created matches (key: idCounter)\n    mapping(uint256 => Match) matches;\n\n    // holds all bets on a match\n    // mapping(matchId => mapping(team => mapping(address => amount[]))) matchBets;\n    mapping(uint256 => mapping(uint8 => mapping(address => uint256))) matchBets;\n\n    mapping(bytes32 => uint256) matchResultRequestIds;\n\n\n    ////////////////////////////////////////\n    //                                    //\n    //           CONSTRUCTOR              //\n    //                                    //      \n    ////////////////////////////////////////\n\n    constructor() ERC721(\"SmartBet\", \"SMBT\") {\n        owner = msg.sender;\n        // setPublicChainlinkToken();\n        oracle = 0x2f90A6D021db21e1B2A077c5a37B3C7E75D15b7e;\n        jobId = \"29fa9aa13bf1468788b7cc4a500a45b8\";\n        fee = 0.1 * 10 ** 18; // 0.1 LINK\n    }\n\n    ////////////////////////////////////////\n    //                                    //\n    //              EVENTS                //\n    //                                    //      \n    ////////////////////////////////////////\n\n    //Can be used by the clients to get all matches in a particular time\n    event LogMatchAdded(address indexed creator, uint256 matchId, uint256 indexed startAt);\n    //Can be used by the clients to get all bets placed by a better in a particular time\n    event LogBetAdded(address indexed bettor, uint256 indexed matchId, uint256 amount, uint256 indexed betAt);\n    event LogCloseMatch(address indexed by, uint256 indexed matchId);\n    event LogSetResult(uint256 indexed matchId, MatchResult result);\n    event LogWithdrawal(address indexed by, uint256 indexed matchId, uint256 amount);\n\n\n    ////////////////////////////////////////\n    //                                    //\n    //              MODIFIERS             //\n    //                                    //      \n    ////////////////////////////////////////\n\n    /*\n    *  @notice  Restrict caller only owner\n    */\n    modifier onlyOwner() {\n        require(msg.sender == owner);\n        _;\n    }\n\n    /*\n    *  @notice  Ensure match does not previously exist\n    */\n    modifier isNewMatch(uint256 _matchId) {\n        require(!matches[_matchId].exists);\n        _;\n    }\n\n    /*\n    *  @notice  Ensure match exists\n    */\n    modifier matchExists(uint256 _matchId){\n        require(matches[_matchId].exists);\n        _;\n    }\n\n    /*\n    *  @notice  Ensure match has not started\n    */\n    modifier matchNotStarted(uint256 _matchId){\n        require(matches[_matchId].state == MatchState.NOT_STARTED);\n        _;\n    }\n\n    /*\n    *  @notice  Ensure match has started\n    */\n    modifier matchStarted(uint256 _matchId){\n        require(matches[_matchId].state == MatchState.STARTED);\n        _;\n    }\n\n    /*\n    *  @notice  Ensure match has ended\n    */\n    modifier matchFinished(uint256 _matchId){\n        require(matches[_matchId].state == MatchState.FINISHED);\n        _;\n    }\n\n    /*\n    *  @notice Checks if core functionalities can be performed\n    *  @dev Checks if the circuitBreaker state variable is false\n    */\n    modifier isCircuitBreakOff() {\n        require(!circuitBreaker);\n        _;\n    }\n\n    /*\n    *  @notice Checks if the NFT is valid\n    *  @dev Validates NFT\n    */\n    modifier validateToken(uint256 _tokenId) {\n        require(_exists(_tokenId));\n        _;\n    }\n    \n    /*\n    *  @notice  Ensure token belongs to the caller\n    */\n    modifier isTokenOwner(uint256 _tokenId) {\n        require(ownerOf(_tokenId) == msg.sender);\n        _;\n    }\n\n    /*\n    *  @notice  Ensures bets are allowed on the match\n    *  @dev     The totalCollected on the match must be greater than the total payout on the team the bettor wants to bet on. The incoming bet is inclusive in the calculation\n    */\n    modifier isBetAllowed(uint256 _matchId) {\n        require(true);\n        _;\n    }\n\n\n\n    ////////////////////////////////////////\n    //                                    //\n    //              FUNCTIONS             //\n    //                                    //      \n    ////////////////////////////////////////\n\n    /*\n    *  @notice  Contract Circuit Breaker\n    *  @dev     Admin can [de]activate core functons in contract\n    *  @param   \n    *  @return  success success status\n    */\n    function toggleCircuitBreaker()\n        public \n        onlyOwner\n    {\n        //code\n        circuitBreaker = !circuitBreaker;\n    }\n    \n    \n    /*\n    *  @notice  New match creation\n    *  @dev     \n    *  @param   \n    *  @return  match Id\n    */\n    function createMatch(bytes32 _matchResultLink, uint8 _oddsTeamA, uint8 _oddsTeamB, uint256 _startAt)\n        public \n        onlyOwner\n        returns(uint)\n    {\n        matchIds.increment();\n        uint256 matchId = matchIds.current();\n        matches[matchId] = Match(msg.sender, _oddsTeamA, _oddsTeamB, _matchResultLink, 0, 0, 0, MatchResult.NOT_DETERMINED, MatchState.NOT_STARTED, true); \n        emit LogMatchAdded(msg.sender, matchId, _startAt);\n\n        return matchId;\n    }\n\n\n    /*\n    *  @notice  New bet creation. Mint NFT to bettor\n    *  @dev   \n    *  @param  \n    *  @return  success success status\n    */\n    function placeBet(uint128 _matchId, uint8 _teamBetOn)\n        public \n        payable\n        matchExists(_matchId) \n        matchNotStarted(_matchId) \n        isBetAllowed(_matchId)\n        returns(uint256)\n    {\n        require(_teamBetOn == TEAM_A || _teamBetOn == TEAM_B, \"Invalid team bet on\");\n        require(msg.value != 0, \"Invalid amount bet\");\n        //TODO confirm if we want to allow users bet multiple times on the same bet\n        require(matchBets[_matchId][_teamBetOn][msg.sender] != 0, \"Not allowed to bet on same match more than once\");\n\n        address bettor = msg.sender;\n        uint256 amountBet = msg.value;\n        \n        //Save bettor's bet\n        matchBets[_matchId][_teamBetOn][bettor] = amountBet;\n        \n        //update team's total payout\n        if (_teamBetOn == TEAM_A) {\n            matches[_matchId].totalPayoutTeamA += amountBet;\n        } else {\n            matches[_matchId].totalPayoutTeamB += amountBet;\n        }\n\n        //increase totalCollected on the match\n        matches[_matchId].totalCollected += amountBet;\n\n        uint256 betSlipId = _awardBetSlip(bettor);\n        \n        emit LogBetAdded(bettor, _matchId, amountBet, block.timestamp);\n\n        return betSlipId;\n    }\n\n    function _awardBetSlip(address bettor) internal returns (uint256) {\n        tokenIds.increment();\n\n        uint256 newBetSlipId = tokenIds.current();\n        _mint(bettor, newBetSlipId);\n\n        return newBetSlipId;\n    }\n\n\n    /*\n    *  @notice  Match manual close by admin. Trigger \"getResult()\" \n    *  @dev   \n    *  @param  \n    *  @return  success success status\n    */\n    function closeMatch(uint128 _matchId)\n        public \n        onlyOwner\n        matchExists(_matchId) \n        matchStarted(_matchId)\n    {\n        matches[_matchId].state = MatchState.FINISHED;\n        getMatchResult(_matchId);\n        \n        emit LogCloseMatch(msg.sender, _matchId);\n    }\n\n\n    /*\n    *  @notice  Funds withdrawal by winner\n    *  @dev     validated   NFT is burned and caller gets value funds in account\n    *  @param   _tokenId    NFT token id\n    *  @return  success success status\n    */\n    function withdraw(uint128 _tokenId)\n        public \n        payable\n        validateToken(_tokenId)\n        returns(bool success)\n    {\n        //code\n\n        //emit LogWithdrawal(by, matchId, amount);\n        return true;\n    }\n\n    /*\n    *  @notice  Fetch match details\n    *  @dev         \n    *  @oaram   _matchId\n    *  @return match match details\n    */\n    function getMatch(uint256 _matchId)\n        public \n        view\n        matchExists(_matchId)\n        returns(Match memory match_)\n    {       \n    //         struct Match {\n    //     address creator;\n    //     uint8 oddsTeamA;\n    //     uint8 oddsTeamB;\n    //     bytes32 matchResultLink;\n    //     uint256 totalPayoutTeamA;\n    //     uint256 totalPayoutTeamB;\n    //     uint256 totalCollected;\n    //     MatchResult result;\n    //     MatchState state;\n    //     bool exists;\n    // }\n    // uint8, uint8, bytes32, uint256, uint256, uint256, MatchResult, MatchState, bool\n        // return (matches[_matchId].oddsTeamA, matches[_matchId].oddsTeamB, matches[_matchId].matchResultLink, matches[_matchId].totalPayoutTeamA, \n        // matches[_matchId].totalPayoutTeamB, matches[_matchId].totalCollected, matches[_matchId].result, matches[_matchId].state, matches[_matchId].exists);\n        return matches[_matchId];\n    }\n\n\n    /*\n    *  @notice  Fetch match result with a call through ChainlinkClient.\n    *  @dev     ChainlinkClient Oracle. Callback function \"setMatchResult()\"\n    *  @oaram   _matchId\n    *  @return request ID\n    */\n    function getMatchResult(uint256 _matchId)\n        internal \n        view\n        matchFinished(_matchId)\n    {\n        // Chainlink.Request memory request = buildChainlinkRequest(jobId, address(this), this.setMatchResult.selector);\n        \n        // // Set the URL to perform the GET request on\n        // request.add(\"get\", matches[_matchId].matchResultLink);\n        \n        // // Set the path to find the desired data in the API response, where the response format is:\n        // request.add(\"path\", \"api.results.fixtures[0].goalsHomeTeam\");\n        \n        // // Sends the request\n        // bytes32 requestId = sendChainlinkRequestTo(oracle, request, fee);\n        // matchResultRequestIds[requestId] = _matchId;\n    }\n\n     /*\n    *  @notice  Set Match results\n    *  @dev   \n    *  @param  \n    *  @return  success success status\n    */\n    function setMatchResult(bytes32 _requestId, uint8 _matchResult)\n        public \n        matchExists(matchResultRequestIds[_requestId]) \n        matchFinished(matchResultRequestIds[_requestId])\n    {\n        uint256 matchId = matchResultRequestIds[_requestId];\n        matches[matchId].result = MatchResult(_matchResult);\n        emit LogSetResult(matchId, matches[matchId].result);\n    }\n    \n    /*\n    *  @notice  Fetch all NFTs (SmartAssets)\n    *  @dev             \n    *  @return  assets Array of all NFTs\n    */\n    // function allSmartAssets()\n    //     public \n    //     view\n    //     returns(SmartAsset[] memory _assets)\n    // {\n    //     //code        \n    // }\n\n\n    /*\n    *  @notice  Fetch single NFT (SmartAsset)\n    *  @dev          \n    *  @param   _tokenId\n    *  @return  asset NFT details\n    */\n    // function getSmartAsset(uint256 _tokenId)\n    //     public \n    //     view\n    //     isAssetOwner(_tokenId)\n    //     returns(SmartAsset asset)\n    // {\n    //     //code        \n        \n    // }\n    \n}\n",
  "sourcePath": "/Users/ajibigad/crytoproject/SmartBet/contracts/SmartBet.sol",
  "compiler": {
    "name": "solc",
    "version": "0.7.6+commit.7338295f.Emscripten.clang"
  },
  "schemaVersion": "3.3.4",
  "updatedAt": "2021-04-05T13:08:07.762Z",
  "networkType": "ethereum",
  "devdoc": {
    "kind": "dev",
    "methods": {
      "approve(address,uint256)": {
        "details": "See {IERC721-approve}."
      },
      "balanceOf(address)": {
        "details": "See {IERC721-balanceOf}."
      },
      "baseURI()": {
        "details": "Returns the base URI set via {_setBaseURI}. This will be automatically added as a prefix in {tokenURI} to each token's URI, or to the token ID if no specific URI is set for that token ID."
      },
      "getApproved(uint256)": {
        "details": "See {IERC721-getApproved}."
      },
      "isApprovedForAll(address,address)": {
        "details": "See {IERC721-isApprovedForAll}."
      },
      "name()": {
        "details": "See {IERC721Metadata-name}."
      },
      "ownerOf(uint256)": {
        "details": "See {IERC721-ownerOf}."
      },
      "safeTransferFrom(address,address,uint256)": {
        "details": "See {IERC721-safeTransferFrom}."
      },
      "safeTransferFrom(address,address,uint256,bytes)": {
        "details": "See {IERC721-safeTransferFrom}."
      },
      "setApprovalForAll(address,bool)": {
        "details": "See {IERC721-setApprovalForAll}."
      },
      "supportsInterface(bytes4)": {
        "details": "See {IERC165-supportsInterface}. Time complexity O(1), guaranteed to always use less than 30 000 gas."
      },
      "symbol()": {
        "details": "See {IERC721Metadata-symbol}."
      },
      "tokenByIndex(uint256)": {
        "details": "See {IERC721Enumerable-tokenByIndex}."
      },
      "tokenOfOwnerByIndex(address,uint256)": {
        "details": "See {IERC721Enumerable-tokenOfOwnerByIndex}."
      },
      "tokenURI(uint256)": {
        "details": "See {IERC721Metadata-tokenURI}."
      },
      "totalSupply()": {
        "details": "See {IERC721Enumerable-totalSupply}."
      },
      "transferFrom(address,address,uint256)": {
        "details": "See {IERC721-transferFrom}."
      }
    },
    "version": 1
  },
  "userdoc": {
    "kind": "user",
    "methods": {},
    "version": 1
  }
}